:020000040800F2
:1000000000200020D1940008099200080B920008FB
:1000100000000000000000000000000000000000E0
:100020000000000000000000000000000D92000829
:1000300000000000000000000F920008119200086C
:100040002195000800000000219500082195000876
:1000500021950008219500082195000821950008A8
:100060000000000021950008219500082195000856
:100070002195000821950008219500080000000046
:1000800045920008000000000000000021950008D3
:1000900000000000219500082195000855920008F5
:1000A0002195000821950008219500082195000858
:0800B000799200080000000035
:1000B80010B5064C2378002B07D1054B002B02D036
:1000C800044800E000BF0123237010BDA0000020F9
:1000D800000000004CDA0008044B10B5002B03D0D8
:1000E8000349044800E000BF10BDC04600000000FE
:1000F800A40000204CDA0008002243088B4274D385
:1001080003098B425FD3030A8B4244D3030B8B4210
:1001180028D3030C8B420DD3FF22090212BA030C19
:100128008B4202D31212090265D0030B8B4219D3FA
:1001380000E0090AC30B8B4201D3CB03C01A52411A
:10014800830B8B4201D38B03C01A5241430B8B4262
:1001580001D34B03C01A5241030B8B4201D30B034B
:10016800C01A5241C30A8B4201D3CB02C01A524172
:10017800830A8B4201D38B02C01A5241430A8B4235
:1001880001D34B02C01A5241030A8B4201D30B021E
:10019800C01A5241CDD2C3098B4201D3CB01C01A38
:1001A800524183098B4201D38B01C01A5241430942
:1001B8008B4201D34B01C01A524103098B4201D330
:1001C8000B01C01A5241C3088B4201D3CB00C01A9D
:1001D800524183088B4201D38B00C01A5241430815
:1001E8008B4201D34B00C01A5241411A00D201463A
:1001F800524110467047FFE701B5002000F006F8AD
:1002080002BDC0460029F7D076E770477047C04660
:100218008446100062468C461900634600E0C046DA
:100228001FB501F0DBFF002801D40021C8421FBD23
:1002380010B501F01DFF4042013010BD10B501F0AE
:10024800CDFF002801DB002010BD012010BDC046F5
:1002580010B501F0C3FF002801DD002010BD01200A
:1002680010BDC04610B501F049FF002801DC002090
:1002780010BD012010BDC04610B501F03FFF002899
:1002880001DA002010BD012010BDC0469E2110B526
:10029800C905041C03F0C0F8002803D1201C00F095
:1002A800F9FE10BD9E21201CC90500F0B1FC00F02C
:1002B800F1FE80231B069C466044F2E770B50022DD
:1002C8000C4B04000D00FFF7D7FF002804D12000D5
:1002D800290002F013FF70BD064B00222000290000
:1002E80002F0B2FA02F00AFF80231B069C46604423
:1002F800F1E7C0460000E04170B50600080002F0D2
:1003080067FF0022064B01F0D7FF0D000400300004
:1003180002F05EFF2B00220000F072FF70BDC046A5
:100328000000F0414A02F8B5530ACE4699464B0000
:10033800C90F4746884646004502360E1B0E80B553
:10034800C40F6F0A9209AD09F11A44454BD0002930
:1003580038DD002B00D174E0FF2E00D1BEE08023F1
:10036800DB041A431B2900DCFDE0013D6B0100D4CE
:10037800AFE001256D42AD01AF09380003F056F832
:100388003B0005388340864200DCD3E0B94D311A82
:100398001D405A0700D19EE00F221340042B00D1C4
:1003A80099E004356B0100D495E0481CFE2951D131
:1003B800FF200023C0051843E4072043C0BCB9460A
:1003C800B046F8BD002949D0991B002E72D1002DE6
:1003D80000D133E14C1E012900D159E1FF2900D198
:1003E8004CE121006CE0002900DC81E0002B55D1B4
:1003F800002A70D04B1E012900D12BE1FF296DD0B6
:100408001B2B50DC190020235B1A10009A40C840AF
:10041800531E9A410243AD188023DB041D4200D1CC
:10042800ADE0711CFE2EC3D001206A082840924D11
:10043800154005436A0700D08BE01D42B5D1EF088F
:1004480034E0002A47D04B1E012966D0FF2945D049
:10045800190087E7C0B2AB015B0AABE7FE239C46F5
:10046800701C03006046184200D092E0002E00D0B5
:10047800E7E0002D00D119E1002A17D08023AF1A38
:10048800DB041F4200D142E14446551B00D187E0FE
:1004980001201D42DFD10021EF0807E0FF2E1DD00B
:1004A8001B2900DC94E031000535EF087B025B0A6C
:1004B800C8B27FE7FF2B00D1E0E08020C0040543ED
:1004C8001B2900DC88E0551E44461E00690100D542
:1004D8004FE731000435EF08FF29E7D1002F00D19D
:1004E80066E78023DB033B435B02FF205B0A61E78F
:1004F800002958D0991B002E00D089E0002D00D18A
:100508009DE04E1E012900D1A4E0FF2900D1B6E0EC
:100518001B2E00DDB8E0310081E0AA1A530100D497
:10052800AFE09701BF09380002F080FF3B000538B3
:10053800834001261D00811B20200131CD40411A36
:100548008B40591E8B411D432AD000216B0700D1D7
:10055800F0E00F232B40042B00D022E76B0100D5DD
:1005680023E7EF08A2E720235B1A10009A40C8404F
:10057800531E9A410243AD1A6B0100D5FBE66B0787
:1005880000D1D5E00F2331002B40042B00D008E721
:10059800A1E7AF1A7B014ED4002F00D0EDE600246E
:1005A8000020002306E7FE23711C0B4221D1002EF8
:1005B80000D081E0002D00D19FE0002A00D1B2E0F8
:1005C800AB185A0100D4B0E09B0101205B0AF1E6A8
:1005D8008023DB041A4316E720242800C840611A48
:1005E8008D4029004C1EA141014344461E00551A66
:1005F800C2E7FF2900D1DBE6AF187F087B0705D0EB
:100608000F233D1D3B40042B00D064E7FF084DE756
:10061800FF2B34D01B2937DC8020C0040543280079
:100628002026C840711A8D4029004D1EA94101435A
:100638001E008D18F0E64446571B9EE644461500FA
:1006480049E7002D46D1002A66D180230024FF20E7
:10065800DB03AFE6AA18530113D5074F520817401A
:10066800530744D00F231340042B40D002213D1DD3
:1006780031E7C046FFFFFFFBFFFFFF7D44464F46C3
:100688002CE70121D70811E705321900D7080DE733
:10069800571B7B0137D5BF01BF09380002F0C6FEE2
:1006A8003B00053883404446013643E7002A00D121
:1006B80075E744464F46F9E6002DE0D08023DB037A
:1006C800002A17D09F4200D20BE7994500D308E7CC
:1006D8004F4606E78023DB03002A0BD09F4200D257
:1006E800FFE6994500D3FCE644464F46F9E6022169
:1006F800FF08DBE6FF203B435CE6002A00D14FE71A
:100708000021D708D2E644460121FF08CEE6002F93
:1007180000D07BE7002443E780234A46DB034446B6
:10072800FF20134346E60021C0E60021DF08BDE6AE
:100738003100D0E601206A0100D58BE62A00DFE708
:10074800F0B546464F46D6464502C0B5C30F4700EA
:1007580098460E1C6D0A3F0E5BD0FF2F21D08023D8
:10076800ED00DB041D43002399469A467F3F74023F
:100778007300640A1B0EF60F002B20D0FF2B43D00A
:1007880080220020E400D20414437F3B4246FF1A33
:100798004B4672400F2B00D99DE071499B00CB5806
:1007A8009F46002D5AD108239946063B74029A4663
:1007B8007300FF27640A1B0EF60F002BDED1002CF6
:1007C8003BD1012342464946724019430E2918D8A5
:1007D8006448890041588F465346022B00D1B8E03F
:1007E800032B6ED042462C00012B40D10020002460
:1007F800C0052043D2071043E0BCBA46B146A8461C
:10080800F0BDFF200024F3E7002C20D10223FF3F96
:10081800D8E7002D05D104239946033B00279A46C3
:10082800A5E7280002F002FE7627431F9D4000231B
:100838007F4299469A463F1A99E7200002F0F6FD52
:10084800431F9C4076235B421B1A00209EE703232C
:100858004A461A4391460320FC3397E70C239946EE
:10086800093BFF279A4682E703282CD0320038003C
:100878007F30002847DD630704D00F232340042B73
:1008880000D00434230103D53800374B80301C4096
:10089800FE28B6DCA401640AC0B2A9E780240022BD
:1008A800FF20E403A4E78023DB031D4201D01C42A0
:1008B8000BD08024E4032C4364024246FF20640AE0
:1008C80096E746462C008023DB031C436402320073
:1008D800FF20640A8CE76D01600185422DD21B233D
:1008E8000024013F0126290064006D00002901DB76
:1008F800854201D32D1A3443013B002BF3D16B1EE3
:100908009D412C43B3E701231B1A1B2B00DD6DE728
:1009180021009E37D940BC400B00611E8C41234307
:10092800590704D00F211940042900D00433590174
:1009380013D49B0100205C0A5AE71A2301242D1ABC
:10094800D0E7981E43425841404232000024C0B2CA
:100958004EE74246FF2000244AE70120002447E7EB
:1009680078DA0008B8DA0008FFFFFFF7F0B54F465D
:100978004646D6464502C0B546000F1C6D0A360EDF
:10098800C40F002E00D1CDE0FF2E72D08023ED00E1
:10099800DB041D43002399469A467F3E7B025B0A8F
:1009A80098467B001B0EFF0F002B72D0FF2B00D147
:1009B800A9E07F3BF6184B460A2B00DD85E043464D
:1009C8008022DB00D2041A434B4690467C4000222A
:1009D800022B0FDD494601238B40A621C9000B429B
:1009E80000D072E0902189000B4200D0DAE0882123
:1009F800194267D1280C42462D042D0C4346290084
:100A080012041B0C120C51435D4342435843AD186A
:100A18000B0C5B199A4203D9802252029446604417
:100A280009041A04090C52189501691E8D411B0C02
:100A3800920E1B1815439B011D431B0100D5CFE0E7
:100A480030007F30002800DCB1E06B070BD00F23AB
:100A580032002B40042B06D004352B0103D58032FD
:100A680010006A4B1D40FE2864DCAB015B0AC0B273
:100A78001FE0002D00D08FE008239946063B9A46D8
:100A88007B025B0A98467B00FF261B0EFF0F002B9C
:100A98008CD14346002B5CD14A4601331A43914618
:100AA80013000A2A11DC01227C40022B92DC002070
:100AB8000023C0051843E4072043E0BCBA46B1460A
:100AC800A846F0BD3C00454692465346022B31D01D
:100AD800032B11D0012BEAD030008030721C002883
:100AE80066DD6B07B9D00F232B40042BB4D1B4E7D4
:100AF8000F2A7AD03C0045468023DB032B435B0258
:100B0800FF205B0AD5E74346FF36002B34D14A461F
:100B1800023313430A2BD8DC7C40002A0AD09946BA
:100B2800022257E7002D08D104239946033B0026EB
:100B38009A4633E7FF200023BBE7280002F076FC43
:100B48007626431F9D400023764299469A46361AD8
:100B580024E7404602F06AFC4B46361A763E0A2BDA
:100B6800B3DC43460538834098464B4600227C4018
:100B7800022B00DD2EE73DE703234A461A43130004
:100B88000A2AB5DC01229A40882113007C400322FE
:100B9800194200D12EE795E70C239946093BFF2619
:100BA8009A46FBE680230024FF20DB0381E732001E
:100BB80001231B1A1B2B00DD79E79E322900954083
:100BC800D9406A1E95410D436B0704D00F232B4073
:100BD800042B00D004356B0113D50120002368E7EE
:100BE80001236A081D40154376E78023DB031D4275
:100BF80082D042461A4200D07EE73C00FF201343D1
:100C080057E7AB0100205B0A53E7C046FFFFFFF739
:100C1800F8B54746CE464B02460080B5C40F47029A
:100C2800580A844648007A0A360EBF09000ECD0FCE
:100C38009B09FF286DD001214D40311AAC423AD0B2
:100C4800002900DC9CE1002800D19EE0FF2E00D1A5
:100C580088E08022D20413431B2900DCF6E0013F20
:100C68007A0100D479E001277F42BF01BB09984689
:100C7800404602F0DBFB434605388340864200DCF1
:100C8800CCE0B44F311A1F405A0768D00F221340E6
:100C9800042B64D004377B0161D5481CFE2900D0A1
:100CA80081E0FF200023C0051843E4072043C0BCAF
:100CB800B946B046F8BD002900DC79E1002876D1B4
:100CC800002B4CD0481E012900D147E1FF2949D00B
:100CD8001B2871DC01001A002020CA40411A8B40F1
:100CE800591E8B411343FF188023DB041F4200D198
:100CF800B8E0711CFE2ED4D0012297483A407F08F4
:100D0800074017437A0700D096E01F42C5D1FA087A
:100D180055E03100FF398946002B2CD101214D4087
:100D2800AC4200D1B4E0494600294CD0002E00D096
:100D3800F9E0FF21002F00D108E14A1E012900D166
:100D480056E1FF2900D142E11B2A00DC24E15F1EA5
:100D58002C0006007A0100D585E731000437FA082F
:100D6800FF292CD1002A9CD08023DB0313435B028C
:100D7800FF205B0A97E7AC4200D1A7E0002922D008
:100D8800002ED6D062462C00EEE7002BE7D0481E96
:100D9800012936D0FF29E5D001005DE701203B009D
:100DA8007A0100D457E1C0B2BB015B0A7BE7FF2E92
:100DB800D8D01B2900DC9FE031000537FA08530220
:100DC8005B0AC8B26FE7FE20711C084254D1002E9E
:100DD80000D0B1E0002F00D102E1002B00D1F9E0F2
:100DE8008021FA1AC9040A4200D13BE10124DF1B21
:100DF8002C40002F49D001200F42D5D10021FA08FC
:100E0800DDE7FF1A7B0100D4DEE0BD01AD09280053
:100E180002F00CFB2B000538834001262022811BA1
:100E28000131521A1F009340CF405A1E93411F436D
:100E38002BD000217B07B1D00F233B40042B00D0DF
:100E480028E77B0100D528E7FA08B8E71A00202030
:100E5800CA40411A8B40591E8B411343FF1A7B012C
:100E680000D502E77B0700D10DE10F2331003B409D
:100E7800042B00D00EE772E7FA1A9046520156D4B6
:100E88004346002B00D0F3E60024002000230AE7A5
:100E9800494600291CD0002E00D002E7FF21002F70
:100EA80055D04A1E012959D0FF2900D190E01B2AAC
:100EB80000DD91E011003A002025CA40691A8F40F0
:100EC800791E8F4117430600FF180DE7002926D128
:100ED800FE20711C084213D1002E00D096E0002F8E
:100EE80000D1B4E0002B75D0FB185A0100D4B2E051
:100EF8009B015B0AFD38D6E68022D2041343EAE65A
:100F0800FF2900D1CDE6FA185208530705D00F2360
:100F1800171D1340042B00D021E7D2084FE7002EFD
:100F2800BCD0624620E72C00FF200023BBE601244A
:100F3800DB1B98462C409BE6002F75D1002B00D078
:100F480096E080230024FF20DB03ACE62C001F0082
:100F580005E7C046FFFFFFFBFFFFFF7DFB185A01B7
:100F680000D48DE04A4A5B081A40590700D18CE04A
:100F78000F210B400D39042BCFD00221171DEEE6AF
:100F8800002900D11FE7821B1100002E00D1D1E6F5
:100F98008021C9040F43D7E639002024D140A21A82
:100FA80097407A1E97410F432C000600DF1B56E737
:100FB80000298DD0811B002E00D170E71B290BDC86
:100FC8008022D204174376E70121FA08F7E62C00BD
:100FD8006246C7E60021F2E605330100DA08EEE6CC
:100FE800002B00D150E70124002162462C40E6E6A0
:100FF800DA1B530132D592019409200002F016FA47
:101008002300053883402C00012607E7002FDFD096
:10101800002B17D08023DB039A4200D2A4E69C451C
:1010280000D3A1E662469FE6002B0BD08023DB03AA
:101038009A4200D298E69C4500D395E60124624680
:101048002C4091E68023DB03FF2013432BE600208E
:10105800002B00D127E60021DA08B0E62C00012198
:10106800D208ACE6002A00D10EE70021D208A6E695
:10107800802362460124DB03FF2013432C4012E641
:101088000121DA089BE6310069E60221D20896E6DA
:10109800FFFFFF7D41024200C30F490A0020120EE4
:1010A8007E2A03DD9D2A02DD094A981870478020B0
:1010B80000040143952A07DC9620821AD140484251
:1010C800002BF3D10800F1E7963A9140F7E7C046C4
:1010D800FFFFFF7F70B5002812D0C317C5185D4009
:1010E800C40F280002F0A2F99E231B1A962B0FDCCE
:1010F800082838D0083885406D026D0AD8B202E059
:10110800002400200025C0052843E407204370BDC3
:10111800992B14DC421F95402A00154911405507A8
:101128001CD00F252A40042A18D00431CA084901C6
:1011380015D59F235202181A550AC0B2E3E70200D8
:1011480029001B3291404A1E91410522121AD540AE
:101158002A000A43064911405507E2D1CA0852023B
:10116800550AD8B2CFE76D026D0A8E30CBE7C0467C
:10117800FFFFFFFB10B5041E0DD002F057F99E23A8
:101188001B1A962B0CDC082834D0083884406402DB
:10119800640AD8B201E000200024C005204310BD35
:1011A800992B13DC421F9440144A224061071CD03B
:1011B8000F212140042918D00432D408520115D532
:1011C8009F236402181A640AC0B2E6E702002100ED
:1011D8001B3291400A00511E8A410521091ACC4050
:1011E8001443064A22406107E2D1D4086402640A23
:1011F800D8B2D2E76402640A8E30CEE7FFFFFFFB65
:10120800F0B54F464646D646C0B50D0382B00092AB
:1012180001934E00C300CC0F690A450F9C46009A03
:10122800019B0D435F001903D80F009B490A5B0F10
:101238001943009B760D7F0DDA00F31B844258D0CA
:10124800002B13DD002F00D088E00800104300D1E8
:1012580059E1581E012B00D1C2E2B14FBB4200D167
:1012680041E1382800DD6AE2030064E1002B00D187
:10127800B1E0BB1B002E00D0E1E164462C4300D155
:1012880076E25C1E012B00D1E8E2A54EB34200D104
:10129800B7E2382C00DC6BE3541EA2429241524262
:1012A8008D1AA0461E0004002A0268D443461F1D5A
:1012B80047459B415B42ED182B0200D49DE3984AB9
:1012C8000136964200D1EBE0964A73052A405B0D41
:1012D8005107FF0852020F43120B1B051343E40783
:1012E80023433800190002B0E0BCBA46B146A8460C
:1012F800F0BD002B00DCD7E0002F00D09AE00800FA
:10130800104300D1FFE0581E012B00D148E2844F62
:10131800BB4200D1E7E0382800DCB8E280221204A2
:10132800154200D149E31E000023150098467C4B66
:1013380001369E4200D1B3E07A4B01211D4043465D
:101348005A081940EF070A4317436D087B07B3D0C3
:101358000F233B40042BAFD0B846A7E7704886421E
:1013680000D1C0E0382B00DCE2E001235B4263449B
:101378009C45804140422D1A98462B0296D5012360
:101388005B429846684D280002F050F80300083B7D
:1013980020214046CA1AD040020040469D4098404D
:1013A8002A438046B34200DA72E1981B4346013073
:1013B800091A45468B40C5405E1EB34117008F4051
:1013C8002B431F43C2403B00150000261343BDD1E9
:1013D8000027002281E7554F731C3B4200D01BE1D8
:1013E80063460F002B431743002E00D0C4E1002BA7
:1013F80000D145E2002F00D107E163469B1A9846C9
:10140800C445B6416B1A76429B1B8026360433428C
:1014180000D1CBE26346D31A9A4292411F00491B7E
:1014280052428A1A9C46174300D0EDE2040000237A
:10143800002252E73A48864255D0382B00DD48E171
:101448008020000401431F2B00DDE3E12027F81A68
:10145800824608005746B840814610004F46D8409B
:10146800074338005746BA40D940571EBA416D184D
:10147800104360448046E045804140422D182B02CD
:1014880000D554E743465B0700D1B9E20F23424633
:101498001340042B00D009E733004246D20834E059
:1014A80033000022002718E7002B00D18FE0BB1B78
:1014B800002E00D033E16046284300D140E2581E98
:1014C800012B00D10AE2164EB34200D185E238283A
:1014D80000DC87E280252D04294200D19CE21E0011
:1014E8000023984623E763466E07D8080643ED08AD
:1014F80037002F4311D0802212032A4312033700EA
:10150800074B120BE9E66246D2086E071643044AF7
:10151800ED089342ECD03700D6E0014B0022DCE620
:10152800FF070000FFFF7FFFFFFF7F00FE070000AF
:101538008020000401431F2B00DDB1E02027F81AAA
:10154800824608005746B840814610004F46D840AA
:10155800074338005746BA40D940571EBA416D1A5A
:10156800104363461B1A9C458041984640422D1AF9
:101578002B0287D56D026D0A002D00D003E7404687
:1015880001F054FF030018331F2B00DC00E742462C
:10159800083882409E4200DD91E09B1B581C1F28A2
:1015A80000DCF8E117001F3BDF40202805D040236E
:1015B8001B1A9A40531E9A411743002F3CD000260D
:1015C8007B0700D0C4E63500B846330065E7CB4852
:1015D800731C034200D085E063462B43002E00D0E5
:1015E80092E10F001743002B00D1D8E1002F0CD057
:1015F8006244624580416D1840422D182B0200D587
:10160800F2E1170094462F4316D063466F07D808B7
:1016180007430023ED0857E063469B1A9846C445E4
:10162800BF416B1A7F42DB1B1F0200D5AEE0474665
:101638001D001F43A0D10024002300224DE6B04C1A
:10164800A74200D1DDE0382B00DD85E080242404AA
:1016580025431F2B00DDECE02026F41AA1462C00C0
:101668004E46B4406646DE403443A04666464C4685
:10167800A640DD40741EA6414446491B3443131B53
:101688009A4292415242984604003E008D1A6FE7F2
:10169800F61A03009B4D15405B0700D0F6E6FBE603
:1016A80018000F002038C740202B03D04020C31A51
:1016B80099400A43531E9A411000384351E7914913
:1016C800F31A0A405707D5082A035B05120B5B0D6E
:1016D80003E680231B041D4200D1BBE01D0000234C
:1016E800984624E68648834200D1DAE66244624599
:1016F8008041691840420918C807520810438046BB
:101708004D08520705D00F221E000240042A00D0BF
:10171800CCE542466F07D20817430D09D4E778484D
:10172800874200D1D5E0382B00DCB2E080252D04BB
:10173800294200D14CE100233E009846F7E50122FA
:10174800524262449445804140422D1A90461E0000
:101758002A0200D513E6A9E5531E9A429241524245
:101768008D1A984604003E002B0200D507E69DE539
:1017780004000D00D208C8E6002B00D0E3E0002FDB
:101788003FD1802200245E4B1203A6E56346D31A9C
:101798009A4292414D1B524298460400AD1AEBE61C
:1017A80062441600664580416A18404212181302C6
:1017B80000D49DE0534973080A40D10719435708DC
:1017C8005B0700D1FEE00F230B40042B00D1F9E0AA
:1017D8000B1D98468845AD416D420223ED195CE624
:1017E80063469B1A9C4580416D1A40422D1A9846C3
:1017F8002B020DD443466F07DB081F43ED08012376
:1018080062E74E07D20804001643CD0870E60400CC
:101818000126AFE618000F002038C740202B03D060
:101828004020C31A99400A43531E9A411000384376
:101838001FE61C002E00203CE640202B05D040244B
:10184800E31A9D4063462B439C466446631E9C41B5
:10185800344314E701236344984627E56346D31AC3
:101868009A4292414D1B5242AD1A98462B02CED451
:1018780043466F07DB081F4304000123ED0823E7F5
:10188800002F00D1D7E604000D009446BDE6030002
:10189800D9E58020000405431F2B6BDC2020C01AEB
:1018A800804628004646B0406646DE400643B146BC
:1018B80060464646B040DD40461EB0414E46491996
:1018C8003043804690449045924152423E0055181C
:1018D800D5E54E07D2081643CD0809E663469E189B
:1018E80096429241691852428A18130200D561E75C
:1018F8005707F60801233743D508E5E6FE07000039
:10190800FF070000FFFF7FFF002BE2D06346DE08E1
:101918006B071E430B00ED08134300D1E8E5802355
:101928001B031D4206D0C808184203D10500D6087B
:1019380049070E43730FF600F6085B071E43D7E509
:101948000D00D208E1E56346DE086B071E43ED088B
:10195800002F00D1CCE580231B031D42EAD0CF081D
:101968001F42E7D1D608490704003D000E43E1E7CE
:1019780023006EE618002E002038C640202B05D024
:101988004020C31A9D4063462B439C466046431E35
:101998009841304395E720210023091A0EE50023DA
:1019A800002F00D1BAE50D00904676E547461F4363
:1019B80000D140E61D00C44627E601226244904655
:1019C8001E0073E4C9087F0702230F4315097BE64D
:1019D800531C98460D003E0068E4D6084B071E438A
:1019E800CD0885E5030057E7114BD2082B405F0768
:1019F80017435A02120B01236FE43300B8464CE533
:101A08004346DA08330080E532420AD0084B040026
:101A18001A40674601235BE4013290460D001E0020
:101A280044E4DB0857071F4304000023D5084BE6AE
:101A3800FFFF7FFFF0B5DE46454657464E46E0B508
:101A480087B0009201930B031B0B9B46CA0F4B00F8
:101A5800040080465B0D029200D1BFE08F4A93429A
:101A680038D05946420FC9000A438021090411435E
:101A7800C20090468A4A894692469A440023002426
:101A88000393009E019F3B031B0B7A0030009B468B
:101A9800520DFD0F002A00D17FE0804B9A426ED094
:101AA8005946730FC9000B438021090419438B461B
:101AB8007B49F3008C46514662448A1A92460021BB
:101AC800029E6E40F6B20F2C00D9F9E0754AA400C8
:101AD800125997465A460243914600D0B6E09A46B4
:101AE8000223904608240393CBE72E00002100230D
:101AF800002288461B051343F60733434046190066
:101B080007B0F0BCBB46B246A946A046F0BDCB46DE
:101B18004346029D0399022900D1FAE1032900D125
:101B2800A1E00129E1D0604A524490464446002C85
:101B380000DC00E25A0704D00F221A40042A00D021
:101B48007FE22E00DA085B46DB0106D55946574B83
:101B5800802419408B46E4005444554B9C4209DCD0
:101B68005B465B07134398465B4664055A02120BB3
:101B7800630DBFE7002100228846484BBAE75B4661
:101B8800009A13434B4A9446E244002B59D102224F
:101B9800144300220221934692E75B46009A1343BE
:101BA80049D05B46002B00D1A4E1584601F03EFC29
:101BB800030002000B3B1D27009EFB1A110058462C
:101BC800DE4008398840330003439B46009B8B4026
:101BD800394952448A460021924471E75B460343DF
:101BE800994621D05B46002B00D171E1584601F09F
:101BF8001DFC0B235B429C460200844466461D2361
:101C08009B1B260011005846DE40083988403300E7
:101C18000343994623008B409846284B00249B1A7F
:101C28009A46002303932CE7002398469A460133EB
:101C38000424039325E7012214430022012193463B
:101C48003EE7032303211C43330039E79A46032365
:101C5800D9460C24039314E70023802298460026D3
:101C68000E4B120346E78022594612030A43120319
:101C780098462E00094B120B3CE780224946120376
:101C8800114202D059461142F0D080224B4612032D
:101C98001A431203029E014B120B2BE7FF070000A9
:101CA80001FCFFFFF4DA0008FF030000FFFFFFFE5E
:101CB800FE07000001F8FFFFF30300000DFCFFFF23
:101CC800CB4500D2FAE000D1F5E001225242944619
:101CD8000022444648469046E2445A461F0E1202E5
:101CE8001B020293130C994617433B041B0C4946ED
:101CF8000093FEF787FA009A0B044243210C050073
:101D080019438A4207D9C919013D8F4203D88A422B
:101D180001D9851EC919881A4946FEF773FA009A2F
:101D2800240442430904240C03000C43A24204D9AE
:101D3800E419013BA74200D8F7E00299A01A2D0444
:101D48000C0C09041D43090C2A0C2B04AB460D008E
:101D58001B0C5D43059163435143049462435B1834
:101D68002C0CE318994203D9802149028C4662441D
:101D7800190C2D041B042D0C8A185D19904200D2F1
:101D880087E000D182E043465D1BA8459B41801A4D
:101D98005B42C01AB14B534498461C00874200D19D
:101DA8000CE14946FEF72EFA0200009B03905A43C5
:101DB8000B04290C19438A420AD90300C919013BAB
:101DC80003938F4204D88A4202D9831E0393C91908
:101DD800881A4946FEF716FA0A00120494462A049D
:101DE80065460099120C414303002A43914207D9E2
:101DF800D2190138974203D8914201D9981ED219B5
:101E0800039B521A1B0403430598190C05008C46C2
:101E18001904090C4D4389466146009565464843B7
:101E280004994D43AC464D464D432918009D2D0C51
:101E3800A9464944884203D9802040028146CC44BF
:101E4800009D080C2D0409042D0C60444D19824294
:101E58000FD30BD001221343814A92456CDB1A1D24
:101E68009A429B415B42D2089B446CE6002D00D10C
:101E780093E0591EBA188C46BA4200D285E08242D5
:101E880000D2C7E000D1D5E00B00E3E7A84500D3B6
:101E980079E75B46591E029B9C46E0441C00984526
:101EA8009B415B42DB19C018874238D2824278D8FE
:101EB80075D08B4667E7434500D906E74A46D407FD
:101EC80050084246520814434246D207904604E757
:101ED80001F0ACFA15239C46844402006346203284
:101EE8001C2B00DC8AE6230008388340994600232F
:101EF800984692E601F09AFA030002001533203260
:101F08001C2B00DC57E600990838814000238B46DB
:101F18005EE600212E0000228846524BEAE5874201
:101F2800C7D14445C2D98B462DE7A24200D804E761
:101F3800831EE41901E72E0001224146521A382A6D
:101F480000DDD3E51F2A3FDC47481C0050445946B2
:101F580083408140D440581E834121430B43594656
:101F6800D1400A00590709D00F211940042905D08A
:101F7800191D99429B415B42D2180B00110268D58A
:101F88000021012300228846B4E50B00824200D0DC
:101F980060E7029A954200D05CE73500C6E5454502
:101FA80087D902235B429C46029BE3449C46E0445B
:101FB80098459B415B42DB19C018E4E6002B36DDEF
:101FC800012300229B44BEE51F2140464942091ACD
:101FD8005846C8400100202A04D05846234A524493
:101FE800904003435A1E934107200B4301000022EF
:101FF8001940184209D00F21194004291FD0181D73
:1020080098428941030049424907DB080B43984637
:1020180000236FE50299023B49008C4602998C45E2
:1020280089414942C919521861460291AEE7012314
:102038005B4281E70299A942ECD36346A9E70021F4
:10204800E3E71A1D9A429B415B422E00D2089B444B
:1020580079E551075202120BD7E7C046FF0300008B
:1020680002FCFFFFFF0700001E0400003E04000002
:10207800F0B55746DE464E464546E0B50D0004002D
:10208800E80F83460903D80F090B82461A488C4685
:102098001F0369005E00490D3F0B760D81421AD07F
:1020A800864211D00120B1420FD1BC450DD1A242C8
:1020B8000BD1D3451ED0002907D1614611430A0030
:1020C800531E9A41100000E00120F0BCBB46B24606
:1020D800A946A046F0BD01208E42F6D1614639439B
:1020E8000F0017432743F0D15B465246981A431E08
:1020F8009841EAE70020E8E7FF070000F0B55746F7
:102108004E464546DE46E0B50D000E034900490D32
:102118008A46DF0FE90FBC4683B02F4F0400804684
:102128000191580019039146360B090B400DBA4529
:102138001DD0B8420DD05746002F2AD1344300286D
:1021480024D10A4336D0002C41D1634658000138C7
:1021580015E0114338D15346002B01D12643F4D062
:10216800019B634507D1019B5800013807E02643CE
:102178002AD1504521D00120019B5F42384303B04A
:10218800F0BCBB46B246A946A046F0BD002CDCD048
:10219800E6E70028EFD0019B6345ECD18245EADCF5
:1021A800E1DB8E42E7D8DED1C845E4D80020C84537
:1021B800E5D2D8E7002CE2D0DDE7114304D1019B3A
:1021C8006345D8D10020DAE702204042D7E7019BD7
:1021D8006345E6D0CFE7C046FF070000F0B5574695
:1021E8004E464546DE46E0B50D000E034900490D52
:1021F8008A46DF0FE90FBC4683B02E4F04008046A5
:102208000191580019039146360B090B400DBA4548
:102218001ED0B8420DD05746002F27D1344300288E
:1022280033D10A4334D0002C40D1634658000138DA
:1022380015E0114312D15346002B01D12643F4D0A7
:10224800019B63451DD00120019B5F42384306E096
:10225800264303D15045F6D111431CD0022003B0C8
:10226800F0BCBB46B246A946A046F0BD0028EAD05D
:10227800019B6345E7D18245E5DC02DB8E42E2D86B
:102288000ED0019B58000138E9E7002CCDD0D7E7E4
:10229800002CE4D0D7E7019B00206345DFD0D2E7CC
:1022A800C845D0D80020C845D9D2EAE7019B634584
:1022B800E4D0C8E7FF070000F0B557464E4645464C
:1022C800DE46E0B51F000B031B0B16009846CA0F2D
:1022D8004B000400924685B05B0D00D1C2E1CC4AA8
:1022E800934200D128E14146420FC9000A438021A8
:1022F80009041143C2009146C64A884693469B4446
:102308000023002501933C037A00FB0F3000240BC7
:10231800520D009300D185E1BD4B9A4200D160E196
:10232800BC4B9C46624493440A2D00DD14E1730FB4
:10233800E4001C4380231B042343F0005246009909
:1023480000264A409246022D11DD0122AA40A6210C
:102358001400C9000C400A4200D0FDE09021890019
:102368000A4200D0D4E18821114200D0EFE049466A
:102378004A460904140C090C020C0F00150000044D
:10238800000C654347430195B9462F000D00060030
:102398005543AC464D4666432D0CB4446544AE42A5
:1023A80005D93E0080277F02BC46664401964F4609
:1023B8003F043F0C2E0C2D04ED1902951D0C1B0437
:1023C8001B0C00951D001F0065434F43AC46009D44
:1023D80069436C433D0CA946614449448C4503D983
:1023E80080256D02AC4664443F040D0C3F0C090483
:1023F800C919AC467518039545462E04360C2F0CA2
:10240800350045437843804638006444AC462D0C7B
:10241800A9465043724342444A44904503D9802513
:102428006D02A8464044150CA84665462D042D0C9F
:10243800AC4635005D4312046244AC467B43009DC4
:10244800404498462B006E4365467B4346442D0C1A
:10245800AD191F000093A84504D980235B02984654
:1024680047440097039B019E98462B044644984690
:1024780063468E4289411B041B0C4344B6184942EB
:102488001B195F1896429241BC46524280469146BB
:102498008C458941A3429B41E044C14449425B4287
:1024A800914592410B43804589412D0C4942524246
:1024B8000A435B199B18009A029994464A4663445A
:1024C8005B02D20D1A43904672020A43511E8A419A
:1024D800F60D16434A4652021643B146DB0154D460
:1024E8004D4A5A44002A00DC18E133005B0715D036
:1024F8000F215B463140042910D04946081D484544
:1025080089418146494288444146C90106D5414628
:10251800424A114080228846D2009A18404B9A427B
:1025280000DD2BE141464B464C07DB081C435205B6
:102538004B021B0B520D1AE042460243914600D053
:10254800E0E09B460223904608250193DBE6009ACB
:102558009846924681460196019B022B00D10DE1D7
:10256800032B35D0012B1BD1002200230024120598
:102578001A435346DB071A432000110005B0F0BC8C
:10258800BB46B246A946A046F0BD012273083240B8
:1025980013434246D2071343994643465B0898467D
:1025A80080225B46D2005A440133002A00DCB6E0A0
:1025B80049464907A8D00F214846014004299CD123
:1025C800A2E70F2D00D1FDE0009BA0469A46B14638
:1025D800802342461B0313431B034C460C4A1B0B28
:1025E800C5E70B4933008C462343E344002B77D1DE
:1025F800022129430A29AFDC5046009C60408246EC
:10260800002D00D10EE10D00002002269DE6C046F7
:10261800FF07000001FCFFFFFF030000FFFFFFFEB4
:10262800FE070000230033434BD0002C00D1BBE051
:10263800200000F0FBFE030002000B3B1D20C31A24
:102648003000D84011000300300008398C40884021
:10265800234359468A1A78498B4693440A2D00DC4D
:102668006CE679E743460343994623D04346002B5B
:1026780000D187E0404600F0D9FE0B235B429C4620
:102688000200844411004046083988401D238046D2
:1026980060461B1A2000D840030040460343984672
:1026A80023008B409946644B00259B1A9B460023C8
:1026B800019328E6002398469B460133042501939D
:1026C80021E6012215430A2D00DD45E7524600990F
:1026D8004A409246022D00DC46E70020012634E6F7
:1026E80003231D430A2D00DD6BE75346009A88211A
:1026F80053400122AA409A4603262300114200D1E2
:1027080035E624E79B46032381460C250193FAE529
:1027180000239A468023494A1B0328E75B46012188
:10272800891A382900DD1FE71F295ADD1F2040427A
:10273800821A4046D040202908D0414A9446424651
:1027480063449A4013004A461A4391464A46072171
:10275800531E9A410C00024300231440114209D031
:1027680008311140042960D0111D9142A4410A008A
:1027780064426407D20814430022F8E600230024C8
:102788002E4AF4E600F052FE15239C4684440200CB
:10279800634620321C2B00DC74E700239946230093
:1027A8000838834098467EE700F040FE03000200A8
:1027B800153320321C2B00DC40E7330008388340F7
:1027C800002046E7802342461B031A4200D1FFE659
:1027D8001C4200D0FCE6009A234392463400174A74
:1027E800C5E6184A404694464A4663449840CA405B
:1027F80010434A469A40531E9A4143460243CB40EF
:10280800510709D00F211140042905D0111D91420B
:10281800924152429B180A00190208D5012200234E
:102828000024A4E600230024A1E60024A2E75C0714
:102838005B021B0B9EE7C0460DFCFFFFFF07000075
:102848003E0400001E040000F0B54E464546DE4634
:102858005746E0B583B0009001910D034E000199F1
:10286800760DCC0F690A009D6D0F0D4300990092FB
:102878000193C8001903019BCB4A5B005B0D994685
:10288800019B8346DB0F98464B0A0099490F194371
:10289800009BDB009C469A46914500D173E00123DA
:1028A80047465F404B46B846F31ABC4216D0002B49
:1028B80000DC9AE24F46002F00D082E067460F43C3
:1028C80000D13AE15F1E012B00D1A4E2934200D16E
:1028D8002EE1382F00DD43E23B003EE1002B00DC17
:1028E800D7E24F46002F00D0F8E067460F4300D1EB
:1028F80023E15F1E012B00D157E2934200D117E17B
:10290800382F00DC04E380221204154200D1AAE328
:102918001E0015000027A44B01369E4200D103E19A
:102928000122A24B3A401D4079081143EA070A43A5
:102938006D08530709D00F231340042B05D0170047
:102948003A1DBA42BF417F42ED192B0200D477E30A
:10295800954901368E4200D1E6E0944973050D4051
:102968005B0D6907D2086D020A432D0B1B052B432B
:10297800E40723431000190003B0F0BCBB46B2467D
:10298800A946A046F0BD8A4BF21863460B434CD0CB
:10299800444550D0002A6CD0002E00D17DE163461A
:1029A80044464F07DA081743C8083A00024300D1E3
:1029B800CDE080252D0305432D033A007A4B2D0BDE
:1029C800D4E7964200D1B3E0382B00DCC2E0471EC2
:1029D800B842804140422D1A2B02B1D50127754DCE
:1029E8007F42280000F022FD0838202339001A1AF7
:1029F8008540D14087402943B04200DA45E1801B39
:102A080001301B1A3D009F40C5407A1E97410A00BD
:102A18009A402F433A43C14013000D0000260B4350
:102A280000D086E700220025A0E7474601235F4043
:102A3800B8464445AED1002A00D1EFE0002E00D0C0
:102A480088E14B462A00024300D1A0E25A1E012B1E
:102A580000D1B7E2544EB34200D17BE1382A00DC02
:102A680012E380252D04294200D112E31E0000271D
:102A780051E7514A731C134200D0F4E062462B0020
:102A88000A430343002E00D074E1002B00D123E257
:102A9800002A00D1E0E06346C71AB8429241802676
:102AA8006B1A52429B1A3604334200D1C1E2634684
:102AB800181A844592414D1B5242AD1A0124020056
:102AC80043462A431C40002A00D1DBE0354200D1AE
:102AD800E9E2364B02001D40012342E7964227D027
:102AE800382B00DD11E18022120411431F2B00DD79
:102AF800A1E120220F00D21A914697406246DA409F
:102B08001743B84662464F46BA40D940571EBA41A5
:102B180047466D1817433F188742804140422D1899
:102B28002B0200D5F7E634E03300002500221DE72C
:102B3800C0086F070743E80837E7C7086A0717435D
:102B4800194AE808934200D12FE73A00D8E0164B1B
:102B580000250BE78022120411431F2B00DDB7E08C
:102B680020220F00D21A914697406246DA40174356
:102B7800B84662464F46BA40D940571EBA41474602
:102B88006D1A1743C71BB842804140422D1A2B02C9
:102B980016D47B0700D179E20F233B40042B00D0E9
:102BA800CEE63300FF08C9E7FF070000FFFF7FFFFD
:102BB80001F8FFFFFFFF7F00FE07000044460126E3
:102BC8006D026D0A002D00D00BE7380000F02EFCD6
:102BD800030018301F2800DC07E73900083B99403C
:102BE800864200DD87E0831B581C1F2800DC14E2A6
:102BF8000A001F3BDA40202805D040231B1A9940C1
:102C08004B1E99410A43002A3CD00026530700D0A6
:102C180091E6170035003300FF088FE7CA4A731C96
:102C280013427AD12B000343002E00D092E1624672
:102C38000A43002B00D1F4E1002A0DD06346C718DF
:102C4800874280416D1840422D182B0200D512E2B0
:102C58003A00BB462A4315D05B466A07DF083A4369
:102C68000023E8084CE06346C71AB84292416B1A41
:102C780052429B1A1A0200D587E03A001D001A43F7
:102C8800A0D100240023002570E6B04D361A0D406F
:102C98007B0700D080E7330084E74B462A000243D5
:102CA8007ED05A1E012B00D11FE1A94CA34200D1AE
:102CB80098E1382A00DC9CE16246571EBC459241E7
:102CC80052428D1A44461E002A0200D586E637E68F
:102CD8001A000F00203AD740B846202B05D04022D2
:102CE800D31A994063460B439A4657467B1E9F4129
:102CF80043461F4346E7954A331A11404A07C80816
:102D080005035B052D0B5B0D30E680231B041D427C
:102D180000D1FBE01D000027FDE58D4A934200D15C
:102D280003E76246821882428041691840420818C7
:102D3800C707520817434508520700D4AEE10F22CF
:102D48001E003A40042A00D0FAE5FF086A073A4311
:102D58000009D5E763464F07DA081743C80824E691
:102D6800471EB842804140422D1A1E002A0200D553
:102D780034E6E5E5002B00D00DE1002A00D069E13A
:102D880080250024724B2D03F0E563461F1ABC45CD
:102D98009241012443464D1B5242AD1A1C4011E793
:102DA800624644460D00D708C8E66346C618864200
:102DB80080416918404209180B0200D40CE1634BAA
:102DC80070081940CB0703434A08400700D43BE189
:102DD8000F201840042800D136E11F1D9F42AD4145
:102DE8006D420223AD18FF08A8E6002B00D140E68B
:102DF8004B469B1B002E00D150E7382B2EDD634637
:102E08005F1EBC45924152428D1A44464E462B02E3
:102E180000D5E3E594E56346C71AB84280416D1AC8
:102E280040422D1A2B0200D5C9E66A07FF08012384
:102E38003A43E80864E71A000F00203AD740B8463A
:102E4800202B05D04022D31A994063460B439A465B
:102E580057467B1E9F4143461F435CE680223C0049
:102E6800120415431F2B26DC20222F00D21A06003D
:102E780090409740DE40421E9041DD403743074373
:102E8800491B6346DF1BBC45924152424E468D1A90
:102E98007DE6002B00D1C1E64B469B1B002E00D1DE
:102EA800D0E5382B36DD80252D04294200D1DDE020
:102EB8004E4600272FE51A002E00203AD640202B38
:102EC80005D04022D31A9D402F000743BB465F46DA
:102ED8007B1E9F413743D4E7002A00D1D1E6012465
:102EE80043460D00E3461C40B6E663461F1ABC4540
:102EF80092414D1B5242AD1A2B0200D55EE66A077D
:102F0800FF08444601233A43E808F9E6471C17E559
:102F18003B00EBE58022120415431F2B6CDC2022BA
:102F28002F00D21A060090409740DE40421E904182
:102F3800DD40374307434919674467459241524288
:102F48004E465518ECE5C046FE070000FFFF7FFF20
:102F5800FF070000002B00D1FCE6C7086B071F43E2
:102F68006346E8080B4300D11FE580231B03184282
:102F780007D0CA081A4204D163461000DF0849077F
:102F88000F437B0FFF00FF085B071F430DE56246F9
:102F98000D00D708D2E5C7086B071F43E808002AC9
:102FA80000D102E580231B031842EAD0CA081A425E
:102FB800E7D163460124DF084346490710000F4361
:102FC8001C40DEE760446045924169185242891806
:102FD80006000B0200D5F2E64A07F6080123324341
:102FE800C8088DE66346DF084B0744461F43C808F8
:102FF800DBE44446130035E71A002E00203AD64099
:10300800202B05D04022D31A9D402F000743BB46F2
:103018005F467B1E9F4137438EE7202300271B1AFC
:10302800F5E40023002A00D192E567460D00FF0869
:1030380084E53A001A4300D123E61D00BB460BE69F
:1030480017003300FF0879E5DB0852071A4308091F
:10305800022355E663460124DA0843464F0717431F
:10306800C8081C40A1E41E00471C69E467460D001F
:103078004E46013764E40F4BFF081D406A076D0296
:1030880001233A432D0B71E4130046E73300FF0890
:1030980054E567460D001E00013751E46A07FF0832
:1030A8003A4300092CE6C0086A0702430023E808EF
:1030B80026E6C046FFFF7FFFF0B5C6461E03360B67
:1030C800B0460D4E0C034D005F0000B5240B6D0D8E
:1030D8007F0DB5420BD0084900208F4204D14646E7
:1030E80016433000431E984180BCB846F0BD0443E7
:1030F8000120002CF8D1EEE7FF0700000B000200CA
:1031080070B5164D0C0382B049000020009201935F
:10311800240B490DDE0FA94204DD1148814203DD6D
:10312800104BF01802B070BD8020400320430E4CB5
:10313800641A1F2C08DD0D4B5B1AD8400300584257
:10314800002EEFD11800EDE7094B009A9C460300CA
:1031580061448B40E2401343F1E7C046FE030000A0
:103168001D040000FFFFFF7F33040000130400006C
:10317800EDFBFFFF70B5002816D0C317C5185D40DA
:10318800C40F280000F052F9104B1B1A5B055B0DA9
:103198000A2814DC02002E00153296400B22121A5F
:1031A800D5402D032D0B03E0002400230025002625
:1031B8001B052B43E40723433000190070BD0B386F
:1031C80085402D0300262D0BF2E7C0461E040000A3
:1031D80010B5041E10D000F029F90E4B1B1A5B0520
:1031E8005B0D0A280FDC0B222100121AD140153082
:1031F8000A038440120B01E0002300221B0513433D
:103208002000190010BD22000B3882401203002450
:10321800120BF3E71E04000070B542024300C40F0E
:10322800FE201B0E591C550A08420CD0E0218900CB
:103238008C466D07120B63441B051343E4072343B5
:103248002800190070BD002B14D1002D1BD02800B8
:1032580000F0ECF80A281CDC0B232A001B1ADA40C1
:10326800030015339D400E4B12031B1A5B05120B0E
:103278005B0DE1E7002D09D0130B802212031A43DE
:103288006D07084BD8E700230022D5E70022054B3D
:10329800D2E703002A000B3B9A400025E3E7C0462B
:1032A80089030000FF070000F0B54B000F035B0D1A
:1032B8003D4C450F83B07F0A5E1C2F43009001915F
:1032C800CA0FC50026420BD038495C18FE2C12DD07
:1032D800FF200023C0051843D207104303B0F0BDF8
:1032E80000203D43002BF5D0002DF1D08023DB03D7
:1032F800FF203B43EEE7002C0CDD009BFF009B0109
:10330800581E8341690F3B430B43590725D1DB08FE
:10331800E0B2DFE7210017312EDB80211E200904EF
:103328003943001B1F282ADD02267642341B0E0073
:10333800E6403400202804D01D4884466344994060
:103348000D432B00591E8B412343072118000840C9
:103358000B421FD19B015B0ABCE70F2119400429CE
:1033680003D19B015B0AE0B2B4E704335901F8D5F5
:1033780001340023E0B2ADE700200023AAE70D4C9A
:103388001C192B00A540C340A140681E8541294354
:103398000B43DAE70F21002419400429E5D19B01EA
:1033A80020005B0A96E7C046FE07000080FCFFFF8E
:1033B800A2FCFFFF82FCFFFF844608006146FFE78E
:1033C8001FB500F0C1F8002801D40021C8421FBD74
:1033D80010B500F049F84042013010BD10B500F0BA
:1033E800B3F8002801DB002010BD012010BDC04645
:1033F80010B500F0A9F8002801DD002010BD01205B
:1034080010BDC04610B500F057F8002801DC0020B8
:1034180010BD012010BDC04610B500F04DF80028C1
:1034280001DA002010BD012010BDC0461C21012377
:103438001B04984201D3000C10391B0A984201D38F
:10344800000A08391B09984201D30009043902A26D
:10345800105C40187047C0460403020201010101D4
:10346800000000000000000070B542004E024C0051
:1034780045026D0A120EC30F760A240EC90FFF2AE1
:1034880010D0FF2C0CD00120A2420AD1B54208D19D
:103498008B420FD0002A04D12800431E984100E037
:1034A800012070BD0120FF2CFBD13543F9D14B40E1
:1034B8001800F6E70020F4E730B5420044024D0258
:1034C800C30F4800640A120E6D0A000EC90FFF2AC6
:1034D80018D0FF280AD0002A1ED100280AD1002DB2
:1034E80029D0002C2DD14800013830BD002D25D120
:1034F800002A01D1002CF6D08B4219D001205B4262
:103508001843F2E7002C19D1FF28F7D1002D15D167
:1035180000208B42F2D1E8E70028EFD08B42EDD1B2
:103528008242EBDC04DBAC42E8D80020AC42DCD2BF
:1035380058000138D9E7002CD7D0DFE702204042F5
:10354800D3E78B42DAD1EEE730B5420044024D02B0
:10355800C30F4800640A120E6D0A000EC90FFF2A35
:1035680017D0FF280AD0002A1BD100280AD1002D25
:103578001DD0002C2DD14800013811E0002D0ED1AE
:10358800002A01D1002CF6D08B420CD1580001380A
:1035980006E0002C03D1FF2805D1002D15D002200C
:1035A80030BD002806D101205B421843F8E7002C03
:1035B800F6D0F8E78B42F6D18242F4DCE6DBAC4287
:1035C800F1D80020AC42EBD2E0E700208B42EAD1F0
:1035D800E6E78B42E7D1F2E7F0B5DE4657464E46BE
:1035E8004546E0B585B08246BE4AFB231600D75C47
:1035F8007B00185AFFF7ECFD04000D00FA23F35C7A
:103608009B4620335B00F3185888FFF7E1FD020062
:103618000B0020002900FEF74FFE009001915B4649
:103628005B005246985AFFF7D3FD04000D003B009B
:1036380020335B00F3185888FFF7CAFD02000B001F
:1036480020002900FEF738FE02000B0000980199BF
:10365800FEF7F0F909F02AFE02900391C0239B00BF
:10366800F3181860596000263CE07B005246985ACF
:10367800FFF7AEFD04000D00B30099465B445B0004
:103688005246985AFFF7A4FD02000B0020002900BB
:10369800FEF712FE009001915B465B005246985A75
:1036A800FFF796FD04000D004B46DB195B00524600
:1036B800985AFFF78DFD02000B0020002900FEF745
:1036C800FBFD02000B0000980199FEF7B3F909F021
:1036D800EDFD844B32005532D2009B1818605960BA
:1036E8000136F6B20A2EC0D97F4B1C685D680022ED
:1036F8007E4B20002900FCF7A1FD002811D10022F3
:103708007A4B20002900FCF7ADFD002812D02200DA
:103718002B0002980399FEF78DF9754B18605960D4
:1037280008E022002B0002980399FEF7C5FD704BB4
:10373800186059606B4BC02292009A18146855683B
:10374800AA229200944663441A685B682000290004
:10375800FCF77EFD002812D0624BC42292009A1812
:103768000020002110605160C62292000121995466
:1037780005B0F0BCBB46B246A946A046F0BD5D4BBD
:103788001E685F6832003B0020002900FCF760FDDE
:10379800002817D032003B0020002900FEF74AF924
:1037A800504C90239B00E3181A685B68FEF784FD71
:1037B800C4239B00E31818605960C6239B000122AC
:1037C800E254D5E74C4B1A685B68009201932000DD
:1037D8002900FCF73DFD00283CD032003B002000CA
:1037E8002900FFF731F804000D0032003B00009873
:1037F8000199FFF729F802000B0020002900FEF7C5
:1038080019F906000F00374B984692239B00434452
:103818001868596890239B0043441C685D6822001F
:103828002B00FFF711F802000B0030003900FEF7FB
:1038380043FD02000B0020002900FDF7E1FCC42332
:103848009B00434418605960C6239B0001224146EF
:10385800CA548DE7294B1E685F6832003B00200080
:103868002900FCF7F5FC00284AD0009A019B2000AB
:103878002900FEF7E9FF04000D00009A019B3000C3
:103888003900FEF7E1FF02000B0020002900FEF7D7
:10389800D1F806000F00134B984694239B0043442D
:1038A8001868596892239B0043441C685D6822008D
:1038B8002B00FEF7C9FF02000B0030003900FEF7AD
:1038C800FBFC02000B0020002900FDF799FCC42333
:1038D8009B00434418605960C6239B00022241465E
:1038E800CA5445E7C8020020000000200000F03F4D
:1038F800C8050020780500208005002088050020E4
:10390800D64B1A685B680092019320002900FCF7E7
:103918009FFC00283CD032003B0020002900FEF725
:1039280093FF04000D0032003B0000980199FEF758
:103938008BFF02000B0020002900FEF77BF8060031
:103948000F00C74B984696239B0043441868596854
:1039580094239B0043441C685D6822002B00FEF7FB
:1039680073FF02000B0030003900FEF7A5FC0200CF
:103978000B0020002900FDF743FCC4239B004344AF
:1039880018605960C6239B0002224146CA54EFE6DC
:10399800B44B1E685F6832003B0020002900FCF72A
:1039A80057FC00283CD0009A019B20002900FEF714
:1039B8004BFF04000D00009A019B30003900FEF710
:1039C80043FF02000B0020002900FEF733F8060031
:1039D8000F00A34B984698239B00434418685968E6
:1039E80096239B0043441C685D6822002B00FEF769
:1039F8002BFF02000B0030003900FEF75DFC0200CF
:103A08000B0020002900FDF7FBFBC4239B00434467
:103A180018605960C6239B0003224146CA54A7E692
:103A2800914B1A685B680092019320002900FCF70B
:103A38000FFC00283CD032003B0020002900FEF794
:103A480003FF04000D0032003B0000980199FEF7C7
:103A5800FBFE02000B0020002900FDF7EBFF06002B
:103A68000F007F4B98469A239B0043441868596877
:103A780098239B0043441C685D6822002B00FEF7D6
:103A8800E3FE02000B0030003900FEF715FC0200CF
:103A98000B0020002900FDF7B3FBC4239B0043441F
:103AA80018605960C6239B0003224146CA545FE64A
:103AB8006E4B1E685F6832003B0020002900FCF74F
:103AC800C7FB00283CD0009A019B20002900FEF784
:103AD800BBFE04000D00009A019B30003900FEF780
:103AE800B3FE02000B0020002900FDF7A3FF06002B
:103AF8000F005B4B98469C239B0043441868596809
:103B08009A239B0043441C685D6822002B00FEF743
:103B18009BFE02000B0030003900FEF7CDFB0200CF
:103B28000B0020002900FDF76BFBC4239B004344D6
:103B380018605960C6239B0004224146CA5417E600
:103B48004B4B1A685B680092019320002900FCF730
:103B58007FFB00283CD032003B0020002900FEF704
:103B680073FE04000D0032003B0000980199FEF737
:103B78006BFE02000B0020002900FDF75BFF06002A
:103B88000F00374B98469E239B004344186859689A
:103B98009C239B0043441C685D6822002B00FEF7B1
:103BA80053FE02000B0030003900FEF785FB0200CF
:103BB8000B0020002900FDF723FBC4239B0043448E
:103BC80018605960C6239B0004224146CA54CFE5B9
:103BD800284B1E685F6832003B0020002900FCF774
:103BE80037FB00284AD0009A019B20002900FEF7E5
:103BF8002BFE04000D00009A019B30003900FEF7EF
:103C080023FE02000B0020002900FDF713FF060029
:103C18000F00134B184A1068516898469E239B0062
:103C280043441C685D6822002B00FEF70DFE02006D
:103C38000B0030003900FEF73FFB02000B002000AC
:103C48002900FDF7DDFAC4239B004344186059603E
:103C5800C6239B0005224146CA5489E590050020E9
:103C6800C802002098050020A0050020A805002013
:103C7800B0050020B8050020480500203A4B1A6816
:103C88005B680092019320002900FCF7E1FA002804
:103C98003AD032003B0020002900FEF7D5FD040091
:103CA8000D0032003B0000980199FEF7CDFD02009F
:103CB8000B0020002900FDF7BDFE06000F002B4B6E
:103CC8002B4A106851689846A0239B0043441C68FF
:103CD8005D6822002B00FEF7B7FD02000B003000E4
:103CE8003900FEF7E9FA02000B0020002900FDF771
:103CF80087FAC4239B00434418605960C6239B007D
:103D080005224146CA5433E5009A019B2000290048
:103D1800FCF7A8FA002800D12AE5154B1E685F6851
:103D2800009A019B30003900FDF784FE02000B0069
:103D380020002900FEF7C0FA0C4BC42292009446DA
:103D480063441860596002000B0030003900FCF72A
:103D580075FA002802D0074B1E605F60034BC6222D
:103D680092000521995403E5C0050020C8020020EF
:103D780050050020D8050020F0B5DE4657464E46CF
:103D88004546E0B587B080467449481CFF3000229C
:103D980000230260436008000930FF30026043607E
:103DA80008001130FF30026043601931FF310A60AA
:103DB8004B60002081465DE068494B1CFF339A4602
:103DC8001A685B68FA20085C4C46A400A446604464
:103DD80040004446245A009400240194009C019D0C
:103DE80012196B4154462260636084235B009A4633
:103DF8008A4453461A685B68FB240C5DA346DC447E
:103E080064466400A44644466546665B00279219EA
:103E18007B4154462260636088235B009A468A444B
:103E280053461A685B684446045BA34644462C5BC9
:103E3800A4465C4665466C430294E4170394029CCE
:103E4800039D12196B415446226063601931FF319A
:103E58000A684B684446005B40430490C0170590CD
:103E6800049C059D12196B410A604B604B46013357
:103E7800DBB299464B460A2B9ED9384B99461133EB
:103E8800FF3318685968FCF737FA0022344BFEF7FD
:103E980013FA04000D004B460133FF3318685968C4
:103EA800FCF72AFA06000F004B460933FF3318685F
:103EB8005968FCF721FA0290039102000B003000C8
:103EC8003900FEF7F9F902000B0020002900FEF77F
:103ED800BBFC009001914B461933FF3318685968B1
:103EE800FCF70AFA00221E4BFEF7E6F904000D0063
:103EF80032003B0030003900FEF7DEF902000B000B
:103F080020002900FEF7A0FC02000B000098019990
:103F1800FDF790FD0A000100009101924B46213304
:103F2800FF3319605A601300020030003900FEF7B1
:103F3800C3F902000B0002980399FEF785FC0022E2
:103F4800074BFDF777FD029003914B462933FF336A
:103F58001860596000239A4689E0C046C8020020CC
:103F680000002640C54AFB239146D35C5246960082
:103F7800F3185B004246985AFFF72AF9029A039B06
:103F8800FEF762FC02000B0000980199FEF794F915
:103F980004000D00FA234A46D35CF618760043461F
:103FA800F05AFFF715F902000B0020002900FDF771
:103FB80027F904000D00009E019F32003B003000ED
:103FC8003900FEF779F90022AD4BFDF719F9020027
:103FD8000B0020002900FDF72DFD04000D005346BD
:103FE8002633DB004B441C605D6002000B00300090
:103FF8003900FEF761F902000B0002980399FDF7FA
:10400800FFF806000F0053463133DB004B441E60B7
:104018005F604B463133FF331868596822002B0024
:10402800FEF712FC02000B00FEF746F904000D0033
:104038004B468933FF331868596832003B00FEF756
:1040480003FC02000B00FEF737F902000B0020000A
:104058002900FDF7D5F809F05FF953463C33DB003A
:104068004B441860596053460133DBB29A465346B5
:104078000A2B00D876E7814AFB231600D35C20334D
:104088005B00D3185888FFF7A3F8029A039BFEF742
:10409800DBFB02000B0000980199FEF70DF9040004
:1040A8000D00FA23F35C20335B00F3185888FFF700
:1040B8008FF802000B0020002900FDF7A1F804008A
:1040C8000D000098019902000B00FEF7F5F8002298
:1040D8006B4BFDF795F802000B0020002900FDF757
:1040E800A9FC04000D00A4239B00F3181C605D606C
:1040F80002000B0000980199FEF7DEF802000B00A1
:1041080002980399FDF77CF8A6239B00F31800900A
:1041180001911860596033003133FF3318685968CA
:1041280022002B00FEF790FB02000B00FEF7C4F8FC
:1041380004000D0033008933FF3318685968009A6A
:10414800019BFEF781FB02000B00FEF7B5F80200A9
:104158000B0020002900FDF753F809F0DDF80400F2
:104168000D00A8239B00F3181C605D603300E13349
:10417800FF331A685B68FCF76BF8002812D03F4BD6
:10418800C42292009A180020002110605160C622B3
:1041980092000121995407B0F0BCBB46B246A9462B
:1041A800A046F0BD374B1E685F6832003B00200018
:1041B8002900FCF74DF8002817D032003B002000FA
:1041C8002900FDF737FC2D4C90239B00E3181A6853
:1041D8005B68FEF771F8C4239B00E3181860596008
:1041E800C6239B000122E254D5E7274B1A685B6877
:1041F8000092019320002900FCF72AF8002845D0F6
:1042080032003B0020002900FEF71EFB04000D00D1
:1042180032003B0000980199FEF716FB02000B00E4
:1042280020002900FDF706FC06000F00134B9846F6
:1042380092239B0043441868596890239B00434489
:104248001C685D6822002B00FEF7FEFA02000B00D6
:1042580030003900FEF730F802000B00200029007A
:10426800FCF7CEFFC4239B00434418605960C62363
:104278009B0001224146CA548DE7C046C80200206F
:104288000000F03FB0040020B8040020D74B1E689F
:104298005F6832003B0020002900FBF7D9FF0028A7
:1042A8003CD0009A019B20002900FEF7CDFA0400BB
:1042B8000D00009A019B30003900FEF7C5FA020094
:1042C8000B0020002900FDF7B5FB06000F00C84BC6
:1042D800984694239B0043441868596892239B008E
:1042E80043441C685D6822002B00FEF7ADFA02000B
:1042F8000B0030003900FDF7DFFF02000B00200043
:104308002900FCF77DFFC4239B00434418605960D3
:10431800C6239B0002224146CA543CE7B54B1A68A3
:104328005B680092019320002900FBF791FF0028A9
:104338003CD032003B0020002900FEF785FA04003B
:104348000D0032003B0000980199FEF77DFA02004B
:104358000B0020002900FDF76DFB06000F00A44BA1
:10436800984696239B0043441868596894239B00F9
:1043780043441C685D6822002B00FEF765FA0200C2
:104388000B0030003900FDF797FF02000B002000FA
:104398002900FCF735FFC4239B004344186059608B
:1043A800C6239B0002224146CA54F4E6924B1E687B
:1043B8005F6832003B0020002900FBF749FF002816
:1043C8003CD0009A019B20002900FEF73DFA04002A
:1043D8000D00009A019B30003900FEF735FA020003
:1043E8000B0020002900FDF725FB06000F00804B7D
:1043F800984698239B0043441868596896239B0065
:1044080043441C685D6822002B00FEF71DFA020079
:104418000B0030003900FDF74FFF02000B002000B1
:104428002900FCF7EDFEC4239B0043441860596043
:10443800C6239B0003224146CA54ACE66F4B1A6858
:104448005B680092019320002900FBF701FF002818
:104458003CD032003B0020002900FEF7F5F90400AB
:104468000D0032003B0000980199FEF7EDF90200BB
:104478000B0020002900FDF7DDFA06000F005C4B59
:1044880098469A239B0043441868596898239B00D0
:1044980043441C685D6822002B00FEF7D5F9020032
:1044A8000B0030003900FDF707FF02000B00200069
:1044B8002900FCF7A5FEC4239B00434418605960FB
:1044C800C6239B0003224146CA5464E64C4B1E682F
:1044D8005F6832003B0020002900FBF7B9FE002886
:1044E8003CD0009A019B20002900FEF7ADF904009A
:1044F8000D00009A019B30003900FEF7A5F9020073
:104508000B0020002900FDF795FA06000F00384B34
:1045180098469C239B004344186859689A239B003B
:1045280043441C685D6822002B00FEF78DF90200E9
:104538000B0030003900FDF7BFFE02000B00200021
:104548002900FCF75DFEC4239B00434418605960B2
:10455800C6239B0004224146CA541CE6294B1A680C
:104568005B680092019320002900FBF771FE002888
:104578004AD032003B0020002900FEF765F904000C
:104588000D0032003B0000980199FEF75DF902002A
:104598000B0020002900FDF74DFA06000F00144B10
:1045A80098469E239B004344186859689C239B00A7
:1045B80043441C685D6822002B00FEF745F90200A1
:1045C8000B0030003900FDF777FE02000B002000D9
:1045D8002900FCF715FEC4239B004344186059606A
:1045E800C6239B0004224146CA54D4E5C0040020D7
:1045F800C8020020C8040020D0040020D8040020ED
:10460800E0040020E8040020604B1E685F68029602
:10461800039732003B0020002900FBF719FE002811
:104628003AD0009A019B20002900FEF70DF90400FA
:104638000D00009A019B30003900FEF705F90200D1
:104648000B0020002900FDF7F5F906000F00504B7C
:10465800504A1068516898469E239B0043441C6842
:104668005D6822002B00FEF7EFF802000B00300017
:104678003900FDF721FE02000B0020002900FCF79D
:10468800BFFDC4239B00434418605960C6239B00A8
:1046980005224146CA547EE53F4B1E685F683200DA
:1046A8003B0020002900FBF7D3FD00283AD0029AEE
:1046B800039B20002900FEF7C7F804000D00029AAA
:1046C800039B30003900FEF7BFF802000B00200002
:1046D8002900FDF7AFF906000F002D4B2F4A10688F
:1046E80051689846A0239B0043441C685D682200DB
:1046F8002B00FEF7A9F802000B0030003900FDF787
:10470800DBFD02000B0020002900FCF779FDC42323
:104718009B00434418605960C6239B00052241460C
:10472800CA5438E532003B0020002900FBF79AFD07
:10473800002800D12FE5194B1A685B681000190092
:1047480032003B0000900191FDF774F9029003914B
:1047580032003B0020002900FEF776F802000B002B
:1047680002980399FDF7A8FD02000B000098019933
:10477800FCF746FD064BC42292009A18106051605F
:10478800C62292000521995405E5C046F004002090
:10479800C802002048050020F80400205005002029
:1047A800F0B5CE46474680B583B08146002638E04E
:1047B8004B465888FEF70CFD04000D00F7004F44E7
:1047C8007888FEF705FD02000B0020002900FDF7A0
:1047D80031F908F06BFD009001914B469888FEF77F
:1047E800F7FC04000D00B888FEF7F2FC02000B008D
:1047F80020002900FDF71EF908F058FD02000B0003
:1048080000980199FCF7FCFC0022CA4BFDF754FD07
:10481800C94B32005532D2009B18186059600136D6
:10482800F6B20A2EC4D94B465888FEF7D1FC0400CC
:104838000D00C14A44239046D05AFEF7C9FC020035
:104848000B0020002900FDF7F5F808F02FFD060001
:104858000F004B469888FEF7BBFC04000D0046236A
:104868004246D05AFEF7B4FC02000B002000290093
:10487800FDF7E0F808F01AFD02000B0030003900DF
:10488800FCF7BEFC0022AB4BFDF716FD06000F003F
:10489800C0239B0043441E605F60A84B1C685D6892
:1048A8000022A74B20002900FBF7C8FC002815D1DF
:1048B8000022A34B20002900FBF7D4FC00281AD0C3
:1048C80022002B0030003900FDF7F6FC0022994B3E
:1048D800FDF7F2FC9B4B186059600CE022002B009E
:1048E80030003900FDF7A6F80022924BFDF7E4FCF2
:1048F800944B18605960904BC02292009A18146823
:104908005568AA229200944663441A685B6820009E
:104918002900FBF79DFC002810D0874BC422920089
:104928009A180020884910605160C622920001211F
:10493800995403B0C0BCB946B046F0BD834B1E685D
:104948005F6832003B0020002900FBF781FC00284B
:1049580017D032003B0020002900FDF76BF8764C99
:1049680090239B00E3181A685B68FDF7A5FCC42335
:104978009B00E31818605960C6239B000122E2548B
:10498800D7E7734B1A685B680092019320002900EF
:10499800FBF75EFC00283CD032003B0020002900D9
:1049A800FDF752FF04000D0032003B00009801990A
:1049B800FDF74AFF02000B0020002900FDF73AF836
:1049C80006000F005C4B984692239B0043441868EE
:1049D800596890239B0043441C685D6822002B00A3
:1049E800FDF732FF02000B0030003900FDF764FCD0
:1049F80002000B0020002900FCF702FCC4239B00E6
:104A0800434418605960C6239B0001224146CA549A
:104A18008FE7504B1E685F6832003B00200029007A
:104A2800FBF716FC00283CD0009A019B20002900C7
:104A3800FDF70AFF04000D00009A019B30003900C1
:104A4800FDF702FF02000B0020002900FCF7F2FF2F
:104A580006000F00384B984694239B00434418687F
:104A6800596892239B0043441C685D6822002B0010
:104A7800FDF7EAFE02000B0030003900FDF71CFCD0
:104A880002000B0020002900FCF7BAFBC4239B009E
:104A9800434418605960C6239B0002224146CA5409
:104AA80047E72D4B1A685B680092019320002900A4
:104AB800FBF7CEFB002851D032003B002000290034
:104AC800FDF7C2FE04000D0032003B00009801997A
:104AD800FDF7BAFE02000B0020002900FCF7AAFF30
:104AE80006000F00144B984696239B004344186811
:104AF800596894239B0043441C685D6822002B007E
:104B0800FDF7A2FE02000B0030003900FDF7D4FBD0
:104B180002000B0020002900FCF772FBC4239B0055
:104B2800434418605960C6239B0002224146CA5478
:104B3800FFE6C0460000E03FC80200200000002059
:104B48000000F03FC8050020000024407805002040
:104B5800800500208805002090050020D54B1E68A0
:104B68005F6832003B0020002900FBF771FB00283A
:104B78003CD0009A019B20002900FDF765FE040047
:104B88000D00009A019B30003900FDF75DFE020020
:104B98000B0020002900FCF74DFF06000F00C64B54
:104BA800984698239B0043441868596896239B00AD
:104BB80043441C685D6822002B00FDF745FE020097
:104BC8000B0030003900FDF777FB02000B002000D6
:104BD8002900FCF715FBC4239B0043441860596067
:104BE800C6239B0003224146CA54A2E6B34B1A6867
:104BF8005B680092019320002900FBF729FB00283D
:104C08003CD032003B0020002900FDF71DFE0400C7
:104C18000D0032003B0000980199FDF715FE0200D7
:104C28000B0020002900FCF705FF06000F00A24B2F
:104C380098469A239B0043441868596898239B0018
:104C480043441C685D6822002B00FDF7FDFD02004F
:104C58000B0030003900FDF72FFB02000B0020008D
:104C68002900FCF7CDFAC4239B004344186059601F
:104C7800C6239B0003224146CA545AE6904B1E683D
:104C88005F6832003B0020002900FBF7E1FA0028AA
:104C98003CD0009A019B20002900FDF7D5FD0400B7
:104CA8000D00009A019B30003900FDF7CDFD020090
:104CB8000B0020002900FCF7BDFE06000F007E4B0C
:104CC80098469C239B004344186859689A239B0084
:104CD80043441C685D6822002B00FDF7B5FD020007
:104CE8000B0030003900FDF7E7FA02000B00200046
:104CF8002900FCF785FAC4239B00434418605960D7
:104D0800C6239B0004224146CA5412E66D4B1A681A
:104D18005B680092019320002900FBF799FA0028AC
:104D28003CD032003B0020002900FDF78DFD040037
:104D38000D0032003B0000980199FDF785FD020047
:104D48000B0020002900FCF775FE06000F005A4BE7
:104D580098469E239B004344186859689C239B00EF
:104D680043441C685D6822002B00FDF76DFD0200BE
:104D78000B0030003900FDF79FFA02000B002000FD
:104D88002900FCF73DFAC4239B004344186059608E
:104D9800C6239B0004224146CA54CAE54A4B1E68F2
:104DA8005F6832003B0020002900FBF751FA002819
:104DB8003AD0009A019B20002900FDF745FD040028
:104DC8000D00009A019B30003900FDF73DFD0200FF
:104DD8000B0020002900FCF72DFE06000F00364BC3
:104DE8003A4A1068516898469E239B0043441C68C1
:104DF8005D6822002B00FDF727FD02000B00300044
:104E08003900FDF759FA02000B0020002900FCF7D1
:104E1800F7F9C4239B00434418605960C6239B00DC
:104E280005224146CA5484E5294B1A685B680092FA
:104E3800019320002900FBF70BFA00284CD0320020
:104E48003B0020002900FDF7FFFC04000D003200A4
:104E58003B0000980199FDF7F7FC02000B002000C9
:104E68002900FCF7E7FD06000F00134B194A1068EC
:104E780051689846A0239B0043441C685D68220043
:104E88002B00FDF7E1FC02000B0030003900FDF7B4
:104E980013FA02000B0020002900FCF7B1F9C42323
:104EA8009B00434418605960C6239B000522414675
:104EB800CA543EE598050020C8020020A00500203D
:104EC800A8050020B0050020B805002048050020EE
:104ED800C005002050050020134B1E685F68009A2B
:104EE800019B30003900FCF7A5FD02000B002000F3
:104EF8002900FDF7E1F90D4BC42292009446634462
:104F08001860596002000B0030003900FBF796F971
:104F1800002802D0064B1E605F60044BC622920038
:104F28000521995405E5C04650050020C802002017
:104F3800D8050020F0B5D646474680B58BB0D14994
:104F4800002200230A604B60002102920393009222
:104F5800019382460F0085E053461888FEF738F91A
:104F680004000D00FE005346F05AFEF731F9020026
:104F78000B0020002900FCF75DFD08F097F904906C
:104F8800059153465888FEF723F904000D0056444E
:104F98007088FEF71DF902000B0020002900FCF7BD
:104FA80049FD08F083F90690079153469888FEF763
:104FB8000FF904000D00B088FEF70AF902000B0093
:104FC80020002900FCF736FD08F070F908900991D7
:104FD8005346D888FEF7FCF804000D00F088FEF769
:104FE800F7F802000B0020002900FCF723FD08F069
:104FF8005DF904000D00069A079B04980599FCF7D3
:10500800FFF8089A099BFCF7FBF822002B00FCF735
:10501800F7F800229C4BFDF74FF904000D009B4B5D
:105028003A004732D2009B181868596822002B00B2
:10503800FDF742F902000B0000980199FCF7E0F82F
:105048000090019122002B0020002900FDF734F97F
:1050580002000B0002980399FCF7D2F80290039122
:105068000137FFB20A2F00D876E75746029A039B0A
:1050780000980199FCF7DEFC844B9846C2239B00FC
:10508800434400900191186059603888FEF7A0F8F1
:1050980004000D0042234246D05AFEF799F8020058
:1050A8000B0020002900FCF7C5FC08F0FFF802906F
:1050B80003917888FEF78CF804000D0044234246DB
:1050C800D05AFEF785F802000B0020002900FCF7F3
:1050D800B1FC08F0EBF804900591B888FEF778F871
:1050E80004000D0046234146C85AFEF771F8020035
:1050F8000B0020002900FCF79DFC08F0D7F806906B
:105108000791F888FEF764F804000D00482341462B
:10511800C85AFEF75DF802000B0020002900FCF7D2
:1051280089FC08F0C3F804000D00049A059B029856
:105138000399FCF765F8069A079BFCF761F82200CB
:105148002B00FCF75DF800224F4BFDF7B5F8060081
:105158000F004F4B1C685D6800224E4B2000290051
:10516800FBF780F8002831D032003B000098019905
:10517800FDF7A2F802000B0020002900FDF79CF8BB
:10518800454B18605960414BC42292009A18146824
:1051980055688E2189008C4663441E685F6832001A
:1051A8003B0020002900FBF753F800283CD0374B80
:1051B800C42292009A1816605760C62292000121F4
:1051C80099540BB0C0BCBA46B046F0BD0022314B72
:1051D80020002900FBF72CF800280DD032003B00F6
:1051E80000980199FDF768F822002B00FDF72CFBC9
:1051F800294B18605960C6E70022264B2000290079
:10520800FBF71CF80028BED032003B00009801993B
:10521800FDF752F802000B0020002900FDF74CF8BA
:105228001D4B18605960AEE71C4B1A685B6820007C
:105238002900FBF70DF8002805D0144BC622920070
:1052480001219954BDE7164B1A685B6820002900B4
:10525800FAF7FEFF002805D00C4BC6229200012168
:105268009954AEE70F4B1A685B6820002900FAF7DB
:10527800EFFF002818D0054BC6229200022199544E
:105288009FE7C046D00500200000D03FC80200209C
:10529800000000200000F03FD8050020080500208D
:1052A80010050020180500203C4B1A685B68200098
:1052B8002900FAF7CDFF002805D0394BC622920005
:1052C800022199547DE7374B1A685B682000290052
:1052D800FAF7BEFF002805D0314BC6229200032101
:1052E80099546EE7304B1A685B6820002900FAF77A
:1052F800AFFF002805D02A4BC622920003219954FB
:105308005FE72A4B1A685B6820002900FAF7A0FFBC
:10531800002805D0224BC62292000421995450E758
:10532800234B1A685B6820002900FAF791FF0028D0
:1053380005D01B4BC62292000421995441E71D4B0E
:105348001A685B6820002900FAF782FF002805D058
:10535800134BC62292000521995432E7164B1E685A
:105368005F6832003B0020002900FAF771FF00282F
:1053780005D00B4BC62292000521995421E7320033
:105388003B0020002900FAF76DFF002800D118E73C
:10539800034BC62292000521995412E720050020EC
:1053A800C80200202805002030050020380500200C
:1053B800400500204805002050050020F0B5C646ED
:1053C80000B582B00500002419E02888FDF700FF29
:1053D80006000F00E300585BFDF7FAFE02000B0021
:1053E80030003900FCF726FB07F060FFDC4B220099
:1053F8005532D2009B18186059600134E4B20A2C67
:10540800E3D92888FDF7E4FE04000D00D44E4223BA
:10541800F05AFDF7DDFE02000B0020002900FCF722
:1054280009FB07F043FF04000D00C0239B00F3189D
:105438001C605D60AA239B009C46664477683668BA
:1054480032003B00FAF704FF00286CD1C54B1A68FC
:105458005B680092019320002900FAF7F9FE002802
:1054680000D170E032003B0020002900FDF7ECF984
:1054780004000D0032003B0000980199FDF7E4F9A3
:1054880002000B0020002900FCF7D4FA06000F00E8
:10549800B34B984690239B004344186859688E2361
:1054A8009B0043441C685D6822002B00FDF7CCF983
:1054B80002000B0030003900FCF7FEFE02000B0072
:1054C80020002900FBF79CFEC4239B00434418607E
:1054D8005960A54B1C685D680022A44B2000290078
:1054E800FAF7C0FE002800D189E19D4BC422920042
:1054F8009A1800209D4910605160C622920005212B
:105508009954994B1C685D680022994B200029002A
:10551800FAF794FE002800D187E1914BC622920049
:10552800012199540BE08E4BC42292009A18002056
:10553800002110605160C62292000121995402B0E6
:1055480080BCB846F0BD8B4B1E685F6832003B00DC
:1055580020002900FAF77CFE002837D0009A019B2A
:1055680020002900FDF770F904000D00009A019B46
:1055780030003900FDF768F902000B00200029000F
:10558800FCF758FA06000F00754B984692239B00CB
:1055980043441868596890239B0043441C685D681D
:1055A80022002B00FDF750F902000B0030003900F3
:1055B800FCF782FE02000B0020002900FBF720FE0A
:1055C800C4239B0043441860596082E76A4B1A68F9
:1055D8005B680092019320002900FAF739FE002841
:1055E80037D032003B0020002900FDF72DF90400D8
:1055F8000D0032003B0000980199FDF725F90200E3
:105608000B0020002900FCF715FA06000F00544B88
:10561800984694239B0043441868596892239B003A
:1056280043441C685D6822002B00FDF70DF9020059
:105638000B0030003900FCF73FFE02000B00200091
:105648002900FBF7DDFDC4239B0043441860596023
:105658003FE74A4B1E685F6832003B002000290084
:10566800FAF7F6FD002837D0009A019B20002900A0
:10567800FDF7EAF804000D00009A019B300039009C
:10568800FDF7E2F802000B0020002900FCF7D2F930
:1056980006000F00324B984698239B004344186835
:1056A800596894239B0043441C685D6822002B00C2
:1056B800FDF7CAF802000B0030003900FCF7FCFDCA
:1056C80002000B0020002900FBF79AFDC4239B0071
:1056D800434418605960FCE6294B1A685B680092DD
:1056E800019320002900FAF7B3FD00284AD03200C0
:1056F8003B0020002900FDF7A7F804000D00320048
:105708003B0000980199FDF79FF802000B0020006C
:105718002900FCF78FF906000F00114B98469C23CF
:105728009B0043441868596898239B0043441C68AD
:105738005D6822002B00FDF787F802000B0030009F
:105748003900FCF7B9FD02000B0020002900FBF727
:1057580057FDC4239B00434418605960B9E6C0460E
:10576800C802002078050020D805002000C072403B
:105778000000494080050020880500209805002089
:10578800A8050020009E019F32003B002000290050
:10579800FDF75AF804000D003C4B9846BC239B00CB
:1057A80043441868596832003B00FDF74DF8020081
:1057B8000B0020002900FCF73DF906000F00A0238C
:1057C8009B004344186859689C239B0043441C6809
:1057D8005D6822002B00FDF737F802000B0030004F
:1057E8003900FCF769FD02000B0020002900FBF7D7
:1057F80007FDC4239B0043441860596069E60022F2
:10580800002320002900FAF719FD002800D178E6C6
:105818001E4BC42292009A1800200021106051608B
:10582800C6229200012199546BE60022184B2000F1
:105838002900FAF703FD002805D0144BC622920070
:10584800022199547BE60022124B20002900FAF726
:10585800F5FC002805D00D4BC6229200032199546F
:105868006DE600220C4B20002900FAF7E7FC00281F
:1058780005D0064BC6229200042199545FE6034BDB
:10588800C62292000521995459E6C046C802002054
:105898000000594000C0624000406F4010B5002829
:1058A8000CD0A02001220221C00504F02DF90A4BDA
:1058B80038215A5C042002435A5410BDA02000220B
:1058C8000221C00504F020F9034B38215A5C04205A
:1058D80082435A54F1E7C046C802002070B505005B
:1058E8000020FFF7DBFF054C256001232371611DB4
:1058F8000122280007F028FC207170BDBC000020A0
:10590800054B002224215A5404315A54DA840021C8
:10591800473299547047C046BC00002010B5FFF7C5
:10592800EFFF0020FFF7BAFF10BD000010B50268B6
:105938000B4B9A4200D010BD0A4C2422A35C60791C
:10594800E11888710133A3540023E38401332371E0
:10595800611D2068233A07F0F7FB2071EBE7C0468A
:1059680000440040BC00002010B50268094B9A4270
:105978000DD010BD084B9B1800219971293319705F
:105988000132D2B21D2AF5D9FFF7C8FFF1E700228C
:10599800F8E7C04600440040BC00002030B5274B63
:1059A8001B7A083BD9B2012218001040134240D19B
:1059B80005293FD949080300040006E001335D00CA
:1059C8001E4A521992791443DBB28B42F6D34A1C11
:1059D80052001A4B9B189B79A3421ED0030005E086
:1059E800164AD218002191710133DBB21D2BF7D969
:1059F80020E05C000334114A121992791543EDB284
:105A08000133DBB28B42F4D3490003310B4B5B18F3
:105A18009B79AB420FD0030008E003000500F1E7D3
:105A2800064AD218002191710133DBB21D2BF7D938
:105A380000E0002030BD0120FCE7C046BC0000208B
:105A4800F8B504001500002827D0884229D2091A81
:105A580088B2FDF7BDFB00222E4BFCF72DFC06009B
:105A68000F002000FDF7B4FB02000B0030003900E6
:105A7800FBF7E0FF06000F002800FDF7A9FB320046
:105A88003B00FCF719FC0022224BFBF7D3FFFAF787
:105A980015FC2D18204B9D4201D82800F8BD1F4D3C
:105AA800FBE78842F9D9411A88B2FBF763FBFDF797
:105AB800B3FB0022174BFCF7FFFB06000F0020008A
:105AC800FBF758FBFDF7A8FB02000B00300039007C
