:020000040800F2
:1000000000200020558800088185000883850008AD
:1000100000000000000000000000000000000000E0
:1000200000000000000000000000000085850008BE
:100030000000000000000000878500088985000896
:10004000A588000800000000A5880008A588000811
:10005000A5880008A5880008A5880008A5880008CC
:1000600000000000A5880008A5880008A5880008F1
:10007000A5880008A5880008A588000800000000E1
:10008000C98500080000000000000000A5880008E5
:1000900000000000A5880008A5880008D985000890
:1000A000A5880008A5880008A5880008A58800087C
:0800B000FD85000800000000BE
:1000B80010B5064C2378002B07D1054B002B02D036
:1000C800044800E000BF0123237010BDA0000020F9
:1000D80000000000D0CD0008044B10B5002B03D061
:1000E8000349044800E000BF10BDC04600000000FE
:1000F800A4000020D0CD0008002243088B4274D30E
:1001080003098B425FD3030A8B4244D3030B8B4210
:1001180028D3030C8B420DD3FF22090212BA030C19
:100128008B4202D31212090265D0030B8B4219D3FA
:1001380000E0090AC30B8B4201D3CB03C01A52411A
:10014800830B8B4201D38B03C01A5241430B8B4262
:1001580001D34B03C01A5241030B8B4201D30B034B
:10016800C01A5241C30A8B4201D3CB02C01A524172
:10017800830A8B4201D38B02C01A5241430A8B4235
:1001880001D34B02C01A5241030A8B4201D30B021E
:10019800C01A5241CDD2C3098B4201D3CB01C01A38
:1001A800524183098B4201D38B01C01A5241430942
:1001B8008B4201D34B01C01A524103098B4201D330
:1001C8000B01C01A5241C3088B4201D3CB00C01A9D
:1001D800524183088B4201D38B00C01A5241430815
:1001E8008B4201D34B00C01A5241411A00D201463A
:1001F800524110467047FFE701B5002000F006F8AD
:1002080002BDC0460029F7D076E770477047C04660
:100218008446100062468C461900634600E0C046DA
:100228001FB501F0DBFF002801D40021C8421FBD23
:1002380010B501F01DFF4042013010BD10B501F0AE
:10024800CDFF002801DB002010BD012010BDC046F5
:1002580010B501F0C3FF002801DD002010BD01200A
:1002680010BDC04610B501F049FF002801DC002090
:1002780010BD012010BDC04610B501F03FFF002899
:1002880001DA002010BD012010BDC0469E2110B526
:10029800C905041C03F0C0F8002803D1201C00F095
:1002A800F9FE10BD9E21201CC90500F0B1FC00F02C
:1002B800F1FE80231B069C466044F2E770B50022DD
:1002C8000C4B04000D00FFF7D7FF002804D12000D5
:1002D800290002F013FF70BD064B00222000290000
:1002E80002F0B2FA02F00AFF80231B069C46604423
:1002F800F1E7C0460000E04170B50600080002F0D2
:1003080067FF0022064B01F0D7FF0D000400300004
:1003180002F05EFF2B00220000F072FF70BDC046A5
:100328000000F0414A02F8B5530ACE4699464B0000
:10033800C90F4746884646004502360E1B0E80B553
:10034800C40F6F0A9209AD09F11A44454BD0002930
:1003580038DD002B00D174E0FF2E00D1BEE08023F1
:10036800DB041A431B2900DCFDE0013D6B0100D4CE
:10037800AFE001256D42AD01AF09380003F056F832
:100388003B0005388340864200DCD3E0B94D311A82
:100398001D405A0700D19EE00F221340042B00D1C4
:1003A80099E004356B0100D495E0481CFE2951D131
:1003B800FF200023C0051843E4072043C0BCB9460A
:1003C800B046F8BD002949D0991B002E72D1002DE6
:1003D80000D133E14C1E012900D159E1FF2900D198
:1003E8004CE121006CE0002900DC81E0002B55D1B4
:1003F800002A70D04B1E012900D12BE1FF296DD0B6
:100408001B2B50DC190020235B1A10009A40C840AF
:10041800531E9A410243AD188023DB041D4200D1CC
:10042800ADE0711CFE2EC3D001206A082840924D11
:10043800154005436A0700D08BE01D42B5D1EF088F
:1004480034E0002A47D04B1E012966D0FF2945D049
:10045800190087E7C0B2AB015B0AABE7FE239C46F5
:10046800701C03006046184200D092E0002E00D0B5
:10047800E7E0002D00D119E1002A17D08023AF1A38
:10048800DB041F4200D142E14446551B00D187E0FE
:1004980001201D42DFD10021EF0807E0FF2E1DD00B
:1004A8001B2900DC94E031000535EF087B025B0A6C
:1004B800C8B27FE7FF2B00D1E0E08020C0040543ED
:1004C8001B2900DC88E0551E44461E00690100D542
:1004D8004FE731000435EF08FF29E7D1002F00D19D
:1004E80066E78023DB033B435B02FF205B0A61E78F
:1004F800002958D0991B002E00D089E0002D00D18A
:100508009DE04E1E012900D1A4E0FF2900D1B6E0EC
:100518001B2E00DDB8E0310081E0AA1A530100D497
:10052800AFE09701BF09380002F080FF3B000538B3
:10053800834001261D00811B20200131CD40411A36
:100548008B40591E8B411D432AD000216B0700D1D7
:10055800F0E00F232B40042B00D022E76B0100D5DD
:1005680023E7EF08A2E720235B1A10009A40C8404F
:10057800531E9A410243AD1A6B0100D5FBE66B0787
:1005880000D1D5E00F2331002B40042B00D008E721
:10059800A1E7AF1A7B014ED4002F00D0EDE600246E
:1005A8000020002306E7FE23711C0B4221D1002EF8
:1005B80000D081E0002D00D19FE0002A00D1B2E0F8
:1005C800AB185A0100D4B0E09B0101205B0AF1E6A8
:1005D8008023DB041A4316E720242800C840611A48
:1005E8008D4029004C1EA141014344461E00551A66
:1005F800C2E7FF2900D1DBE6AF187F087B0705D0EB
:100608000F233D1D3B40042B00D064E7FF084DE756
:10061800FF2B34D01B2937DC8020C0040543280079
:100628002026C840711A8D4029004D1EA94101435A
:100638001E008D18F0E64446571B9EE644461500FA
:1006480049E7002D46D1002A66D180230024FF20E7
:10065800DB03AFE6AA18530113D5074F520817401A
:10066800530744D00F231340042B40D002213D1DD3
:1006780031E7C046FFFFFFFBFFFFFF7D44464F46C3
:100688002CE70121D70811E705321900D7080DE733
:10069800571B7B0137D5BF01BF09380002F0C6FEE2
:1006A8003B00053883404446013643E7002A00D121
:1006B80075E744464F46F9E6002DE0D08023DB037A
:1006C800002A17D09F4200D20BE7994500D308E7CC
:1006D8004F4606E78023DB03002A0BD09F4200D257
:1006E800FFE6994500D3FCE644464F46F9E6022169
:1006F800FF08DBE6FF203B435CE6002A00D14FE71A
:100708000021D708D2E644460121FF08CEE6002F93
:1007180000D07BE7002443E780234A46DB034446B6
:10072800FF20134346E60021C0E60021DF08BDE6AE
:100738003100D0E601206A0100D58BE62A00DFE708
:10074800F0B546464F46D6464502C0B5C30F4700EA
:1007580098460E1C6D0A3F0E5BD0FF2F21D08023D8
:10076800ED00DB041D43002399469A467F3F74023F
:100778007300640A1B0EF60F002B20D0FF2B43D00A
:1007880080220020E400D20414437F3B4246FF1A33
:100798004B4672400F2B00D99DE071499B00CB5806
:1007A8009F46002D5AD108239946063B74029A4663
:1007B8007300FF27640A1B0EF60F002BDED1002CF6
:1007C8003BD1012342464946724019430E2918D8A5
:1007D8006448890041588F465346022B00D1B8E03F
:1007E800032B6ED042462C00012B40D10020002460
:1007F800C0052043D2071043E0BCBA46B146A8461C
:10080800F0BDFF200024F3E7002C20D10223FF3F96
:10081800D8E7002D05D104239946033B00279A46C3
:10082800A5E7280002F002FE7627431F9D4000231B
:100838007F4299469A463F1A99E7200002F0F6FD52
:10084800431F9C4076235B421B1A00209EE703232C
:100858004A461A4391460320FC3397E70C239946EE
:10086800093BFF279A4682E703282CD0320038003C
:100878007F30002847DD630704D00F232340042B73
:1008880000D00434230103D53800374B80301C4096
:10089800FE28B6DCA401640AC0B2A9E780240022BD
:1008A800FF20E403A4E78023DB031D4201D01C42A0
:1008B8000BD08024E4032C4364024246FF20640AE0
:1008C80096E746462C008023DB031C436402320073
:1008D800FF20640A8CE76D01600185422DD21B233D
:1008E8000024013F0126290064006D00002901DB76
:1008F800854201D32D1A3443013B002BF3D16B1EE3
:100908009D412C43B3E701231B1A1B2B00DD6DE728
:1009180021009E37D940BC400B00611E8C41234307
:10092800590704D00F211940042900D00433590174
:1009380013D49B0100205C0A5AE71A2301242D1ABC
:10094800D0E7981E43425841404232000024C0B2CA
:100958004EE74246FF2000244AE70120002447E7EB
:10096800F8CD000838CE0008FFFFFFF7F0B54F4676
:100978004646D6464502C0B546000F1C6D0A360EDF
:10098800C40F002E00D1CDE0FF2E72D08023ED00E1
:10099800DB041D43002399469A467F3E7B025B0A8F
:1009A80098467B001B0EFF0F002B72D0FF2B00D147
:1009B800A9E07F3BF6184B460A2B00DD85E043464D
:1009C8008022DB00D2041A434B4690467C4000222A
:1009D800022B0FDD494601238B40A621C9000B429B
:1009E80000D072E0902189000B4200D0DAE0882123
:1009F800194267D1280C42462D042D0C4346290084
:100A080012041B0C120C51435D4342435843AD186A
:100A18000B0C5B199A4203D9802252029446604417
:100A280009041A04090C52189501691E8D411B0C02
:100A3800920E1B1815439B011D431B0100D5CFE0E7
:100A480030007F30002800DCB1E06B070BD00F23AB
:100A580032002B40042B06D004352B0103D58032FD
:100A680010006A4B1D40FE2864DCAB015B0AC0B273
:100A78001FE0002D00D08FE008239946063B9A46D8
:100A88007B025B0A98467B00FF261B0EFF0F002B9C
:100A98008CD14346002B5CD14A4601331A43914618
:100AA80013000A2A11DC01227C40022B92DC002070
:100AB8000023C0051843E4072043E0BCBA46B1460A
:100AC800A846F0BD3C00454692465346022B31D01D
:100AD800032B11D0012BEAD030008030721C002883
:100AE80066DD6B07B9D00F232B40042BB4D1B4E7D4
:100AF8000F2A7AD03C0045468023DB032B435B0258
:100B0800FF205B0AD5E74346FF36002B34D14A461F
:100B1800023313430A2BD8DC7C40002A0AD09946BA
:100B2800022257E7002D08D104239946033B0026EB
:100B38009A4633E7FF200023BBE7280002F076FC43
:100B48007626431F9D400023764299469A46361AD8
:100B580024E7404602F06AFC4B46361A763E0A2BDA
:100B6800B3DC43460538834098464B4600227C4018
:100B7800022B00DD2EE73DE703234A461A43130004
:100B88000A2AB5DC01229A40882113007C400322FE
:100B9800194200D12EE795E70C239946093BFF2619
:100BA8009A46FBE680230024FF20DB0381E732001E
:100BB80001231B1A1B2B00DD79E79E322900954083
:100BC800D9406A1E95410D436B0704D00F232B4073
:100BD800042B00D004356B0113D50120002368E7EE
:100BE80001236A081D40154376E78023DB031D4275
:100BF80082D042461A4200D07EE73C00FF201343D1
:100C080057E7AB0100205B0A53E7C046FFFFFFF739
:100C1800F8B54746CE464B02460080B5C40F47029A
:100C2800580A844648007A0A360EBF09000ECD0FCE
:100C38009B09FF286DD001214D40311AAC423AD0B2
:100C4800002900DC9CE1002800D19EE0FF2E00D1A5
:100C580088E08022D20413431B2900DCF6E0013F20
:100C68007A0100D479E001277F42BF01BB09984689
:100C7800404602F0DBFB434605388340864200DCF1
:100C8800CCE0B44F311A1F405A0768D00F221340E6
:100C9800042B64D004377B0161D5481CFE2900D0A1
:100CA80081E0FF200023C0051843E4072043C0BCAF
:100CB800B946B046F8BD002900DC79E1002876D1B4
:100CC800002B4CD0481E012900D147E1FF2949D00B
:100CD8001B2871DC01001A002020CA40411A8B40F1
:100CE800591E8B411343FF188023DB041F4200D198
:100CF800B8E0711CFE2ED4D0012297483A407F08F4
:100D0800074017437A0700D096E01F42C5D1FA087A
:100D180055E03100FF398946002B2CD101214D4087
:100D2800AC4200D1B4E0494600294CD0002E00D096
:100D3800F9E0FF21002F00D108E14A1E012900D166
:100D480056E1FF2900D142E11B2A00DC24E15F1EA5
:100D58002C0006007A0100D585E731000437FA082F
:100D6800FF292CD1002A9CD08023DB0313435B028C
:100D7800FF205B0A97E7AC4200D1A7E0002922D008
:100D8800002ED6D062462C00EEE7002BE7D0481E96
:100D9800012936D0FF29E5D001005DE701203B009D
:100DA8007A0100D457E1C0B2BB015B0A7BE7FF2E92
:100DB800D8D01B2900DC9FE031000537FA08530220
:100DC8005B0AC8B26FE7FE20711C084254D1002E9E
:100DD80000D0B1E0002F00D102E1002B00D1F9E0F2
:100DE8008021FA1AC9040A4200D13BE10124DF1B21
:100DF8002C40002F49D001200F42D5D10021FA08FC
:100E0800DDE7FF1A7B0100D4DEE0BD01AD09280053
:100E180002F00CFB2B000538834001262022811BA1
:100E28000131521A1F009340CF405A1E93411F436D
:100E38002BD000217B07B1D00F233B40042B00D0DF
:100E480028E77B0100D528E7FA08B8E71A00202030
:100E5800CA40411A8B40591E8B411343FF1A7B012C
:100E680000D502E77B0700D10DE10F2331003B409D
:100E7800042B00D00EE772E7FA1A9046520156D4B6
:100E88004346002B00D0F3E60024002000230AE7A5
:100E9800494600291CD0002E00D002E7FF21002F70
:100EA80055D04A1E012959D0FF2900D190E01B2AAC
:100EB80000DD91E011003A002025CA40691A8F40F0
:100EC800791E8F4117430600FF180DE7002926D128
:100ED800FE20711C084213D1002E00D096E0002F8E
:100EE80000D1B4E0002B75D0FB185A0100D4B2E051
:100EF8009B015B0AFD38D6E68022D2041343EAE65A
:100F0800FF2900D1CDE6FA185208530705D00F2360
:100F1800171D1340042B00D021E7D2084FE7002EFD
:100F2800BCD0624620E72C00FF200023BBE601244A
:100F3800DB1B98462C409BE6002F75D1002B00D078
:100F480096E080230024FF20DB03ACE62C001F0082
:100F580005E7C046FFFFFFFBFFFFFF7DFB185A01B7
:100F680000D48DE04A4A5B081A40590700D18CE04A
:100F78000F210B400D39042BCFD00221171DEEE6AF
:100F8800002900D11FE7821B1100002E00D1D1E6F5
:100F98008021C9040F43D7E639002024D140A21A82
:100FA80097407A1E97410F432C000600DF1B56E737
:100FB80000298DD0811B002E00D170E71B290BDC86
:100FC8008022D204174376E70121FA08F7E62C00BD
:100FD8006246C7E60021F2E605330100DA08EEE6CC
:100FE800002B00D150E70124002162462C40E6E6A0
:100FF800DA1B530132D592019409200002F016FA47
:101008002300053883402C00012607E7002FDFD096
:10101800002B17D08023DB039A4200D2A4E69C451C
:1010280000D3A1E662469FE6002B0BD08023DB03AA
:101038009A4200D298E69C4500D395E60124624680
:101048002C4091E68023DB03FF2013432BE600208E
:10105800002B00D127E60021DA08B0E62C00012198
:10106800D208ACE6002A00D10EE70021D208A6E695
:10107800802362460124DB03FF2013432C4012E641
:101088000121DA089BE6310069E60221D20896E6DA
:10109800FFFFFF7D41024200C30F490A0020120EE4
:1010A8007E2A03DD9D2A02DD094A981870478020B0
:1010B80000040143952A07DC9620821AD140484251
:1010C800002BF3D10800F1E7963A9140F7E7C046C4
:1010D800FFFFFF7F70B5002812D0C317C5185D4009
:1010E800C40F280002F0A2F99E231B1A962B0FDCCE
:1010F800082838D0083885406D026D0AD8B202E059
:10110800002400200025C0052843E407204370BDC3
:10111800992B14DC421F95402A00154911405507A8
:101128001CD00F252A40042A18D00431CA084901C6
:1011380015D59F235202181A550AC0B2E3E70200D8
:1011480029001B3291404A1E91410522121AD540AE
:101158002A000A43064911405507E2D1CA0852023B
:10116800550AD8B2CFE76D026D0A8E30CBE7C0467C
:10117800FFFFFFFB10B5041E0DD002F057F99E23A8
:101188001B1A962B0CDC082834D0083884406402DB
:10119800640AD8B201E000200024C005204310BD35
:1011A800992B13DC421F9440144A224061071CD03B
:1011B8000F212140042918D00432D408520115D532
:1011C8009F236402181A640AC0B2E6E702002100ED
:1011D8001B3291400A00511E8A410521091ACC4050
:1011E8001443064A22406107E2D1D4086402640A23
:1011F800D8B2D2E76402640A8E30CEE7FFFFFFFB65
:10120800F0B54F464646D646C0B50D0382B00092AB
:1012180001934E00C300CC0F690A450F9C46009A03
:10122800019B0D435F001903D80F009B490A5B0F10
:101238001943009B760D7F0DDA00F31B844258D0CA
:10124800002B13DD002F00D088E00800104300D1E8
:1012580059E1581E012B00D1C2E2B14FBB4200D167
:1012680041E1382800DD6AE2030064E1002B00D187
:10127800B1E0BB1B002E00D0E1E164462C4300D155
:1012880076E25C1E012B00D1E8E2A54EB34200D104
:10129800B7E2382C00DC6BE3541EA2429241524262
:1012A8008D1AA0461E0004002A0268D443461F1D5A
:1012B80047459B415B42ED182B0200D49DE3984AB9
:1012C8000136964200D1EBE0964A73052A405B0D41
:1012D8005107FF0852020F43120B1B051343E40783
:1012E80023433800190002B0E0BCBA46B146A8460C
:1012F800F0BD002B00DCD7E0002F00D09AE00800FA
:10130800104300D1FFE0581E012B00D148E2844F62
:10131800BB4200D1E7E0382800DCB8E280221204A2
:10132800154200D149E31E000023150098467C4B66
:1013380001369E4200D1B3E07A4B01211D4043465D
:101348005A081940EF070A4317436D087B07B3D0C3
:101358000F233B40042BAFD0B846A7E7704886421E
:1013680000D1C0E0382B00DCE2E001235B4263449B
:101378009C45804140422D1A98462B0296D5012360
:101388005B429846684D280002F050F80300083B7D
:1013980020214046CA1AD040020040469D4098404D
:1013A8002A438046B34200DA72E1981B4346013073
:1013B800091A45468B40C5405E1EB34117008F4051
:1013C8002B431F43C2403B00150000261343BDD1E9
:1013D8000027002281E7554F731C3B4200D01BE1D8
:1013E80063460F002B431743002E00D0C4E1002BA7
:1013F80000D145E2002F00D107E163469B1A9846C9
:10140800C445B6416B1A76429B1B8026360433428C
:1014180000D1CBE26346D31A9A4292411F00491B7E
:1014280052428A1A9C46174300D0EDE2040000237A
:10143800002252E73A48864255D0382B00DD48E171
:101448008020000401431F2B00DDE3E12027F81A68
:10145800824608005746B840814610004F46D8409B
:10146800074338005746BA40D940571EBA416D184D
:10147800104360448046E045804140422D182B02CD
:1014880000D554E743465B0700D1B9E20F23424633
:101498001340042B00D009E733004246D20834E059
:1014A80033000022002718E7002B00D18FE0BB1B78
:1014B800002E00D033E16046284300D140E2581E98
:1014C800012B00D10AE2164EB34200D185E238283A
:1014D80000DC87E280252D04294200D19CE21E0011
:1014E8000023984623E763466E07D8080643ED08AD
:1014F80037002F4311D0802212032A4312033700EA
:10150800074B120BE9E66246D2086E071643044AF7
:10151800ED089342ECD03700D6E0014B0022DCE620
:10152800FF070000FFFF7FFFFFFF7F00FE070000AF
:101538008020000401431F2B00DDB1E02027F81AAA
:10154800824608005746B840814610004F46D840AA
:10155800074338005746BA40D940571EBA416D1A5A
:10156800104363461B1A9C458041984640422D1AF9
:101578002B0287D56D026D0A002D00D003E7404687
:1015880001F054FF030018331F2B00DC00E742462C
:10159800083882409E4200DD91E09B1B581C1F28A2
:1015A80000DCF8E117001F3BDF40202805D040236E
:1015B8001B1A9A40531E9A411743002F3CD000260D
:1015C8007B0700D0C4E63500B846330065E7CB4852
:1015D800731C034200D085E063462B43002E00D0E5
:1015E80092E10F001743002B00D1D8E1002F0CD057
:1015F8006244624580416D1840422D182B0200D587
:10160800F2E1170094462F4316D063466F07D808B7
:1016180007430023ED0857E063469B1A9846C445E4
:10162800BF416B1A7F42DB1B1F0200D5AEE0474665
:101638001D001F43A0D10024002300224DE6B04C1A
:10164800A74200D1DDE0382B00DD85E080242404AA
:1016580025431F2B00DDECE02026F41AA1462C00C0
:101668004E46B4406646DE403443A04666464C4685
:10167800A640DD40741EA6414446491B3443131B53
:101688009A4292415242984604003E008D1A6FE7F2
:10169800F61A03009B4D15405B0700D0F6E6FBE603
:1016A80018000F002038C740202B03D04020C31A51
:1016B80099400A43531E9A411000384351E7914913
:1016C800F31A0A405707D5082A035B05120B5B0D6E
:1016D80003E680231B041D4200D1BBE01D0000234C
:1016E800984624E68648834200D1DAE66244624599
:1016F8008041691840420918C807520810438046BB
:101708004D08520705D00F221E000240042A00D0BF
:10171800CCE542466F07D20817430D09D4E778484D
:10172800874200D1D5E0382B00DCB2E080252D04BB
:10173800294200D14CE100233E009846F7E50122FA
:10174800524262449445804140422D1A90461E0000
:101758002A0200D513E6A9E5531E9A429241524245
:101768008D1A984604003E002B0200D507E69DE539
:1017780004000D00D208C8E6002B00D0E3E0002FDB
:101788003FD1802200245E4B1203A6E56346D31A9C
:101798009A4292414D1B524298460400AD1AEBE61C
:1017A80062441600664580416A18404212181302C6
:1017B80000D49DE0534973080A40D10719435708DC
:1017C8005B0700D1FEE00F230B40042B00D1F9E0AA
:1017D8000B1D98468845AD416D420223ED195CE624
:1017E80063469B1A9C4580416D1A40422D1A9846C3
:1017F8002B020DD443466F07DB081F43ED08012376
:1018080062E74E07D20804001643CD0870E60400CC
:101818000126AFE618000F002038C740202B03D060
:101828004020C31A99400A43531E9A411000384376
:101838001FE61C002E00203CE640202B05D040244B
:10184800E31A9D4063462B439C466446631E9C41B5
:10185800344314E701236344984627E56346D31AC3
:101868009A4292414D1B5242AD1A98462B02CED451
:1018780043466F07DB081F4304000123ED0823E7F5
:10188800002F00D1D7E604000D009446BDE6030002
:10189800D9E58020000405431F2B6BDC2020C01AEB
:1018A800804628004646B0406646DE400643B146BC
:1018B80060464646B040DD40461EB0414E46491996
:1018C8003043804690449045924152423E0055181C
:1018D800D5E54E07D2081643CD0809E663469E189B
:1018E80096429241691852428A18130200D561E75C
:1018F8005707F60801233743D508E5E6FE07000039
:10190800FF070000FFFF7FFF002BE2D06346DE08E1
:101918006B071E430B00ED08134300D1E8E5802355
:101928001B031D4206D0C808184203D10500D6087B
:1019380049070E43730FF600F6085B071E43D7E509
:101948000D00D208E1E56346DE086B071E43ED088B
:10195800002F00D1CCE580231B031D42EAD0CF081D
:101968001F42E7D1D608490704003D000E43E1E7CE
:1019780023006EE618002E002038C640202B05D024
:101988004020C31A9D4063462B439C466046431E35
:101998009841304395E720210023091A0EE50023DA
:1019A800002F00D1BAE50D00904676E547461F4363
:1019B80000D140E61D00C44627E601226244904655
:1019C8001E0073E4C9087F0702230F4315097BE64D
:1019D800531C98460D003E0068E4D6084B071E438A
:1019E800CD0885E5030057E7114BD2082B405F0768
:1019F80017435A02120B01236FE43300B8464CE533
:101A08004346DA08330080E532420AD0084B040026
:101A18001A40674601235BE4013290460D001E0020
:101A280044E4DB0857071F4304000023D5084BE6AE
:101A3800FFFF7FFFF0B5DE46454657464E46E0B508
:101A480087B0009201930B031B0B9B46CA0F4B00F8
:101A5800040080465B0D029200D1BFE08F4A93429A
:101A680038D05946420FC9000A438021090411435E
:101A7800C20090468A4A894692469A440023002426
:101A88000393009E019F3B031B0B7A0030009B468B
:101A9800520DFD0F002A00D17FE0804B9A426ED094
:101AA8005946730FC9000B438021090419438B461B
:101AB8007B49F3008C46514662448A1A92460021BB
:101AC800029E6E40F6B20F2C00D9F9E0754AA400C8
:101AD800125997465A460243914600D0B6E09A46B4
:101AE8000223904608240393CBE72E00002100230D
:101AF800002288461B051343F60733434046190066
:101B080007B0F0BCBB46B246A946A046F0BDCB46DE
:101B18004346029D0399022900D1FAE1032900D125
:101B2800A1E00129E1D0604A524490464446002C85
:101B380000DC00E25A0704D00F221A40042A00D021
:101B48007FE22E00DA085B46DB0106D55946574B83
:101B5800802419408B46E4005444554B9C4209DCD0
:101B68005B465B07134398465B4664055A02120BB3
:101B7800630DBFE7002100228846484BBAE75B4661
:101B8800009A13434B4A9446E244002B59D102224F
:101B9800144300220221934692E75B46009A1343BE
:101BA80049D05B46002B00D1A4E1584601F03EFC29
:101BB800030002000B3B1D27009EFB1A110058462C
:101BC800DE4008398840330003439B46009B8B4026
:101BD800394952448A460021924471E75B460343DF
:101BE800994621D05B46002B00D171E1584601F09F
:101BF8001DFC0B235B429C460200844466461D2361
:101C08009B1B260011005846DE40083988403300E7
:101C18000343994623008B409846284B00249B1A7F
:101C28009A46002303932CE7002398469A460133EB
:101C38000424039325E7012214430022012193463B
:101C48003EE7032303211C43330039E79A46032365
:101C5800D9460C24039314E70023802298460026D3
:101C68000E4B120346E78022594612030A43120319
:101C780098462E00094B120B3CE780224946120376
:101C8800114202D059461142F0D080224B4612032D
:101C98001A431203029E014B120B2BE7FF070000A9
:101CA80001FCFFFF74CE0008FF030000FFFFFFFEEA
:101CB800FE07000001F8FFFFF30300000DFCFFFF23
:101CC800CB4500D2FAE000D1F5E001225242944619
:101CD8000022444648469046E2445A461F0E1202E5
:101CE8001B020293130C994617433B041B0C4946ED
:101CF8000093FEF787FA009A0B044243210C050073
:101D080019438A4207D9C919013D8F4203D88A422B
:101D180001D9851EC919881A4946FEF773FA009A2F
:101D2800240442430904240C03000C43A24204D9AE
:101D3800E419013BA74200D8F7E00299A01A2D0444
:101D48000C0C09041D43090C2A0C2B04AB460D008E
:101D58001B0C5D43059163435143049462435B1834
:101D68002C0CE318994203D9802149028C4662441D
:101D7800190C2D041B042D0C8A185D19904200D2F1
:101D880087E000D182E043465D1BA8459B41801A4D
:101D98005B42C01AB14B534498461C00874200D19D
:101DA8000CE14946FEF72EFA0200009B03905A43C5
:101DB8000B04290C19438A420AD90300C919013BAB
:101DC80003938F4204D88A4202D9831E0393C91908
:101DD800881A4946FEF716FA0A00120494462A049D
:101DE80065460099120C414303002A43914207D9E2
:101DF800D2190138974203D8914201D9981ED219B5
:101E0800039B521A1B0403430598190C05008C46C2
:101E18001904090C4D4389466146009565464843B7
:101E280004994D43AC464D464D432918009D2D0C51
:101E3800A9464944884203D9802040028146CC44BF
:101E4800009D080C2D0409042D0C60444D19824294
:101E58000FD30BD001221343814A92456CDB1A1D24
:101E68009A429B415B42D2089B446CE6002D00D10C
:101E780093E0591EBA188C46BA4200D285E08242D5
:101E880000D2C7E000D1D5E00B00E3E7A84500D3B6
:101E980079E75B46591E029B9C46E0441C00984526
:101EA8009B415B42DB19C018874238D2824278D8FE
:101EB80075D08B4667E7434500D906E74A46D407FD
:101EC80050084246520814434246D207904604E757
:101ED80001F0ACFA15239C46844402006346203284
:101EE8001C2B00DC8AE6230008388340994600232F
:101EF800984692E601F09AFA030002001533203260
:101F08001C2B00DC57E600990838814000238B46DB
:101F18005EE600212E0000228846524BEAE5874201
:101F2800C7D14445C2D98B462DE7A24200D804E761
:101F3800831EE41901E72E0001224146521A382A6D
:101F480000DDD3E51F2A3FDC47481C0050445946B2
:101F580083408140D440581E834121430B43594656
:101F6800D1400A00590709D00F211940042905D08A
:101F7800191D99429B415B42D2180B00110268D58A
:101F88000021012300228846B4E50B00824200D0DC
:101F980060E7029A954200D05CE73500C6E5454502
:101FA80087D902235B429C46029BE3449C46E0445B
:101FB80098459B415B42DB19C018E4E6002B36DDEF
:101FC800012300229B44BEE51F2140464942091ACD
:101FD8005846C8400100202A04D05846234A524493
:101FE800904003435A1E934107200B4301000022EF
:101FF8001940184209D00F21194004291FD0181D73
:1020080098428941030049424907DB080B43984637
:1020180000236FE50299023B49008C4602998C45E2
:1020280089414942C919521861460291AEE7012314
:102038005B4281E70299A942ECD36346A9E70021F4
:10204800E3E71A1D9A429B415B422E00D2089B444B
:1020580079E551075202120BD7E7C046FF0300008B
:1020680002FCFFFFFF0700001E0400003E04000002
:10207800F0B55746DE464E464546E0B50D0004002D
:10208800E80F83460903D80F090B82461A488C4685
:102098001F0369005E00490D3F0B760D81421AD07F
:1020A800864211D00120B1420FD1BC450DD1A242C8
:1020B8000BD1D3451ED0002907D1614611430A0030
:1020C800531E9A41100000E00120F0BCBB46B24606
:1020D800A946A046F0BD01208E42F6D1614639439B
:1020E8000F0017432743F0D15B465246981A431E08
:1020F8009841EAE70020E8E7FF070000F0B55746F7
:102108004E464546DE46E0B50D000E034900490D32
:102118008A46DF0FE90FBC4683B02F4F0400804684
:102128000191580019039146360B090B400DBA4529
:102138001DD0B8420DD05746002F2AD1344300286D
:1021480024D10A4336D0002C41D1634658000138C7
:1021580015E0114338D15346002B01D12643F4D062
:10216800019B634507D1019B5800013807E02643CE
:102178002AD1504521D00120019B5F42384303B04A
:10218800F0BCBB46B246A946A046F0BD002CDCD048
:10219800E6E70028EFD0019B6345ECD18245EADCF5
:1021A800E1DB8E42E7D8DED1C845E4D80020C84537
:1021B800E5D2D8E7002CE2D0DDE7114304D1019B3A
:1021C8006345D8D10020DAE702204042D7E7019BD7
:1021D8006345E6D0CFE7C046FF070000F0B5574695
:1021E8004E464546DE46E0B50D000E034900490D52
:1021F8008A46DF0FE90FBC4683B02E4F04008046A5
:102208000191580019039146360B090B400DBA4548
:102218001ED0B8420DD05746002F27D1344300288E
:1022280033D10A4334D0002C40D1634658000138DA
:1022380015E0114312D15346002B01D12643F4D0A7
:10224800019B63451DD00120019B5F42384306E096
:10225800264303D15045F6D111431CD0022003B0C8
:10226800F0BCBB46B246A946A046F0BD0028EAD05D
:10227800019B6345E7D18245E5DC02DB8E42E2D86B
:102288000ED0019B58000138E9E7002CCDD0D7E7E4
:10229800002CE4D0D7E7019B00206345DFD0D2E7CC
:1022A800C845D0D80020C845D9D2EAE7019B634584
:1022B800E4D0C8E7FF070000F0B557464E4645464C
:1022C800DE46E0B51F000B031B0B16009846CA0F2D
:1022D8004B000400924685B05B0D00D1C2E1CC4AA8
:1022E800934200D128E14146420FC9000A438021A8
:1022F80009041143C2009146C64A884693469B4446
:102308000023002501933C037A00FB0F3000240BC7
:10231800520D009300D185E1BD4B9A4200D160E196
:10232800BC4B9C46624493440A2D00DD14E1730FB4
:10233800E4001C4380231B042343F0005246009909
:1023480000264A409246022D11DD0122AA40A6210C
:102358001400C9000C400A4200D0FDE09021890019
:102368000A4200D0D4E18821114200D0EFE049466A
:102378004A460904140C090C020C0F00150000044D
:10238800000C654347430195B9462F000D00060030
:102398005543AC464D4666432D0CB4446544AE42A5
:1023A80005D93E0080277F02BC46664401964F4609
:1023B8003F043F0C2E0C2D04ED1902951D0C1B0437
:1023C8001B0C00951D001F0065434F43AC46009D44
:1023D80069436C433D0CA946614449448C4503D983
:1023E80080256D02AC4664443F040D0C3F0C090483
:1023F800C919AC467518039545462E04360C2F0CA2
:10240800350045437843804638006444AC462D0C7B
:10241800A9465043724342444A44904503D9802513
:102428006D02A8464044150CA84665462D042D0C9F
:10243800AC4635005D4312046244AC467B43009DC4
:10244800404498462B006E4365467B4346442D0C1A
:10245800AD191F000093A84504D980235B02984654
:1024680047440097039B019E98462B044644984690
:1024780063468E4289411B041B0C4344B6184942EB
:102488001B195F1896429241BC46524280469146BB
:102498008C458941A3429B41E044C14449425B4287
:1024A800914592410B43804589412D0C4942524246
:1024B8000A435B199B18009A029994464A4663445A
:1024C8005B02D20D1A43904672020A43511E8A419A
:1024D800F60D16434A4652021643B146DB0154D460
:1024E8004D4A5A44002A00DC18E133005B0715D036
:1024F8000F215B463140042910D04946081D484544
:1025080089418146494288444146C90106D5414628
:10251800424A114080228846D2009A18404B9A427B
:1025280000DD2BE141464B464C07DB081C435205B6
:102538004B021B0B520D1AE042460243914600D053
:10254800E0E09B460223904608250193DBE6009ACB
:102558009846924681460196019B022B00D10DE1D7
:10256800032B35D0012B1BD1002200230024120598
:102578001A435346DB071A432000110005B0F0BC8C
:10258800BB46B246A946A046F0BD012273083240B8
:1025980013434246D2071343994643465B0898467D
:1025A80080225B46D2005A440133002A00DCB6E0A0
:1025B80049464907A8D00F214846014004299CD123
:1025C800A2E70F2D00D1FDE0009BA0469A46B14638
:1025D800802342461B0313431B034C460C4A1B0B28
:1025E800C5E70B4933008C462343E344002B77D1DE
:1025F800022129430A29AFDC5046009C60408246EC
:10260800002D00D10EE10D00002002269DE6C046F7
:10261800FF07000001FCFFFFFF030000FFFFFFFEB4
:10262800FE070000230033434BD0002C00D1BBE051
:10263800200000F0FBFE030002000B3B1D20C31A24
:102648003000D84011000300300008398C40884021
:10265800234359468A1A78498B4693440A2D00DC4D
:102668006CE679E743460343994623D04346002B5B
:1026780000D187E0404600F0D9FE0B235B429C4620
:102688000200844411004046083988401D238046D2
:1026980060461B1A2000D840030040460343984672
:1026A80023008B409946644B00259B1A9B460023C8
:1026B800019328E6002398469B460133042501939D
:1026C80021E6012215430A2D00DD45E7524600990F
:1026D8004A409246022D00DC46E70020012634E6F7
:1026E80003231D430A2D00DD6BE75346009A88211A
:1026F80053400122AA409A4603262300114200D1E2
:1027080035E624E79B46032381460C250193FAE529
:1027180000239A468023494A1B0328E75B46012188
:10272800891A382900DD1FE71F295ADD1F2040427A
:10273800821A4046D040202908D0414A9446424651
:1027480063449A4013004A461A4391464A46072171
:10275800531E9A410C00024300231440114209D031
:1027680008311140042960D0111D9142A4410A008A
:1027780064426407D20814430022F8E600230024C8
:102788002E4AF4E600F052FE15239C4684440200CB
:10279800634620321C2B00DC74E700239946230093
:1027A8000838834098467EE700F040FE03000200A8
:1027B800153320321C2B00DC40E7330008388340F7
:1027C800002046E7802342461B031A4200D1FFE659
:1027D8001C4200D0FCE6009A234392463400174A74
:1027E800C5E6184A404694464A4663449840CA405B
:1027F80010434A469A40531E9A4143460243CB40EF
:10280800510709D00F211140042905D0111D91420B
:10281800924152429B180A00190208D5012200234E
:102828000024A4E600230024A1E60024A2E75C0714
:102838005B021B0B9EE7C0460DFCFFFFFF07000075
:102848003E0400001E040000F0B54E464546DE4634
:102858005746E0B583B0009001910D034E000199F1
:10286800760DCC0F690A009D6D0F0D4300990092FB
:102878000193C8001903019BCB4A5B005B0D994685
:10288800019B8346DB0F98464B0A0099490F194371
:10289800009BDB009C469A46914500D173E00123DA
:1028A80047465F404B46B846F31ABC4216D0002B49
:1028B80000DC9AE24F46002F00D082E067460F43C3
:1028C80000D13AE15F1E012B00D1A4E2934200D16E
:1028D8002EE1382F00DD43E23B003EE1002B00DC17
:1028E800D7E24F46002F00D0F8E067460F4300D1EB
:1028F80023E15F1E012B00D157E2934200D117E17B
:10290800382F00DC04E380221204154200D1AAE328
:102918001E0015000027A44B01369E4200D103E19A
:102928000122A24B3A401D4079081143EA070A43A5
:102938006D08530709D00F231340042B05D0170047
:102948003A1DBA42BF417F42ED192B0200D477E30A
:10295800954901368E4200D1E6E0944973050D4051
:102968005B0D6907D2086D020A432D0B1B052B432B
:10297800E40723431000190003B0F0BCBB46B2467D
:10298800A946A046F0BD8A4BF21863460B434CD0CB
:10299800444550D0002A6CD0002E00D17DE163461A
:1029A80044464F07DA081743C8083A00024300D1E3
:1029B800CDE080252D0305432D033A007A4B2D0BDE
:1029C800D4E7964200D1B3E0382B00DCC2E0471EC2
:1029D800B842804140422D1A2B02B1D50127754DCE
:1029E8007F42280000F022FD0838202339001A1AF7
:1029F8008540D14087402943B04200DA45E1801B39
:102A080001301B1A3D009F40C5407A1E97410A00BD
:102A18009A402F433A43C14013000D0000260B4350
:102A280000D086E700220025A0E7474601235F4043
:102A3800B8464445AED1002A00D1EFE0002E00D0C0
:102A480088E14B462A00024300D1A0E25A1E012B1E
:102A580000D1B7E2544EB34200D17BE1382A00DC02
:102A680012E380252D04294200D112E31E0000271D
:102A780051E7514A731C134200D0F4E062462B0020
:102A88000A430343002E00D074E1002B00D123E257
:102A9800002A00D1E0E06346C71AB8429241802676
:102AA8006B1A52429B1A3604334200D1C1E2634684
:102AB800181A844592414D1B5242AD1A0124020056
:102AC80043462A431C40002A00D1DBE0354200D1AE
:102AD800E9E2364B02001D40012342E7964227D027
:102AE800382B00DD11E18022120411431F2B00DD79
:102AF800A1E120220F00D21A914697406246DA409F
:102B08001743B84662464F46BA40D940571EBA41A5
:102B180047466D1817433F188742804140422D1899
:102B28002B0200D5F7E634E03300002500221DE72C
:102B3800C0086F070743E80837E7C7086A0717435D
:102B4800194AE808934200D12FE73A00D8E0164B1B
:102B580000250BE78022120411431F2B00DDB7E08C
:102B680020220F00D21A914697406246DA40174356
:102B7800B84662464F46BA40D940571EBA41474602
:102B88006D1A1743C71BB842804140422D1A2B02C9
:102B980016D47B0700D179E20F233B40042B00D0E9
:102BA800CEE63300FF08C9E7FF070000FFFF7FFFFD
:102BB80001F8FFFFFFFF7F00FE07000044460126E3
:102BC8006D026D0A002D00D00BE7380000F02EFCD6
:102BD800030018301F2800DC07E73900083B99403C
:102BE800864200DD87E0831B581C1F2800DC14E2A6
:102BF8000A001F3BDA40202805D040231B1A9940C1
:102C08004B1E99410A43002A3CD00026530700D0A6
:102C180091E6170035003300FF088FE7CA4A731C96
:102C280013427AD12B000343002E00D092E1624672
:102C38000A43002B00D1F4E1002A0DD06346C718DF
:102C4800874280416D1840422D182B0200D512E2B0
:102C58003A00BB462A4315D05B466A07DF083A4369
:102C68000023E8084CE06346C71AB84292416B1A41
:102C780052429B1A1A0200D587E03A001D001A43F7
:102C8800A0D100240023002570E6B04D361A0D406F
:102C98007B0700D080E7330084E74B462A000243D5
:102CA8007ED05A1E012B00D11FE1A94CA34200D1AE
:102CB80098E1382A00DC9CE16246571EBC459241E7
:102CC80052428D1A44461E002A0200D586E637E68F
:102CD8001A000F00203AD740B846202B05D04022D2
:102CE800D31A994063460B439A4657467B1E9F4129
:102CF80043461F4346E7954A331A11404A07C80816
:102D080005035B052D0B5B0D30E680231B041D427C
:102D180000D1FBE01D000027FDE58D4A934200D15C
:102D280003E76246821882428041691840420818C7
:102D3800C707520817434508520700D4AEE10F22CF
:102D48001E003A40042A00D0FAE5FF086A073A4311
:102D58000009D5E763464F07DA081743C80824E691
:102D6800471EB842804140422D1A1E002A0200D553
:102D780034E6E5E5002B00D00DE1002A00D069E13A
:102D880080250024724B2D03F0E563461F1ABC45CD
:102D98009241012443464D1B5242AD1A1C4011E793
:102DA800624644460D00D708C8E66346C618864200
:102DB80080416918404209180B0200D40CE1634BAA
:102DC80070081940CB0703434A08400700D43BE189
:102DD8000F201840042800D136E11F1D9F42AD4145
:102DE8006D420223AD18FF08A8E6002B00D140E68B
:102DF8004B469B1B002E00D150E7382B2EDD634637
:102E08005F1EBC45924152428D1A44464E462B02E3
:102E180000D5E3E594E56346C71AB84280416D1AC8
:102E280040422D1A2B0200D5C9E66A07FF08012384
:102E38003A43E80864E71A000F00203AD740B8463A
:102E4800202B05D04022D31A994063460B439A465B
:102E580057467B1E9F4143461F435CE680223C0049
:102E6800120415431F2B26DC20222F00D21A06003D
:102E780090409740DE40421E9041DD403743074373
:102E8800491B6346DF1BBC45924152424E468D1A90
:102E98007DE6002B00D1C1E64B469B1B002E00D1DE
:102EA800D0E5382B36DD80252D04294200D1DDE020
:102EB8004E4600272FE51A002E00203AD640202B38
:102EC80005D04022D31A9D402F000743BB465F46DA
:102ED8007B1E9F413743D4E7002A00D1D1E6012465
:102EE80043460D00E3461C40B6E663461F1ABC4540
:102EF80092414D1B5242AD1A2B0200D55EE66A077D
:102F0800FF08444601233A43E808F9E6471C17E559
:102F18003B00EBE58022120415431F2B6CDC2022BA
:102F28002F00D21A060090409740DE40421E904182
:102F3800DD40374307434919674467459241524288
:102F48004E465518ECE5C046FE070000FFFF7FFF20
:102F5800FF070000002B00D1FCE6C7086B071F43E2
:102F68006346E8080B4300D11FE580231B03184282
:102F780007D0CA081A4204D163461000DF0849077F
:102F88000F437B0FFF00FF085B071F430DE56246F9
:102F98000D00D708D2E5C7086B071F43E808002AC9
:102FA80000D102E580231B031842EAD0CA081A425E
:102FB800E7D163460124DF084346490710000F4361
:102FC8001C40DEE760446045924169185242891806
:102FD80006000B0200D5F2E64A07F6080123324341
:102FE800C8088DE66346DF084B0744461F43C808F8
:102FF800DBE44446130035E71A002E00203AD64099
:10300800202B05D04022D31A9D402F000743BB46F2
:103018005F467B1E9F4137438EE7202300271B1AFC
:10302800F5E40023002A00D192E567460D00FF0869
:1030380084E53A001A4300D123E61D00BB460BE69F
:1030480017003300FF0879E5DB0852071A4308091F
:10305800022355E663460124DA0843464F0717431F
:10306800C8081C40A1E41E00471C69E467460D001F
:103078004E46013764E40F4BFF081D406A076D0296
:1030880001233A432D0B71E4130046E73300FF0890
:1030980054E567460D001E00013751E46A07FF0832
:1030A8003A4300092CE6C0086A0702430023E808EF
:1030B80026E6C046FFFF7FFFF0B5C6461E03360B67
:1030C800B0460D4E0C034D005F0000B5240B6D0D8E
:1030D8007F0DB5420BD0084900208F4204D14646E7
:1030E80016433000431E984180BCB846F0BD0443E7
:1030F8000120002CF8D1EEE7FF0700000B000200CA
:1031080070B5164D0C0382B049000020009201935F
:10311800240B490DDE0FA94204DD1148814203DD6D
:10312800104BF01802B070BD8020400320430E4CB5
:10313800641A1F2C08DD0D4B5B1AD8400300584257
:10314800002EEFD11800EDE7094B009A9C460300CA
:1031580061448B40E2401343F1E7C046FE030000A0
:103168001D040000FFFFFF7F33040000130400006C
:10317800EDFBFFFF70B5002816D0C317C5185D40DA
:10318800C40F280000F052F9104B1B1A5B055B0DA9
:103198000A2814DC02002E00153296400B22121A5F
:1031A800D5402D032D0B03E0002400230025002625
:1031B8001B052B43E40723433000190070BD0B386F
:1031C80085402D0300262D0BF2E7C0461E040000A3
:1031D80010B5041E10D000F029F90E4B1B1A5B0520
:1031E8005B0D0A280FDC0B222100121AD140153082
:1031F8000A038440120B01E0002300221B0513433D
:103208002000190010BD22000B3882401203002450
:10321800120BF3E71E04000070B542024300C40F0E
:10322800FE201B0E591C550A08420CD0E0218900CB
:103238008C466D07120B63441B051343E4072343B5
:103248002800190070BD002B14D1002D1BD02800B8
:1032580000F0ECF80A281CDC0B232A001B1ADA40C1
:10326800030015339D400E4B12031B1A5B05120B0E
:103278005B0DE1E7002D09D0130B802212031A43DE
:103288006D07084BD8E700230022D5E70022054B3D
:10329800D2E703002A000B3B9A400025E3E7C0462B
:1032A80089030000FF070000F0B54B000F035B0D1A
:1032B8003D4C450F83B07F0A5E1C2F43009001915F
:1032C800CA0FC50026420BD038495C18FE2C12DD07
:1032D800FF200023C0051843D207104303B0F0BDF8
:1032E80000203D43002BF5D0002DF1D08023DB03D7
:1032F800FF203B43EEE7002C0CDD009BFF009B0109
:10330800581E8341690F3B430B43590725D1DB08FE
:10331800E0B2DFE7210017312EDB80211E200904EF
:103328003943001B1F282ADD02267642341B0E0073
:10333800E6403400202804D01D4884466344994060
:103348000D432B00591E8B412343072118000840C9
:103358000B421FD19B015B0ABCE70F2119400429CE
:1033680003D19B015B0AE0B2B4E704335901F8D5F5
:1033780001340023E0B2ADE700200023AAE70D4C9A
:103388001C192B00A540C340A140681E8541294354
:103398000B43DAE70F21002419400429E5D19B01EA
:1033A80020005B0A96E7C046FE07000080FCFFFF8E
:1033B800A2FCFFFF82FCFFFF844608006146FFE78E
:1033C8001FB500F0C1F8002801D40021C8421FBD74
:1033D80010B500F049F84042013010BD10B500F0BA
:1033E800B3F8002801DB002010BD012010BDC04645
:1033F80010B500F0A9F8002801DD002010BD01205B
:1034080010BDC04610B500F057F8002801DC0020B8
:1034180010BD012010BDC04610B500F04DF80028C1
:1034280001DA002010BD012010BDC0461C21012377
:103438001B04984201D3000C10391B0A984201D38F
:10344800000A08391B09984201D30009043902A26D
:10345800105C40187047C0460403020201010101D4
:10346800000000000000000070B542004E024C0051
:1034780045026D0A120EC30F760A240EC90FFF2AE1
:1034880010D0FF2C0CD00120A2420AD1B54208D19D
:103498008B420FD0002A04D12800431E984100E037
:1034A800012070BD0120FF2CFBD13543F9D14B40E1
:1034B8001800F6E70020F4E730B5420044024D0258
:1034C800C30F4800640A120E6D0A000EC90FFF2AC6
:1034D80018D0FF280AD0002A1ED100280AD1002DB2
:1034E80029D0002C2DD14800013830BD002D25D120
:1034F800002A01D1002CF6D08B4219D001205B4262
:103508001843F2E7002C19D1FF28F7D1002D15D167
:1035180000208B42F2D1E8E70028EFD08B42EDD1B2
:103528008242EBDC04DBAC42E8D80020AC42DCD2BF
:1035380058000138D9E7002CD7D0DFE702204042F5
:10354800D3E78B42DAD1EEE730B5420044024D02B0
:10355800C30F4800640A120E6D0A000EC90FFF2A35
:1035680017D0FF280AD0002A1BD100280AD1002D25
:103578001DD0002C2DD14800013811E0002D0ED1AE
:10358800002A01D1002CF6D08B420CD1580001380A
:1035980006E0002C03D1FF2805D1002D15D002200C
:1035A80030BD002806D101205B421843F8E7002C03
:1035B800F6D0F8E78B42F6D18242F4DCE6DBAC4287
:1035C800F1D80020AC42EBD2E0E700208B42EAD1F0
:1035D800E6E78B42E7D1F2E710B500280CD0A0202F
:1035E80001220221C00505F051FC0A4B38215A5C22
:1035F800042002435A5410BDA02000220221C00515
:1036080005F044FC034B38215A5C042082435A5489
:10361800F1E7C046C802002070B505000020FFF79A
:10362800DBFF054C256001232371611D0122280061
:1036380008F04CFF207170BDBC000020054B002233
:1036480024215A5404315A54DA84002147329954B7
:103658007047C046BC00002010B5FFF7EFFF002000
:10366800FFF7BAFF10BD000010B502680B4B9A4275
:1036780000D010BD0A4C2422A35C6079E11888713F
:103688000133A3540023E38401332371611D2068AF
:10369800233A08F01BFF2071EBE7C04600440040C6
:1036A800BC00002010B50268094B9A420DD010BD2D
:1036B800084B9B1800219971293319700132D2B235
:1036C8001D2AF5D9FFF7C8FFF1E70022F8E7C04641
:1036D80000440040BC00002030B5274B1B7A083B53
:1036E800D9B2012218001040134240D105293FD910
:1036F80049080300040006E001335D001E4A521920
:1037080092791443DBB28B42F6D34A1C52001A4B0F
:103718009B189B79A3421ED0030005E0164AD218D5
:10372800002191710133DBB21D2BF7D920E05C0039
:103738000334114A121992791543EDB20133DBB201
:103748008B42F4D3490003310B4B5B189B79AB4296
:103758000FD0030008E003000500F1E7064AD2187D
:10376800002191710133DBB21D2BF7D900E0002055
:1037780030BD0120FCE7C046BC000020F0B5C646BD
:1037880000B50400904681422CD9091A88B2FFF787
:103798001FFD0022334BFEF78FFD06000F002000AF
:1037A800FFF716FD02000B0030003900FEF742F962
:1037B80004000D004046FFF70BFD22002B00FEF72A
:1037C8007BFD0022274BFEF735F9FCF777FD030058
:1037D8004344254A934203D8180080BCB846F0BD3C
:1037E800224BF9E7814236D2411A88B2FDF7C2FC72
:1037F800FFF712FD00221B4BFEF75EFD06000F00CF
:103808002000FDF7B7FCFFF707FD02000B003000B2
:103818003900FEF70FF9FFF747FDFFF7FDFC04003D
:103828000D004046FDF7A6FCFFF7F6FC22002B0032
:10383800FEF742FDFCF742FDFFF7CAFC0022094BE8
:10384800FEF7F8F8FCF73AFD43461B1A002B06DD95
:1038580043461B1AC0E78142BED11300BCE70023D0
:10386800BAE7C0460000594017FCE70318FCE70315
:1038780070B52E4B1A7C6420504380B25A7C801855
:1038880080B21B7B202B07D8022B11D3202B0FD8FB
:103898009B00274AD3589F46402B10D0802B07D136
:1038A800244DB8242A59244B9988FFF767FF2851DB
:1038B800214B38215A5C022002435A5470BD1D4DD9
:1038C800BC242A591C4BD988FFF758FF2851EFE729
:1038D800184DC0242A59184B1989FFF74FFF285152
:1038E800E6E7144DC4242A59134B5989FFF746FFBC
:1038F8002851DDE70F4DC8242A590F4B9989FFF746
:103908003DFF2851D4E70B4DCC242A590A4BD989BD
:10391800FFF734FF2851CBE7064DD0242A59064B30
:10392800198AFFF72BFF2851C2E7C046BC000020C8
:10393800B4CE0008D8010020C802002070B52C4B76
:103948005B79702B49D012D8402B3CD008D8202B5B
:1039580022D0302B37D0102B1ED0002400252CE08D
:10396800502B30D0602B17D00024002525E0A02B49
:1039780009D1204B1868596800221F4BFEF79CFCA0
:1039880004000D0011E0A02B2BD8802B04D0902B25
:1039980002D00024002510E0164B18685968002250
:1039A800164BFEF789FC04000D000022144B200082
:1039B8002900FCF761FC002816D120002900FCF73B
:1039C8007DFC80B270BD0B4B1868596800220D4B06
:1039D800FEF772FC04000D00E7E7064B1C685D6803
:1039E800E3E700240025E8E70024054DE5E7C046A5
:1039F800D8010020D80500200088C34000005940A5
:103A0800C0FFEF4000408F40F8B5CA4BDB7A402B2F
:103A180000D105E152D8202B00D187E0302B00D10E
:103A2800D9E0102B38D1C34B5A7AAA20987199241F
:103A3800DC7118211972997A59729A721022DA7205
:103A4800BD4A3C21515C19733D21515C0125294334
:103A580059733E21515C99733F21515CD9734221BE
:103A6800515A0D0A1D7459744421515A0D0A9D74F6
:103A7800D9744621515A0D0A1D7559754821525A53
:103A8800110A9975DA7500221A765A769C76D876D4
:103A98000D321A77033A5A77A64B1A7A083AD2B2F5
:103AA800520800230020934200D311E101335C0047
:103AB800A049091989790843DBB2F4E7502B00D1F2
:103AC800E7E06A2BE8D19B4B5A7AAA20987199248F
:103AD800DC7118211972997A59729A726A22DA720B
:103AE800954A3C21515C19733D21525C01210A43DE
:103AF8005A7300229A73DA739049CD882E0A1E747D
:103B08005D740D892E0A9E74DD744D892E0A1E750A
:103B18005D7589890D0A9D75D9751A765A769C76D0
:103B2800D8760D321A77033A5A77B5E7824B38229E
:103B38009B5CDB0731D47F4B5C7A7F4A3C20115C6D
:103B48001D7B294311543D25505D597B07260F00E5
:103B5800B743384350550135505D9E7B304350552F
:103B68000135505DDE7B30435055AA229A71992069
:103B7800D8712F3D1D729D7A5D729C722024DC7273
:103B88000124214359730021197459749874DA7403
:103B98009D3A1A75033A5A757EE7002000F0E8F955
:103BA800002000F009FA002000F02AFA002000F0B6
:103BB80049FA002000F068FA002000F087FA002097
:103BC80000F0A6FA002000F0C3FA002000F0E2FAA4
:103BD80000F0AAFCAFE7FFF7B1FE564B5A7AAA21CC
:103BE80099719924DC7110251D729D7A5D729A7203
:103BF8003022DA72504AC625AD00525D1A735A7BDC
:103C080001252A435A73020A9A73D87300221A7438
:103C18005A749C74D9740D321A75033A5A753BE775
:103C280044494C7A444B38201A5C01252A431A54DB
:103C38004A7B130723D5404B3C25595D3D48007B03
:103C48004126B043014359553A4BAA21997199200D
:103C5800D87110251D729D7A5D729C724024DC72A9
:103C6800012422435A7300229A73DA731A745A741D
:103C78009874D9740D321A75033A5A750CE72E4B9D
:103C88003C25595D2B48007B4126B043814359555B
:103C9800DAE7284C657AFFF7EBFDAA22A271992191
:103CA800E17112232372A37A6372A5725023E3721F
:103CB800637B0120034363730023A373E373A3743B
:103CC800E374217562750D33A375033BE375E3E671
:103CD800511C4900174B5B1898710023002493422C
:103CE80008D2580003301349091889790C43013365
:103CF800DBB2F4E7520003320E4B9A1894711C7A27
:103D08000023A3420AD20B4AD21890791100293114
:103D18000870002191710133DBB2F2E7FFF78EFCE6
:103D2800044B2B229A5C19002931186807F05CFCB7
:103D3800F8BDC046BC000020C8020020D801002001
:103D480010B5FFF7C9FC00280BD0074B9A7A074B30
:103D58005B799A4202D0FFF77FFC10BDFFF754FE53
:103D6800FBE7FFF779FCF8E7BC000020D80100204A
:103D780010B5504B28229B5C002B78D14D4B9B797A
:103D8800AA2B09D0AA2B7BD04A4B24229B5C002B60
:103D980076D0FFF761FC73E0464A2421525C002A82
:103DA800F0D0444BDB79992B06D0992B68D0012AA7
:103DB80066D9FFF751FC63E0012AF6D93D4B197A21
:103DC8004B1EDBB21D2B4BD8022A49D9081F394B91
:103DD8001B189B79992B07D0992B51D00339914205
:103DE8004EDCFFF739FC4BE0C81E844610009445B2
:103DF800F2DC304B63449B79AA2B07D0AA2B3FD027
:103E0800023988423CDBFFF727FC39E08C1EA446C8
:103E1800A242F3DB274B63449B790D2B07D00D2B74
:103E28002ED0013988422BDBFFF716FC28E04C1E08
:103E3800A446A242F3DB1F4B63449B790A2B06D0AE
:103E48000A2B1DD08A421BD3FFF706FC18E08A42D2
:103E5800F6D3184B012028229854FFF7BDFB0FE03A
:103E68001D2B0DD9022A0BD9FFF7F6FB08E0114BE1
:103E780047229B5C042B03D80E4A01334721535435
:103E88000C4B24229B5C002B06D00A4BDB8CC72BE7
:103E980002D8084A0133D384064BDB8CC72B04D9DC
:103EA800044B28229B5C002B00D010BDFFF7D4FBED
:103EB800FBE7C046BC00002010B50D4B1B79002B5A
:103EC80005D10B4B28229B5C012B08D010BD09495A
:103ED8004C1F2068012208F0F9FA2071F1E7044B21
:103EE8001F329B5C042BF1D9FFF72AFFEEE7C0468F
:103EF800BC000020C1000020F0B583B005000F0011
:103F0800160004F011FE15480223036002334360D3
:103F18001B3383601E3BC36001A904F0B9FE00286F
:103F28000FD10024A64214DDE300FB181A685B6871
:103F38002900012004F04CFE002805D10835013481
:103F4800F0E704F009FE07E004F074FE04F004FE54
:103F580002E004F06FFE002003B0F0BD0401002071
:103F680030B530C830C1013A92B2002AF9D130BD1B
:103F780010B500280ED0012818D180210022490050
:103F88000B4804F083FF0B4B40215A5C012002438D
:103F98005A540BE0802101224900054804F076FFBD
:103FA800044B40215A5C012082435A5410BDC0463C
:103FB80000040050C802002010B500280ED00128C7
:103FC80018D18021002289000B4804F05FFF0B4BB9
:103FD80040215A5C022002435A540BE080210122FE
:103FE8008900054804F052FF044B40215A5C022026
:103FF80082435A5410BDC04600040050C802002035
:1040080010B500280DD0012816D1002280210B48B8
:1040180004F03CFF0A4B40215A5C042002435A54E6
:104028000AE001228021054804F030FF044B4021BA
:104038005A5C042082435A5410BDC0460004005004
:10404800C802002010B500280DD0012816D1002282
:1040580040210B4804F01AFF0A4B40215A5C082003
:1040680002435A540AE001224021054804F00EFF99
:10407800044B40215A5C082082435A5410BDC04664
:1040880000040050C802002010B500280DD00128F7
:1040980016D1002220210B4804F0F8FE0A4B4021DB
:1040A8005A5C102002435A540AE001222021054894
:1040B80004F0ECFE044B40215A5C102082435A5411
:1040C80010BDC04600040050C802002010B50028EA
:1040D8000DD0012816D1002210210B4804F0D6FE7D
:1040E8000A4B40215A5C202002435A540AE001221C
:1040F8001021054804F0CAFE044B40215A5C2020D8
:1041080082435A5410BDC04600040050C802002023
:1041180010B500280DD0012815D1002208210A4821
:1041280004F0B4FE094B40215A5C402002435A5423
:1041380009E001220821044804F0A8FE034B4022AC
:10414800995C9143995410BD00040050C8020020A6
:1041580010B500280ED0012817D1002208210B48DD
:1041680004F094FE0A4B4021585C802252420243DC
:104178005A540AE001220821044804F087FE044B3F
:104188004021585C7F2202405A5410BD000C005058
:10419800C802002010B500280CD0012814D1002234
:1041A80004210A4804F072FE094A537801210B439E
:1041B800537009E001220421044804F067FE044A10
:1041C800537801218B43537010BDC046000C00503A
:1041D8000803002070B53C4B1C6A5B6A3B4A916936
:1041E800002B1ED0394A50690A18002B1FD0374DB2
:1041F800ED695219002B23D08A18002B29D080187A
:10420800002B2FD02D18002B35D04919002B3BD16E
:10421800A14239D90020FFF7BDFF0120FFF798FF21
:1042280004E0A142DED90120FFF792FF70BDA2424F
:10423800DDD90020FFF78CFF0120FFF769FFF5E7C4
:10424800A242D9D90020FFF763FF0120FFF7A2FFA0
:10425800ECE7A242D3D90020FFF79CFF0120FFF72B
:1042680077FFE3E7A042CDD90020FFF771FF0120D7
:10427800FFF74EFFDAE7A542C7D90020FFF748FF4E
:104288000120FFF787FFD1E70020FFF783FF002019
:10429800FFF73EFF0020FFF75BFF0C4BC4229200A4
:1042A8009A180020002110605160C6229200002157
:1042B80099543D31585C7F2202405A54024B0020E9
:1042C800002118625962B1E718010020C8020020D5
:1042D80030B5234B3D22995C9B56002B30DB204A9E
:1042E8003C20135C1256002A34DB5A0603D51D48BD
:1042F8004268013242609A0603D51A488268013240
:104308008260DA0603D51748C2680132C2601A070C
:1043180003D514480269013202615A0703D51148CE
:104328004269013242619B0703D50E4A9369013302
:104338009361490603D50B4AD3690133D36130BD74
:104348000848026A436A0124002512196B41026277
:104358004362C4E70348026801320260C5E7C04609
:10436800C80200201801002010B50C4B1A680C4B2D
:10437800B8215B589A4203D20120FFF7F9FD10BD1E
:104388000020FFF7F5FD054B00221A60054B3C2184
:10439800585C7F3202405A54F1E7C04618010020A9
:1043A800D8010020C802002010B50C4B5A680C4BED
:1043B800BC215B589A4203D20120FFF7D9FD10BDFA
:1043C8000020FFF7D5FD054B00225A60054B3C2124
:1043D8005A5C402082435A54F1E7C0461801002035
:1043E800D8010020C802002010B50C4B9A680C4B6D
:1043F800C0215B589A4203D20120FFF7DDFD10BDB2
:104408000020FFF7D9FD054B00229A60054B3C219F
:104418005A5C202082435A54F1E7C0461801002014
:10442800D8010020C802002010B50C4BDA680C4BEC
:10443800C4215B589A4203D20120FFF7E1FD10BD69
:104448000020FFF7DDFD054B0022DA60054B3C211B
:104458005A5C102082435A54F1E7C04618010020E4
:10446800D8010020C802002010B50C4B1A690C4B6B
:10447800C8215B589A4203D20120FFF7E3FD10BD23
:104488000020FFF7DFFD054B00221A61054B3C2198
:104498005A5C082082435A54F1E7C04618010020AC
:1044A800D8010020C802002010B50C4B5A690C4BEB
:1044B800CC215B589A4203D20120FFF7E5FD10BDDD
:1044C8000020FFF7E1FD054B00225A61054B3C2116
:1044D8005A5C042082435A54F1E7C0461801002070
:1044E800D8010020C802002010B50C4B9A690C4B6B
:1044F800D0215B589A4203D20120FFF7E7FD10BD97
:104508000020FFF7E3FD054B00229A61054B3C2193
:104518005A5C022082435A54F1E7C0461801002031
:10452800D8010020C80200200A4B00221A605A60F5
:104538009A60DA601A615A61002000211862596293
:104548009A61DA61044B38215A5C013082435A542B
:104558007047C04618010020C802002010B5184B4B
:10456800DA69184BDB699A420BD3164989695B18DB
:104578009A420AD20020FFF70DFE0120FFF7E8FD5E
:1045880010BD0120FFF706FEFAE70020FFF7E0FD67
:104598000020FFF7FFFD0B4BC42292009A18002061
:1045A8000021106051600022C62189005A54044934
:1045B800CA613D215A5C402082435A54E0E7C04614
:1045C80018010020C802002010B54B4B38229B5C14
:1045D800DB0742D4484B04329B56002B28DB464B62
:1045E8003C229B5C5B0626D4434B3C229B5C9B068F
:1045F80024D4414B3C229B5CDB0622D43E4B3C221C
:104608009B5C1B0720D43C4B3C229B5C5B071ED465
:10461800394B3C229B5C9B071CD4374B3D229B5655
:10462800002B63DB344B3D229B5C5B0661D410BDE1
:10463800FFF79AFED3E7FFF7B7FED5E7FFF7D4FEFB
:10464800D7E7FFF7F1FED9E7FFF70EFFDBE7FFF744
:104658002BFFDDE7FFF748FFDFE7274B3C229B56A0
:10466800002B2BDB0020FFF783FC234B3C229B5CB9
:104678009B0627D50120FFF79FFC1F4B3C229B5C24
:10468800DB0623D50120FFF7BBFC1B4B3C229B5CC0
:104698001B071FD50120FFF7D5FC174B3C229B5C5D
:1046A8005B071BD50120FFF7EFFC134B3C229B5CFB
:1046B8009B0717D50120FFF709FDAEE70120FFF79B
:1046C80057FCD2E70020FFF777FCD6E70020FFF77A
:1046D80097FCDAE70020FFF7B5FCDEE70020FFF7DC
:1046E800D3FCE2E70020FFF7F1FC96E7FFF772FD45
:1046F80098E7FFF733FF9AE7C802002010B5074C88
:104708002060082106F072FD2068042106F06EFD85
:104718002068002106F06AFD10BDC0464001002057
:1047280010B5002804D1164B1B681B680024DC63F5
:10473800002904D1124B1B681B6800249C63002AC3
:1047480004D10F4B1B681B6800245C63002805D04C
:1047580080000B4B1B681B680138D863002905D003
:104768008900074B1B681B6801399963002A05D02B
:104778009200034B1B681B68013A5A6310BDC04680
:1047880040010020184B00221A8002329A70002241
:104798000021D9702B215A541A719860002305E022
:1047A800114AD218002111730133DBB2132BF7D948
:1047B800002306E00C4AD218203200211170013380
:1047C800DBB2092BF6D9084B00222A215A540231B0
:1047D8005A54DA851A865A869A86DA861A875A8742
:1047E8009A87DA877047C04644010020164B00229A
:1047F8001A8002329A70013ADA7000212A329954EA
:1048080000221A71002305E00F4AD2180021117303
:104818000133DBB2132BF7D9002306E00A4AD2187A
:104828002032002111700133DBB2092BF6D9064B77
:1048380000222A215A5402315A54DA851A865A8695
:104848009A86DA867047C0464401002010B50C4BA2
:104858001B88AF229200934205D2094A0133138084
:104868000023D38510BD064AD38D01339BB2D3856F
:10487800AF2292009342F5D3FFF7B8FFF2E7C046A4
:104888004401002002680B4B9A4200D070470A4A44
:104898002A21535C0133DBB25354092B05D9130089
:1048A80000225A5401315A541A71034B2C22002108
:1048B8009954EBE7005400404401002070B50268A9
:1048C8004D4B9A4200D070BD4C4A2A21535C0133AB
:1048D800DBB25354132B00D889E01600D08FFCF7B5
:1048E80049FCFEF799FC464A464BFDF7E5FC0400F7
:1048F8000D00707E0002337E1843FCF7EBFBFEF7D9
:104908008BFC414A414BFDF7D7FC02000B0020000D
:104918002900FCF775FCFBF7D1FCF087308FFCF71A
:1049280029FCFEF779FC364A364BFDF7C5FC040036
:104938000D00F07E0002B37E1843FCF7CBFBFEF7B8
:104948006BFC314A314BFDF7B7FC02000B0020002D
:104958002900FCF755FCFBF7B1FC3087708FFCF79A
:1049680009FCFEF759FC264A264BFDF7A5FC040076
:104978000D00707F0002337F1843FCF7ABFBFEF796
:104988004BFC214A214BFDF797FC02000B0020004D
:104998002900FCF735FCFBF791FC7087B08FFCF71A
:1049A800E9FBFEF739FC164A164BFDF785FC0400B7
:1049B8000D00F07F0002B37F1843FCF78BFBFEF776
:1049C8002BFC114A114BFDF777FC02000B0020006D
:1049D8002900FCF715FCFBF771FCB08700232A229D
:1049E800B354338000222B33F2542A3B3371034BE8
:1049F8002C220021995466E700540040440100200D
:104A0800666666666666E63F333333333333D33FD1
:104A180030B583B00C4C2A23E35C0C4AD15C80226D
:104A280052420A43D2B2A0680125019508331B19E6
:104A3800043300930123522104F0B0FB2C23E554E6
:104A4800013BE55403B030BD4401002038CF0008D5
:104A58000E4BD870012800D07047202203219954AA
:104A680000221E315A54DE312130195401301A54B3
:104A780001301A540130195401301954D8391738F3
:104A8800585401315A5401315A54E5E74401002081
:104A98002F4B597E1A7E09020A43DA86D97E9A7EFE
:104AA80009020A431A86597F1A7F09020A435A865D
:104AB800D97F9A7F09020A439A86D878012801D0BB
:104AC800002070471A7B20215B5C9A42F9D1204B69
:104AD8005A7B01315B5C9A42F3D11D4B9A7B0131C1
:104AE8005B5C9A42EDD11A4BDA7B01315B5C9A42EE
:104AF800E7D1174B1A7C01315B5C9A42E1D1144B28
:104B08005A7C01315B5C9A42DBD1114B9A7C0131B2
:104B18005B5C9A42D5D10E4BDA7C01315B5C9A42E0
:104B2800CFD10B4B1A7D01315B5C9A42C9D1084B3E
:104B38005A7D01315B5C9A42C3D1054B9B7D442B66
:104B480003D04D2BBDD10020BBE70020B9E7C046FC
:104B58004401002010B50A4B9B78022B08D0084B63
:104B6800DB78012B08D0FFF793FF054B987010BD39
:104B78000120FFF76DFFF6E70120FFF769FFF2E775
:104B88004401002010B582B0334B1A88AF239B0034
:104B98009A4204D3304B2A229B5C002B1DD02E4B0B
:104BA8002B229B5C012B18D0FFF7D4FF2A4B9A7855
:104BB800012A1ED0284B2B215B5C022B1DD0002A1A
:104BC80004D1254B2A329B5C002B38D0224B2B2258
:104BD8009B5C022B33D002B010BD1F4B2C229B5C78
:104BE800002BE1D11C4B1B79002BDDD1FFF710FF07
:104BF800DAE72A215B5C002BDCD1174B2C215B5CAC
:104C0800002BDCD1144B1B79012BD8D1124C293342
:104C1800E35C124AD15C802252420A43D2B2A068B5
:104C28000121019120331B1900930123513104F014
:104C38004BFA02232C22A354013AA354CBE7064B88
:104C48002C229B5C002BC6D1034B1B79012BC2D1B4
:104C5800014B00221A71BEE74401002038CF00083A
:104C6800034B9B78002B01D0002070470120FCE704
:104C78004401002030B5054C258F0580608F0880E1
:104C8800A18F1180E28F1A8030BDC04644010020F8
:104C9800F8B5CE46474680B505004A4B42229F5A92
:104CA8003800FCF767FA041C2888FCF763FA011C33
:104CB800201CFBF745FD061C2F8001240BE0E700B4
:104CC800785BFCF757FA311CFBF750FEFBF7DEFA6E
:104CD800E8530134E4B20A2CF1D93A4B44229E5AE3
:104CE8003000FCF747FA041C6888FCF743FA011CFB
:104CF800201CFBF725FD071C6E8001240CE0E60054
:104D0800AE197088FCF736FA391CFBF72FFEFBF753
:104D1800BDFA70800134E4B20A2CF0D9294B46223E
:104D28009E5A3000FCF726FA041CA888FCF722FAE1
:104D3800011C201CFBF704FD8046AE8001240CE01A
:104D4800E600AE19B088FCF715FA4146FBF70EFEEF
:104D5800FBF79CFAB0800134E4B20A2CF0D9194B65
:104D680048229E5A3000FCF705FA041CE888FCF734
:104D780001FA011C201CFBF7E3FC8146EE800124AC
:104D88000CE0E600AE19F088FCF7F4F94946FBF7A9
:104D9800EDFDFBF77BFAF0800134E4B20A2CF0D980
:104DA8004146381CFBF7BEFAFC218905FBF7DEFDFE
:104DB800054CFEF731FA20606160C0BCB946B046C8
:104DC800F8BDC046C802002000000020F0B5CE465D
:104DD800474680B589B003AC14220021200007F0B3
:104DE800F4FB204B5A6B012632435A635A6B32400C
:104DF8000092009A596B022211435963596B0A4079
:104E08000192019A596B0822114359635B6B1A404E
:104E18000292029B144B994600220C21180004F0C0
:104E280035F8FE239B009846104F002219003800E1
:104E380004F02CF80C230393049600250595069599
:104E48002100484603F068FF4346039304960595FE
:104E580006952100380003F05FFF09B0C0BCB946D1
:104E6800B046F0BD00100240000C00500004005095
:104E780070B5F04B5B79602B00D1ADE200D9BAE098
:104E8800302B00D1F8E154D8102B00D173E1202B3E
:104E980000D0C0E1E84BC82199800022DA8019814E
:104EA80059819A81DA811A82FF321A705A709A707F
:104EB800053AC73999540132013199543E32FF32CB
:104EC8009A180020002110605160902292009A18D0
:104ED80010605160922292009A18106051609422DA
:104EE80092009A1810605160962292009A181060E9
:104EF8005160982292009A18106051609A2292008C
:104F08009A18106051609C2292009A1810605160A3
:104F18009E2292009A1810605160A02292009A185E
:104F280010605160A2229200944663441860596050
:104F380071E1402B00D1FCE1502B00D06BE1BE4B5E
:104F4800FA22D2009A800022DA80C82119815A8177
:104F58009A81DA811A82FF321A705A709A70053A69
:104F6800C73999540132013199543E32FF329A18A7
:104F78000020002110605160902292009A180020B1
:104F8800AE4910605160922292009A1810605160E8
:104F9800942292009A1800208021C905106051605F
:104FA800962292009A1810605160982292009A18DE
:104FB8000020A349106051609A2292009A1810604C
:104FC80051609C2292009A1800209E4910605160FE
:104FD8009E2292009A1810605160A02292009A189E
:104FE8000020994910605160A222920094466344BF
:104FF800186059600FE1902B00D1AFE266D8702B92
:1050080000D148E2802B00D005E18B4BFA229200B8
:105018009A800022DA8019211981AF3159816439C7
:105028009981DA81DC22FF321A82DC3A1A705A70CE
:105038009A70053A633999540132013199543E32D4
:10504800FF329A18002000211060516090229200CF
:105058009A187E487E4910605160922292009A18F0
:105068007A487C4910605160942292009A187748D7
:10507800794910605160962292009A181060516028
:10508800982292009A1875487549106051609A22C2
:1050980092009A18106051609C2292009A186B48EE
:1050A8007049106051609E2292009A1810605160F9
:1050B800A02292009A180020604910605160A22234
:1050C80092009446634418605960A4E0A02B02D073
:1050D800FF2B00D09FE0584BFA21890099800022CD
:1050E800DA8019815A819A81DA811A82FF321A701C
:1050F8005A709A70053A0121995401320131995434
:105108003E32FF329A180020002110605160902230
:1051180092009A1810605160922292009A181060BA
:105128005160942292009A18106051609622920061
:105138009A1810605160982292009A181060516075
:105148009A2292009A18106051609C2292009A1834
:10515800106051609E2292009A1810605160A0223F
:1051680092009A1810605160A222920094466344FB
:10517800186059604FE0304BFA22D2009A80002222
:10518800DA80C82119815A819A81DA811A82FF321C
:105198001A705A709A70053AC73999540132013118
:1051A80099543E32FF329A18002000211060516055
:1051B800902292009A1810605160922292009A18D8
:1051C80010605160942292009A18106051609622E3
:1051D80092009A1810605160982292009A181060F4
:1051E80051609A2292009A18106051609C22920095
:1051F8009A18106051609E2292009A1810605160AF
:10520800A02292009A1810605160A222920094463F
:10521800634418605960084B134A5A82134A5A610A
:10522800134A9A61134ADA61FA221A629A620025CD
:105238000EE2C046D8010020C80200200000F03F5E
:105248000000104000002440000034409A999999C9
:105258009999B93F9999C93F9999D93F33333333CC
:105268003333E33F9999E93F140500009065000046
:10527800D8D6000010270000F74B962252009A80DB
:105288000022DA80962119815A819A81DA811A825C
:10529800FF321A705A709A70053A9539995401324A
:1052A800013199543E32FF329A18002000211060D3
:1052B8005160902292009A18E848E94910605160BC
:1052C800922292009A1810605160942292009A18C3
:1052D800E248E44910605160962292009A181060E2
:1052E8005160982292009A18DC48DF49106051609A
:1052F8009A2292009A18106051609C2292009A1883
:105308000020DA49106051609E2292009A181060BD
:105318005160A02292009A180020D549106051606F
:10532800A2229200944663440020D2491860596032
:1053380071E7C94BFA22D2009A800022DA80C8218C
:105348001981643159819A81DA811A82FF321A707F
:105358005A709A70053A2C39FF3999540132013143
:1053680099543E32FF329A18002000211060516093
:10537800902292009A1810605160922292009A1816
:1053880010605160942292009A1810605160962221
:1053980092009A1810605160982292009A18106032
:1053A80051609A2292009A18106051609C229200D3
:1053B8009A18106051609E2292009A1810605160ED
:1053C800A02292009A1810605160A222920094467E
:1053D8006344186059601EE79F4BA74A9A800022D1
:1053E800DA801E2119815A819A81DA8178321A82EB
:1053F80087321A705A709A700021053A995401320E
:10540800022199543E32FF329A1800200021106080
:105418005160902292009A180020944910605160BF
:10542800922292009A1810605160942292009A1861
:1054380000208F4910605160962292009A1800202F
:105448008C4910605160982292009A1800208B496C
:10545800106051609A2292009A18002088491060C2
:1054680051609C2292009A18002086491060516071
:105478009E2292009A1810605160A02292009A18F9
:105488000020814910605160A22292009446634432
:1054980018605960BFE6704BFA2252009A80913A20
:1054A800FF3ADA801A81372159819A810022DA81FC
:1054B800822292001A820A3AFF3A1A705A709A7037
:1054C800053A363999540132013199543E32FF3246
:1054D8009A180020002110605160902292009A18BA
:1054E80000208021C90510605160922292009A180C
:1054F8000020664910605160942292009A1800209A
:10550800634910605160962292009A1810605160A9
:10551800982292009A1800205E49106051609A22E1
:1055280092009A18106051609C2292009A180020EC
:105538005049106051609E2292009A181060516084
:10554800A02292009A1800204C4910605160A222B3
:10555800920094466344186059605CE63E4BFA2218
:1055680092009A800022DA806421198159819A81F7
:10557800DA81912292001A82463AFF3A1A705A70DA
:105588009A70053A633999540132013199543E327F
:10559800FF329A180020002110605160902292007A
:1055A8009A1800208021C90510605160922292004B
:1055B8009A1810605160942292009A18002033497A
:1055C80010605160962292009A18106051609822DB
:1055D80092009A1800202E49106051609A22920079
:1055E8009A18106051609C2292009A18002029494C
:1055F800106051609E2292009A1810605160A0229B
:1056080092009A1800201B4910605160A222920053
:105618009446634418605960FDE51F49AB001B19A7
:105628005A008A18D6880C4A1800243040001018EE
:10563800468018002C3040000918C98850335B0098
:10564800D21851800134E4B2032CE6D90135EDB209
:105658000A2D23D80024F7E7C80200209A999999BF
:105668009999B93F9999C93F9999D93F0000F03F55
:105678000000144000002440DC0500000000344015
:1056880000003E4000004440000049400000104037
:105698000000184000002040D8010020054B3D22A2
:1056A800995C042081439954C8B27F2101409954E0
:1056B80070BDC046C8020020F0B5D6464F464646E3
:1056C800C0B5C04B5B79602B01D100F05CFE00D9FE
:1056D800B2E1302B01D100F0BAFC00D9B9E0102BAF
:1056E80001D100F0FFFB202B01D000F0ABFCB54B43
:1056F800B54ADA805E215A52B44A1A8102315A52A6
:10570800B34A5A8102315A52B24A9A8102315A52E4
:10571800B14ADA8102315A52B04A1A8202315A52D7
:10572800AF4A5A8202315A52AE4A9A8202315A52CA
:10573800AD4CDC826E229C52AC48188302329852DF
:10574800AB49598302329952AA4A9A8374255A530B
:10575800DC8302355C5318847824185359847A20E2
:1057680019529A847C215A52A34CDC847E229C5282
:10577800A248188502329852A14959850232995295
:10578800A04A9A850E355A53DC8502355C53188633
:105798008824185359868A2019529A868C215A527D
:1057A800994CDC868E229C5298481887023298526F
:1057B8009749598702329952964A9A870E355A5311
:1057C800DC8702355C534024185358341853422060
:1057D80019525830195244215A5258315A528E4C43
:1057E80046229C5258329C528C48563A985258320B
:1057F80098528B49563A995258329952894A4A3D99
:105808005A5358355A53563D5C5358355C535024B7
:1058180018535834185352201952583019525421D9
:105828005A5258315A52804A56395A5258315A5255
:105838007E4A56395A5258315A527D4A56395A5226
:1058480058315A527B4A56395A5258315A5200F0F6
:10585800F9FB402B01D100F0E5FC502B00D0F1E31F
:10586800584B594ADA805E215A52584A1A810231F5
:105878005A52574A5A8102315A52564A9A8102312B
:105888005A52554ADA8102315A52544A1A8202311E
:105898005A52534A5A8202315A52524A9A82023111
:1058A8005A52514CDC826E229C5250481883023264
:1058B80098524F495983023299524E4A9A83742515
:1058C8005A53DC8302355C5318847824185359845E
:1058D8007A2019529A847C215A52474CDC847E22C1
:1058E8009C524648188502329852454959850232D9
:1058F8009952444A9A850E355A53DC8502355C53D1
:1059080018868824185359868A2019529A868C2119
:105918005A523D4CDC868E229C523C4818870232F3
:1059280098523B495987023299523A4A9A870E351A
:105938005A53DC8702355C534024185358341853A3
:10594800422019525830195244215A5258315A5249
:10595800314C46229C5258329C523048563A985202
:10596800583298522E49563A9952583299522D4ADD
:105978004A3D5A5358355A53563D5C5358355C5333
:105988005024185358341853522019525830195269
:1059980054215A5258315A52234A56395A52583178
:1059A8005A52224A56395A5258315A52204A56396E
:1059B8005A5258315A521F4A56395A5258315A5225
:1059C80040E3C046D80100205E470000BA38000016
:1059D800933F00005DC8FFFF023F00001F34000036
:1059E8001E3B000054B6FFFFB0360000612F0000D8
:1059F8008136000001A4FFFFB7280000F22600004E
:105A08003C2E00002684FFFF141F0000AD2000007C
:105A1800F6270000146D0000B3160000BF1A00003E
:105A2800E1210000D9570000491100009916000033
:105A3800851D000050490000902B01D100F084FE24
:105A480000D9F5E0702B01D100F0CCFD802B00D0FF
:105A5800F8E2D24BD24ADA805E22D2499952D24A2F
:105A68001A816022D1499952D14A5A816222D14978
:105A78009952D14A9A816422D0499952D04ADA81FE
:105A88006622D0499952D04A1A826822CF4999523F
:105A9800CF4A5A826A22CF499952CF4A9A826C22B7
:105AA800CE499952CE4ADA826E22D521890199527D
:105AB800CC4A1A837022CC499952CC4A5A83722212
:105AC800CB499952CB4A9A837422CB499952CB4AF3
