:020000040800F2
:10000000002000209D2C0008352800083D2800080D
:1000100000000000000000000000000000000000E0
:10002000000000000000000000000000452800085B
:1000300000000000000000004F28000859280008B8
:10004000ED2C000800000000ED2C0008ED2C00084D
:10005000ED2C0008ED2C0008ED2C0008ED2C00081C
:1000600000000000ED2C0008ED2C0008ED2C00082D
:10007000ED2C0008ED2C0008ED2C0008000000001D
:10008000852800080000000000000000ED2C00089A
:1000900000000000ED2C0008ED2C00089D28000851
:1000A000ED2C0008ED2C0008ED2C0008ED2C0008CC
:0800B000CD280008000000004B
:1000B80010B5064C2378002B07D1054B002B02D036
:1000C800044800E000BF0123237010BD5C0000203D
:1000D80000000000FC8A0008044B10B5002B03D078
:1000E8000349044800E000BF10BDC04600000000FE
:1000F80060000020FC8A000803B4714649084000EB
:100108004900095E49008E4403BC70470022430839
:100118008B4274D303098B425FD3030A8B4244D3C7
:10012800030B8B4228D3030C8B420DD3FF22090209
:1001380012BA030C8B4202D31212090265D0030BC8
:100148008B4219D300E0090AC30B8B4201D3CB03BE
:10015800C01A5241830B8B4201D38B03C01A524100
:10016800430B8B4201D34B03C01A5241030B8B4202
:1001780001D30B03C01A5241C30A8B4201D3CB02ED
:10018800C01A5241830A8B4201D38B02C01A5241D2
:10019800430A8B4201D34B02C01A5241030A8B42D5
:1001A80001D30B02C01A5241CDD2C3098B4201D3ED
:1001B800CB01C01A524183098B4201D38B01C01A6B
:1001C800524143098B4201D34B01C01A52410309E2
:1001D8008B4201D30B01C01A5241C3088B4201D391
:1001E800CB00C01A524183088B4201D38B00C01A3E
:1001F800524143088B4201D34B00C01A5241411A65
:1002080000D20146524110467047FFE701B5002071
:1002180000F006F802BDC0460029F7D076E770471F
:100228007047C04670B500220C4B04000D0001F069
:1002380025FB002804D12000290001F067FA70BDD1
:10024800064B00222000290000F0C4FE01F05EFAEF
:1002580080231B069C466044F1E7C0460000E0414D
:1002680070B5002813D0C317C5185D40C40F280007
:1002780001F00EFB9E2301001B1A962B0FDC0828A9
:1002880034D008398D406D026D0AD8B202E00024DE
:1002980000200025C0052843E407204370BD992BA2
:1002A80016DC421F052800D095402A00114802405C
:1002B8006E0709D00F263540042D05D004325501AC
:1002C80002D59F2302405B1A9201550AD8B2E1E792
:1002D8000522121A2800D040020008001B30854071
:1002E8002800451EA84102431500DEE76D0296204E
:1002F8006D0ACFE7FFFFFFFB70B5041E0ED001F0BB
:10030800C7FA9E2301001B1A962B0CDC08282FD055
:1003180008398C406402640AD8B201E00020002445
:10032800C005204370BD992B16DC421F052800D05C
:100338009440220010480240650709D00F252C4040
:10034800042C05D00432540102D59F2302405B1AC5
:100358009201540AD8B2E3E7020020001B32904011
:100368000200501E82410520401AC4401443E0E7B1
:1003780064029620640AD3E7FFFFFFFBF0B55746F7
:100388004E464546DE46E0B583B0009001910C0329
:100398004F00CE0F610A009C1D03640F0C430099A7
:1003A80000920193C80059004B0D9946009A019B91
:1003B8006D0AD90F530F2B439A46009B7F0DDA0025
:1003C80094464A46B046BA1A8E4200D1B0E0002A96
:1003D80000DC78E04946002900D1E9E0C9498F42AC
:1003E80000D195E10125382A16DC802153460904FD
:1003F8000B439A461F2A00DDE7E1202155468B1A58
:1004080061469D40D1400D43614699404B1E99413C
:100418005346D3400D43E41A451BA842804140424D
:10042800241A230200D40FE16402640A002C00D1CC
:1004380039E1200001F02CFA0300083B20212800B4
:10044800CA1AD0409C4002009D4022439F4200DDD2
:1004580073E1D81B0130091A2C008D40C4406B1E73
:100468009D411300C2408B402543002714001D43C3
:100478006B0709D00F232B40042B05D02B1DAB4253
:10048800AD416D4264191D00230200D42DE19D4A3F
:100498000137974200D1D3E046469B49ED082140F9
:1004A8004A072A437C054D022D0B640D24052C4375
:1004B800F60734431000210003B0F0BCBB46B24637
:1004C800A946A046F0BD002A00D184E04A46D21BC6
:1004D800002F00D06DE12500054300D127E1561E0D
:1004E800012A00D13BE2874DAA4200D16AE20125E8
:1004F800382E12DC32001F2A00DDF8E12026250004
:10050800B61A07005346B040D440B540D740461EFF
:10051800B0411B1B9A463D4305436246551BAC45FB
:100528009241534652420E004F4688469C1A78E73D
:10053800002A00DC8EE04946002975D16146534601
:10054800194300D1F6E0511E012A00D191E16D4D09
:10055800AA4200D1DCE00125382914DC0A001F2A50
:1005680000DDA2E120215346891A8B401D00634615
:10057800D3401D4363468B4019004B1E9941534697
:10058800D3400D43E4182D18854280414042241879
:10059800230259D55B4B01379F4251D001215A4B59
:1005A8006A081C4029400A43E507154364085FE7C9
:1005B80061465346194300D1BCE0511E012A00D1BF
:1005C80064E1504DAA4200D16AE10125382900DDD5
:1005D80022E70A000EE74D4A7D1C154200D0D0E004
:1005E80025006246534605431A43002F00D037E1E1
:1005F800002D00D1A8E1002A00D16AE16346C51A9E
:100608005346E21AA8429B415B42D31A1A0200D40D
:1006180003E263461D1AAC459241534652421C1BE5
:100628000E008846A41A23E736498F4270D0012568
:10063800382AA8DC8021534609040B439A468EE7E2
:100648003C000025002231E707232B40002B00D077
:1006580010E793E0002A74D04A46D21B002F00D13D
:10066800C7E02849894500D185E10125382A12DCEF
:10067800802109040C431F2A00DDABE1202125005D
:10068800891A070088408D40D740411E8841D440D0
:100698003D430543A2446544654592415242524454
:1006A80014004F4674E7280001F0F2F803001833ED
:1006B8001F2B00DCC2E62A00083882409F4200DD7A
:1006C800A9E0DB1B581C1F2800DCACE115001F3B10
:1006D800DD40202805D040231B1A9A40531E9A411A
:1006E8001543072300272B40B0E7ED08054B6207A9
:1006F8002A43E4089F420FD02403250B7C05640D90
:10070800D4E6C046FF070000FFFF7FFFFE0700009A
:10071800C00862070243E4081300234300D186E1BE
:1007280080252D0325432D03C34C2D0BBEE66046C3
:1007380054460E001700C508D8E7C04CFF1A1440ED
:1007480096E6BF4A791C11426BD122000243002F62
:1007580000D0DBE0002A00D12DE1624653461A435F
:1007680000D1B6E06346C5188542804154444042F2
:100778002418230202D50F00B04B1C403A00280071
:10078800D8E76246851AA84292415346524291469A
:10079800E31A1A004B46D21A130091461A0254D48F
:1007A8004A464C462A4300D040E60026002400254D
:1007B8007CE6A14DA94500D190E00125382A00DD4D
:1007C800ABE680252D042C4395E6110055462039CB
:1007D800CD40A946202A06D0402153468A1A934084
:1007E80062461A43944665466B1E9D414B461D431F
:1007F80012E62100014300D1C4E0511E012A00D1B4
:10080800FBE08D4DAA4200D1B5E00125382900DD75
:1008180041E70A002FE7894CFF1A14406207E408F1
:100828006AE7854A914200D1E3E06346C2188242F2
:1008380080412300404253441B18DD075C0807230E
:10084800520815430F002B4000E763461D1AAC45BC
:100858009241534652421C1B0E008846A41AE5E5F5
:10086800002D00D091E0002A38D1802400262403EE
:1008780056E76346C51885428041544440422418CF
:100888000127230200D4DFE6022787E66346C51A5C
:10089800A842804153464042E41A0127241AC0E581
:1008A8006207C0080243E40836E7110053462039BE
:1008B800CB409946202A06D0402153468A1A9340B5
:1008C80062461A43944665466B1E9D414B461D433E
:1008D80059E66207C0080243E4080DE753465A0781
:1008E8006346D80853460E000243DC0814E7150097
:1008F8002600203DEE40202A03D04025AA1A944025
:100908002043421E90410500354306E6002A7CD06C
:1009180062465346C0081A4300D1FAE662071043FC
:100928008022E4081203144208D0D908114205D1E4
:100938006346D80853460C005B071843420FC000B3
:10094800C00852070243E7E6002A00D12DE76346B4
:10095800D80853465A070E000243DC08CCE6634623
:100968001D1AAC459241534652421C1B0E00884644
:10097800A41A013755E56346D90853465A070A436E
:10098800DC08C9E660465446D4E6C008002A00D10F
:10099800BFE6620710438022E40812031442CDD058
:1009A800DD081542CAD16346D80853465B070E00D6
:1009B8002C001843C2E76346D90853465A070A432E
:1009C800DC0899E66346D80853465A070E000243E6
:1009D800DC08A1E6110027002039CF40202A03D0E7
:1009E80040218A1A94402043421E904105003D430D
:1009F80051E60C000025002258E56044604592410C
:100A0800544452420500A4183AE753465A0763462D
:100A1800D90853460A43DC087EE61A001C002A431C
:100A280000D0ABE6C1E620210025091A19E500220D
:100A38000025014C3AE5C046FF070000FFFF7FFF95
:100A4800FE070000F0B55746DE464E464546E0B57F
:100A58001F000B031B0B16009A46CA0F4B0004001D
:100A6800934687B05B0D00D1D5E0BB4A934200D1D5
:100A7800F8E05146420FC9000A4380210904114396
:100A8800C2009146B54A8A469D18002398460293AB
:100A98003C037B00FA0F3000240B5B0D009200D161
:100AA80096E0AD4A934231D0720FE400224380248D
:100AB80024041443A94AF000944663445B195A1C61
:100AC8000192424600260A2A42DC5A4600994A40C8
:100AD80093464246022A32DC013A012A00D949E10A
:100AE800022E00D1CAE0012E3DD1002300240022AD
:100AF80010005A461B052343D2071343190007B0B9
:100B0800F0BCBB46B246A946A046F0BD924B264370
:100B1800EB18002E00D1BBE00322414611435A4690
:100B2800884600994A40802109018C462900614481
:100B3800019141460A2900DD33E2934603264246E5
:100B480001279740A6213A00C9000A400F4231D038
:100B5800029E022E00D135E2032E00D1D2E1544686
:100B68004846012EC1D0019A7D4B94466344002B20
:100B780000DCC0E0420709D00F220240042A05D059
:100B8800021D82428041404224181000E20106D52D
:100B9800744B019A1C4080239446DB006344724ADC
:100BA80093426BDC6207C00864025B050243240BB6
:100BB8005B0D9DE7902189000F4263D188223A425C
:100BC80000D1D7E0009BA2469B4681460296BFE72C
:100BD8002300334300D17FE0002C00D1ADE1200099
:100BE80000F056FE020003000B3A1D201900821A7D
:100BF80030000839D0408C400443300088405B4ABC
:100C0800EB1A944663445A1C0192424600260A2A6B
:100C180000DC5AE79CE753460343994654D05346B1
:100C2800002B00D177E1504600F032FE0B235B42E7
:100C38009C460200844411005046083988401D2310
:100C4800804660461B1A2000D840030040460343F4
:100C58009A4623008B4099460023444D9846AD1A86
:100C6800029315E752460243914626D100221D0001
:100C78000223924608329046029309E70024002294
:100C8800354B35E7002380249B462403324B2FE75E
:100C98000222414611438022120194462A006244EE
:100CA800884601920A2900DD52E75A460020009939
:100CB80004004A40934602260BE70C221D0003233A
:100CC800814690460293E3E600239A460433984609
:100CD800033B00250293DBE6424601331A432B000F
:100CE80090465A1C019242460024002001260A2AF6
:100CF80000DCEAE62CE70122D21A382A00DDF4E605
:100D08001F2A00DC2AE11F214942CB1A2100D940C1
:100D18000B00202A05D0164A019D94466544AC4034
:100D28002043421E90411843072319000024014024
:100D380003420CD00F230340042B00D140E1031DD4
:100D48008342A4411800644261076402240BC2086C
:100D580000230A43CCE6C046FF07000001FCFFFF62
:100D6800FF030000FFFFFFFEFE0700000DFCFFFF72
:100D78003E04000049464A460904090C0D00160CB9
:100D8800020C0004000C4543AC4605007543A84618
:100D980015000F007543009202952A00009D6F43CD
:100DA80065462D0CA94647444F44B84505D915005A
:100DB800802252029046454402953D0C03956546B3
:100DC8002D043F042D0CAC463D0065440495250CCC
:100DD8002404240CAC4625007543A84665460F003C
:100DE8006943414489466743390C49446E43884501
:100DF80003D980225202904646440D0CA84635007D
:100E080045440595039D3F04A8463F0C0904C919AC
:100E180088444546039555462E04360C2F0C35005C
:100E28004543784381463800A8462D0CAA46009AC7
:100E3800504372434A445244914503D980256D0278
:100E4800A9464844150CA94645462D042D0CA8462C
:100E580065467D43120448449044A94632006546DD
:100E680062436E437C43170C3619BF19BC4203D941
:100E780080246402A446E144029C039EA446059D86
:100E880066448E428941AC4612043C04120CA218F6
:100E98006244494254184644A4464645A441824601
:100EA8006442A046AA4292418C458941E244D0441A
:100EB800494252420A43A045A441824589416442BD
:100EC80049420C4341463F0CD2191219CC0D0499E2
:100ED80070020843411E884141464A44F60D5202B9
:100EE8003043490214430843D20135D5012243084F
:100EF80002401343E0071843640834E6009BA24607
:100F08009B4681468024534624031C4324034A46B7
:100F18002E4B240BECE500F0BBFC15239C468444C7
:100F28000200634620321C2B00DC84E6002399462D
:100F38002300083883409A468EE600F0A9FC020098
:100F48000300153220331C2A00DC4EE60200340070
:100F5800083A0020944052E6019304E61C4B210015
:100F68009C460300019DD3406544A94019430300F2
:100F7800AB40581E834119430800D4404B0709D0A1
:100F88000F230B40042B05D00B1D8B4280414042A0
:100F980024181800230200D4D6E6012300240022D6
:100FA800A6E50F29AAD1802352461B031A42A9D0CD
:100FB8001C42A7D11C43009B02009B46034B97E5AC
:100FC8000024C1E60024014B220091E5FF07000040
:100FD8001E040000F0B54E464546DE465746E0B5CD
:100FE80085B0009001910C034F00CE0F610A009C60
:100FF800B046640F0C4300997F0DC80011001A0019
:101008001B039C460091019251004B0D9946019B90
:10101800009DD90F63466A0F5B0A1343EA009446A2
:101028009346C14A03900293914500D1CDE0012532
:1010380069404D467D1BAA468E4200D180E0002DB6
:1010480000DC35E34946002900D1DFE0974200D1B2
:1010580094E152460125382A19DC8022029B1204A9
:101068001343029352461F2A00DDE3E15346202230
:101078006146029DD21A9540D9400D436146914080
:101088000A00511E8A411543029ADA40A41A451BE8
:10109800A84280414042241A230200D43DE1640260
:1010A800640A002C00D147E1200000F0F1FB0300A6
:1010B800083B20212800CA1AD0409C4002009D40CD
:1010C80022439F4200DD77E1D81B0130091A2C002A
:1010D8008D40C4406B1E9D411300C2408B40254388
:1010E800002714001D436B0709D00F232B40042B46
:1010F80005D02B1DAB42AD416D4264191D00230282
:1011080000D440E1884A0137974200D101E1012625
:1011180043468649ED0821404A072A437C054D028B
:101128002D0B640D1E4024052C43F6073443100094
:10113800210005B0F0BCBB46B246A946A046F0BDAA
:10114800002D00DCD0E24946002900D0D4E06146F9
:10115800029B194300D12BE1691E012D00D1D9E171
:10116800954200D10AE10125382917DC8A46534601
:101178001F2B00DDE7E12022D21A029B6146934033
:101188001D005346D940634693401A000D43511E33
:101198008A4153461543029ADA40A4182D1885420D
:1011A800804140422418230200D4B6E05E4B013748
:1011B8009F4200D1ADE001215C4B6A081C402940E8
:1011C8000A43E507154364088DE7594A029B92468E
:1011D8006246BA441A432CD08E422ED05246002A78
:1011E80060D0002F00D1DBE063460E00029CD808D7
:1011F80062070243E4081300234300D154E2802528
:101208002D0325432D03484C2D0B8CE76146029B8B
:10121800194300D1CCE029000139012D00D188E122
:10122800954200D1AAE00125382900DD2FE78A463A
:1012380018E7012251408E42D0D15346002B00D1ED
:10124800BEE0002F00D038E1CA462200024300D198
:10125800E2E15346591E012B00D10DE2324A924574
:1012680000D1D2E10127382913DC1F2900DDEEE186
:101278002022029B521A250007009A46CC40904033
:101288009540CF40A244421E904153462F43074306
:1012980002933D00654465459241029B52424F4688
:1012A800D41880E7234A7D1C154200D0AAE0624684
:1012B8002500029B05431A43002F00D0F5E0002DBE
:1012C80000D16BE1002A00D152E16346C51A029BA6
:1012D800E21AA8429B415B42D31A1A0200D4D5E114
:1012E80063461D1AAC4592410126029B52421C1BC3
:1012F8008846A41A0E40F6E697423FD0524601258A
:10130800382A00DD4AE78022029B12041343029325
:101318002DE73C000025002205E707232B40002B82
:1013280000D0E2E66BE0C046FF070000FFFF7FFF4A
:1013380001F8FFFFFE070000280000F0A9FA0300EB
:1013480018331F2B00DCB4E62A00083882409F427D
:1013580000DDB9E0DB1B581C1F2800DCA0E11500EC
:101368001F3BDD40202805D040231B1A9A40531EFE
:101378009A411543072300272B40D0E7C00862078E
:101388000243E40837E7EA0863071A43D34BE40843
:101398009F4200D12FE72403250B7C05640DC2E68C
:1013A800CA462200024358D163460E00029C0393AA
:1013B800039B5746DA08E7E7C94CFF1A144092E640
:1013C800C84D7A1C2A4200D084E022000243002F34
:1013D80000D0EFE0002A00D1E5E0624602990A4316
:1013E80000D1C5E06346C5188C46854280416444F7
:1013F80040422418230202D5B94B01371C40BA4693
:101408000395D5E76246851AA84292415242914611
:10141800029BE31A1A004B46D21A130091461A028D
:101428006CD44A464C462A4300D03AE600260024AB
:10143800002578E6029953460D00203AD540202B26
:1014480006D04022D21A0B00934062461A439346B4
:101458005B465A1E93411D4319E653465A1E012BFB
:1014680000D1C6E09D4EB24500D1BDE688460E00CB
:101478000125382A10DC1F2A7FDC20212500891A43
:10148800070088408D40D740D440411E8841029BC8
:101498003D431B1B054302936246551BAC459241D5
:1014A800029B52424F469C1AF6E5002D00D0B7E049
:1014B800002A00D1F0E001260E4063460298D908C0
:1014C80042070A43C40896E6854CFF1A144062078F
:1014D800E40860E781498A4200D1C9E06346C1183F
:1014E80081428041029B4042E3181B18DD075C08DB
:1014F800072349080D4317002B4010E763461D1AC0
:10150800AC4592410126029B52421C1B8846A41AF4
:101518000E40C6E56346C518029B854280419C463D
:101528004042644424180127230200D4F5E6022728
:1015380041E66346C51AA8428041029B4042E41A2C
:101548000127241AA8E5029D52462B00203AD340D1
:1015580019005346202B06D04022D21A2B00934064
:1015680062461A4393465D466B1E9D410D4315E640
:101578006207C0080243E4080DE71100270020397C
:10158800CF40202A05D040218A1A944025000543DF
:101598000395039D6A1E95413D437DE7002A00D1CE
:1015A80044E701260E406346D908029B5A070A43BE
:1015B800DC08F0E6002A28D06246029FC0083A43B9
:1015C80000D1DCE6620710438022E40812031442CB
:1015D80009D0FD08154206D1634601262C00D8081B
:1015E8007B0718430E40420FC000C0085207024351
:1015F80001E663461D1AAC459241029B52421C1BF0
:101608000E0088460127A41A46E56346D908029BBE
:101618005A070A43DC08EEE56346029C0393C7E6D3
:10162800C008002A00D1AAE6620710438022E40815
:1016380012031442D7D0029FFD081542D3D1634646
:101648000126D8087B072C0018430E40CBE70A0078
:101658002700203AD740202905D04022521A94402A
:10166800250005430395039D6A1E95412F4310E607
:1016780014000025002256E5029B60449946604507
:1016880092414C4452420500A4184CE71A001C0031
:101698002A4300D0B3E6C9E6802400262403AEE539
:1016A80020210025091A17E5002200250B4C3AE5F0
:1016B800002D00D1F6E54B46DA1B9246002F00D1EB
:1016C8006FE6382A05DC80263604344388460E0047
:1016D800D1E688460E000125DEE6C046FF07000079
:1016E800FFFF7FFFFE070000002D00D168E64B4694
:1016F800D91B002F01D18A46A7E50127382900DD2B
:10170800C7E5802212041443AFE5C0460B0002006F
:1017180070B5164D0C0382B0490000200092019369
:10172800240B490DDE0FA94204DD1148814203DD77
:10173800104BF01802B070BD8020400320430E4CBF
:10174800641A1F2C08DD0D4B5B1AD8400300584261
:10175800002EEFD11800EDE7094B009A9C460300D4
:1017680061448B40E2401343F1E7C046FE030000AA
:101778001D040000FFFFFF7F330400001304000076
:10178800EDFBFFFF70B542024300C40FFE201B0EA5
:10179800591C550A08420CD0E02189008C466D0777
:1017A800120B63441B051343E40723432800190065
:1017B80070BD002B14D1002D1BD0280000F068F854
:1017C8000A281CDC0B232A001B1ADA4003001533F5
:1017D8009D400E4B12031B1A5B05120B5B0DE1E7D4
:1017E800002D09D0130B802212031A436D07084BF2
:1017F800D8E700230022D5E70022054BD2E70300F3
:101808002A000B3B9A400025E3E7C0468903000005
:10181800FF0700008446100062468C4619006346A4
:1018280000E0C0461FB500F009F9002801D40021E6
:10183800C8421FBD10B500F049F84042013010BD44
:1018480010B500F0FBF8002801DB002010BD0120D6
:1018580010BDC04610B500F0F1F8002801DD0020E9
:1018680010BD012010BDC04610B500F073F8002867
:1018780001DC002010BD012010BDC04610B500F0ED
:1018880069F8002801DA002010BD012010BDC0460B
:101898001C2101231B04984201D3000C10391B0A98
:1018A800984201D3000A08391B09984201D300095C
:1018B800043902A2105C40187047C04604030202B3
:1018C800010101010000000000000000F0B55746CA
:1018D800DE464E464546E0B50D000400E80F834657
:1018E8000903D80F090B824619488C461F03690063
:1018F8005E00490D3F0B760D814218D086420FD00D
:101908000120B1420DD1BC450BD1944209D1D34538
:101918001CD0002905D160462043431E984100E0B1
:101928000120F0BCBB46B246A946A046F0BD012046
:101938008E42F6D1614639430F0017432743F0D151
:101948005B465246981A431E9841EAE70020E8E7AA
:10195800FF070000F0B557464E464546DE46E0B55F
:101968000D000F03390B83B0040080460191580025
:10197800E90F314F400D8C466E001903824691469F
:10198800760D090BD80FBE421FD0BA450FD0002ED6
:101998002FD15546019E3443002D27D10A433AD012
:1019A800002C45D100281AD10120404217E01143EC
:1019B8003BD1002E02D1019F2743F3D0844509D1A2
:1019C8006346002BF0D0604609E0019F27432CD1E5
:1019D800B24524D063460220013B1840013803B0C9
:1019E800F0BCBB46B246A946A046F0BD002CD9D0F3
:1019F800E4E75446002CEDD08445EBD15645E9DCAC
:101A0800DEDB019B8B42E5D8DAD1C845E2D800205D
:101A1800C845E4D2D4E70020002CE0D0DAE711432F
:101A280003D18445D6D10020D9E702204042D6E729
:101A38008445E6D0CEE7C046FF070000F0B557461C
:101A48004E464546DE46E0B50D000F0304008046CD
:101A5800E80F390B844683B05800304F400D019190
:101A68001E03690082469146490D360BD80FB942CC
:101A780020D0BA450FD000292BD101990C435146EB
:101A8800002937D1324338D0002C44D1002819D14D
:101A98000120404216E0164313D1002902D1019FCC
:101AA8002743F3D0844520D063460220013B1840E9
:101AB800013807E0019F274303D18A45F4D1164333
:101AC8001FD0022003B0F0BCBB46B246A946A046D0
:101AD800F0BD5446002CE7D08445E5D15145E3DC00
:101AE80003DB019BB342DFD80FD06346002BCFD076
:101AF8006046E7E7002CC9D0D4E70020002CE1D0ED
:101B0800D2E78445D0D10020DCE7C845CCD80020F6
:101B1800C845D7D2E9E78445E3D0C5E7FF07000009
:101B280080B582B000AF78600C4B7A681A600B4BB6
:101B38001B680821180004F095FA084B1B6804215B
:101B4800180004F08FFA054B1B680021180004F0F8
:101B580089FAC046BD4602B080BDC0467800002064
:101B680090B583B000AF040008001100FB1D221CD3
:101B78001A70BB1D021C1A707B1D0A1C1A70FB1DF3
:101B88001B78002B04D11F4B1B681B680022DA63EB
:101B9800BB1D1B78002B04D11A4B1B681B68002245
:101BA8009A637B1D1B78002B04D1164B1B681B689E
:101BB80000225A63FB1D1B78002B07D0FB1D1B78E6
:101BC8009B005A1E0F4B1B681B68DA63BB1D1B78F2
:101BD800002B07D0BB1D1B789B005A1E094B1B68A6
:101BE8001B689A637B1D1B78002B07D07B1D1B7815
:101BF8009B005A1E034B1B681B685A63C046BD46B0
:101C080003B090BD7800002080B584B000AF786044
:101C1800334B00221A80324B02229A70304B00223A
:101C2800DA702F4B2B22002199542D4B00221A7168
:101C38002B4B7A689A600F23FB1800221A700BE06E
:101C48000F217B181B78264AD31800221A737B1899
:101C58001A787B1801321A700F23FB181B78132B84
:101C6800EED90E23FB1800221A700DE00E203B1847
:101C78001B781B4A2021D3185B1800221A703B18C6
:101C88001A783B1801321A700E23FB181B78092B9F
:101C9800ECD9134B2A2200219954114B2C220021F4
:101CA80099540F4B0022DA850D4B00221A860C4BF3
:101CB80000225A860A4B00229A86094B0022DA86AD
:101CC800074B00221A87064B00225A87044B002232
:101CD8009A87034B0022DA87C046BD4604B080BD10
:101CE8007C00002080B582B000AF294B00221A800A
:101CF800274B02229A70264B0122DA70244B2B22A2
:101D080000219954224B00221A71FB1D00221A70DF
:101D18000AE0FB1D1B781E4AD31800221A73FB1D0C
:101D28001A78FB1D01321A70FB1D1B78132BF0D992
:101D3800BB1D00221A700CE0BB1D1B78144A202121
:101D4800D3185B1800221A70BB1D1A78BB1D01320C
:101D58001A70BB1D1B78092BEED90D4B2A220021C6
:101D680099540B4B2C2200219954094B0022DA85F7
:101D7800074B00221A86064B00225A86044B002283
:101D88009A86034B0022DA86C046BD4602B080BD63
:101D98007C00002080B500AF104B1A88AF239B0051
:101DA8009A4209D20D4B1B8801339AB20B4B1A8009
:101DB8000A4B0022DA850DE0084BDB8D01339AB21D
:101DC800064BDA85054BDA8DAF239B009A4201D387
:101DD800FFF788FFC046BD4680BDC0467C00002096
:101DE80080B582B000AF78607B681B68114A934267
:101DF8001BD1114B2A229B5C0133D9B20E4B2A22EC
:101E080099540D4B2A229B5C092B0AD90A4B2A228A
:101E180000219954084B2B2200219954064B00228B
:101E28001A71054B2C2200219954C046BD4602B0B8
:101E380080BDC046005400407C000020B0B582B090
:101E480000AF78607B681B68774A934200D0E7E070
:101E5800764B2A229B5C0133D9B2744B2A229954BF
:101E6800724B2A229B5C132B00D8D5E06F4BDB8F7B
:101E78001800FEF741FA031C181CFFF783FC6C4A94
:101E88006C4BFEF7DFFD02000B0014001D00674BD2
:101E98005B7E1B02654A127E13431800FEF7E0F9C9
:101EA800031C181CFFF76EFC634A644BFEF7CAFD5F
:101EB80002000B0020002900FEF760FA02000B0068
:101EC80010001900FEF7AEF903009AB2574BDA87F3
:101ED800564B1B8F1800FEF70FFA031C181CFFF750
:101EE80051FC534A534BFEF7ADFD02000B001400A2
:101EF8001D004E4BDB7E1B024C4A927E134318009A
:101F0800FEF7AEF9031C181CFFF73CFC4A4A4B4B82
:101F1800FEF798FD02000B0020002900FEF72EFABC
:101F280002000B0010001900FEF77CF903009AB2BA
:101F38003E4B1A873D4B5B8F1800FEF7DDF9031CFB
:101F4800181CFFF71FFC3A4A3A4BFEF77BFD0200CC
:101F58000B0014001D00354B5B7F1B02334A127FB8
:101F680013431800FEF77CF9031C181CFFF70AFC42
:101F7800314A324BFEF766FD02000B0020002900B3
:101F8800FEF7FCF902000B0010001900FEF74AF9F1
:101F980003009AB2254B5A87244B9B8F1800FEF7F3
:101FA800ABF9031C181CFFF7EDFB214A214BFEF788
:101FB80049FD02000B0014001D001C4BDB7F1B02B7
:101FC8001A4A927F13431800FEF74AF9031C181C9B
:101FD800FFF7D8FB184A194BFEF734FD02000B0037
:101FE80020002900FEF7CAF902000B0010001900B2
:101FF800FEF718F903009AB20C4B9A870B4B2A226A
:1020080000219954094B00221A80084B2B220021E9
:102018009954064B01221A71044B2C220021995421
:10202800C046BD4602B0B0BD005400407C00002050
:10203800666666666666E63F333333333333D33FCB
:1020480080B582B002AF144B9868134B2A229B5C70
:102058001A00124B9B5C802252421343DBB21900D8
:102068000D4B2A229B5C08331A000B4BD318043300
:1020780001220192009301230A00522101F05EFB24
:10208800054B2C2201219954034B2B2201219954F1
:10209800C046BD4680BDC0467C000020288B000895
:1020A80080B582B000AF0200FB1D1A70194BFA1DF3
:1020B8001278DA70174BDB78012B27D1154B2022C9
:1020C80003219954134B212200219954114B2222A8
:1020D800FF2199540F4B2322002199540D4B2422A0
:1020E800002199540B4B2522FF219954094B262294
:1020F800FF219954074B27220F219954054B282279
:1021080000219954034B292200219954C046BD4609
:1021180002B080BD7C00002080B500AF4E4B5B7ED6
:102128001B021AB24C4B1B7E1BB213431BB29AB252
:10213800494BDA86484BDB7E1B021AB2464B9B7E24
:102148001BB213431BB29AB2434B1A86424B5B7FB6
:102158001B021AB2404B1B7F1BB213431BB29AB22D
:102168003D4B5A863C4BDB7F1B021AB23A4B9B7F96
:102178001BB213431BB29AB2374B9A86364BDB78A5
:10218800012B00D063E0344B1A7B334B20215B5C7E
:102198009A4201D001235BE02F4B5A7B2E4B212121
:1021A8005B5C9A4201D0012352E02B4B9A7B2A4B6D
:1021B80022215B5C9A4201D0012349E0264BDA7B5D
:1021C800254B23215B5C9A4201D0012340E0224B3E
:1021D8001A7C214B24215B5C9A4201D0012337E011
:1021E8001D4B5A7C1C4B25215B5C9A4201D0012374
:1021F8002EE0194B9A7C184B26215B5C9A4201D041
:10220800012325E0144BDA7C134B27215B5C9A42AF
:1022180001D001231CE0104B1A7D0F4B28215B5C79
:102228009A4201D0012313E00B4B5A7D0A4B292116
:102238005B5C9A4201D001230AE0074B9B7D442B4B
:1022480005D0054B9B7D4D2B01D0012300E00023D9
:102258001800BD4680BDC0467C00002080B500AF98
:102268000B4B9B78022B03D10120FFF719FF06E0E7
:10227800074BDB78012B02D10120FFF711FFFFF795
:102288004BFF03001A00024B9A70C046BD4680BD42
:102298007C00002080B582B002AF3B4B1A88AF2388
:1022A8009B009A4204D3384B2A229B5C002B04D013
:1022B800354B2B229B5C012B0AD1334B2C229B5C88
:1022C800002B05D1304B1B79002B01D1FFF7B8FE4D
:1022D800FFF7C4FF2C4B9B78012B04D12A4B2A22F1
:1022E8009B5C002B04D0284B2B229B5C022B2DD10E
:1022F800254B2C229B5C002B28D1234B1B79012BCF
:1023080024D1214B9868204B2A229B5C1A001F4B32
:102318009B5C802252421343DBB219001A4B2A22DB
:102328009B5C20331A00184BD318012201920093AA
:1023380001230A00522101F05FF9134B2C220221DC
:102348009954114B2B220221995419E00E4B9B787A
:10235800002B04D10C4B2A229B5C002B04D00A4B87
:102368002B229B5C022B0BD1074B2C229B5C002B56
:1023780006D1054B1B79012B02D1034B00221A71A0
:10238800C046BD4680BDC0467C000020288B0008A2
:1023980080B582B000AF7860074B9B78002B03D0E4
:1023A8007B6800221A7002E07B6801221A70C0461E
:1023B800BD4602B080BDC0467C00002080B584B018
:1023C80000AFF860B9607A603B600A4B1A8FFB680F
:1023D8001A80084B5A8FBB681A80064B9A8F7B6805
:1023E8001A80044BDA8F3B681A80C046BD4604B099
:1023F80080BDC0467C00002090B589B000AF0C2499
:102408003B19180014231A00002105F0F5FE1B4B98
:102418005A6B1A4B01210A435A63184B5B6B012212
:102428001340BB60BB68154B5A6B144B02210A431F
:102438005A63124B5B6B022213407B607B68A023BC
:10244800DB0500220221180001F012F821007B1898
:1024580002221A607B1801225A607B1800229A60B7
:102468007B180022DA607A18A023DB051100180017
:1024780000F09AFEC046BD4609B090BD001002406B
:1024880080B500AF1B4B1C4A1A601A4B1B4A5A6096
:10249800184B00229A60174B0122DA60154B002274
:1024A8001A61144B00225A61124B00229A61114B97
:1024B8000022DA610F4B00221A620E4B180000F05E
:1024C800F5FF031E01D000F087F90A4B0021180020
:1024D80002F04CFE031E01D000F07EF9054B0021EE
:1024E800180002F08FFE031E01D000F075F9C046F7
:1024F800BD4680BDBC00002000540040583D50003F
:1025080090B591B000AF78602C23FB181800142305
:102518001A00002105F070FE14243B191800182336
:102528001A00002105F068FE7B681B68274A934261
:1025380047D13B1920221A603B1900229A603B19A7
:10254800180003F0B1FB031E01D000F045F9204B41
:102558005A6B1F4B01210A435A631D4B5B6B0122C7
:1025680013403B613B692C217B18C022D2001A60C2
:102578007B1812225A607B1800229A607B1800226E
:10258800DA607B1806221A617A18A023DB0511008D
:10259800180000F009FE0E4BDA6B0D4B8021890301
:1025A8000A43DA630A4BDA6B80239B031340FB6010
:1025B800FB6800220021172000F0ECFC172000F037
:1025C800FEFCC046BD4611B090BDC0460054004058
:1025D80000100240B0B58EB002AF00F085FB00F0ED
:1025E800B3F8FFF709FFFFF74BFF00F0B3F900F06E
:1025F800CBFA642000F0FEFB4E4B1800FFF704FBFB
:102608004D4B1800FFF78CFA2D203B18FF221A704B
:102618003B181A783B1819783B181B781800FFF7F5
:102628009FFAA023DB0501220221180000F020FFF9
:10263800FFF730FE414B1B88002BF9D12A23FB18EA
:1026480000221A802823FB1800221A802623FB1850
:1026580000221A802423FB1800221A802323FB1847
:1026680000221A702F23FB1800221A700AE02F206C
:102678003B181B783A000021D1543B181A783B18B4
:1026880001321A702F23FB181B78212BEFD9232432
:102698003B191800FFF77CFE3B191B78002B09D06B
:1026A8002423FB182622BA18282179182A2038183A
:1026B800FFF784FE2A23FB181B881C002823FB181D
:1026C8001B881D002623FB181B881A002423FB18CF
:1026D8001B881B493800019300922B00220005F04B
:1026E8006BFD2E23FB1800221A700BE02E217B189D
:1026F8001B783A00D35C0A2B0AD07B181A787B180F
:1027080001321A702E23FB181B78212BEED900E01A
:10271800C0462E23FB181B789BB201339AB23900AE
:102728000848642304F068FD044BFA2292001A80DA
:102738007EE7C046BC0000201801002010010020E0
:10274800148B00086401002090B593B000AF1424E6
:102758003B19180034231A00002105F04DFD3B1DDC
:10276800180010231A00002105F046FD80239B0065
:10277800180002F093FD3B1902221A603B198022CF
:102788005200DA603B1900221A613B1940225A6153
:102798003B190022DA613B19180002F0CBFD031E39
:1027A80001D000F019F83B1D07221A603B1D0022DA
:1027B8005A603B1D00229A603B1D0022DA603B1DD7
:1027C8000021180003F0C6F8031E01D000F004F839
:1027D800C046BD4613B090BD80B500AF72B6C046C6
:1027E800C046FDE780B582B000AF0F4B1A6C0E4BA8
:1027F80001210A431A640C4B1B6C012213407B60B5
:102808007B68094BDA6B084B802149050A43DA6378
:10281800054BDA6B80235B0513403B603B68C04681
:10282800BD4602B080BDC0460010024080B500AF72
:10283800C046FDE780B500AFC046FDE780B500AFF4
:10284800C046BD4680BD80B500AFC046BD4680BD10
:1028580080B500AFFFF79EFA074B1B88002B05D009
:10286800054B1B88013B9AB2034B1A8000F0A6FA6D
:10287800C046BD4680BDC0461001002080B500AFEF
:10288800034B180003F00CFDC046BD4680BDC04692
:102898001801002080B500AF094B1B689A69E02336
:1028A800DB00134004D0064B180000F0FFFF03E0E4
:1028B800034B180000F0E0FFC046BD4680BDC0468F
:1028C800BC00002080B500AF034B180004F038FDB1
:1028D800C046BD4680BDC0466401002080B586B0B4
:1028E80000AF7860144A154BD31A7B617B693B6152
:1028F800134B1B68002B02D1114B124A1A60104B64
:102908001A687B68D3183A699A4207D205F07CFCAA
:1029180003000C221A6001235B4209E0084B1B6884
:10292800FB60074B1A687B68D218054B1A60FB6876
:102938001800BD4606B080BD00200020000400003D
:10294800140100204803002080B500AFC046BD46F2
:1029580080BD000080B58EB000AF2823FB1818009A
:1029680010231A00002105F047FC1C23FB1818004F
:102978000C231A00002105F03FFC3B0018001C2323
:102988001A00002105F038FC394B3A4A1A60384BD6
:1029980000225A60364B00229A60354B364ADA607C
:1029A800334B00221A61324B00229A61304B1800D7
:1029B80003F0A0FA031E01D0FFF70EFF28217B18B1
:1029C800802252011A607A18294B1100180003F06E
:1029D8006FFE031E01D0FFF7FFFE254B180003F022
:1029E800E1FA031E01D0FFF7F7FE1C217B18002235
:1029F8001A607B1800229A607A181D4B1100180083
:102A080004F02AFB031E01D0FFF7E6FE3B0060221C
:102A18001A603B00184A5A603B0000229A603B004B
:102A280000221A613900124B0022180003F040FD01
:102A3800031E01D0FFF7D0FE39000D4B0422180009
:102A480003F036FD031E01D0FFF7C6FE3900084B20
:102A58000822180003F02CFD031E01D0FFF7BCFE6E
:102A6800034B180000F030F8C046BD460EB080BDDC
:102A78001801002000040040FF03000080B584B066
:102A880000AF78607B681B680D4A934213D10D4BE9
:102A9800DA6B0C4B02210A43DA630A4BDB6B022226
:102AA8001340FB60FB6800220021102000F072FA3E
:102AB800102000F084FAC046BD4604B080BDC04670
:102AC800000400400010024090B58BB000AF786061
:102AD80014243B19180014231A00002105F08CFB5C
:102AE8007B681B68254A934243D1254B5A6B244B7C
:102AF80001210A435A63224B5B6B012213403B615D
:102B08003B691F4B5A6B1E4B02210A435A631C4BED
:102B18005B6B02221340FB60FB683B19C0221A6002
:102B28003B1902225A603B1900229A603B19002285
:102B3800DA603B1901221A613A19A023DB0511005A
:102B4800180000F031FB21007B1801221A607B1865
:102B580002225A607B1800229A607B180022DA60F1
:102B68007B1801221A617B18064A1900100000F030
:102B78001BFBC046BD460BB090BDC04600040040DC
:102B8800001002400004005080B500AF164B174AF1
:102B98001A60154B962292015A60134B00229A60D4
:102BA800114B0022DA60104B00221A610E4B0C22E6
:102BB8005A610D4B00229A610B4B0022DA610A4BD5
:102BC80000221A62084B00225A62074B00229A62BE
:102BD800054B180004F0BAFA031E01D0FFF7FCFDFC
:102BE800C046BD4680BDC046640100200044004088
:102BF80090B58BB000AF786014243B1918001423EB
:102C08001A00002105F0F8FA7B681B681F4A9342F6
:102C180038D11F4BDA6B1E4B802189020A43DA63D5
:102C28001B4BDA6B80239B0213403B613B69184BBB
:102C38005A6B174B01210A435A63154B5B6B0122F0
:102C48001340FB60FB6821007B180C221A607B187C
:102C580002225A607B1800229A607B180022DA60F0
:102C68007B1801221A617A18A023DB0511001800CD
:102C780000F09AFA002200211C2000F08BF91C2099
:102C880000F09DF9C046BD460BB090BD0044004021
:102C9800001002400D488546FFF756FE0C480D49C6
:102CA8000D4A002302E0D458C4500433C4188C429F
:102CB800F9D30A4A0A4C002301E013600432A24205
:102CC800FBD305F0A7FAFFF785FCFEE700200020FC
:102CD800000000205C000020448C00085C000020FC
:102CE80044030020FEE7000080B582B000AFFB1D62
:102CF80000221A700B4B1A680A4B802149000A43BC
:102D08001A60032000F010F8031E03D0FB1D0122F7
:102D18001A7001E0FFF766FDFB1D1B781800BD4621
:102D280002B080BD0020024090B585B000AF786049
:102D38000F23FB1800221A701D4B1B78002B2BD079
:102D48001C4B1C681A4B1B781900FA239800FDF7D6
:102D5800DDF9030019002000FDF7D8F90300180079
:102D680000F03DF9031E12D17B68032B0AD879685D
:102D780001235B420022180000F00CF90E4B7A6820
:102D88001A600DE00F23FB1801221A7008E00F23C8
:102D9800FB1801221A7003E00F23FB1801221A7096
:102DA8000F23FB181B781800BD4605B090BDC04620
:102DB80008000020000000200400002080B500AFBB
:102DC800054B1B781A00054B1B68D218034B1A6079
:102DD800C046BD4680BDC04608000020F80100205E
:102DE80080B500AF024B1B681800BD4680BDC046C9
:102DF800F801002080B584B000AF7860FFF7F0FFDD
:102E08000300BB607B68FB60FB68013305D00A4B9D
:102E18001B781A00FB689B18FB60C046FFF7E0FFB1
:102E28000200BB68D31AFA689A42F7D8C046C0466F
:102E3800BD4604B080BDC0460800002080B582B001
:102E480000AF0200FB1D1A70FB1D1B787F2B09D8F1
:102E5800FB1D1B781A001F231A40044B01219140C7
:102E68000A001A60C046BD4602B080BD00E100E01D
:102E780090B583B000AF02003960FB1D1A70FB1DCE
:102E88001B787F2B28D82F4AFB1D1B785BB29B0829
:102E9800C0339B009B58FA1D1278110003220A4088
:102EA800D200FF2191400A00D2431A4011003B682A
:102EB8009B01FF221A40FB1D1B78180003230340C7
:102EC800DB009A401F48FB1D1B785BB29B080A4336
:102ED800C0339B001A5031E01B4AFB1D1B781900B8
:102EE8000F230B40083B9B0806339B00D318043381
:102EF8001B68FA1D1278110003220A40D200FF2134
:102F080091400A00D2431A4011003B689B01FF22FE
:102F18001A40FB1D1B78180003230340DB009A406E
:102F28000948FB1D1B781C000F232340083B9B0806
:102F38000A4306339B00C31804331A60C046BD46D3
:102F480003B090BD00E100E000ED00E080B582B084
:102F580000AF78607B685A1E80235B049A4201D3D5
:102F6800012310E00A4B7A68013A5A6001235B4258
:102F780003211800FFF77CFF054B00229A60044BE1
:102F880007221A6000231800BD4602B080BDC04663
:102F980010E000E080B584B000AFB9607A600F211E
:102FA8007B18021C1A70BA687B181B785BB2110078
:102FB8001800FFF75DFFC046BD4604B080BD80B570
:102FC80082B000AF0200FB1D1A70FB1D1B785BB2BC
:102FD8001800FFF733FFC046BD4602B080BD80B57C
:102FE80082B000AF78607B681800FFF7AFFF03007E
:102FF8001800BD4602B080BD80B582B000AF7860D1
:103008007B68002B01D1012350E07B6825229B5C63
:10301800DBB2022B08D07B680422DA637B682422A7
:1030280000219954012341E07B681B681A687B687A
:103038001B680E218A431A607B685B6C1A687B6880
:103048005B6C1C490A401A607B681B681A687B68BD
:103058001B6801218A431A60174B59687B681B6CEF
:103068001C22134001229A40134B0A435A607B6882
:103078009B6C7A68D26C5A607B681B6D002B0CD0F5
:103088007B681B6D1A687B681B6D0A490A401A60C9
:103098007B685B6D7A68926D5A607B682522012196
:1030A80099547B6824220021995400231800BD46B6
:1030B80002B080BDFFFEFFFF0000024080B584B073
:1030C80000AF78600F217B1800221A707B682522D8
:1030D8009B5CDBB2022B06D07B680422DA637B1888
:1030E80001221A7049E07B681B681A687B681B68B4
:1030F8000E218A431A607B681B681A687B681B6804
:1031080001218A431A607B685B6C1A687B685B6C78
:103118001D490A401A601D4B59687B681B6C1C22AC
:10312800134001229A40194B0A435A607B689B6CF2
:103138007A68D26C5A607B681B6D002B0CD07B6858
:103148001B6D1A687B681B6D0F490A401A607B6803
:103158005B6D7A68926D5A607B68252201219954CB
:103168007B682422002199547B689B6B002B04D038
:103178007B689B6B7A68100098470F23FB181B78B5
:103188001800BD4604B080BDFFFEFFFF00000240EE
:1031980080B582B000AF78607B6825229B5CDBB28B
:1031A8001800BD4602B080BD80B586B000AF78601B
:1031B800396000237B6147E13B681B6801217A691C
:1031C80091400A001340FB60FB68002B00D138E1F6
:1031D8003B685B6803221340012B05D03B685B68A2
:1031E80003221340022B30D17B689B683B617B69CB
:1031F8005B0003229A401300DA433B6913403B61AA
:103208003B68DA687B695B009A4013003A691343AC
:103218003B617B683A699A607B685B683B61012225
:103228007B699A401300DA433B6913403B613B6872
:103238005B681B0901221A407B699A4013003A69AE
:1032480013433B617B683A695A603B685B680322B9
:103258001340032B17D07B68DB683B617B695B00FD
:1032680003229A401300DA433B6913403B613B68F1
:103278009A687B695B009A4013003A6913433B6183
:103288007B683A69DA603B685B6803221340022B6B
:1032980023D17B69DA087B6808329200D3583B61F6
:1032A8007B69072213409B000F229A401300DA43E0
:1032B8003B6913403B613B681A697B6907210B40F6
:1032C8009B009A4013003A6913433B617B69DA0813
:1032D8007B68083292003969D1507B681B683B6172
:1032E8007B695B0003229A401300DA433B69134071
:1032F8003B613B685B6803221A407B695B009A402C
:1033080013003A6913433B617B683A691A603B686A
:103318005A68C0239B02134000D192E0504A7B694F
:103328009B0818339B009B583B617B690322134021
:10333800DB000F229A401300DA433B6913403B61DC
:103348007A68A023DB059A4213D07B68454A9342EA
:103358000DD07B68444A934207D07B68434A934226
:1033680001D1032306E0052304E0022302E0012340
:1033780000E000237A6903210A40D20093403A69A9
:1033880013433B6136497B699B0818339B003A69B4
:103398005A50334B1B683B61FB68DA433B69134067
:1033A8003B613B685A6880235B03134003D03A694A
:1033B800FB6813433B612A4B3A691A60284B5B68E8
:1033C8003B61FB68DA433B6913403B613B685A68E1
:1033D80080239B03134003D03A69FB6813433B6186
:1033E8001F4B3A695A601E4A8423D3583B61FB68D5
:1033F800DA433B6913403B613B685A6880239B0270
:10340800134003D03A69FB6813433B611449842293
:103418003B698B50124A8023D3583B61FB68DA43DF
:103428003B6913403B613B685A6880235B02134049
:1034380003D03A69FB6813433B61094980223B6921
:103448008B507B6901337B613B681A687B69DA4082
:10345800131E00D0B0E6C046C046BD4606B080BDCB
:10346800001802400004005000080050000C0050F2
:1034780080B582B000AF786008001100BB1C021C48
:103488001A807B1C0A1C1A707B1C1B78002B04D02A
:10349800BB1C1A887B689A6103E0BB1C1A887B688E
:1034A8009A62C046BD4602B080BD000080B582B0B9
:1034B80000AF78607B68002B01D101238FE07B6827
:1034C80041229B5CDBB2002B07D17B6840220021A4
:1034D80099547B681800FFF713F87B684122242170
:1034E80099547B681B681A687B681B6801218A43AA
:1034F8001A607B685A687B681B683B490A401A61F6
:103508007B681B689A687B681B6838490A409A6020
:103518007B68DB68012B08D17B689A687B681B682D
:10352800802109020A439A6007E07B689A687B68F1
:103538001B68842109020A439A607B68DB68022BB6
:1035480009D17B681B685A687B681B688021090160
:103558000A435A6007E07B681B685A687B681B68E7
:1035680023490A405A607B681B685A687B681B6855
:1035780020490A435A607B681B68DA687B681B68C5
:103588001A490A40DA607B681A697B685B691A43E2
:1035980011007B689B691A027B681B680A43DA6022
:1035A8007B68D9697B681A6A7B681B680A431A605A
:1035B8007B681B681A687B681B6801210A431A60CC
:1035C8007B6800225A647B684122202199547B68D9
:1035D80000221A637B6842220021995400231800B4
:1035E800BD4602B080BDC046FFFFFFF0FF7FFFFF72
:1035F800FFF7FFFF0080000290B587B002AFF860C8
:103608000C00100019000A23FB18221C1A8008233A
:10361800FB18021C1A80BB1D0A1C1A80FB68412279
:103628009B5CDBB2202B00D07DE03B6A002B04D0F2
:103638002423FB181B88002B05D1FB6880229200ED
:103648005A64012370E0FB681B689A6980231B0297
:103658001A4080231B029A4201D1022364E0FB68CE
:1036680040229B5C012B01D102235DE0FB684022D4
:1036780001219954FB68412221219954FB68422277
:1036880040219954FB6800225A64FB6800221A857D
:10369800FB683A6A5A62FB682422BA1812885A856B
:1036A800FB68234ADA62FB68224A5A630A23FB183A
:1036B8001A88FB68DA64BB1D1B88012B0BD1082311
:1036C800FB181B88DAB2FB681B689A62FB68012248
:1036D80052421A650EE008217B181B881B0A9BB210
:1036E800DAB2FB681B689A627B181B88DBB21A0087
:1036F800FB681A65BB1D1B88DAB280235C040A23A9
:10370800FB181988F8680C4B0093230001F006FC9D
:10371800FB68402200219954FB680121180001F040
:1037280037FC002300E002231800BD4605B090BD19
:103738000000FFFFF93900080020008090B587B02D
:1037480002AFF8600C00100019000A23FB18221CB5
:103758001A800823FB18021C1A80BB1D0A1C1A8039
:10376800FB6841229B5CDBB2202B00D078E03B6AEF
:10377800002B04D02423FB181B88002B05D1FB68E1
:10378800802292005A6401236BE0FB681B689A69E7
:1037980080231B021A4080231B029A4201D1022374
:1037A8005FE0FB6840229B5C012B01D1022358E0BB
:1037B800FB68402201219954FB6841222221995437
:1037C800FB68422240219954FB6800225A64FB6836
:1037D8003A6A5A62FB682422BA1812885A85FB682A
:1037E800224ADA62FB68224A5A630A23FB181A88BB
:1037F800FB68DA64BB1D1B88012B0BD10823FB185F
:103808001B88DAB2FB681B689A62FB680122524285
:103818001A650EE008217B181B881B0A9BB2DAB2D6
:10382800FB681B689A627B181B88DBB21A00FB686E
:103838001A65BB1D1B88DAB20A23FB181988F868B9
:103848000C4B0093002301F069FBFB684022002128
:103858009954FB680121180001F09AFB002300E04D
:1038680002231800BD4605B090BDC0460000FFFF0A
:10387800F93900080020008080B584B000AF786076
:103888007B681B689B69FB607B681B681B68BB6067
:103898007B685B6B002B05D07B685B6BBA68F9684B
:1038A80078689847C046BD4604B080BD80B586B0EC
:1038B80000AF78607B681B689B697B617B681B68CD
:1038C8001B683B617A6980235B0013400ED03B691B
:1038D800802213400AD07B685B6C01221A437B6804
:1038E8005A647B681B6880225200DA617A698023F7
:1038F800DB0013400ED03B69802213400AD07B685E
:103908005B6C08221A437B685A647B681B688022B8
:10391800D200DA617A6980239B0013400ED03B699C
:10392800802213400AD07B685B6C02221A437B68B2
:103938005A647B681B6880229200DA617B685B6C42
:10394800FB60FB680B22134005D0FA687B68110006
:10395800180001F077F9C046BD4606B080BD80B5B5
:1039680082B000AF7860C046BD4602B080BD80B569
:1039780082B000AF7860C046BD4602B080BD80B559
:1039880082B000AF7860C046BD4602B080BD80B549
:1039980082B000AF7860C046BD4602B080BD80B539
:1039A80082B000AF786008001100FB1C021C1A707E
:1039B8003B000A1C1A80C046BD4602B080BD80B5D7
:1039C80082B000AF7860C046BD4602B080BD80B509
:1039D80082B000AF7860C046BD4602B080BD80B5F9
:1039E80082B000AF7860C046BD4602B080BD00001E
:1039F80090B589B002AFF860B9607A608B4B7B6193
:103A0800BB683B61FB6840229B5C012B01D1022310
:103A180007E1FB684022012199543B6910221340B9
:103A280012D07B68102213400ED0FB681B6810224E
:103A3800DA61FB685B6C04221A43FB685A64FB6812
:103A4800180001F02AFAD9E03B690422134021D07A
:103A58007B68042213401DD03B69042293433B61D9
:103A6800FB681B685A6AFB685B6AD2B21A70FB680B
:103A78005B6A5A1CFB685A62FB681B8D013B9AB251
:103A8800FB681A85FB685B8D9BB2013B9AB2FB68A9
:103A98005A85B3E03B69022213402AD07B68022290
:103AA800134026D0FB681B6D013318D1FB685B6A95
:103AB8001A78FB681B689A62FB685B6A5A1CFB6889
:103AC8005A62FB681B8D013B9AB2FB681A85FB683A
:103AD8005B8D9BB2013B9AB2FB685A858EE0FB680E
:103AE8001B68FA68126D9A62FB68012252421A65D5
:103AF80084E03B69802213403CD07B68402213401D
:103B080038D0FB685B8D9BB2002B2CD0FB681B8DDB
:103B1800002B28D1FB685B8D9BB2FF2B10D9FB686B
:103B2800FF221A85FB68DB6C99B2FB681B8DDAB241
:103B380080235B04F8680024009401F0EFF918E092
:103B4800FB685B8D9AB2FB681A85FB68DB6C99B2DF
:103B5800FB681B8DDAB280239B04F868002400946C
:103B680001F0DCF905E0FB684021180001F06AF873
:103B780044E043E03B69402213403FD07B68402249
:103B880013403BD0FB680121180001F08BFAFB6859
:103B98000221180001F0FCF9FB6841229B5CDBB2B2
:103BA800222B01D1224B7B61FB685B8D9BB2FF2BE3
:103BB80011D9FB68FF221A85FB68DB6C99B2FB6898
:103BC8001B8DDAB280235C04F8687B6900932300BC
:103BD80001F0A4F912E0FB685B8D9AB2FB681A85C4
:103BE800FB68DB6C99B2FB681B8DDAB280239C04FE
:103BF800F8687B690093230001F090F93B69202263
:103C0800134009D07B682022134005D03A69FB682D
:103C18001100180000F068FDFB684022002199544B
:103C280000231800BD4607B090BDC04600200080A4
:103C38000024008080B586B000AFF860B9607A6073
:103C4800FB68DB6A7B61BB683B61FB6840229B5C6D
:103C5800012B01D10223E7E0FB684022012199549E
:103C68003B69202213400AD07B682022134006D0EB
:103C78003A69FB681100180000F004FECFE03B69C8
:103C88001022134052D07B68102213404ED0FB689C
:103C98005B8D9BB2002B2DD1FB6841229B5CDBB274
:103CA800282B0BD17A6980239B049A4206D13A6962
:103CB800FB681100180000F06DFF36E0FB68412238
:103CC8009B5CDBB2292B10D17B69594A93420CD0FB
:103CD800FB681B681022DA61FB68180001F0DDF848
:103CE800FB68180000F09CFC1FE0FB681B681022B2
:103CF800DA6191E0FB681B681022DA61FB685B6C93
:103D080004221A43FB685A647B69002B05D07A6940
:103D180080235B049A4200D07EE0FB685A6CFB6803
:103D28001100180000F08EFF76E075E03B69042270
:103D380013402FD07B68042213402BD0FB685B8D87
:103D48009BB2002B18D0FB681B685A6AFB685B6A39
:103D5800D2B21A70FB685B6A5A1CFB685A62FB682D
:103D68001B8D013B9AB2FB681A85FB685B8D9BB281
:103D7800013B9AB2FB685A85FB685B8D9BB2002BAE
:103D88004CD17B692A4A934248D0FB68180000F05E
:103D980047FC43E03B69082213400AD07B680822AD
:103DA800134006D03A69FB681100180000F052FB76
:103DB80035E03B690222134031D07B680222134070
:103DC8002DD0FB685B8D9BB2002B18D0FB685B6A1B
:103DD8001A78FB681B689A62FB685B6A5A1CFB6866
:103DE8005A62FB685B8D9BB2013B9AB2FB685A85AD
:103DF800FB681B8D013B9AB2FB681A850FE07A6954
:103E080080235B049A4202D07B69002B07D1FB68B0
:103E1800180000F005FC02E0C04600E0C046FB6860
:103E280040220021995400231800BD4606B080BDE9
:103E38000000FFFF90B589B002AFF860B9607A6002
:103E4800FB6840229B5C012B01D10223E7E0FB6861
:103E5800402201219954BB681022134017D07B6877
:103E68001022134013D0FB681B681022DA61FB682C
:103E78005B6C04221A43FB685A64FB682021180013
:103E880001F086F8FB68180001F007F8C2E0BB688B
:103E98008022134000D17CE07B684022134000D18F
:103EA80077E0FB681B681A68FB681B6840218A4337
:103EB8001A60FB685B8D9BB2002B55D0FB681B68B2
:103EC8005B689AB21223FB189205920D1A80FB6860
:103ED8005B8D9BB2FF2B06D9FB68FF221A858023D6
:103EE8005B047B6110E0FB685B8D9AB2FB681A8506
:103EF800FB68DB6A4C4A934203D0FB68DB6A7B6150
:103F080002E080239B047B61FB681B8DDAB27C692D
:103F18001223FB181988F86800230093230000F087
:103F2800FDFFFB685B8D9AB2FB681B8DD31A9AB2B2
:103F3800FB685A85FB6841229B5CDBB2222B09D1C6
:103F4800FB681B681A68FB681B68802109020A4322
:103F58001A605FE0FB681B681A68FB681B688021B1
:103F6800C9010A431A6055E0FB681B685A68802338
:103F78009B041A4080239B049A4204D0FB681800D3
:103F880000F00CFB46E0FB684021180000F05AFEE8
:103F980040E0BB68402213402CD07B68402213408D
:103FA80028D0FB685B8D9BB2002B1DD1FB681B687A
:103FB8005A6880239B041A4080239B049A4228D085
:103FC800FB68DB6A184A934209D1FB681B685A6888
:103FD800FB681B688021C9010A435A6019E0FB6825
:103FE800180000F0DBFA14E0FB684021180000F02C
:103FF80029FE0EE0BB68202213400BD07B682022EC
:10400800134007D0BA68FB681100180000F06CFB79
:1040180000E0C046FB6840220021995400231800A4
:10402800BD4607B090BDC0460000FFFF90B589B0FF
:1040380002AFF860B9607A60904B7B61FB68402200
:104048009B5C012B01D1022313E1FB684022012173
:104058009954BB681022134017D07B681022134074
:1040680013D0FB681B681022DA61FB685B6C0422C2
:104078001A43FB685A64FB682021180000F088FF87
:10408800FB68180000F009FFEEE0BB68022213404D
:104098000DD07B680222134009D0FB681B68FA68C0
:1040A800126D9A62FB68012252421A65DCE0BB6815
:1040B8008022134063D07B68402213405FD0FB68A6
:1040C8000121180000F0EEFFFB681021180000F035
:1040D8005FFFFB685B8D9BB2002B4AD0FB685B8D52
:1040E8009BB2FF2B10D9FB68FF221A85FB68DB6C9B
:1040F80099B2FB681B8DDAB280235B04F868002450
:10410800009400F00BFF11E0FB685B8D9AB2FB682E
:104118001A85FB68DB6C99B2FB681B8DDAB28023C9
:104128009B04F8680024009400F0F8FEFB685B8D9F
:104138009AB2FB681B8DD31A9AB2FB685A85FB6842
:1041480041229B5CDBB2222B09D1FB681B681A68F1
:10415800FB681B68802109020A431A6084E0FB6837
:104168001B681A68FB681B688021C9010A431A602A
:104178007AE0FB684021180000F064FD74E0BB6839
:104188004022134062D07B68402213405ED0FB6817
:104198000121180000F086FFFB681021180000F0CC
:1041A800F7FEFB6841229B5CDBB2222B01D1344B2A
:1041B8007B61FB685B8D9BB2FF2B11D9FB68FF22EB
:1041C8001A85FB68DB6C99B2FB681B8DDAB2802319
:1041D8005C04F8687B690093230000F09FFE12E0FE
:1041E800FB685B8D9AB2FB681A85FB68DB6C99B239
:1041F800FB681B8DDAB280239C04F8687B69009306
:10420800230000F08BFEFB685B8D9AB2FB681B8D68
:10421800D31A9AB2FB685A85FB6841229B5CDBB2D1
:10422800222B09D1FB681B681A68FB681B68802170
:1042380009020A431A6017E0FB681B681A68FB68E2
:104248001B688021C9010A431A600DE0BB6820225F
:10425800134009D07B682022134005D0BA68FB6858
:104268001100180000F040FAFB6840220021995420
:1042780000231800BD4607B090BDC046002000804E
:104288000024008080B588B000AFF860B9607A601B
:10429800FB68DB6ABB610023FB61FB6840229B5C17
:1042A800012B01D10223CEE0FB6840220121995461
:1042B800BB68202213400AD07B682022134006D016
:1042C800BA68FB681100180000F0DCFAB6E0BB68B9
:1042D8001022134000D1A3E07B681022134000D1C4
:1042E8009EE07A688023DB01134005D17A68802339
:1042F8001B02134000D18CE0FB68DB6B002B0CD059
:104308007A6880231B02134007D0FB68DB6B1B68AD
:104318005B68002B01D10123FB61FB689B6B002BC1
:104328000CD07A688023DB01134007D0FB689B6BB5
:104338001B685B68002B01D10123FB61FB69012B22
:104348002DD1FB6841229B5CDBB2282B0BD1BA69CB
:1043580080239B049A4206D1BA68FB6811001800B2
:1043680000F018FC54E0FB6841229B5CDBB2292B6F
:1043780010D1BB69364A93420CD0FB681B681022E7
:10438800DA61FB68180000F088FDFB68180000F08F
:1043980047F93DE0FB681B681022DA613EE0FB68E4
:1043A8001B681022DA61FB685B6C04221A43FB6805
:1043B8005A641723FB18FA684121525C1A70BB69CA
:1043C800002B04D0BA6980235B049A4226D11722B5
:1043D800BB181B78212B03D0BB181B78292B03D1C2
:1043E800FB6821221A630BE01722BB181B78222BCB
:1043F80003D0BB181B782A2B02D1FB6822221A6330
:10440800FB685A6CFB681100180000F01BFC05E003
:1044180004E0FB681B681022DA610FE0C0460DE07B
:10442800BB680822134009D07B680822134005D0D6
:10443800BA68FB681100180000F00CF8FB6840220D
:104448000021995400231800BD4608B080BDC0461D
:104458000000FFFFB0B584B000AF786039607B68BA
:1044680041229B5CDBB21A0028231340282B00D082
:1044780088E07B681B689B691B0CDAB20F257B19E7
:1044880001210A401A707B681B689B691B0C9AB251
:104498000C203B18FE210A401A807B681B689B6829
:1044A8009AB20A243B199205920D1A807B681B6800
:1044B800DB689AB20823FB18FE210A401A807B6841
:1044C800DB68022B48D121007B181B88DB099AB2D4
:1044D8003B181B8853409BB21A000623134020D177
:1044E8003B187A1812881A807B689B6C5A1C7B6868
:1044F8009A647B689B6C022B4CD17B6800229A647F
:104508007B681B680822DA617B6840220021995485
:104518003B181A887B1919787B681800FFF73FFA4F
:1045280038E00C243B190822BA1812881A80802314
:104538001A027B681100180000F0B4FD7B68402265
:10454800002199543B191A880F23FB1819787B68A6
:104558001800FFF724FA1DE080231A027B68110077
:10456800180000F09FFD7B684022002199540C231D
:10457800FB181A880F23FB1819787B681800FFF7B7
:104588000EFA07E07B681B680822DA617B68402224
:1045980000219954C046BD4604B0B0BD80B582B074
:1045A80000AF78607B684222002199547B684122E1
:1045B8009B5CDBB2212B17D17B68412220219954C7
:1045C8007B6811221A637B6800225A637B68012189
:1045D800180000F067FD7B684022002199547B6831
:1045E8001800FFF7BCF916E07B6841222021995496
:1045F8007B6812221A637B6800225A637B68022157
:10460800180000F04FFD7B684022002199547B6818
:104618001800FFF7ACF9C046BD4602B080BD0000E7
:1046280080B584B000AF78607B681B681B68FB604E
:104638007B68422200219954FA688023DB011340E9
:1046480008D07B681B681A687B681B6824490A4085
:104658001A600CE0FA6880231B02134007D07B68BD
:104668001B681A687B681B681E490A401A607B68C9
:1046780041229B5CDBB2292B14D17B684122282183
:1046880099547B6821221A637B680121180000F085
:1046980009FD7B684022002199547B681800FFF7C8
:1046A8006EF919E07B6841229B5CDBB22A2B13D19F
:1046B8007B684122282199547B6822221A637B68EF
:1046C8000221180000F0EEFC7B684022002199547A
:1046D8007B681800FFF75BF9C046BD4604B080BD93
:1046E800FFBFFFFFFF7FFFFF80B586B000AF786098
:1046F80039603B687B617B681B682022DA617B68D4
:1047080041229B5CDBB2212B08D17B680121180078
:1047180000F0C8FC7B6811221A630DE07B68412217
:104728009B5CDBB2222B07D17B680221180000F0CA
:10473800B9FC7B6812221A637B681B685A687B681D
:104748001B684E490A405A607B6800225A637B689E
:104758004B4ADA627B691022134009D07B681B68D8
:104768001022DA617B685B6C04221A437B685A6406
:104778007B6841229B5CDBB2602B09D17B690422F8
:10478800134005D07B681B685B6ADBB2FB60FB6883
:104798007B68180000F081FB7B685B6C3B617B6881
:1047A80041229B5CDBB2602B02D03B69002B07D017
:1047B8007B685A6C7B681100180000F043FA58E0D7
:1047C8007B6841229B5CDBB2212B26D17B6841228E
:1047D800202199547B6800221A637B6842229B5CE3
:1047E800DBB2402B0CD17B684222002199547B68B4
:1047F8004022002199547B681800FDF7F1FA38E04F
:104808007B684222002199547B68402200219954F8
:104818007B681800FFF7A3F82BE07B6841229B5CBC
:10482800DBB2222B25D17B684122202199547B6859
:1048380000221A637B6842229B5CDBB2402B0CD1BE
:104848007B684222002199547B68402200219954B8
:104858007B681800FDF7F2FA0BE07B684222002122
:1048680099547B684022002199547B681800FFF70F
:104878007EF8C046BD4606B080BDC04600E800FED2
:104888000000FFFF80B586B000AF786039607B68B4
:104898001B681B683B613B687B617B68DB6AFB606C
:1048A8000B203B187A684121525C1A707B681B68A0
:1048B8002022DA613B181B78212B03D03B181B7888
:1048C800292B09D1AC4A7B681100180000F0EAFBDB
:1048D8007B6821221A6320E00B22BB181B78222B4D
:1048E80003D0BB181B782A2B09D1A44A7B68110076
:1048F800180000F0D7FB7B6822221A630DE00B2317
:10490800FB181B78282B08D19D4A7B6811001800DA
:1049180000F0C8FB7B6800221A637B681B685A6832
:104928007B681B68802109020A435A607B681B6800
:104938005A687B681B6893490A405A607B6818006C
:1049480000F0ABFA3A698023DB01134013D07B688F
:104958001B681A687B681B688B490A401A607B6869
:104968009B6B002B1FD07B689B6B1B685B689AB2A4
:104978007B685A8517E03A6980231B02134012D0DE
:104988007B681B681A687B681B6880490A401A6044
:104998007B68DB6B002B06D07B68DB6B1B685B6876
:1049A8009AB27B685A857B690422134020D07B69C0
:1049B800042293437B617B681B685A6A7B685B6A45
:1049C800D2B21A707B685B6A5A1C7B685A627B6831
:1049D8001B8D002B0CD07B681B8D013B9AB27B682A
:1049E8001A857B685B8D9BB2013B9AB27B685A85BE
:1049F8007B685B8D9BB2002B05D07B685B6C0422C7
:104A08001A437B685A647B69102213404FD03B6974
:104A1800102213404BD07B685B8D9BB2002B2DD1AD
:104A28007B6841229B5CDBB2282B0BD1FA68802380
:104A38009B049A4206D17A697B681100180000F03D
:104A4800A9F834E07B6841229B5CDBB2292B10D1AA
:104A5800FB684F4A93420CD07B681B681022DA61CE
:104A68007B68180000F019FA7B681800FFF7D8FD7A
:104A78001DE07B681B681022DA6118E07B681B6800
:104A88001022DA617B685B6C04221A437B685A64E3
:104A9800FB68002B04D0FA6880235B049A4206D195
:104AA8007B685A6C7B681100180000F0CBF87B68B3
:104AB8004222002199547B6800225A637B685B6C10
:104AC800002B13D07B685A6C7B681100180000F02B
:104AD800B9F87B6841229B5CDBB2282B47D17A6905
:104AE8007B681100180000F055F840E07B68DB6A2D
:104AF800274A934216D07B681800FFF791FD7B6820
:104B0800234ADA627B684122202199547B6800227B
:104B18001A637B684022002199547B681800FEF7CD
:104B28004EFF24E07B6841229B5CDBB2222B0FD135
:104B38007B684122202199547B6800221A637B6894
:104B48004022002199547B681800FEF720FF0EE0F0
:104B58007B684122202199547B6800221A637B6874
:104B68004022002199547B681800FEF708FFC046D0
:104B7800BD4606B080BDC04601800000028000002E
:104B88000380000000E800FEFFBFFFFFFF7FFFFF7C
:104B98000000FFFF80B582B000AF786039607B68A5
:104BA800264ADA627B6800221A637B684122202148
:104BB80099547B684222002199547B6800225A63E9
:104BC8003B680422134022D07B681B685A6A7B68C2
:104BD8005B6AD2B21A707B685B6A5A1C7B685A623D
:104BE8007B681B8D002B12D07B681B8D013B9AB212
:104BF8007B681A857B685B8D9BB2013B9AB27B68A8
:104C08005A857B685B6C04221A437B685A640C4A99
:104C18007B681100180000F045FA7B681B681022B9
:104C2800DA617B684022002199547B681800FEF7FE
:104C3800C6FEC046BD4602B080BDC0460000FFFFAC
:104C48000380000080B584B000AF786039600F2021
:104C58003B187A684121525C1A707B684222002115
:104C680099547B68724ADA627B6800225A857B68AD
:104C78005A6C3B681A437B685A643B181B78282B8C
:104C880007D03B181B78292B03D03B181B782A2BFD
:104C98000CD17B680321180000F004FA7B684122DC
:104CA800282199547B68634A5A6332E0624A7B68D8
:104CB8001100180000F0F6F97B68180000F0EDF814
:104CC8007B6841229B5CDBB2602B1FD07B68412252
:104CD800202199547B681B689B6920221340202B54
:104CE80014D17B681B689B6910221340102B09D1D3
:104CF8007B681B681022DA617B685B6C04221A43AC
:104D08007B685A647B681B682022DA617B68002212
:104D18005A637B681B6BBB607B689B6B002B3BD02B
:104D2800BB68112B02D0BB68212B35D17B681B686F
:104D38001A688023DB011A408023DB019A4207D1DD
:104D48007B681B681A687B681B683C490A401A60C4
:104D58007B689B6B1800FEF71BFA0300012B16D02B
:104D68007B689B6B364A9A637B6840220021995482
:104D78007B689B6B1800FEF7A1F9031E51D07B6876
:104D88009B6B9A6B7B689B6B1800904749E07B682C
:104D9800180000F059F844E07B68DB6B002B3BD02F
:104DA800BB68122B02D0BB68222B35D17B681B68ED
:104DB8001A6880231B021A4080231B029A4207D1DB
:104DC8007B681B681A687B681B681E490A401A6062
:104DD8007B68DB6B1800FEF7DBF90300012B16D0AC
:104DE8007B68DB6B164A9A637B68402200219954E2
:104DF8007B68DB6B1800FEF761F9031E13D07B6834
:104E0800DB6B9A6B7B68DB6B180090470BE07B6869
:104E1800180000F019F806E07B68180000F014F894
:104E280002E0C04600E0C046C046BD4604B080BDB2
:104E38000000FFFF3D3C000803800000FFBFFFFFAC
:104E4800E74E0008FF7FFFFF80B582B000AF7860B3
:104E58007B6841229B5CDBB2602B0FD17B684122CF
:104E6800202199547B6800221A637B684022002124
:104E780099547B681800FEF7B2FD0AE07B680022AF
:104E88001A637B684022002199547B681800FEF75A
:104E98009EFDC046BD4602B080BD80B582B000AF61
:104EA80078607B681B689B6902221340022B03D140
:104EB8007B681B6800229A627B681B689B690122D9
:104EC8001340012B07D07B681B689A697B681B68B5
:104ED80001210A439A61C046BD4602B080BD80B533
:104EE80084B000AF78607B689B6AFB60FB689B6B53
:104EF800002B03D0FB689B6B00229A63FB68DB6B7B
:104F0800002B03D0FB68DB6B00229A63FB68180058
:104F1800FFF79AFFC046BD4604B080BD90B587B084
:104F280000AFF860080011007B600A243B19021CDE
:104F38001A8009203B180A1C1A703B191B889B050C
:104F48009A0D3B181B781904FF231B040B401A43C6
:104F58007B681A43BB6A13435B005B087B61FB6891
:104F68001B685B68BA6A510D8022D2000A40074963
:104F78000A43D2431A401100FB681B687A690A4346
:104F88005A60C046BD4607B090BDC046FF63FF03E8
:104F980080B584B000AF78600A00BB1C1A8000237B
:104FA800FB607B685A6B3C4B9A4235D07B685A6BE6
:104FB8003A4B9A4230D07B685A6B394B9A422BD085
:104FC800BB1C00229B5E002B03DAFB68B82213434C
:104FD800FB60BB1C1B880122134003D0FB68F22234
:104FE8001343FB60BB1C1B880222134003D0FB68E1
:104FF800F4221343FB60BB1C1B88102B03D1FB68F6
:1050080090221343FB60BB1C1B88202B37D1FB6805
:1050180020221343FB6032E0BB1C00229B5E002B66
:1050280003DAFB68B8221343FB60BB1C1B88012210
:10503800134003D0FB68F2221343FB60BB1C1B88A0
:105048000222134003D0FB68F4221343FB60BB1C0D
:105058001B88102B03D1FB6890221343FB60BB1CF9
:105068001B88202B03D1FB6860221343FB60BB1C09
:105078001B88402B03D1FB6840221343FB607B68ED
:105088001B6819687B681B68FA680A431A60C0467F
:10509800BD4604B080BDC0463D3E00088D420008B4
:1050A8003540000880B584B000AF78600A00BB1CAA
:1050B8001A800023FB60BB1C1B880122134010D000
:1050C800FB6842221343FB607B6841229B5CDBB296
:1050D8001A0028231340282B03D0FB68B02213435F
:1050E800FB60BB1C1B880222134010D0FB684422C3
:1050F8001343FB607B6841229B5CDBB21A002823C8
:105108001340282B03D0FB68B0221343FB60BB1C61
:1051180000229B5E002B03DAFB68B8221343FB6076
:10512800BB1C1B88102B03D1FB6890221343FB6028
:10513800BB1C1B88202B03D1FB6820221343FB6078
:10514800BB1C1B88402B03D1FB6840221343FB6028
:105158007B681B681A68FB68D9437B681B680A4030
:105168001A60C046BD4604B080BD000080B582B05C
:1051780000AF786039607B6841229B5CDBB2202BF2
:1051880038D17B6840229B5C012B01D1022332E09D
:105198007B684022012199547B684122242199543B
:1051A8007B681B681A687B681B6801218A431A6040
:1051B8007B681B681A687B681B6811490A401A607B
:1051C8007B681B6819687B681B683A680A431A6021
:1051D8007B681B681A687B681B6801210A431A6090
:1051E8007B684122202199547B68402200219954F0
:1051F800002300E002231800BD4602B080BDC0466F
:10520800FFEFFFFF80B584B000AF786039607B683E
:1052180041229B5CDBB2202B39D17B6840229B5C0E
:10522800012B01D1022333E07B68402201219954EC
:105238007B684122242199547B681B681A687B6823
:105248001B6801218A431A607B681B681B68FB6026
:10525800FB68114A1340FB603B681B02FA68134362
:10526800FB607B681B68FA681A607B681B681A68B1
:105278007B681B6801210A431A607B684122202150
:1052880099547B68402200219954002300E00223AE
:105298001800BD4604B080BDFFF0FFFF80B584B0A4
:1052A80000AF7860194B1B68194A13401900174B57
:1052B8007A680A431A607A6880239B009A421FD151
:1052C800144B1A6813005B009B185B001249180006
:1052D800FAF71CFF03000133FB6008E0FB68002BB2
:1052E80003D0FB68013BFB6001E0032309E0074BA7
:1052F8005A698023DB001A408023DB009A42EDD0F4
:1053080000231800BD4604B080BDC04600700040B0
:10531800FFF9FFFF0000002040420F0080B500AFFA
:10532800034B9A68E023DB0113401800BD4680BD9B
:105338000010024080B588B000AF78607B68002B11
:1053480001D10123F3E27B681B680122134000D1DD
:105358007CE0C34B9B6838221340BB61C04BDB68C1
:10536800032213407B61BB69102B02D17B69032B9D
:1053780002D0BB69082B0BD1B94B1A6880239B025A
:10538800134062D07B685B68002B5ED10123CEE2BC
:105398007B685A6880235B029A4207D1B04B1A682F
:1053A800AF4B802149020A431A6020E07B685A68A3
:1053B800A023DB029A420ED1A94B1A68A84B802180
:1053C800C9020A431A60A64B1A68A54B80214902F4
:1053D8000A431A600BE0A24B1A68A14BA1490A4084
:1053E8001A609F4B1A689E4B9F490A401A607B6857
:1053F8005B68002B14D0FDF7F3FC03003B6108E069
:10540800FDF7EEFC02003B69D31A642B01D9032394
:105418008DE2934B1A6880239B021340F0D015E06D
:10542800FDF7DEFC03003B6108E0FDF7D9FC020054
:105438003B69D31A642B01D9032378E2884B1A6895
:1054480080239B021340F0D100E0C0467B681B68B4
:105458000222134000D199E0814B9B683822134007
:10546800BB617F4BDB68032213407B61BB69102B58
:1054780002D17B69022B02D0BB69002B35D1784B56
:105488001A688023DB00134005D07B68DB68002B9B
:1054980001D101234BE2724B5B68744A1340190037
:1054A8007B685B691A026E4B0A435A60BB69002B22
:1054B80012D16B4B1B686E4A134019007B681A693E
:1054C800674B0A431A60664B1B68DB0A07221340C6
:1054D800684ADA40684B1A60684B1B681800FDF789
:1054E80023FC031E51D0012321E27B68DB68002BDB
:1054F80030D05B4B1B685E4A134019007B681A6901
:10550800574B0A431A60564B1A68554B802149007D
:105518000A431A60FDF764FC03003B6108E0FDF7ED
:105528005FFC02003B69D31A022B01D90323FEE179
:105538004B4B1A688023DB001340F0D0484B5B6864
:105548004A4A134019007B685B691A02444B0A43B4
:105558005A601BE0424B1A68414B49490A401A609D
:10556800FDF73EFC03003B6108E0FDF739FC020053
:105578003B69D31A022B01D90323D8E1384B1A68A7
:105588008023DB001340F0D100E0C0467B681B6835
:105598000822134047D0324B9B6838221340182BFF
:1055A8000AD12F4B1B6E022213403CD07B689B69AB
:1055B800002B38D10123BAE17B689B69002B19D0F5
:1055C800274B1A6E264B01210A431A66FDF708FC81
:1055D80003003B6108E0FDF703FC02003B69D31AB6
:1055E800022B01D90323A2E11D4B1B6E022213409B
:1055F800F1D018E01A4B1A6E194B01218A431A662A
:10560800FDF7EEFB03003B6108E0FDF7E9FB020054
:105618003B69D31A022B01D9032388E1104B1B6E77
:1056280002221340F1D17B681B680422134000D189
:10563800C6E01F23FB1800221A70094B9B6838220A
:105648001340202B1ED1064BDB6D0222134000D1E4
:10565800B6E07B689B68002B00D0B1E0012366E1CF
:1056680000100240FFFFFEFFFFFFFBFFFF80FFFF70
:10567800FFC7FFFF0024F400000000200400002002
:10568800FFFEFFFFAC4BDA6B80235B05134001D1B3
:10569800012300E00023002B11D0A74BDA6BA64BA7
:1056A800802149050A43DA63A34BDA6B80235B0543
:1056B8001340FB60FB681F23FB1801221A709F4BE5
:1056C8001A6880235B0013401AD19C4B1A689B4BC5
:1056D800802149000A431A60FDF782FB03003B6101
:1056E80008E0FDF77DFB02003B69D31A022B01D9C4
:1056F80003231CE1914B1A6880235B001340F0D010
:105708007B689B68012B06D18B4BDA6D8A4B012194
:105718000A43DA651CE07B689B68052B0CD1864B35
:10572800DA6D854B04210A43DA65834BDA6D824BC7
:1057380001210A43DA650BE07F4BDA6D7E4B0121CC
:105748008A43DA657C4BDA6D7B4B04218A43DA6540
:105758007B689B68002B14D0FDF742FB03003B617C
:1057680009E0FDF73DFB02003B69D31A744A9342F6
:1057780001D90323DBE0704BDB6D02221340F0D02C
:1057880013E0FDF72DFB03003B6109E0FDF728FB63
:1057980002003B69D31A6A4A934201D90323C6E03F
:1057A800654BDB6D02221340F0D11F23FB181B78D9
:1057B800012B05D1604BDA6B5F4B62490A40DA6313
:1057C8007B68DB69002B00D1B0E05B4B9B6838221B
:1057D8001340102B00D178E07B68DB69022B53D192
:1057E800554B1A68544B58490A401A60FDF7F8FAA5
:1057F80003003B6108E0FDF7F3FA02003B69D31AA6
:10580800022B01D9032392E04B4B1A6880239B0497
:105818001340F0D1484BDB684C4A134019007B68B1
:105828001A6A7B685B6A1A437B689B6A1B021A4385
:105838007B68DB6A1A437B681B6B1A433E4B0A433F
:10584800DA603D4B1A683C4B802149040A431A60D0
:10585800394BDA68384B802149050A43DA60FDF78D
:10586800BFFA03003B6108E0FDF7BAFA02003B69A2
:10587800D31A022B01D9032359E02F4B1A6880232E
:105888009B041340F0D051E02B4B1A682A4B2E4949
:105898000A401A60FDF7A4FA03003B6108E0FDF72F
:1058A8009FFA02003B69D31A022B01D903233EE079
:1058B800214B1A6880239B041340F0D11E4BDA68F1
:1058C8001D4B23490A40DA6030E07B68DB69012B15
:1058D80001D101232BE0184BDB687B617B69032234
:1058E8001A407B681B6A9A421ED17B6970221A4053
:1058F8007B685B6A9A4217D17A69FE23DB011A40FA
:105908007B689B6A1B029A420ED17A69F8239B0333
:105918001A407B68DB6A9A4206D17B695B0F5A079B
:105928007B681B6B9A4201D0012300E0002318001A
:10593800BD4608B080BDC04600100240007000405F
:1059480088130000FFFFFFEFFFFFFFFE8C80C11FE1
:10595800FCFFFEEF80B584B000AF786039607B68EB
:10596800002B01D10123E9E0764B1B680722134085
:105978003A689A421ED9734B1B6807229343190051
:10598800704B3A680A431A60FDF72AFA0300FB6075
:1059980009E0FDF725FA0200FB68D31A6A4A934228
:1059A80001D90323CAE0674B1B68072213403A68F2
:1059B8009A42EED17B681B680222134015D07B689F
:1059C8001B680422134006D0604B9A685F4BE021A5
:1059D800C9010A439A605D4B9B685D4A13401900F0
:1059E8007B689A68594B0A439A607B681B68012256
:1059F800134057D07B685B68012B07D1534B1A685B
:105A080080239B0213402BD1012397E07B685B68BE
:105A1800022B07D14D4B1A6880239B0413401FD1DA
:105A280001238BE07B685B68002B07D1474B1A6822
:105A38008023DB00134013D101237FE07B685B6880
:105A4800032B06D1414B1B6E0222134008D10123C0
:105A580074E03E4BDB6D0222134001D101236DE05F
:105A68003A4B9B680722934319007B685A68374B67
:105A78000A439A60FDF7B4F90300FB6009E0FDF7FB
:105A8800AFF90200FB68D31A2F4A934201D90323C6
:105A980054E02E4B9B6838221A407B685B68DB0019
:105AA8009A42ECD1274B1B68072213403A689A4266
:105AB8001ED2244B1B68072293431900214B3A68D6
:105AC8000A431A60FDF78CF90300FB6009E0FDF753
