:020000040800F2
:1000000000200020D51100086D0D0008750D0008B6
:1000100000000000000000000000000000000000E0
:100020000000000000000000000000007D0D00083E
:100030000000000000000000870D0008910D00087E
:1000400025120008000000002512000825120008F3
:1000500025120008251200082512000825120008A4
:1000600000000000251200082512000825120008D3
:1000700025120008251200082512000800000000C3
:10008000BD0D00080000000000000000251200085F
:10009000000000002512000825120008D50D0008F8
:1000A0002512000825120008251200082512000854
:0800B000050E0008000000002D
:1000B80010B5064C2378002B07D1054B002B02D036
:1000C800044800E000BF0123237010BD5C0000203D
:1000D8000000000034700008044B10B5002B03D05A
:1000E8000349044800E000BF10BDC04600000000FE
:1000F800600000203470000803B4714649084000CD
:100108004900095E49008E4403BC70470022430839
:100118008B4274D303098B425FD3030A8B4244D3C7
:10012800030B8B4228D3030C8B420DD3FF22090209
:1001380012BA030C8B4202D31212090265D0030BC8
:100148008B4219D300E0090AC30B8B4201D3CB03BE
:10015800C01A5241830B8B4201D38B03C01A524100
:10016800430B8B4201D34B03C01A5241030B8B4202
:1001780001D30B03C01A5241C30A8B4201D3CB02ED
:10018800C01A5241830A8B4201D38B02C01A5241D2
:10019800430A8B4201D34B02C01A5241030A8B42D5
:1001A80001D30B02C01A5241CDD2C3098B4201D3ED
:1001B800CB01C01A524183098B4201D38B01C01A6B
:1001C800524143098B4201D34B01C01A52410309E2
:1001D8008B4201D30B01C01A5241C3088B4201D391
:1001E800CB00C01A524183088B4201D38B00C01A3E
:1001F800524143088B4201D34B00C01A5241411A65
:1002080000D20146524110467047FFE701B5002071
:1002180000F006F802BDC0460029F7D076E770471F
:100228007047C04680B582B000AF78600C4B7A68E2
:100238001A600B4B1B680821180004F0AFF9084B33
:100248001B680421180004F0A9F9054B1B6800215C
:10025800180004F0A3F9C046BD4602B080BDC046F0
:100268007800002090B583B000AF040008001100AA
:10027800FB1D221C1A70BB1D021C1A707B1D0A1C58
:100288001A70FB1D1B78002B04D11F4B1B681B68C1
:100298000022DA63BB1D1B78002B04D11A4B1B68A4
:1002A8001B6800229A637B1D1B78002B04D1164B18
:1002B8001B681B6800225A63FB1D1B78002B07D0A4
:1002C800FB1D1B789B005A1E0F4B1B681B68DA63CB
:1002D800BB1D1B78002B07D0BB1D1B789B005A1E2B
:1002E800094B1B681B689A637B1D1B78002B07D082
:1002F8007B1D1B789B005A1E034B1B681B685A63A7
:10030800C046BD4603B090BD7800002080B584B0DB
:1003180000AF78602D4B00221A802C4B02229A7075
:100328002A4B0022DA70294B2B2200219954274BA3
:1003380000221A71254B7A689A600F23FB18002255
:100348001A700BE00F217B181B78204AD318002263
:100358001A737B181A787B1801321A700F23FB184E
:100368001B78132BEED90E23FB1800221A700DE010
:100378000E203B181B78154A2021D3185B18002241
:100388001A703B181A783B1801321A700E23FB18A2
:100398001B78092BECD90D4B2A22002199540B4BC1
:1003A8002C2200219954094B0022DA85074B0022A0
:1003B8001A86064B00225A86044B00229A86034B63
:1003C8000022DA86C046BD4604B080BD7C0000200D
:1003D80080B582B000AF294B00221A80274B022239
:1003E8009A70264B0122DA70244B2B220021995453
:1003F800224B00221A71FB1D00221A700AE0FB1D15
:100408001B781E4AD31800221A73FB1D1A78FB1D8D
:1004180001321A70FB1D1B78132BF0D9BB1D00226B
:100428001A700CE0BB1D1B78144A2021D3185B18E6
:1004380000221A70BB1D1A78BB1D01321A70BB1D31
:100448001B78092BEED90D4B2A22002199540B4B0E
:100458002C2200219954094B0022DA85074B0022EF
:100468001A86064B00225A86044B00229A86034BB2
:100478000022DA86C046BD4602B080BD7C0000205E
:1004880080B500AF104B1A88AF239B009A4209D25F
:100498000D4B1B8801339AB20B4B1A800A4B002272
:1004A800DA850DE0084BDB8D01339AB2064BDA850D
:1004B800054BDA8DAF239B009A4201D3FFF788FFE3
:1004C800C046BD4680BDC0467C00002080B582B0D5
:1004D80000AF78607B681B68114A93421BD1114BAF
:1004E8002A229B5C0133D9B20E4B2A2299540D4B18
:1004F8002A229B5C092B0AD90A4B2A2200219954EB
:10050800084B2B2200219954064B00221A71054BE7
:100518002C2200219954C046BD4602B080BDC04679
:10052800005400407C00002080B582B000AF7860A5
:100538007B681B68124A93421ED1124B2A229B5C8D
:100548000133D9B20F4B2A2299540E4B2A229B5CB5
:10055800132B0DD90B4B2A2200219954094B002249
:100568001A80084B2B2200219954064B01221A713C
:10057800044B2C2200219954C046BD4602B080BDD0
:10058800005400407C00002080B582B002AF144BBC
:100598009868134B2A229B5C1A00124B9B5C8022A2
:1005A80052421343DBB219000D4B2A229B5C0833DD
:1005B8001A000B4BD3180433012201920093012334
:1005C8000A00522101F056FB054B2C2201219954B7
:1005D800034B2B2201219954C046BD4680BDC0461D
:1005E8007C0000206070000880B582B000AF020077
:1005F800FB1D1A70194BFA1D1278DA70174BDB784D
:10060800012B27D1154B202203219954134B21226A
:1006180000219954114B2222FF2199540F4B232278
:10062800002199540D4B2422002199540B4B25226B
:10063800FF219954094B2622FF219954074B272261
:100648000F219954054B282200219954034B292244
:1006580000219954C046BD4602B080BD7C000020F0
:1006680080B500AF4E4B5B7E1B021AB24C4B1B7E13
:100678001BB213431BB29AB2494BDA86484BDB7E56
:100688001B021AB2464B9B7E1BB213431BB29AB293
:10069800434B1A86424B5B7F1B021AB2404B1B7FAF
:1006A8001BB213431BB29AB23D4B5A863C4BDB7FBD
:1006B8001B021AB23A4B9B7F1BB213431BB29AB26E
:1006C800374B9A86364BDB78012B00D063E0344BEE
:1006D8001A7B334B20215B5C9A4201D001235BE0FB
:1006E8002F4B5A7B2E4B21215B5C9A4201D0012370
:1006F80052E02B4B9A7B2A4B22215B5C9A4201D019
:10070800012349E0264BDA7B254B23215B5C9A4287
:1007180001D0012340E0224B1A7C214B24215B5C51
:100728009A4201D0012337E01D4B5A7C1C4B2521EE
:100738005B5C9A4201D001232EE0194B9A7C184B3E
:1007480026215B5C9A4201D0012325E0144BDA7C18
:10075800134B27215B5C9A4201D001231CE0104B0C
:100768001A7D0F4B28215B5C9A4201D0012313E0CC
:100778000B4B5A7D0A4B29215B5C9A4201D001231D
:100788000AE0074B9B7D442B05D0054B9B7D4D2BE9
:1007980001D0012300E000231800BD4680BDC046FB
:1007A8007C00002080B500AF0B4B9B78022B03D157
:1007B8000120FFF719FF06E0074BDB78012B02D178
:1007C8000120FFF711FFFFF74BFF03001A00024B50
:1007D8009A70C046BD4680BD7C00002080B582B0BE
:1007E80002AF3B4B1A88AF239B009A4204D3384B85
:1007F8002A229B5C002B04D0354B2B229B5C012BBF
:100808000AD1334B2C229B5C002B05D1304B1B7932
:10081800002B01D1FFF7B8FEFFF7C4FF2C4B9B78E4
:10082800012B04D12A4B2A229B5C002B04D0284B95
:100838002B229B5C022B2DD1254B2C229B5C002B61
:1008480028D1234B1B79012B24D1214B9868204BAD
:100858002A229B5C1A001F4B9B5C80225242134346
:10086800DBB219001A4B2A229B5C20331A00184B62
:10087800D31801220192009301230A00522101F0AA
:1008880057F9134B2C2202219954114B2B22022188
:10089800995419E00E4B9B78002B04D10C4B2A225B
:1008A8009B5C002B04D00A4B2B229B5C022B0BD1A8
:1008B800074B2C229B5C002B06D1054B1B79012B87
:1008C80002D1034B00221A71C046BD4680BDC04606
:1008D8007C0000206070000880B582B000AF7860AE
:1008E800074B9B78002B03D07B6800221A7002E02C
:1008F8007B6801221A70C046BD4602B080BDC04662
:100908007C00002080B584B000AFF860B9607A60E0
:100918003B600A4B1A8EFB681A80084B5A8EBB68DC
:100928001A80064B9A8E7B681A80044BDA8E3B68D5
:100938001A80C046BD4604B080BDC0467C00002079
:1009480090B589B000AF0C243B19180014231A0085
:10095800002105F0EDFE1B4B5A6B1A4B01210A438F
:100968005A63184B5B6B01221340BB60BB68154B85
:100978005A6B144B02210A435A63124B5B6B0222D7
:1009880013407B607B68A023DB050022022118004E
:1009980001F00AF821007B1802221A607B18012254
:1009A8005A607B1800229A607B180022DA607A1855
:1009B800A023DB051100180000F092FEC046BD46DA
:1009C80009B090BD0010024080B500AF1B4B1C4A17
:1009D8001A601A4B1B4A5A60184B00229A60174B30
:1009E8000122DA60154B00221A61144B00225A6169
:1009F800124B00229A61114B0022DA610F4B002240
:100A08001A620E4B180000F0EDFF031E01D000F033
:100A18007FF90A4B0021180002F044FE031E01D0A2
:100A280000F076F9054B0021180002F087FE031E3E
:100A380001D000F06DF9C046BD4680BDB40000206D
:100A480000540040583D500090B591B000AF786018
:100A58002C23FB18180014231A00002105F068FE47
:100A680014243B19180018231A00002105F060FE11
:100A78007B681B68274A934247D13B1920221A609A
:100A88003B1900229A603B19180003F0A9FB031ECA
:100A980001D000F03DF9204B5A6B1F4B01210A434E
:100AA8005A631D4B5B6B012213403B613B692C2150
:100AB8007B18C022D2001A607B1812225A607B1859
:100AC80000229A607B180022DA607B1806221A61DD
:100AD8007A18A023DB051100180000F001FE0E4B68
:100AE800DA6B0D4B802189030A43DA630A4BDA6B10
:100AF80080239B031340FB60FB6800220021172022
:100B080000F0E4FC172000F0F6FCC046BD4611B02A
:100B180090BDC0460054004000100240B0B58EB0F1
:100B280002AF00F07DFB00F0ABF8FFF709FFFFF71D
:100B38004BFF00F0ABF900F0C3FA642000F0F6FBBD
:100B48004A4B1800FFF7E2FB494B1800FFF76AFB16
:100B5800FF22FF21FF20FFF785FBA023DB050122F1
:100B68000221180000F020FFFFF738FE414B1B88D8
:100B7800002BF9D12C23FB1800221A802A23FB18FA
:100B880000221A802823FB1800221A802623FB182B
:100B980000221A802523FB1800221A702F23FB1825
:100BA80000221A700AE02F203B181B783A00002117
:100BB800D1543B181A783B1801321A702F23FB18AE
:100BC8001B78212BEFD925243B191800FFF784FE49
:100BD8003B191B78002B09D02623FB182822BA18AA
:100BE8002A2179182C203818FFF78CFE2C23FB18A3
:100BF8001B881C002A23FB181B881D002823FB18B0
:100C08001B881A002623FB181B881B4938000193F0
:100C180000922B00220005F06BFD2E23FB1800220A
:100C28001A700BE02E217B181B783A00D35C0A2B34
:100C38000AD07B181A787B1801321A702E23FB18F9
:100C48001B78212BEED900E0C0462E23FB181B7819
:100C58009BB201339AB239000848642304F068FD56
:100C6800044BFA2292001A807EE7C046B4000020A6
:100C780010010020080100204C7000085C010020D1
:100C880090B593B000AF14243B19180034231A0010
:100C9800002105F04DFD3B1D180010231A0000210E
:100CA80005F046FD80239B00180002F093FD3B19D8
:100CB80002221A603B1980225200DA603B19002296
:100CC8001A613B1940225A613B190022DA613B192B
:100CD800180002F0CBFD031E01D000F019F83B1DEF
:100CE80007221A603B1D00225A603B1D00229A60B1
:100CF8003B1D0022DA603B1D0021180003F0C6F8F6
:100D0800031E01D000F004F8C046BD4613B090BDE4
:100D180080B500AF72B6C046C046FDE780B582B068
:100D280000AF0F4B1A6C0E4B01210A431A640C4B8F
:100D38001B6C012213407B607B68094BDA6B084B04
:100D4800802149050A43DA63054BDA6B80235B058A
:100D580013403B603B68C046BD4602B080BDC046FC
:100D68000010024080B500AFC046FDE780B500AF77
:100D7800C046FDE780B500AFC046BD4680BD80B522
:100D880000AFC046BD4680BD80B500AFFFF778FB19
:100D9800074B1B88002B05D0054B1B88013B9AB2DB
:100DA800034B1A8000F0A6FAC046BD4680BDC04677
:100DB8000801002080B500AF034B180003F00CFDBC
:100DC800C046BD4680BDC0461001002080B500AFBA
:100DD800094B1B689A69E023DB00134004D0064BDB
:100DE800180000F0FFFF03E0034B180000F0E0FFDD
:100DF800C046BD4680BDC046B400002080B500AFE7
:100E0800034B180004F038FDC046BD4680BDC046FF
:100E18005C01002080B586B000AF7860144A154B9D
:100E2800D31A7B617B693B61134B1B68002B02D192
:100E3800114B124A1A60104B1A687B68D3183A692A
:100E48009A4207D205F07CFC03000C221A600123A9
:100E58005B4209E0084B1B68FB60074B1A687B681C
:100E6800D218054B1A60FB681800BD4606B080BD55
:100E780000200020000400000C0100204003002096
:100E880080B500AFC046BD4680BD000080B58EB0BD
:100E980000AF2823FB18180010231A00002105F0C2
:100EA80047FC1C23FB1818000C231A00002105F02E
:100EB8003FFC3B0018001C231A00002105F038FCF9
:100EC800394B3A4A1A60384B00225A60364B002296
:100ED8009A60354B364ADA60334B00221A61324B3E
:100EE80000229A61304B180003F0A0FA031E01D0CB
:100EF800FFF70EFF28217B18802252011A607A180A
:100F0800294B1100180003F06FFE031E01D0FFF7F4
:100F1800FFFE254B180003F0E1FA031E01D0FFF78E
:100F2800F7FE1C217B1800221A607B1800229A60A9
:100F38007A181D4B1100180004F02AFB031E01D07B
:100F4800FFF7E6FE3B0060221A603B00184A5A6031
:100F58003B0000229A603B0000221A613900124BC4
:100F68000022180003F040FD031E01D0FFF7D0FE59
:100F780039000D4B0422180003F036FD031E01D082
:100F8800FFF7C6FE3900084B0822180003F02CFDB5
:100F9800031E01D0FFF7BCFE034B180000F030F829
:100FA800C046BD460EB080BD1001002000040040C0
:100FB800FF03000080B584B000AF78607B681B68D1
:100FC8000D4A934213D10D4BDA6B0C4B02210A43A5
:100FD800DA630A4BDB6B02221340FB60FB680022DA
:100FE8000021102000F072FA102000F084FAC046A8
:100FF800BD4604B080BDC046000400400010024059
:1010080090B58BB000AF786014243B1918001423F6
:101018001A00002105F08CFB7B681B68254A934267
:1010280043D1254B5A6B244B01210A435A63224B67
:101038005B6B012213403B613B691F4B5A6B1E4B94
:1010480002210A435A631C4B5B6B02221340FB606C
:10105800FB683B19C0221A603B1902225A603B19EF
:1010680000229A603B190022DA603B1901221A61BA
:101078003A19A023DB051100180000F031FB21000C
:101088007B1801221A607B1802225A607B18002202
:101098009A607B180022DA607B1801221A617B189B
:1010A800064A1900100000F01BFBC046BD460BB0F5
:1010B80090BDC046000400400010024000040050EB
:1010C80080B500AF164B174A1A60154B962292014D
:1010D8005A60134B00229A60114B0022DA60104BC1
:1010E80000221A610E4B0C225A610D4B00229A61A4
:1010F8000B4B0022DA610A4B00221A62084B0022CD
:101108005A62074B00229A62054B180004F0BAFA9B
:10111800031E01D0FFF7FCFDC046BD4680BDC0469A
:101128005C0100200044004090B58BB000AF7860AF
:1011380014243B19180014231A00002105F0F8FAAA
:101148007B681B681F4A934238D11F4BDA6B1E4BD2
:10115800802189020A43DA631B4BDA6B80239B02E6
:1011680013403B613B69184B5A6B174B01210A43EB
:101178005A63154B5B6B01221340FB60FB6821002F
:101188007B180C221A607B1802225A607B180022F6
:101198009A607B180022DA607B1801221A617A189B
:1011A800A023DB051100180000F09AFA00220021A4
:1011B8001C2000F08BF91C2000F09DF9C046BD46AC
:1011C8000BB090BD00440040001002400D48854619
:1011D800FFF756FE0C480D490D4A002302E0D4588B
:1011E800C4500433C4188C42F9D30A4A0A4C002369
:1011F80001E013600432A242FBD305F0A7FAFFF71F
:101208008DFCFEE700200020000000205C0000208C
:101218007C7100085C0000203C030020FEE7000011
:1012280080B582B000AFFB1D00221A700B4B1A6804
:101238000A4B802149000A431A60032000F010F885
:10124800031E03D0FB1D01221A7001E0FFF766FDA3
:10125800FB1D1B781800BD4602B080BD002002406F
:1012680090B585B000AF78600F23FB1800221A7084
:101278001D4B1B78002B2BD01C4B1C681A4B1B7862
:101288001900FA239800FEF741FF03001900200017
:10129800FEF73CFF0300180000F03DF9031E12D1D1
:1012A8007B68032B0AD8796801235B420022180067
:1012B80000F00CF90E4B7A681A600DE00F23FB184A
:1012C80001221A7008E00F23FB1801221A7003E0AC
:1012D8000F23FB1801221A700F23FB181B78180024
:1012E800BD4605B090BDC0460800002000000020A3
:1012F8000400002080B500AF054B1B781A00054B91
:101308001B68D218034B1A60C046BD4680BDC04654
:1013180008000020F001002080B500AF024B1B68D8
:101328001800BD4680BDC046F001002080B584B0DD
:1013380000AF7860FFF7F0FF0300BB607B68FB60DD
:10134800FB68013305D00A4B1B781A00FB689B1811
:10135800FB60C046FFF7E0FF0200BB68D31AFA68DB
:101368009A42F7D8C046C046BD4604B080BDC046C4
:101378000800002080B582B000AF0200FB1D1A7083
:10138800FB1D1B787F2B09D8FB1D1B781A001F2318
:101398001A40044B012191400A001A60C046BD461C
:1013A80002B080BD00E100E090B583B000AF02005C
:1013B8003960FB1D1A70FB1D1B787F2B28D82F4A1C
:1013C800FB1D1B785BB29B08C0339B009B58FA1D22
:1013D8001278110003220A40D200FF2191400A002E
:1013E800D2431A4011003B689B01FF221A40FB1DA3
:1013F8001B78180003230340DB009A401F48FB1D9D
:101408001B785BB29B080A43C0339B001A5031E03B
:101418001B4AFB1D1B7819000F230B40083B9B0838
:1014280006339B00D31804331B68FA1D1278110089
:1014380003220A40D200FF2191400A00D2431A40F9
:1014480011003B689B01FF221A40FB1D1B78180006
:1014580003230340DB009A400948FB1D1B781C004E
:101468000F232340083B9B080A4306339B00C318FD
:1014780004331A60C046BD4603B090BD00E100E0E9
:1014880000ED00E080B582B000AF78607B685A1E3E
:1014980080235B049A4201D3012310E00A4B7A6847
:1014A800013A5A6001235B4203211800FFF77CFFD1
:1014B800054B00229A60044B07221A60002318008B
:1014C800BD4602B080BDC04610E000E080B584B0E3
:1014D80000AFB9607A600F217B18021C1A70BA68D5
:1014E8007B181B785BB211001800FFF75DFFC04640
:1014F800BD4604B080BD80B582B000AF0200FB1DC0
:101508001A70FB1D1B785BB21800FFF733FFC0464B
:10151800BD4602B080BD80B582B000AF78607B6800
:101528001800FFF7AFFF03001800BD4602B080BDEA
:1015380080B582B000AF78607B68002B01D10123B1
:1015480050E07B6825229B5CDBB2022B08D07B68CD
:101558000422DA637B68242200219954012341E0A4
:101568007B681B681A687B681B680E218A431A60AF
:101578007B685B6C1A687B685B6C1C490A401A6064
:101588007B681B681A687B681B6801218A431A609C
:10159800174B59687B681B6C1C22134001229A4028
:1015A800134B0A435A607B689B6C7A68D26C5A600A
:1015B8007B681B6D002B0CD07B681B6D1A687B68E1
:1015C8001B6D0A490A401A607B685B6D7A68926DE8
:1015D8005A607B682522012199547B6824220021C6
:1015E800995400231800BD4602B080BDFFFEFFFFDE
:1015F8000000024080B584B000AF78600F217B18EE
:1016080000221A707B6825229B5CDBB2022B06D075
:101618007B680422DA637B1801221A7049E07B6830
:101628001B681A687B681B680E218A431A607B68EE
:101638001B681A687B681B6801218A431A607B68EB
:101648005B6C1A687B685B6C1D490A401A601D4B0D
:1016580059687B681B6C1C22134001229A40194B65
:101668000A435A607B689B6C7A68D26C5A607B68C4
:101678001B6D002B0CD07B681B6D1A687B681B6D7B
:101688000F490A401A607B685B6D7A68926D5A60F0
:101698007B682522012199547B68242200219954D2
:1016A8007B689B6B002B04D07B689B6B7A6810006F
:1016B80098470F23FB181B781800BD4604B080BD5F
:1016C800FFFEFFFF0000024080B582B000AF7860E7
:1016D8007B6825229B5CDBB21800BD4602B080BD4A
:1016E80080B586B000AF7860396000237B6147E140
:1016F8003B681B6801217A6991400A001340FB602E
:10170800FB68002B00D138E13B685B68032213407B
:10171800012B05D03B685B6803221340022B30D1B4
:101728007B689B683B617B695B0003229A401300DE
:10173800DA433B6913403B613B68DA687B695B00CD
:101748009A4013003A6913433B617B683A699A608F
:101758007B685B683B6101227B699A401300DA432E
:101768003B6913403B613B685B681B0901221A40D7
:101778007B699A4013003A6913433B617B683A6975
:101788005A603B685B6803221340032B17D07B68C1
:10179800DB683B617B695B0003229A401300DA43F4
:1017A8003B6913403B613B689A687B695B009A40E0
:1017B80013003A6913433B617B683A69DA603B6816
:1017C8005B6803221340022B23D17B69DA087B680C
:1017D80008329200D3583B617B69072213409B0073
:1017E8000F229A401300DA433B6913403B613B6880
:1017F8001A697B6907210B409B009A4013003A69DC
:1018080013433B617B69DA087B68083292003969C7
:10181800D1507B681B683B617B695B0003229A405F
:101828001300DA433B6913403B613B685B68032262
:101838001A407B695B009A4013003A6913433B6185
:101848007B683A691A603B685A68C0239B02134058
:1018580000D192E0504A7B699B0818339B009B5843
:101868003B617B6903221340DB000F229A4013007F
:10187800DA433B6913403B617A68A023DB059A424F
:1018880013D07B68454A93420DD07B68444A934203
:1018980007D07B68434A934201D1032306E005231E
:1018A80004E0022302E0012300E000237A69032117
:1018B8000A40D20093403A6913433B6136497B6939
:1018C8009B0818339B003A695A50334B1B683B619D
:1018D800FB68DA433B6913403B613B685A688023E5
:1018E8005B03134003D03A69FB6813433B612A4BFF
:1018F8003A691A60284B5B683B61FB68DA433B69CD
:1019080013403B613B685A6880239B03134003D014
:101918003A69FB6813433B611F4B3A695A601E4A98
:101928008423D3583B61FB68DA433B6913403B612E
:101938003B685A6880239B02134003D03A69FB68CE
:1019480013433B61144984223B698B50124A80231C
:10195800D3583B61FB68DA433B6913403B613B6802
:101968005A6880235B02134003D03A69FB6813432B
:101978003B61094980223B698B507B6901337B615C
:101988003B681A687B69DA40131E00D0B0E6C0468F
:10199800C046BD4606B080BD001802400004005095
:1019A80000080050000C005080B582B000AF78608D
:1019B80008001100BB1C021C1A807B1C0A1C1A7030
:1019C8007B1C1B78002B04D0BB1C1A887B689A618F
:1019D80003E0BB1C1A887B689A62C046BD4602B009
:1019E80080BD000080B582B000AF78607B68002BB6
:1019F80001D101238FE07B6841229B5CDBB2002B85
:101A080007D17B684022002199547B681800FFF7B2
:101A18001BF87B684122242199547B681B681A684B
:101A28007B681B6801218A431A607B685A687B6857
:101A38001B683B490A401A617B681B689A687B6887
:101A48001B6838490A409A607B68DB68012B08D11B
:101A58007B689A687B681B68802109020A439A6040
:101A680007E07B689A687B681B68842109020A433F
:101A78009A607B68DB68022B09D17B681B685A680F
:101A88007B681B68802109010A435A6007E07B686C
:101A98001B685A687B681B6823490A405A607B6840
:101AA8001B685A687B681B6820490A435A607B6830
:101AB8001B68DA687B681B681A490A40DA607B6829
:101AC8001A697B685B691A4311007B689B691A0273
:101AD8007B681B680A43DA607B68D9697B681A6A85
:101AE8007B681B680A431A607B681B681A687B68F6
:101AF8001B6801210A431A607B6800225A647B68CC
:101B08004122202199547B6800221A637B68422273
:101B18000021995400231800BD4602B080BDC0467C
:101B2800FFFFFFF0FF7FFFFFFFF7FFFF00800002CE
:101B380090B587B002AFF8600C00100019000A23B6
:101B4800FB18221C1A800823FB18021C1A80BB1DD4
:101B58000A1C1A80FB6841229B5CDBB2202B00D058
:101B68007DE03B6A002B04D02423FB181B88002B44
:101B780005D1FB68802292005A64012370E0FB685B
:101B88001B689A6980231B021A4080231B029A4211
:101B980001D1022364E0FB6840229B5C012B01D148
:101BA80002235DE0FB68402201219954FB68412231
:101BB80021219954FB68422240219954FB68002254
:101BC8005A64FB6800221A85FB683A6A5A62FB6805
:101BD8002422BA1812885A85FB68234ADA62FB68FD
:101BE800224A5A630A23FB181A88FB68DA64BB1D69
:101BF8001B88012B0BD10823FB181B88DAB2FB6862
:101C08001B689A62FB68012252421A650EE008219D
:101C18007B181B881B0A9BB2DAB2FB681B689A62A6
:101C28007B181B88DBB21A00FB681A65BB1D1B8872
:101C3800DAB280235C040A23FB181988F8680C4B75
:101C48000093230001F006FCFB6840220021995410
:101C5800FB680121180001F037FC002300E0022393
:101C68001800BD4605B090BD0000FFFF311F0008F9
:101C78000020008090B587B002AFF8600C0010001B
:101C880019000A23FB18221C1A800823FB18021CBF
:101C98001A80BB1D0A1C1A80FB6841229B5CDBB2C0
:101CA800202B00D078E03B6A002B04D02423FB18BB
:101CB8001B88002B05D1FB68802292005A640123FF
:101CC8006BE0FB681B689A6980231B021A4080231B
:101CD8001B029A4201D102235FE0FB6840229B5C11
:101CE800012B01D1022358E0FB68402201219954BD
:101CF800FB68412222219954FB68422240219954D1
:101D0800FB6800225A64FB683A6A5A62FB6824221C
:101D1800BA1812885A85FB68224ADA62FB68224A96
:101D28005A630A23FB181A88FB68DA64BB1D1B88F0
:101D3800012B0BD10823FB181B88DAB2FB681B6840
:101D48009A62FB68012252421A650EE008217B184C
:101D58001B881B0A9BB2DAB2FB681B689A627B1865
:101D68001B88DBB21A00FB681A65BB1D1B88DAB238
:101D78000A23FB181988F8680C4B0093002301F01C
:101D880069FBFB68402200219954FB680121180077
:101D980001F09AFB002300E002231800BD4605B0BD
:101DA80090BDC0460000FFFF311F000800200080E2
:101DB80080B584B000AF78607B681B689B69FB6066
:101DC8007B681B681B68BB607B685B6B002B05D05E
:101DD8007B685B6BBA68F96878689847C046BD4607
:101DE80004B080BD80B586B000AF78607B681B68A2
:101DF8009B697B617B681B681B683B617A698023F0
:101E08005B0013400ED03B69802213400AD07B68E8
:101E18005B6C01221A437B685A647B681B688022CA
:101E28005200DA617A698023DB0013400ED03B69E7
:101E3800802213400AD07B685B6C08221A437B68B7
:101E48005A647B681B688022D200DA617A69802331
:101E58009B0013400ED03B69802213400AD07B6858
:101E68005B6C02221A437B685A647B681B68802279
:101E78009200DA617B685B6CFB60FB680B221340A5
:101E880005D0FA687B681100180001F077F9C046A0
:101E9800BD4606B080BD80B582B000AF7860C04650
:101EA800BD4602B080BD80B582B000AF7860C04644
:101EB800BD4602B080BD80B582B000AF7860C04634
:101EC800BD4602B080BD80B582B000AF7860C04624
:101ED800BD4602B080BD80B582B000AF7860080012
:101EE8001100FB1C021C1A703B000A1C1A80C04619
:101EF800BD4602B080BD80B582B000AF7860C046F4
:101F0800BD4602B080BD80B582B000AF7860C046E3
:101F1800BD4602B080BD80B582B000AF7860C046D3
:101F2800BD4602B080BD000090B589B002AFF86030
:101F3800B9607A608B4B7B61BB683B61FB68402270
:101F48009B5C012B01D1022307E1FB6840220121A0
:101F580099543B691022134012D07B681022134019
:101F68000ED0FB681B681022DA61FB685B6C0422E8
:101F78001A43FB685A64FB68180001F02AFAD9E092
:101F88003B690422134021D07B68042213401DD0F2
:101F98003B69042293433B61FB681B685A6AFB68F0
:101FA8005B6AD2B21A70FB685B6A5A1CFB685A6299
:101FB800FB681B8D013B9AB2FB681A85FB685B8D39
:101FC8009BB2013B9AB2FB685A85B3E03B69022297
:101FD80013402AD07B680222134026D0FB681B6D71
:101FE800013318D1FB685B6A1A78FB681B689A6230
:101FF800FB685B6A5A1CFB685A62FB681B8D013BD5
:102008009AB2FB681A85FB685B8D9BB2013B9AB25A
:10201800FB685A858EE0FB681B68FA68126D9A6245
:10202800FB68012252421A6584E03B698022134012
:102038003CD07B684022134038D0FB685B8D9BB254
:10204800002B2CD0FB681B8D002B28D1FB685B8DE7
:102058009BB2FF2B10D9FB68FF221A85FB68DB6C4B
:1020680099B2FB681B8DDAB280235B04F868002400
:10207800009401F0EFF918E0FB685B8D9AB2FB68F9
:102088001A85FB68DB6C99B2FB681B8DDAB280237A
:102098009B04F8680024009401F0DCF905E0FB6873
:1020A8004021180001F06AF844E043E03B6940220F
:1020B80013403FD07B68402213403BD0FB6801218E
:1020C800180001F08BFAFB680221180001F0FCF9F6
:1020D800FB6841229B5CDBB2222B01D1224B7B6146
:1020E800FB685B8D9BB2FF2B11D9FB68FF221A8519
:1020F800FB68DB6C99B2FB681B8DDAB280235C0449
:10210800F8687B690093230001F0A4F912E0FB68EA
:102118005B8D9AB2FB681A85FB68DB6C99B2FB6829
:102128001B8DDAB280239C04F8687B690093230036
:1021380001F090F93B692022134009D07B682022E6
:10214800134005D03A69FB681100180000F068FDDB
:10215800FB6840220021995400231800BD4607B0AF
:1021680090BDC046002000800024008080B586B065
:1021780000AFF860B9607A60FB68DB6A7B61BB68B6
:102188003B61FB6840229B5C012B01D10223E7E005
:10219800FB684022012199543B69202213400AD050
:1021A8007B682022134006D03A69FB6811001800AA
:1021B80000F004FECFE03B691022134052D07B6848
:1021C800102213404ED0FB685B8D9BB2002B2DD1A3
:1021D800FB6841229B5CDBB2282B0BD17A698023F8
:1021E8009B049A4206D13A69FB681100180000F076
:1021F8006DFF36E0FB6841229B5CDBB2292B10D1D6
:102208007B69594A93420CD0FB681B681022DA613B
:10221800FB68180001F0DDF8FB68180000F09CFC72
:102228001FE0FB681B681022DA6191E0FB681B68FD
:102238001022DA61FB685B6C04221A43FB685A645B
:102248007B69002B05D07A6980235B049A4200D011
:102258007EE0FB685A6CFB681100180000F08EFFE6
:1022680076E075E03B69042213402FD07B68042296
:1022780013402BD0FB685B8D9BB2002B18D0FB68FA
:102288001B685A6AFB685B6AD2B21A70FB685B6AA1
:102298005A1CFB685A62FB681B8D013B9AB2FB68AB
:1022A8001A85FB685B8D9BB2013B9AB2FB685A8525
:1022B800FB685B8D9BB2002B4CD17B692A4A934209
:1022C80048D0FB68180000F047FC43E03B6908224F
:1022D80013400AD07B680822134006D03A69FB688D
:1022E8001100180000F052FB35E03B690222134050
:1022F80031D07B68022213402DD0FB685B8D9BB2E6
:10230800002B18D0FB685B6A1A78FB681B689A6216
:10231800FB685B6A5A1CFB685A62FB685B8D9BB260
:10232800013B9AB2FB685A85FB681B8D013B9AB248
:10233800FB681A850FE07A6980235B049A4202D011
:102348007B69002B07D1FB68180000F005FC02E050
:10235800C04600E0C046FB68402200219954002393
:102368001800BD4606B080BD0000FFFF90B589B0DB
:1023780002AFF860B9607A60FB6840229B5C012B71
:1023880001D10223E7E0FB68402201219954BB6890
:102398001022134017D07B681022134013D0FB681B
:1023A8001B681022DA61FB685B6C04221A43FB6825
:1023B8005A64FB682021180001F086F8FB681800B1
:1023C80001F007F8C2E0BB688022134000D17CE02E
:1023D8007B684022134000D177E0FB681B681A68CD
:1023E800FB681B6840218A431A60FB685B8D9BB2BF
:1023F800002B55D0FB681B685B689AB21223FB1848
:102408009205920D1A80FB685B8D9BB2FF2B06D953
:10241800FB68FF221A8580235B047B6110E0FB6860
:102428005B8D9AB2FB681A85FB68DB6A4C4A93425B
:1024380003D0FB68DB6A7B6102E080239B047B613D
:10244800FB681B8DDAB27C691223FB181988F868BF
:1024580000230093230000F0FDFFFB685B8D9AB218
:10246800FB681B8DD31A9AB2FB685A85FB68412218
:102478009B5CDBB2222B09D1FB681B681A68FB68DE
:102488001B68802109020A431A605FE0FB681B6829
:102498001A68FB681B688021C9010A431A6055E065
:1024A800FB681B685A6880239B041A4080239B049E
:1024B8009A4204D0FB68180000F00CFB46E0FB6869
:1024C8004021180000F05AFE40E0BB68402213404B
:1024D8002CD07B684022134028D0FB685B8D9BB2D0
:1024E800002B1DD1FB681B685A6880239B041A4087
:1024F80080239B049A4228D0FB68DB6A184A9342DF
:1025080009D1FB681B685A68FB681B688021C901F0
:102518000A435A6019E0FB68180000F0DBFA14E07F
:10252800FB684021180000F029FE0EE0BB6820225D
:1025380013400BD07B682022134007D0BA68FB6891
:102548001100180000F06CFB00E0C046FB68402258
:102558000021995400231800BD4607B090BDC0461D
:102568000000FFFF90B589B002AFF860B9607A60EB
:10257800904B7B61FB6840229B5C012B01D10223BD
:1025880013E1FB68402201219954BB6810221340D3
:1025980017D07B681022134013D0FB681B681022E9
:1025A800DA61FB685B6C04221A43FB685A64FB68B7
:1025B8002021180000F088FFFB68180000F009FFD0
:1025C800EEE0BB68022213400DD07B680222134064
:1025D80009D0FB681B68FA68126D9A62FB680122D1
:1025E80052421A65DCE0BB688022134063D07B68E6
:1025F800402213405FD0FB680121180000F0EEFF75
:10260800FB681021180000F05FFFFB685B8D9BB230
:10261800002B4AD0FB685B8D9BB2FF2B10D9FB685F
:10262800FF221A85FB68DB6C99B2FB681B8DDAB256
:1026380080235B04F8680024009400F00BFF11E08D
:10264800FB685B8D9AB2FB681A85FB68DB6C99B2F4
:10265800FB681B8DDAB280239B04F8680024009481
:1026680000F0F8FEFB685B8D9AB2FB681B8DD31AED
:102678009AB2FB685A85FB6841229B5CDBB2222B2D
:1026880009D1FB681B681A68FB681B68802109026E
:102698000A431A6084E0FB681B681A68FB681B68B9
:1026A8008021C9010A431A607AE0FB6840211800BA
:1026B80000F064FD74E0BB684022134062D07B6880
:1026C800402213405ED0FB680121180000F086FF0D
:1026D800FB681021180000F0F7FEFB6841229B5CA4
:1026E800DBB2222B01D1344B7B61FB685B8D9BB243
:1026F800FF2B11D9FB68FF221A85FB68DB6C99B2A6
:10270800FB681B8DDAB280235C04F8687B69009350
:10271800230000F09FFE12E0FB685B8D9AB2FB6815
:102728001A85FB68DB6C99B2FB681B8DDAB28023D3
:102738009C04F8687B690093230000F08BFEFB681B
:102748005B8D9AB2FB681B8DD31A9AB2FB685A85C7
:10275800FB6841229B5CDBB2222B09D1FB681B681A
:102768001A68FB681B68802109020A431A6017E08F
:10277800FB681B681A68FB681B688021C9010A434B
:102788001A600DE0BB682022134009D07B68202224
:10279800134005D0BA68FB681100180000F040FA31
:1027A800FB6840220021995400231800BD4607B059
:1027B80090BDC046002000800024008080B588B00D
:1027C80000AFF860B9607A60FB68DB6ABB61002320
:1027D800FB61FB6840229B5C012B01D10223CEE008
:1027E800FB68402201219954BB68202213400AD07B
:1027F8007B682022134006D0BA68FB6811001800D5
:1028080000F0DCFAB6E0BB681022134000D1A3E068
:102818007B681022134000D19EE07A688023DB0198
:10282800134005D17A6880231B02134000D18CE045
:10283800FB68DB6B002B0CD07A6880231B021340EB
:1028480007D0FB68DB6B1B685B68002B01D1012399
:10285800FB61FB689B6B002B0CD07A688023DB0143
:10286800134007D0FB689B6B1B685B68002B01D18A
:102878000123FB61FB69012B2DD1FB6841229B5C85
:10288800DBB2282B0BD1BA6980239B049A4206D16C
:10289800BA68FB681100180000F018FC54E0FB68E7
:1028A80041229B5CDBB2292B10D1BB69364A93428B
:1028B8000CD0FB681B681022DA61FB68180000F076
:1028C80088FDFB68180000F047F93DE0FB681B68CD
:1028D8001022DA613EE0FB681B681022DA61FB68AF
:1028E8005B6C04221A43FB685A641723FB18FA68C6
:1028F8004121525C1A70BB69002B04D0BA6980234D
:102908005B049A4226D11722BB181B78212B03D0CF
:10291800BB181B78292B03D1FB6821221A630BE013
:102928001722BB181B78222B03D0BB181B782A2B25
:1029380002D1FB6822221A63FB685A6CFB681100FB
:10294800180000F01BFC05E004E0FB681B6810227F
:10295800DA610FE0C0460DE0BB680822134009D0D9
:102968007B680822134005D0BA68FB68110018007C
:1029780000F00CF8FB68402200219954002318004D
:10298800BD4608B080BDC0460000FFFFB0B584B0AA
:1029980000AF786039607B6841229B5CDBB21A002B
:1029A80028231340282B00D088E07B681B689B698C
:1029B8001B0CDAB20F257B1901210A401A707B68BB
:1029C8001B689B691B0C9AB20C203B18FE210A401D
:1029D8001A807B681B689B689AB20A243B19920587
:1029E800920D1A807B681B68DB689AB20823FB1873
:1029F800FE210A401A807B68DB68022B48D121003F
:102A08007B181B88DB099AB23B181B8853409BB282
:102A18001A000623134020D13B187A1812881A800E
:102A28007B689B6C5A1C7B689A647B689B6C022B46
:102A38004CD17B6800229A647B681B680822DA61A3
:102A48007B684022002199543B181A887B19197811
:102A58007B681800FFF73FFA38E00C243B1908227E
:102A6800BA1812881A8080231A027B68110018008D
:102A780000F0B4FD7B684022002199543B191A8864
:102A88000F23FB1819787B681800FFF724FA1DE05C
:102A980080231A027B681100180000F09FFD7B68F4
:102AA8004022002199540C23FB181A880F23FB1885
:102AB80019787B681800FFF70EFA07E07B681B6837
:102AC8000822DA617B68402200219954C046BD463D
:102AD80004B0B0BD80B582B000AF78607B68422298
:102AE800002199547B6841229B5CDBB2212B17D1D2
:102AF8007B684122202199547B6811221A637B68E4
:102B080000225A637B680121180000F067FD7B688A
:102B18004022002199547B681800FFF7BCF916E0A1
:102B28007B684122202199547B6812221A637B68B2
:102B380000225A637B680221180000F04FFD7B6871
:102B48004022002199547B681800FFF7ACF9C04671
:102B5800BD4602B080BD000080B584B000AF78608B
:102B68007B681B681B68FB607B68422200219954C4
:102B7800FA688023DB01134008D07B681B681A6859
:102B88007B681B6824490A401A600CE0FA688023B5
:102B98001B02134007D07B681B681A687B681B6898
:102BA8001E490A401A607B6841229B5CDBB2292BD4
:102BB80014D17B684122282199547B6821221A6309
:102BC8007B680121180000F009FD7B684022002184
:102BD80099547B681800FFF76EF919E07B68412269
:102BE8009B5CDBB22A2B13D17B68412228219954A4
:102BF8007B6822221A637B680221180000F0EEFC31
:102C08007B684022002199547B681800FFF75BF924
:102C1800C046BD4604B080BDFFBFFFFFFF7FFFFF7A
:102C280080B586B000AF786039603B687B617B68AF
:102C38001B682022DA617B6841229B5CDBB2212B76
:102C480008D17B680121180000F0C8FC7B681122BC
:102C58001A630DE07B6841229B5CDBB2222B07D113
:102C68007B680221180000F0B9FC7B6812221A6305
:102C78007B681B685A687B681B684E490A405A6023
:102C88007B6800225A637B684B4ADA627B691022B0
:102C9800134009D07B681B681022DA617B685B6C83
:102CA80004221A437B685A647B6841229B5CDBB22E
:102CB800602B09D17B690422134005D07B681B680F
:102CC8005B6ADBB2FB60FB687B68180000F081FB85
:102CD8007B685B6C3B617B6841229B5CDBB2602B51
:102CE80002D03B69002B07D07B685A6C7B681100C7
:102CF800180000F043FA58E07B6841229B5CDBB285
:102D0800212B26D17B684122202199547B680022FF
:102D18001A637B6842229B5CDBB2402B0CD17B6838
:102D28004222002199547B684022002199547B68F3
:102D38001800FDF7CBFB38E07B684222002199544C
:102D48007B684022002199547B681800FFF7A3F89C
:102D58002BE07B6841229B5CDBB2222B25D17B6870
:102D68004122202199547B6800221A637B68422201
:102D78009B5CDBB2402B0CD17B684222002199542A
:102D88007B684022002199547B681800FDF7CCFB32
:102D98000BE07B684222002199547B684022002185
:102DA80099547B681800FFF77EF8C046BD4606B008
:102DB80080BDC04600E800FE0000FFFF80B586B079
:102DC80000AF786039607B681B681B683B613B68B3
:102DD8007B617B68DB6AFB600B203B187A684121CA
:102DE800525C1A707B681B682022DA613B181B78DA
:102DF800212B03D03B181B78292B09D1AC4A7B68BF
:102E08001100180000F0EAFB7B6821221A6320E019
:102E18000B22BB181B78222B03D0BB181B782A2B3C
:102E280009D1A44A7B681100180000F0D7FB7B6821
:102E380022221A630DE00B23FB181B78282B08D1DC
:102E48009D4A7B681100180000F0C8FB7B680022CF
:102E58001A637B681B685A687B681B6880210902B3
:102E68000A435A607B681B685A687B681B689349E9
:102E78000A405A607B68180000F0ABFA3A69802370
:102E8800DB01134013D07B681B681A687B681B68DA
:102E98008B490A401A607B689B6B002B1FD07B68AC
:102EA8009B6B1B685B689AB27B685A8517E03A6926
:102EB80080231B02134012D07B681B681A687B684A
:102EC8001B6880490A401A607B68DB6B002B06D0C0
:102ED8007B68DB6B1B685B689AB27B685A857B6989
:102EE8000422134020D07B69042293437B617B68D2
:102EF8001B685A6A7B685B6AD2B21A707B685B6A25
:102F08005A1C7B685A627B681B8D002B0CD07B682F
:102F18001B8D013B9AB27B681A857B685B8D9BB2DF
:102F2800013B9AB27B685A857B685B8D9BB2002B0C
:102F380005D07B685B6C04221A437B685A647B6902
:102F4800102213404FD03B69102213404BD07B68AE
:102F58005B8D9BB2002B2DD17B6841229B5CDBB241
:102F6800282B0BD1FA6880239B049A4206D17A69F0
:102F78007B681100180000F0A9F834E07B68412252
:102F88009B5CDBB2292B10D1FB684F4A93420CD0D3
:102F98007B681B681022DA617B68180000F019FA58
:102FA8007B681800FFF7D8FD1DE07B681B681022BE
:102FB800DA6118E07B681B681022DA617B685B6C59
:102FC80004221A437B685A64FB68002B04D0FA6811
:102FD80080235B049A4206D17B685A6C7B68110097
:102FE800180000F0CBF87B684222002199547B68D6
:102FF80000225A637B685B6C002B13D07B685A6C89
:103008007B681100180000F0B9F87B6841229B5CCE
:10301800DBB2282B47D17A697B681100180000F0D1
:1030280055F840E07B68DB6A274A934216D07B68F4
:103038001800FFF791FD7B68234ADA627B6841221A
:10304800202199547B6800221A637B684022002162
:1030580099547B681800FEF74EFF24E07B684122F4
:103068009B5CDBB2222B0FD17B6841222021995433
:103078007B6800221A637B684022002199547B6890
:103088001800FEF720FF0EE07B68412220219954AA
:103098007B6800221A637B684022002199547B6870
:1030A8001800FEF708FFC046BD4606B080BDC04602
:1030B80001800000028000000380000000E800FE9C
:1030C800FFBFFFFFFF7FFFFF0000FFFF80B582B05B
:1030D80000AF786039607B68264ADA627B68002234
:1030E8001A637B684122202199547B68422200217F
:1030F80099547B6800225A633B680422134022D00B
:103108007B681B685A6A7B685B6AD2B21A707B68F4
:103118005B6A5A1C7B685A627B681B8D002B12D035
:103128007B681B8D013B9AB27B681A857B685B8D37
:103138009BB2013B9AB27B685A857B685B6C042220
:103148001A437B685A640C4A7B681100180000F027
:1031580045FA7B681B681022DA617B6840220021EF
:1031680099547B681800FEF7C6FEC046BD4602B0FB
:1031780080BDC0460000FFFF0380000080B584B01A
:1031880000AF786039600F203B187A684121525CA3
:103198001A707B684222002199547B68724ADA626D
:1031A8007B6800225A857B685A6C3B681A437B68A7
:1031B8005A643B181B78282B07D03B181B78292BFF
:1031C80003D03B181B782A2B0CD17B6803211800ED
:1031D80000F004FA7B684122282199547B68634AED
:1031E8005A6332E0624A7B681100180000F0F6F971
:1031F8007B68180000F0EDF87B6841229B5CDBB22D
:10320800602B1FD07B684122202199547B681B6862
:103218009B6920221340202B14D17B681B689B6973
:1032280010221340102B09D17B681B681022DA6129
:103238007B685B6C04221A437B685A647B681B6852
:103248002022DA617B6800225A637B681B6BBB60B3
:103258007B689B6B002B3BD0BB68112B02D0BB68F3
:10326800212B35D17B681B681A688023DB011A4043
:103278008023DB019A4207D17B681B681A687B6848
:103288001B683C490A401A607B689B6B1800FEF774
:103298001BFA0300012B16D07B689B6B364A9A6396
:1032A8007B684022002199547B689B6B1800FEF7CD
:1032B800A1F9031E51D07B689B6B9A6B7B689B6B53
:1032C8001800904749E07B68180000F059F844E07E
:1032D8007B68DB6B002B3BD0BB68122B02D0BB6832
:1032E800222B35D17B681B681A6880231B021A4081
:1032F80080231B029A4207D17B681B681A687B6887
:103308001B681E490A401A607B68DB6B1800FEF7D1
:10331800DBF90300012B16D07B68DB6B164A9A6336
:103328007B684022002199547B68DB6B1800FEF70C
:1033380061F9031E13D07B68DB6B9A6B7B68DB6BD0
:10334800180090470BE07B68180000F019F806E0B9
:103358007B68180000F014F802E0C04600E0C046A0
:10336800C046BD4604B080BD0000FFFF75210008BF
:1033780003800000FFBFFFFF1F340008FF7FFFFF2F
:1033880080B582B000AF78607B6841229B5CDBB27D
:10339800602B0FD17B684122202199547B68002241
:1033A8001A637B684022002199547B681800FEF755
:1033B800B2FD0AE07B6800221A637B684022002184
:1033C80099547B681800FEF79EFDC046BD4602B0C2
:1033D80080BD80B582B000AF78607B681B689B6950
:1033E80002221340022B03D17B681B6800229A62D9
:1033F8007B681B689B6901221340012B07D07B68FF
:103408001B689A697B681B6801210A439A61C04658
:10341800BD4602B080BD80B584B000AF78607B68DF
:103428009B6AFB60FB689B6B002B03D0FB689B6B64
:1034380000229A63FB68DB6B002B03D0FB68DB6B15
:1034480000229A63FB681800FFF79AFFC046BD4642
:1034580004B080BD90B587B000AFF86008001100D7
:103468007B600A243B19021C1A8009203B180A1C9D
:103478001A703B191B889B059A0D3B181B78190479
:10348800FF231B040B401A437B681A43BB6A134390
:103498005B005B087B61FB681B685B68BA6A510D5F
:1034A8008022D2000A4007490A43D2431A40110039
:1034B800FB681B687A690A435A60C046BD4607B074
:1034C80090BDC046FF63FF0380B584B000AF78604D
:1034D8000A00BB1C1A800023FB607B685A6B3C4BBC
:1034E8009A4235D07B685A6B3A4B9A4230D07B6807
:1034F8005A6B394B9A422BD0BB1C00229B5E002B87
:1035080003DAFB68B8221343FB60BB1C1B8801224B
:10351800134003D0FB68F2221343FB60BB1C1B88DB
:103528000222134003D0FB68F4221343FB60BB1C48
:103538001B88102B03D1FB6890221343FB60BB1C34
:103548001B88202B37D1FB6820221343FB6032E015
:10355800BB1C00229B5E002B03DAFB68B8221343D6
:10356800FB60BB1C1B880122134003D0FB68F222BE
:103578001343FB60BB1C1B880222134003D0FB686B
:10358800F4221343FB60BB1C1B88102B03D1FB6880
:1035980090221343FB60BB1C1B88202B03D1FB68C4
:1035A80060221343FB60BB1C1B88402B03D1FB68C4
:1035B80040221343FB607B681B6819687B681B68A3
:1035C800FA680A431A60C046BD4604B080BDC046CA
:1035D80075230008C52700086D25000880B584B04C
:1035E80000AF78600A00BB1C1A800023FB60BB1C7C
:1035F8001B880122134010D0FB6842221343FB6052
:103608007B6841229B5CDBB21A0028231340282BDD
:1036180003D0FB68B0221343FB60BB1C1B8802224B
:10362800134010D0FB6844221343FB607B6841229F
:103638009B5CDBB21A0028231340282B03D0FB68BD
:10364800B0221343FB60BB1C00229B5E002B03DAF5
:10365800FB68B8221343FB60BB1C1B88102B03D1EB
:10366800FB6890221343FB60BB1C1B88202B03D1F3
:10367800FB6820221343FB60BB1C1B88402B03D133
:10368800FB6840221343FB607B681B681A68FB6871
:10369800D9437B681B680A401A60C046BD4604B01F
:1036A80080BD000080B582B000AF786039607B686B
:1036B80041229B5CDBB2202B38D17B6840229B5C8B
:1036C800012B01D1022332E07B6840220121995469
:1036D8007B684122242199547B681B681A687B689F
:1036E8001B6801218A431A607B681B681A687B681B
:1036F8001B6811490A401A607B681B6819687B6857
:103708001B683A680A431A607B681B681A687B68FA
:103718001B6801210A431A607B68412220219954C1
:103728007B68402200219954002300E002231800FE
:10373800BD4602B080BDC046FFEFFFFF80B584B034
:1037480000AF786039607B6841229B5CDBB2202B3C
:1037580039D17B6840229B5C012B01D1022333E0E5
:103768007B684022012199547B6841222421995485
:103778007B681B681A687B681B6801218A431A608A
:103788007B681B681B68FB60FB68114A1340FB6081
:103798003B681B02FA681343FB607B681B68FA6886
:1037A8001A607B681B681A687B681B6801210A43DA
:1037B8001A607B684122202199547B6840220021AD
:1037C8009954002300E002231800BD4604B080BDD0
:1037D800FFF0FFFF80B584B000AF7860194B1B681D
:1037E800194A13401900174B7A680A431A607A6815
:1037F80080239B009A421FD1144B1A6813005B0068
:103808009B185B0012491800FCF780FC0300013389
:10381800FB6008E0FB68002B03D0FB68013BFB6002
:1038280001E0032309E0074B5A698023DB001A40B3
:103838008023DB009A42EDD000231800BD4604B077
:1038480080BDC04600700040FFF9FFFF0000002067
:1038580040420F0080B500AF034B9A68E023DB01BC
:1038680013401800BD4680BD0010024080B588B0E6
:1038780000AF78607B68002B01D10123F3E27B68FD
:103888001B680122134000D17CE0C34B9B6838229F
:103898001340BB61C04BDB68032213407B61BB69EB
:1038A800102B02D17B69032B02D0BB69082B0BD1EB
:1038B800B94B1A6880239B02134062D07B685B680F
:1038C800002B5ED10123CEE27B685A6880235B021D
:1038D8009A4207D1B04B1A68AF4B802149020A437C
:1038E8001A6020E07B685A68A023DB029A420ED156
:1038F800A94B1A68A84B8021C9020A431A60A64B33
:103908001A68A54B802149020A431A600BE0A24BB2
:103918001A68A14BA1490A401A609F4B1A689E4B2E
:103928009F490A401A607B685B68002B14D0FDF73A
:10393800F3FC03003B6108E0FDF7EEFC02003B6985
:10394800D31A642B01D903238DE2934B1A68802381
:103958009B021340F0D015E0FDF7DEFC03003B614D
:1039680008E0FDF7D9FC02003B69D31A642B01D9A2
:10397800032378E2884B1A6880239B021340F0D116
:1039880000E0C0467B681B680222134000D199E022
:10399800814B9B6838221340BB617F4BDB68032255
:1039A80013407B61BB69102B02D17B69022B02D0CB
:1039B800BB69002B35D1784B1A688023DB00134094
:1039C80005D07B68DB68002B01D101234BE2724BE9
:1039D8005B68744A134019007B685B691A026E4B76
:1039E8000A435A60BB69002B12D16B4B1B686E4AA5
:1039F800134019007B681A69674B0A431A60664BC3
:103A08001B68DB0A07221340684ADA40684B1A60D1
:103A1800684B1B681800FDF723FC031E51D00123D7
:103A280021E27B68DB68002B30D05B4B1B685E4A69
:103A3800134019007B681A69574B0A431A60564BA2
:103A48001A68554B802149000A431A60FDF764FC47
:103A580003003B6108E0FDF75FFC02003B69D31AF5
:103A6800022B01D90323FEE14B4B1A688023DB00AC
:103A78001340F0D0484B5B684A4A134019007B68F2
:103A88005B691A02444B0A435A601BE0424B1A68AE
:103A9800414B49490A401A60FDF73EFC03003B616F
:103AA80008E0FDF739FC02003B69D31A022B01D963
:103AB8000323D8E1384B1A688023DB001340F0D188
:103AC80000E0C0467B681B680822134047D0324B91
:103AD8009B6838221340182B0AD12F4B1B6E0222E9
:103AE80013403CD07B689B69002B38D10123BAE195
:103AF8007B689B69002B19D0274B1A6E264B012136
:103B08000A431A66FDF708FC03003B6108E0FDF76D
:103B180003FC02003B69D31A022B01D90323A2E15B
:103B28001D4B1B6E02221340F1D018E01A4B1A6E7F
:103B3800194B01218A431A66FDF7EEFB03003B612E
:103B480008E0FDF7E9FB02003B69D31A022B01D913
:103B5800032388E1104B1B6E02221340F1D17B68CE
:103B68001B680422134000D1C6E01F23FB18002263
:103B78001A70094B9B6838221340202B1ED1064B24
:103B8800DB6D0222134000D1B6E07B689B68002BF6
:103B980000D0B1E0012366E100100240FFFFFEFF04
:103BA800FFFFFBFFFF80FFFFFFC7FFFF0024F400BC
:103BB8000000002004000020FFFEFFFFAC4BDA6B82
:103BC80080235B05134001D1012300E00023002B73
:103BD80011D0A74BDA6BA64B802149050A43DA635B
:103BE800A34BDA6B80235B051340FB60FB681F2344
:103BF800FB1801221A709F4B1A6880235B00134040
:103C08001AD19C4B1A689B4B802149000A431A60C1
:103C1800FDF782FB03003B6108E0FDF77DFB020036
:103C28003B69D31A022B01D903231CE1914B1A6873
:103C380080235B001340F0D07B689B68012B06D182
:103C48008B4BDA6D8A4B01210A43DA651CE07B68ED
:103C58009B68052B0CD1864BDA6D854B04210A43F2
:103C6800DA65834BDA6D824B01210A43DA650BE092
:103C78007F4BDA6D7E4B01218A43DA657C4BDA6D26
:103C88007B4B04218A43DA657B689B68002B14D040
:103C9800FDF742FB03003B6109E0FDF73DFB020035
:103CA8003B69D31A744A934201D90323DBE0704B72
:103CB800DB6D02221340F0D013E0FDF72DFB03006B
:103CC8003B6109E0FDF728FB02003B69D31A6A4A09
:103CD800934201D90323C6E0654BDB6D02221340F2
:103CE800F0D11F23FB181B78012B05D1604BDA6B31
:103CF8005F4B62490A40DA637B68DB69002B00D1BD
:103D0800B0E05B4B9B6838221340102B00D178E061
:103D18007B68DB69022B53D1554B1A68544B5849C1
:103D28000A401A60FDF7F8FA03003B6108E0FDF766
:103D3800F3FA02003B69D31A022B01D9032392E05C
:103D48004B4B1A6880239B041340F0D1484BDB6827
:103D58004C4A134019007B681A6A7B685B6A1A43ED
:103D68007B689B6A1B021A437B68DB6A1A437B6881
:103D78001B6B1A433E4B0A43DA603D4B1A683C4BB7
:103D8800802149040A431A60394BDA68384B80218C
:103D980049050A43DA60FDF7BFFA03003B6108E012
:103DA800FDF7BAFA02003B69D31A022B01D90323A3
:103DB80059E02F4B1A6880239B041340F0D051E040
:103DC8002B4B1A682A4B2E490A401A60FDF7A4FAB1
:103DD80003003B6108E0FDF79FFA02003B69D31A34
:103DE800022B01D903233EE0214B1A6880239B0450
:103DF8001340F0D11E4BDA681D4B23490A40DA60A4
:103E080030E07B68DB69012B01D101232BE0184BE3
:103E1800DB687B617B6903221A407B681B6A9A42D4
:103E28001ED17B6970221A407B685B6A9A4217D15F
:103E38007A69FE23DB011A407B689B6A1B029A425F
:103E48000ED17A69F8239B031A407B68DB6A9A4291
:103E580006D17B695B0F5A077B681B6B9A4201D0BE
:103E6800012300E000231800BD4608B080BDC0460D
:103E7800001002400070004088130000FFFFFFEFB1
:103E8800FFFFFFFE8C80C11FFCFFFEEF80B584B0F2
:103E980000AF786039607B68002B01D10123E9E02D
:103EA800764B1B68072213403A689A421ED9734B17
:103EB8001B68072293431900704B3A680A431A603B
:103EC800FDF72AFA0300FB6009E0FDF725FA020076
:103ED800FB68D31A6A4A934201D90323CAE0674BA5
:103EE8001B68072213403A689A42EED17B681B6828
:103EF8000222134015D07B681B680422134006D0A9
:103F0800604B9A685F4BE021C9010A439A605D4B98
:103F18009B685D4A134019007B689A68594B0A43AD
:103F28009A607B681B680122134057D07B685B68E6
:103F3800012B07D1534B1A6880239B0213402BD1C6
:103F4800012397E07B685B68022B07D14D4B1A6809
:103F580080239B0413401FD101238BE07B685B689F
:103F6800002B07D1474B1A688023DB00134013D17D
:103F780001237FE07B685B68032B06D1414B1B6EF6
:103F88000222134008D1012374E03E4BDB6D02226C
:103F9800134001D101236DE03A4B9B6807229343FC
:103FA80019007B685A68374B0A439A60FDF7B4F9E1
:103FB8000300FB6009E0FDF7AFF90200FB68D31AC4
:103FC8002F4A934201D9032354E02E4B9B68382291
:103FD8001A407B685B68DB009A42ECD1274B1B6870
:103FE800072213403A689A421ED2244B1B680722C4
:103FF80093431900214B3A680A431A60FDF78CF97C
:104008000300FB6009E0FDF787F90200FB68D31A9B
:104018001B4A934201D903232CE0184B1B68072243
:1040280013403A689A42EED17B681B680422134019
:1040380009D0144B9B68154A134019007B68DA684D
:10404800104B0A439A6000F029F801000D4B9B6859
:104058001B0A0F221A400E4B9200D3581F221340FE
:104068000A00DA400B4B1A600B4B1B681800FDF76F
:10407800F7F803001800BD4604B080BD00200240D8
:104088008813000000100240FFF0FFFFFF8FFFFFC2
:1040980074700008000000200400002080B586B07D
:1040A80000AF3C4B9B68382213400FD1394B1B683B
:1040B800DB0A0722134001229A4013003B6039684B
:1040C8003548FCF723F803003B615DE0314B9B6802
:1040D80038221340082B02D1304B3B6154E02D4B62
:1040E8009B6838221340102B38D12A4BDB680322F7
:1040F8001340FB60274BDB681B0907221340013381
:10410800BB60FB68032B0DD1B9682448FBF7FEFFA1
:10411800030019001F4BDB681B0A7F2213404B4327
:104128007B610DE0B9681C48FBF7F0FF030019003C
:10413800184BDB681B0A7F2213404B437B61C04648
:10414800144BDB685B0F0722134001337B607968EF
:104158007869FBF7DBFF03003B6115E00D4B9B68BB
:1041680038221340202B03D180231B023B610BE034
:10417800084B9B6838221340182B03D1FA23DB0124
:104188003B6101E000233B613B691800BD4606B076
:1041980080BDC046001002400024F40000127A00DE
:1041A80080B500AF024B1B681800BD4680BDC046F5
:1041B80000000020B0B500AFFFF7F2FF0400FFF7E2
:1041C80049FB03001A0B054B9200D3581F221340DA
:1041D800DC4023001800BD46B0BDC046B4700008DE
:1041E80080B586B000AF78601323FB1800221A70E0
:1041F8001223FB1800221A707B681A6880239B021E
:10420800134000D1A3E011203B1800221A707F4B05
:10421800DA6B80235B05134010D17C4BDA6B7B4B48
:10422800802149050A43DA63784BDA6B80235B0502
:104238001340BB60BB683B1801221A70744B1A68A4
:10424800734B802149000A431A60FDF765F80300A3
:10425800FB600BE0FDF760F80200FB68D31A022B45
:1042680004D91323FB1803221A7005E0684B1A6857
:1042780080235B001340EDD01323FB181B78002B21
:1042880054D1624BDA6DC0239B0013407B617B697C
:10429800002B19D07B685B697A699A4214D05B4B12
:1042A800DB6D5C4A13407B61584BDA6D574B8021BC
:1042B80049020A43DA65554BDA6D544B56490A40B0
:1042C800DA65524B7A69DA657B690122134016D0A8
:1042D800FDF722F80300FB600CE0FDF71DF8020073
:1042E800FB68D31A4D4A934204D91323FB180322BF
:1042F8001A7004E0454BDB6D02221340EDD0132306
:10430800FB181B78002B0AD1404BDB6D414A134048
:1043180019007B685A693D4B0A43DA650CE01223A1
:10432800FB181322BA1812781A7005E01223FB182A
:104338001322BA1812781A701123FB181B78012B54
:1043480005D1324BDA6B314B35490A40DA637B6869
:104358001B680122134009D02C4B5B6D0322934349
:1043680019007B685A68294B0A435A657B681B68A1
:104378002022134009D0254B5B6D2A4A13401900AF
:104388007B689A68214B0A435A657B681A688023C0
:10439800DB01134015D01D4B5B6D9B0099087B68B2
:1043A8001A691A4B0A435A657B681A698023DB0528
:1043B8009A4206D1154BDA68144B802149020A4308
:1043C800DA607B681A6880231B01134016D00F4BF4
:1043D8005B6D154A134019007B68DA680B4B0A437A
:1043E8005A657B68DA688023DB019A4206D1074B5D
:1043F800DA68064B802149020A43DA601223FB1867
:104408001B781800BD4606B080BDC04600100240AB
:1044180000700040FFFCFFFFFFFFFEFF8813000055
:10442800FFFFFFEFFFCFFFFFFF3FFFFF80B582B029
:1044380000AF78607B68002B01D101234AE07B68DC
:104448003D229B5CDBB2002B07D17B683C2200211C
:1044580099547B681800FCF7ADFD7B683D2202216A
:1044680099547B681A687B6804331900100000F0BF
:10447800B9FC7B684822012199547B683E220121BE
:1044880099547B683F22012199547B68402201217D
:1044980099547B684122012199547B684222012169
:1044A80099547B684322012199547B684422012155
:1044B80099547B684522012199547B684622012141
:1044C80099547B684722012199547B683D22012138
:1044D800995400231800BD4602B080BD80B582B053
:1044E80000AF78607B68002B01D101234AE07B682C
:1044F8003D229B5CDBB2002B07D17B683C2200216C
:1045080099547B68180000F041F87B683D2202212D
:1045180099547B681A687B6804331900100000F00E
:1045280061FC7B684822012199547B683E22012165
:1045380099547B683F22012199547B6840220121CC
:1045480099547B684122012199547B6842220121B8
:1045580099547B684322012199547B6844220121A4
:1045680099547B684522012199547B684622012190
:1045780099547B684722012199547B683D22012187
:10458800995400231800BD4602B080BD80B582B0A2
:1045980000AF7860C046BD4602B080BD80B584B02B
:1045A80000AF786039600F23FB1800221A703B684F
:1045B800002B08D17B683E229B5CDBB2013B5A1E74
:1045C8009341DBB237E03B68042B08D17B683F227C
:1045D8009B5CDBB2013B5A1E9341DBB22BE03B688C
:1045E800082B08D17B6840229B5CDBB2013B5A1E3A
:1045F8009341DBB21FE03B680C2B08D17B6841225A
:104608009B5CDBB2013B5A1E9341DBB213E03B6873
:10461800102B08D17B6842229B5CDBB2013B5A1EFF
:104628009341DBB207E07B6843229B5CDBB2013B32
:104638005A1E9341DBB2002B01D00123BEE03B6838
:10464800002B04D17B683E220221995423E03B6869
:10465800042B04D17B683F22022199541BE03B685C
:10466800082B04D17B6840220221995413E03B684F
:104678000C2B04D17B684122022199540BE03B6842
:10468800102B04D17B6842220221995403E07B68F5
:104698004322022199543B680C2B2AD03B680C2BEF
:1046A80030D83B68082B1BD03B68082B2AD83B68BE
:1046B800002B03D03B68042B09D023E07B681B68E0
:1046C800DA687B681B6802210A43DA601FE07B68AE
:1046D8001B68DA687B681B6804210A43DA6016E005
:1046E8007B681B68DA687B681B6808210A43DA6004
:1046F8000DE07B681B68DA687B681B6810210A4339
:10470800DA6004E00F23FB1801221A70C0460F2359
:10471800FB181B78002B4ED17B681B683968012277
:10472800180000F011FF7B681B68264A934209D0E5
:104738007B681B68244A934204D07B681B68234A21
:10474800934201D1012300E00023002B08D07B68AD
:104758001B685A6C7B681B68802109020A435A64EB
:104768007B681B68174A934204D07B681B68184A09
:10477800934216D17B681B689B68164A1340BB603E
:10478800BB68062B16D0BA6880235B029A4211D008
:104798007B681B681A687B681B6801210A431A60DA
:1047A80008E07B681B681A687B681B6801210A435C
:1047B8001A6000E0C0460F23FB181B781800BD469E
:1047C80004B080BD002C0140004401400048014075
:1047D800000400400700010080B584B000AF786095
:1047E8007B681B68DB68FB607B681B681B69BB60B8
:1047F800BB680222134021D0FB68022213401DD05F
:104808007B681B68032252421A617B6801221A776F
:104818007B681B689B690322134004D07B681800DF
:1048280000F0C8FA07E07B68180000F0BBFA7B6864
:10483800180000F0C7FA7B6800221A77BB680422C8
:10484800134022D0FB68042213401ED07B681B68EB
:10485800052252421A617B6802221A777B681B681C
:104868009A69C0239B00134004D07B68180000F0AD
:10487800A1FA07E07B68180000F094FA7B6818003A
:1048880000F0A0FA7B6800221A77BB680822134060
:1048980021D0FB68082213401DD07B681B680922C1
:1048A80052421A617B6804221A777B681B68DB69AD
:1048B8000322134004D07B68180000F07BFA07E05D
:1048C8007B68180000F06EFA7B68180000F07AFA2E
:1048D8007B6800221A77BB681022134022D0FB683D
:1048E800102213401ED07B681B68112252421A61A5
:1048F8007B6808221A777B681B68DA69C0239B00EB
:10490800134004D07B68180000F054FA07E07B6875
:10491800180000F047FA7B68180000F053FA7B682B
:1049280000221A77BB68012213400CD0FB680122D1
:10493800134008D07B681B68022252421A617B68C8
:10494800180000F027FABB688022134004D1BA6827
:1049580080239B0113400BD0FB688022134007D0B3
:104968007B681B681E4A1A617B68180000F07AFE93
:10497800BA6880235B0013400BD0FB688022134089
:1049880007D07B681B68174A1A617B68180000F01B
:1049980071FEBB68402213400CD0FB6840221340D4
:1049A80008D07B681B68412252421A617B68180054
:1049B80000F010FABB68202213400CD0FB682022BC
:1049C800134008D07B681B68212252421A617B6819
:1049D800180000F03FFEC046BD4604B080BDC0468A
:1049E8007FDFFFFFFFFEFFFF80B586B000AFF860F6
:1049F800B9607A601723FB1800221A70FB683C2202
:104A08009B5C012B01D10223E5E0FB683C220121DC
:104A180099547B68142B00D9D1E07B689A00704BBD
:104A2800D3181B689F46FB681B68BA6811001800FA
:104A380000F052FAFB681B689A69FB681B6808213A
:104A48000A439A61FB681B689A69FB681B68042122
:104A58008A439A61FB681B689969BB681A69FB6895
:104A68001B680A439A61AFE0FB681B68BA681100CB
:104A7800180000F0B1FAFB681B689A69FB681B68AC
:104A8800802109010A439A61FB681B689A69FB68DF
:104A98001B6854490A409A61FB681B689969BB689E
:104AA8001B691A02FB681B680A439A618CE0FB6861
:104AB8001B68BA681100180000F00CFBFB681B6843
:104AC800DA69FB681B6808210A43DA61FB681B681E
:104AD800DA69FB681B6804218A43DA61FB681B6892
:104AE800D969BB681A69FB681B680A43DA616BE01D
:104AF800FB681B68BA681100180000F06DFBFB68C2
:104B08001B68DA69FB681B68802109010A43DA61BE
:104B1800FB681B68DA69FB681B6832490A40DA617E
:104B2800FB681B68D969BB681B691A02FB681B68AC
:104B38000A43DA6148E0FB681B68BA68110018008C
:104B480000F0AEFBFB681B685A6DFB681B68082108
:104B58000A435A65FB681B685A6DFB681B68042189
:104B68008A435A65FB681B68596DBB681A69FB68FC
:104B78001B680A435A6527E0FB681B68BA6811007E
:104B8800180000F0E7FBFB681B685A6DFB681B68A0
:104B9800802109010A435A65FB681B685A6DFB6846
:104BA8001B6810490A405A65FB681B68596DBB6849
:104BB8001B691A02FB681B680A435A6504E017233D
:104BC800FB1801221A70C046FB683C220021995448
:104BD8001723FB181B781800BD4606B080BDC046D9
:104BE800D4700008FFFBFFFF80B584B000AF786089
:104BF80039600F23FB1800221A707B683C229B5CEB
:104C0800012B01D10223BCE07B683C22012199548D
:104C18007B683D22022199547B681B689B68BB60B6
:104C2800BB685A4A1340BB60BB68594A1340BB6013
:104C38007B681B68BA689A603B681B68802292018F
:104C4800934240D080229201934200D988E080228A
:104C58005201934200D188E080225201934200D948
:104C68007EE0702B18D000D97AE0602B4FD000D9A5
:104C780076E0502B3BD000D972E0402B57D000D9BA
:104C88006EE0302B63D06BD8202B60D068D8002B17
:104C98005DD0102B5BD063E07B6818683B6899682F
:104CA8003B685A683B68DB6800F02EFC7B681B6831
:104CB8009B68BB60BB6877221343BB607B681B683B
:104CC800BA689A6052E07B6818683B6899683B68E4
:104CD8005A683B68DB6800F017FC7B681B689A68B9
:104CE8007B681B688021C9010A439A603EE07B68A3
:104CF80018683B6859683B68DB681A0000F088FB55
:104D08007B681B685021180000F0E2FB2EE07B68EE
:104D180018683B6859683B68DB681A0000F0A6FB16
:104D28007B681B686021180000F0D2FB1EE07B68DE
:104D380018683B6859683B68DB681A0000F068FB34
:104D48007B681B684021180000F0C2FB0EE07B68FE
:104D58001A683B681B681900100000F0B9FB05E0F1
:104D68000F23FB1801221A7000E0C0467B683D2221
:104D7800012199547B683C22002199540F23FB1888
:104D88001B781800BD4604B080BDC04688FFCEFF22
:104D9800FF00FFFF80B582B000AF7860C046BD4617
:104DA80002B080BD80B582B000AF7860C046BD4615
:104DB80002B080BD80B582B000AF7860C046BD4605
:104DC80002B080BD80B582B000AF7860C046BD46F5
:104DD80002B080BD80B582B000AF7860C046BD46E5
:104DE80002B080BD80B584B000AF786039607B6860
:104DF8001B68FB607B68324A934203D07B68314A68
:104E0800934208D1FB6870229343FB603B685B6860
:104E1800FA681343FB607B68294A93420FD07B688A
:104E2800284A93420BD07B68274A934207D07B6875
:104E3800264A934203D07B68254A934208D1FB68EF
:104E4800244A1340FB603B68DB68FA681343FB6045
:104E5800FB68802293431A003B685B691343FB603D
:104E68007B68FA681A603B689A687B68DA623B6814
:104E78001A687B689A627B68114A934207D07B68FC
:104E8800124A934203D07B68114A934203D13B688C
:104E98001A697B681A637B6801225A617B681B69FF
:104EA80001221340012B06D17B681B690122934321
:104EB8001A007B681A61C046BD4604B080BDC04672
:104EC800002C014000040040002000400044014044
:104ED80000480140FFFCFFFF80B586B000AF786056
:104EE80039607B681B6A7B617B681B6A012293437C
:104EF8001A007B681A627B685B683B617B689B6908
:104F0800FB60FB682E4A1340FB60FB680322934357
:104F1800FB603B681B68FA681343FB607B690222ED
:104F280093437B613B689B687A6913437B617B6829
:104F3800244A934207D07B68234A934203D07B6874
:104F4800224A93420CD17B69082293437B613B68D8
:104F5800DB687A6913437B617B69042293437B6135
:104F68007B68184A934207D07B68174A934203D05C
:104F78007B68164A934211D13B69154A13403B613D
:104F88003B69144A13403B613B685B693A691343C8
:104F98003B613B689B693A6913433B617B683A69AB
:104FA8005A607B68FA689A613B685A687B685A63FA
:104FB8007B687A691A62C046BD4606B080BDC046A5
:104FC8008FFFFEFF002C01400044014000480140D3
:104FD800FFFEFFFFFFFDFFFF80B586B000AF7860E2
:104FE80039607B681B6A7B617B681B6A102293436C
:104FF8001A007B681A627B685B683B617B689B6907
:10500800FB60FB682C4A1340FB60FB682B4A13408B
:10501800FB603B681B681B02FA681343FB607B69F3
:10502800202293437B613B689B681B017A69134389
:105038007B617B68224A93420DD17B69802293432E
:105048007B613B68DB681B017A6913437B617B6981
:10505800402293437B617B68194A934207D07B685F
:10506800184A934203D07B68174A934213D13B698D
:10507800164A13403B613B69154A13403B613B6844
:105088005B699B003A6913433B613B689B699B00E2
:105098003A6913433B617B683A695A607B68FA68EE
:1050A8009A613B685A687B689A637B687A691A6276
:1050B800C046BD4606B080BDFF8FFFFEFFFCFFFF68
:1050C800002C01400044014000480140FFFBFFFF65
:1050D800FFF7FFFF80B586B000AF786039607B6866
:1050E8001B6A7B617B681B6A314A1A407B681A62BB
:1050F8007B685B683B617B68DB69FB60FB682D4A0A
:105108001340FB60FB6803229343FB603B681B680A
:10511800FA681343FB607B69274A13407B613B684D
:105128009B681B027A6913437B617B68234A93421D
:105138000DD17B69224A13407B613B68DB681B0207
:105148007A6913437B617B691E4A13407B617B68E4
:105158001A4A934207D07B681B4A934203D07B6864
:105168001A4A934213D13B69194A13403B613B6980
:10517800184A13403B613B685B691B013A6913435A
:105188003B613B689B691B013A6913433B617B6840
:105198003A695A607B68FA68DA613B685A687B68E2
:1051A800DA637B687A691A62C046BD4606B080BD7C
:1051B800FFFEFFFF8FFFFEFFFFFDFFFF002C0140FA
:1051C800FFF7FFFFFFFBFFFF0044014000480140DD
:1051D800FFEFFFFFFFDFFFFF80B586B000AF78600D
:1051E80039607B681B6A3B617B681B6A244A1A40EA
:1051F8007B681A627B685B687B617B68DB69FB6044
:10520800FB68204A1340FB60FB681F4A1340FB60A1
:105218003B681B681B02FA681343FB603B691B4A27
:1052280013403B613B689B681B033A6913433B612E
:105238007B68174A934207D07B68164A934203D08B
:105248007B68154A934209D17B69144A13407B61F4
:105258003B685B699B017A6913437B617B687A6968
:105268005A607B68FA68DA613B685A687B681A6436
:105278007B683A691A62C046BD4606B080BDC04622
:10528800FFEFFFFFFF8FFFFEFFFCFFFFFFDFFFFFCA
:10529800002C01400044014000480140FFBFFFFFCF
:1052A80080B586B000AF786039607B681B6A3B6167
:1052B8007B681B6A214A1A407B681A627B685B68B4
:1052C8007B617B685B6DFB60FB681D4A1340FB607C
:1052D8003B681B68FA681343FB603B69194A134033
:1052E8003B613B689B681B043A6913433B617B68DD
:1052F800154A934207D07B68144A934203D07B68CF
:10530800134A934209D17B690C4A13407B613B687D
:105318005B691B027A6913437B617B687A695A600F
:105328007B68FA685A653B685A687B689A657B6847
:105338003A691A62C046BD4606B080BDFFFFFEFF4F
:105348008FFFFEFFFFFFFDFF002C014000440140DE
:105358000048014080B586B000AF786039607B684E
:105368001B6A3B617B681B6A224A1A407B681A6287
:105378007B685B687B617B685B6DFB60FB681E4AD2
:105388001340FB603B681B681B02FA681343FB6011
:105398003B691A4A13403B613B689B681B053A69A5
:1053A80013433B617B68164A934207D07B68154AD2
:1053B800934203D07B68144A934209D17B69134A0C
:1053C80013407B613B685B699B027A6913437B618D
:1053D8007B687A695A607B68FA685A653B685A68DC
:1053E8007B68DA657B683A691A62C046BD4606B0D2
:1053F80080BDC046FFFFEFFFFF8FFFFEFFFFDFFF0F
:10540800002C01400044014000480140FFFFFBFF21
:1054180080B586B000AFF860B9607A60FB681B6A37
:105428007B61FB681B6A012293431A00FB681A62BE
:10543800FB689B693B613B69F02293433B617B6856
:105448001B013A6913433B617B690A2293437B61E1
:105458007A69BB6813437B61FB683A699A61FB68A8
:105468007A691A62C046BD4606B080BD80B586B06E
:1054780000AFF860B9607A60FB681B6A7B61FB6803
:105488001B6A102293431A00FB681A62FB689B6927
:105498003B613B690D4A13403B617B681B033A69DA
:1054A80013433B617B69A02293437B61BB681B016B
:1054B8007A6913437B61FB683A699A61FB687A6988
:1054C8001A62C046BD4606B080BDC046FF0FFFFF4A
:1054D80080B584B000AF786039607B689B68FB60FA
:1054E800FB68084A1340FB603A68FB6813430722CD
:1054F8001343FB607B68FA689A60C046BD4604B0F7
:1055080080BDC0468FFFCFFF80B586B000AFF86082
:10551800B9607A603B60FB689B687B617B69094A7C
:1055280013407B613B681A027B681A43BB681343CC
:105538007A6913437B61FB687A699A60C046BD4605
:1055480006B080BDFF00FFFF80B586B000AFF860F1
:10555800B9607A60BB681F22134001229A40130089
:105568007B61FB681B6A7A69D2431A40FB681A623E
:10557800FB681A6ABB681F210B40796899400B00C9
:105588001A43FB681A62C046BD4606B080BD0000DB
:1055980080B584B000AF786039607B683C229B5C42
:1055A800012B01D102234AE07B683C220121995456
:1055B8007B683D22022199547B681B685B68FB600D
:1055C8007B681B689B68BB607B681B681E4A9342AC
:1055D80008D1FB681D4A1340FB603B685B68FA68AA
:1055E8001343FB60FB6870229343FB603B681B68B6
:1055F800FA681343FB607B681B68FA685A607B682B
:105608001B68114A934204D07B681B68104A934276
:105618000CD1BB6880229343BB603B689B68BA6827
:105628001343BB607B681B68BA689A607B683D223D
:10563800012199547B683C220021995400231800C9
:10564800BD4604B080BDC046002C0140FFFF0FFFDF
:105658000004004080B582B000AF7860C046BD4607
:1056680002B080BD80B582B000AF7860C046BD464C
:1056780002B080BD80B582B000AF7860C046BD463C
:1056880002B080BD80B582B000AF78607B68002B27
:1056980001D1012346E07B6888229B58002B07D163
:1056A8007B688422002199547B681800FBF73CFD35
:1056B8007B688822242199507B681B681A687B685C
:1056C8001B6801218A431A607B689B6A002B03D000
:1056D8007B68180000F07CFD7B68180000F00EFC69
:1056E8000300012B01D101231CE07B681B685A6869
:1056F8007B681B680D490A405A607B681B689A687A
:105708007B681B682A218A439A607B681B681A6831
:105718007B681B6801210A431A607B68180000F047
:105728000BFE03001800BD4602B080BDFFB7FFFFA7
:1057380080B58AB002AFF860B9603B60BB1D1A80C3
:10574800FB6888229B58202B00D090E0BB68002B78
:1057580003D0BB1D1B88002B01D1012388E0FB6807
:105768009A6880235B019A4209D1FB681B69002B68
:1057780005D1BB680122134001D0012378E0FB6802
:10578800902200219950FB68882221219950FBF72B
:10579800C3FD03007B61FB68BA1D542112885A526D
:1057A800FB68BA1D562112885A52FB689A688023F2
:1057B8005B019A4208D1FB681B69002B04D10023C6
:1057C800FB61BB68BB6103E0BB68FB610023BB6195
:1057D80030E07A69F8683B68009313000022802162
:1057E80000F054FE031E05D0FB6888222021995042
:1057F80003233DE0FB69002B0BD1BB691B881A0012
:10580800FB681B68D205D20D9A62BB690233BB6183
:1058180007E0FB691A78FB681B689A62FB69013329
:10582800FB61FB6856229B5A9BB2013B99B2FB680D
:1058380056229952FB6856229B5A9BB2002BC8D11C
:105848007A69F8683B68009313000022402100F051
:105858001DFE031E05D0FB688822202199500323D2
:1058680006E0FB68882220219950002300E00223EB
:105878001800BD4608B080BDB0B5AAB000AF7860CA
:105888007B681B68DB69A422B9180B607B681B68FE
:105898001B68A02039180B607B681B689B689C24D8
:1058A80039190B601100BB181B68A24A13409822D3
:1058B800BD182B60BB181B68002B1AD17B181B68FE
:1058C8002022134015D03B181B682022134005D115
:1058D8003B191A6880235B0513400AD07B685B6F0D
:1058E800002B00D1DCE27B685B6F7A681000984778
:1058F800D6E29823FB181B68002B00D122E19C23D9
:10590800FB181B688C4A134006D1A023FB181B68A0
:105918008A4A134000D115E1A423FB181B68012211
:10592800134012D0A023FB181A6880235B00134091
:105938000BD07B681B6801221A627B6890229B58F7
:1059480001221A437B6890215A50A423FB181B6834
:105958000222134011D09C23FB181B68012213401C
:105968000BD07B681B6802221A627B6890229B58C6
:1059780004221A437B6890215A50A423FB181B6801
:105988000422134011D09C23FB181B6801221340EA
:105998000BD07B681B6804221A627B6890229B5894
:1059A80002221A437B6890215A50A423FB181B68D3
:1059B8000822134017D0A023FB181B68202213408D
:1059C80005D19C23FB181B685B4A13400BD07B68EE
:1059D8001B6808221A627B6890229B5808221A4387
:1059E8007B6890215A50A423FB181A6880231B0156
:1059F800134013D0A023FB181A688023DB0413403C
:105A08000CD07B681B68802212011A627B68902286
:105A18009B5820221A437B6890215A507B68902219
:105A28009B58002B00D13DE2A423FB181B682022C1
:105A3800134015D0A023FB181B682022134006D161
:105A48009C23FB181A6880235B05134008D07B68E9
:105A58005B6F002B04D07B685B6F7A6810009847F7
:105A68007B6890229B5894217A1813607B681B6886
:105A78009B6840221340402B04D07B181B682822C7
:105A880013404CD07B68180000F070FD7B681B68E1
:105A98009B6840221340402B3CD1EFF310833B66B8
:105AA8003B6E90203A18136001237B667B6E83F36C
:105AB8001088C0467B681B689A687B681B68402111
:105AC8008A439A603B181B68BB66BB6E83F31088D9
