:020000040800F2
:100000000020002075630008C5600008C760000874
:1000100000000000000000000000000000000000E0
:10002000000000000000000000000000C96000089F
:100030000000000000000000CB600008CD60000858
:10004000C563000800000000C5630008C563000820
:10005000C5630008C5630008C5630008C5630008E0
:1000600000000000C5630008C5630008C563000800
:10007000C5630008C5630008C563000800000000F0
:10008000096100080000000000000000C5630008CE
:1000900000000000C5630008C5630008196100087E
:1000A000C5630008C5630008C5630008C563000890
:0800B0003961000800000000A6
:1000B80010B5064C2378002B07D1054B002B02D036
:1000C800044800E000BF0123237010BDA8000020F1
:1000D80000000000089E0008044B10B5002B03D058
:1000E8000349044800E000BF10BDC04600000000FE
:1000F800AC000020089E000802B471464908490077
:10010800095C49008E4402BC7047C046002243087F
:100118008B4274D303098B425FD3030A8B4244D3C7
:10012800030B8B4228D3030C8B420DD3FF22090209
:1001380012BA030C8B4202D31212090265D0030BC8
:100148008B4219D300E0090AC30B8B4201D3CB03BE
:10015800C01A5241830B8B4201D38B03C01A524100
:10016800430B8B4201D34B03C01A5241030B8B4202
:1001780001D30B03C01A5241C30A8B4201D3CB02ED
:10018800C01A5241830A8B4201D38B02C01A5241D2
:10019800430A8B4201D34B02C01A5241030A8B42D5
:1001A80001D30B02C01A5241CDD2C3098B4201D3ED
:1001B800CB01C01A524183098B4201D38B01C01A6B
:1001C800524143098B4201D34B01C01A52410309E2
:1001D8008B4201D30B01C01A5241C3088B4201D391
:1001E800CB00C01A524183088B4201D38B00C01A3E
:1001F800524143088B4201D34B00C01A5241411A65
:1002080000D20146524110467047FFE701B5002071
:1002180000F006F802BDC0460029F7D076E770471F
:100228007047C0468446100062468C4619006346F3
:1002380000E0C0461FB501F065FC002801D400218C
:10024800C8421FBD10B501F0A5FB4042013010BDEA
:1002580010B501F057FC002801DB002010BD01207B
:1002680010BDC04610B501F04DFC002801DD00208E
:1002780010BD012010BDC04610B501F0CFFB00280D
:1002880001DC002010BD012010BDC04610B501F0F2
:10029800C5FB002801DA002010BD012010BDC046B2
:1002A8009E2110B5C905041C02F080FC002803D16A
:1002B800201C00F043FC10BD9E21201CC90500F045
:1002C80099FA00F03BFC80231B069C466044F2E749
:1002D80070B500220C4B04000D00FFF7D7FF002873
:1002E80004D12000290002F005FB70BD064B002256
:1002F8002000290001F040FF02F0FCFA80231B06D1
:100308009C466044F1E7C0460000E04170B5060035
:10031800080002F02BFB0022064B01F065FC0D00E3
:100328000400300002F022FB2B00220000F0B4FC95
:1003380070BDC0460000F041F0B54F464646D6466F
:100348004402C0B547000E1C640A3F0EC50F002FBB
:100358003CD0FF2F42D00023802299469A46E400E1
:10036800D20414437F3F73025B0A984673001B0E46
:10037800F60F002B1BD0FF2B13D042468021D20052
:10038800C9041143884600207F3B2900FF1A4B46C9
:100398007140C9B20F2B00D9B5E0744A9B00D358FD
:1003A8009F464346002B3FD1FF3F023303E04346BD
:1003B800002B2DD1012329004A467140C9B21A43A6
:1003C8000E2A38D86A48920082589746002C13D1D2
:1003D80004239946033B00279A46C4E7002C05D11D
:1003E80008239946063BFF279A46BCE70C23994603
:1003F800093BFF279A46B6E7200002F0E1FB762783
:10040800431F9C4000237F4299469A463F1AAAE719
:10041800404602F0D5FB4246431F9A4076235B4292
:100428001B1A90460020B0E703234A461A43914618
:100438000320FC33A9E70D00FF200022C005ED07CB
:1004480010432843E0BCBA46B146A846F0BD0D00AB
:1004580000200022F2E75346022BEDD0032B33D0C5
:10046800A046012B05D100200022E7E7350003282C
:100478007AD03B007F33002B2DDD4246520707D050
:100488000F2241460A40042A02D004229446E0443E
:100498004246120105D54246364B1A403B0090466B
:1004A8008033FE2BC8DC42469201520AD8B2C5E717
:1004B80080220025FF20D203C0E78022D203144205
:1004C80002D04346134249D08022D203224352022B
:1004D800FF20520AB2E70122D31A1B2BC3DC424683
:1004E800DA4043469E37BB40591E8B411A43530797
:1004F80004D00F231340042B00D00432530129D514
:10050800012000229AE7424663015501AB4215D209
:100518001B200022013F01261C0052005B00002C1A
:1005280001DB9D4201D85B1B324301380028F3D11F
:10053800581E8341134398460D009AE71A2001225A
:100548005B1BE8E7023B5A4253415B4235000022FD
:10055800D8B273E792010020520A6FE71A43520299
:100568003500FF20520A69E74446ADE7309E00088F
:10057800709E0008FFFFFFF7F0B54F464646D64687
:1005880043025B0A4500C0B599460F1C2D0EC60FE5
:10059800002D00D188E0FF2D00D18DE08022DB0006
:1005A800D2041A430023914698469A467F3D7C021E
:1005B8007B00640A1B0EFF0F002B68D0FF2B21D095
:1005C8008022E400D204144342467F3B5B19002199
:1005D8005D1C0A2A2EDC7E404246022A23DC013AB0
:1005E800012A00D9BDE002296ED001292CD10020B2
:1005F8000022C005F60710433043E0BCBA46B146B6
:10060800A846F0BD2B00FF33002C65D003224146DD
:1006180011433200013588467A40FF350A2900DD4A
:10062800D8E016000321404601228240A620C000DF
:10063800024220D05346022B46D0032B00D1BBE008
:1006480051464C460129D2D02B007F33002B70DD58
:10065800620704D00F222240042A00D00434220169
:1006680003D5634B1C402B008033FE2B2CDCA201EE
:10067800520AD8B2BDE790208000024227D1B9388B
:10068800FF3810426DD03E00A1468A46D2E7002CC2
:1006980041D1012342461A4390462B00424601218C
:1006A8005D1C0A2A97DDC5E7002B26D1042398464E
:1006B800033B00259A467AE7002B18D10823984671
:1006C800063BFF259A4672E7FF20002291E7802229
:1006D8000026FF20D2038CE7414602220135114350
:1006E8008846FF350A29A5DC02217E4074E70C23E1
:1006F8009846093BFF259A4659E7180002F060FA28
:100708004A46431F76259A4000236D4291469846F3
:100718009A462D1A4BE7200002F052FA4246431F30
:100728009C402B1A763B00215D1C0A2A00DC52E70C
:1007380080E70122D31A1B2B00DD58E79E352200E3
:10074800AC40DA40631E9C412243530704D00F2378
:100758001340042B00D00432530137D50120002266
:1007680047E7210C4A462404240C2700100C1204E5
:10077800120C44435743484351433A0C0919521841
:10078800944203D9802149028C4660443F041104F5
:100798003F0CC9198C01671EBC41120C890E121836
:1007A8000C439201144312010ED5012362081C4028
:1007B800144349E73E00A14680224B46D2031A4320
:1007C8005202FF20520A14E71D003DE79201002063
:1007D800520A0EE70F29EDD180224B46D20313426D
:1007E800EAD01442E8D13E00FF20224301E7C04688
:1007F800FFFFFFF7F8B54746CE464E0243024500D5
:10080800720AC40F480080B594465F0A2D0E9B09F2
:10081800000EC90FB609FF2824D0012251402A1A18
:100828008C420FD0002A00DC6AE1002835D1002E66
:1008380000D1A2E0511E012A00D124E1FF2A21D0D3
:100848000A002FE0002A00DC67E100285ED0FF2DB7
:1008580018D08021C9040E431B2A00DC76E02A0048
:10086800013332E02A00FF3A9146002E42D08C42F2
:1008780055D04A46002A00D19CE0002D00D177E0EF
:100888000C003300DB08002B00D16EE08022D2037D
:1008980013435B02FF205B0A24E0FF2DF2D0802186
:1008A800C9040E4301211B2A08DC31002020D14055
:1008B800821A96403200501E824111435B1A5A0137
:1008C80060D407212A00194057D00F211940042964
:1008D80000D00433590150D5501CFE2A45D09B0145
:1008E800C0B25B0AC0051843E4072043C0BCB94640
:1008F800B046F8BD012251408C42BAD14A46002A7E
:1009080010D0002D00D198E00023BBE7002E34D092
:10091800511E012A6ED0FF2AB4D00A009CE7002A93
:1009280000D088E0FE206A1C104200D092E0002D22
:1009380000D0A4E0002B00D1CBE0002E00D0CAE00C
:100948000022DB085B025B0AD0B2CBE73100202033
:10095800D140821A96403200501E82410A439B18A9
:100968005A01AED56A1CFE2D4AD1FF200023B9E7F3
:10097800FF22002B4BD10C003300DB08FF2A00D1EB
:1009880081E7DFE79F01BF09380002F019F9053850
:100998008740854221DC3B002021421B0132D340A5
:1009A8008A1A97407A1E974100223B43590700D084
:1009B8008BE78FE7FE206A1C104212D1002D52D11E
:1009C800002B7CD0002EBBD09A1B500100D48BE0AA
:1009D80001240022F31A0C40E8E7564B2A1A3B4040
:1009E800E4E79F1B7A0146D4002FCDD100240020D4
:1009F800002377E79B1901250132590100D460E7EC
:100A080001214D4819405B0803400B43CEE7571EB0
:100A1800012A5AD00C00FF2A33D001221B2F07DCF1
:100A28002021C91B1A008B40FA40591E8B411A43DA
:100A38000500B31A43E7002D23D1FF22002B9BD0DA
:100A4800511E012AD6D0FF2A1BD01B292CDD0200FB
:100A5800731C3AE7FF2A88D09B195B08590700D016
:100A680033E7DB086EE7002B10D1002E43D00124BA
:100A780033000C4006E70124F71A0C4084E7002BEA
:100A880004D13300FEE601259B1B18E7002E00D198
:100A9800F8E68022D203974204D3944502D2012477
:100AA80033000C40DB08F1E61A002025CA40691A19
:100AB8008B40591E8B41134305009B1950E7002EAC
:100AC80094D0012433000C403AE70C000125F31AB6
:100AD800F5E6330034E79B1900225901C1D5154AC0
:100AE8001340DB0801222DE7002A00D17EE713001E
:100AF8000022DB0826E780230024FF20DB03F1E641
:100B0800002A00D156E7471B3A00002D00D130E7F4
:100B18008022D2040C0013437FE7002A00D101E7AA
:100B2800411B002D01D10A0088E78022D20413431B
:100B38008BE7C046FFFFFFFBFFFFFF7D410242003E
:100B4800C30F490A0020120E7E2A03DD9D2A02DD0A
:100B5800094A98187047802000040143952A07DC49
:100B68009620821AD1404842002BF3D10800F1E7C1
:100B7800963A9140F7E7C046FFFFFF7F70B500281F
:100B880013D0C317C5185D40C40F280002F018F829
:100B98009E2301001B1A962B0FDC082834D0083935
:100BA8008D406D026D0AD8B202E0002400200025B5
:100BB800C0052843E407204370BD992B16DC421F6B
:100BC800052800D095402A00114802406E0709D038
:100BD8000F263540042D05D00432550102D59F2338
:100BE80002405B1A9201550AD8B2E1E70522121AAF
:100BF8002800D040020008001B3085402800451E10
:100C0800A84102431500DEE76D0296206D0ACFE782
:100C1800FFFFFFFB70B5041E0ED001F0D1FF9E232D
:100C280001001B1A962B0CDC08282FD008398C40A1
:100C38006402640AD8B201E000200024C005204301
:100C480070BD992B16DC421F052800D09440220065
:100C580010480240650709D00F252C40042C05D008
:100C68000432540102D59F2302405B1A9201540AB0
:100C7800D8B2E3E7020020001B3290400200501E69
:100C880082410520401AC4401443E0E764029620DC
:100C9800640AD3E7FFFFFFFBF0B557464E464546CB
:100CA800DE46E0B583B0009001910C034F00CE0FF3
:100CB800610A009C1D03640F0C4300990092019384
:100CC800C80059004B0D9946009A019B6D0AD90F2F
:100CD800530F2B439A46009B7F0DDA0094464A46F1
:100CE800B046BA1A8E4200D1B0E0002A00DC78E0A3
:100CF8004946002900D1E9E0C9498F4200D195E170
:100D08000125382A16DC8021534609040B439A46EC
:100D18001F2A00DDE7E1202155468B1A61469D40D8
:100D2800D1400D43614699404B1E99415346D340EB
:100D38000D43E41A451BA84280414042241A23026D
:100D480000D40FE16402640A002C00D139E12000CC
:100D580001F036FF0300083B20212800CA1AD040C2
:100D68009C4002009D4022439F4200DD73E1D81B56
:100D78000130091A2C008D40C4406B1E9D411300A0
:100D8800C2408B402543002714001D436B0709D040
:100D98000F232B40042B05D02B1DAB42AD416D42D8
:100DA80064191D00230200D42DE19D4A01379742A2
:100DB80000D1D3E046469B49ED0821404A072A4323
:100DC8007C054D022D0B640D24052C43F607344396
:100DD8001000210003B0F0BCBB46B246A946A046AD
:100DE800F0BD002A00D184E04A46D21B002F00D073
:100DF8006DE12500054300D127E1561E012A00D1E7
:100E08003BE2874DAA4200D16AE20125382E12DC66
:100E180032001F2A00DDF8E120262500B61A070057
:100E28005346B040D440B540D740461EB0411B1B86
:100E38009A463D4305436246551BAC45924153468D
:100E480052420E004F4688469C1A78E7002A00DC7A
:100E58008EE04946002975D161465346194300D1B1
:100E6800F6E0511E012A00D191E16D4DAA4200D150
:100E7800DCE00125382914DC0A001F2A00DDA2E184
:100E880020215346891A8B401D006346D3401D43D9
:100E980063468B4019004B1E99415346D3400D437E
:100EA800E4182D188542804140422418230259D560
:100EB8005B4B01379F4251D001215A4B6A081C40B5
:100EC80029400A43E507154364085FE7614653462E
:100ED800194300D1BCE0511E012A00D164E1504DF4
:100EE800AA4200D16AE10125382900DD22E70A007B
:100EF8000EE74D4A7D1C154200D0D0E02500624621
:100F0800534605431A43002F00D037E1002D00D186
:100F1800A8E1002A00D16AE16346C51A5346E21ADD
:100F2800A8429B415B42D31A1A0200D403E26346EB
:100F38001D1AAC459241534652421C1B0E0088466E
:100F4800A41A23E736498F4270D00125382AA8DC35
:100F58008021534609040B439A468EE73C0000253E
:100F6800002231E707232B40002B00D010E793E045
:100F7800002A74D04A46D21B002F00D1C7E0284966
:100F8800894500D185E10125382A12DC8021090430
:100F98000C431F2A00DDABE120212500891A070038
:100FA80088408D40D740411E8841D4403D43054389
:100FB800A2446544654592415242524414004F464A
:100FC80074E7280001F0FCFD030018331F2B00DC38
:100FD800C2E62A00083882409F4200DDA9E0DB1BF8
:100FE800581C1F2800DCACE115001F3BDD40202801
:100FF80005D040231B1A9A40531E9A4115430723D4
:1010080000272B40B0E7ED08054B62072A43E408A8
:101018009F420FD02403250B7C05640DD4E6C046FF
:10102800FF070000FFFF7FFFFE070000C008620700
:101038000243E4081300234300D186E180252D03F1
:1010480025432D03C34C2D0BBEE6604654460E00C7
:101058001700C508D8E7C04CFF1A144096E6BF4AE7
:10106800791C11426BD122000243002F00D0DBE033
:10107800002A00D12DE1624653461A4300D1B6E05A
:101088006346C518854280415444404224182302CF
:1010980002D50F00B04B1C403A002800D8E7624642
:1010A800851AA8429241534652429146E31A1A00C1
:1010B8004B46D21A130091461A0254D44A464C465B
:1010C8002A4300D040E60026002400257CE6A14DF6
:1010D800A94500D190E00125382A00DDABE680253E
:1010E8002D042C4395E6110055462039CD40A946DC
:1010F800202A06D0402153468A1A934062461A4352
:10110800944665466B1E9D414B461D4312E62100E1
:10111800014300D1C4E0511E012A00D1FBE08D4DEE
:10112800AA4200D1B5E00125382900DD41E70A00CF
:101138002FE7894CFF1A14406207E4086AE7854ADA
:10114800914200D1E3E06346C21882428041230005
:10115800404253441B18DD075C0807235208154317
:101168000F002B4000E763461D1AAC4592415346D9
:1011780052421C1B0E008846A41AE5E5002D00D03B
:1011880091E0002A38D180240026240356E76346DC
:10119800C51885428041544440422418012723023F
:1011A80000D4DFE6022787E66346C51AA8428041D5
:1011B80053464042E41A0127241AC0E56207C008D2
:1011C8000243E40836E7110053462039CB409946DC
:1011D800202A06D0402153468A1A934062461A4371
:1011E800944665466B1E9D414B461D4359E6620772
:1011F800C0080243E4080DE753465A076346D80877
:1012080053460E000243DC0814E715002600203D73
:10121800EE40202A03D04025AA1A94402043421EBB
:1012280090410500354306E6002A7CD062465346C5
:10123800C0081A4300D1FAE6620710438022E40886
:101248001203144208D0D908114205D16346D808C0
:1012580053460C005B071843420FC000C0085207F2
:101268000243E7E6002A00D12DE76346D808534633
:101278005A070E000243DC08CCE663461D1AAC454B
:101288009241534652421C1B0E008846A41A01374D
:1012980055E56346D90853465A070A43DC08C9E6A8
:1012A80060465446D4E6C008002A00D1BFE662076B
:1012B80010438022E40812031442CDD0DD08154201
:1012C800CAD16346D80853465B070E002C00184362
:1012D800C2E76346D90853465A070A43DC0899E629
:1012E8006346D80853465A070E000243DC08A1E6B5
:1012F800110027002039CF40202A03D040218A1A24
:1013080094402043421E904105003D4351E60C00A5
:101318000025002258E560446045924154445242F9
:101328000500A4183AE753465A076346D9085346B6
:101338000A43DC087EE61A001C002A4300D0ABE60C
:10134800C1E620210025091A19E500220025014CD3
:101358003AE5C046FF070000FFFF7FFFFE070000D9
:10136800F0B5DE46454657464E46E0B587B0009292
:1013780001930B031B0B9B46CA0F4B0004008046CE
:101388005B0D029200D16AE1D44A934200D18CE10C
:101398005946420FC9000A43802109041143C2007B
:1013A8009046CF4A894692469A44002300240393E4
:1013B800009E019F3B031B0B9B467B0030005B0D8F
:1013C800FD0F002B00D128E1C44A934200D177E1F8
:1013D8005946720FC9000A438021090411438B46FC
:1013E800BF49F2008C4651466344CB1A9A46002303
:1013F800029E6E400F2C27D8BA49A40009598F467F
:10140800CB464246029E039B022B16D0032B00D1EB
:10141800A6E2012B00D0DFE0002200230024904642
:101428001B052343F60733434046190007B0F0BCB9
:10143800BB46B246A946A046F0BD0022002490460D
:10144800A64BEDE72E00DFE7CB4500D2D4E100D173
:10145800CFE101235B429C46444648460027E244CC
:101468005B46150E1B021D43190C2B041202009536
:101478001D0C914602910395FEF7CEFE02006A43C9
:101488000B04210C804619438A4209D9009D012387
:10149800AC465B4261449C46E0448D4200D8FBE187
:1014A800881A0299FEF7B8FE039A240442430904F5
:1014B800240C03000C43A24206D90099013B8C4638
:1014C8006444A14200D8E1E1A01A424612041A433A
:1014D80093464B4659461B0C1D0004930B04494682
:1014E8000904090C0C001B0C5C43120C6B43884666
:1014F80051436A43250CAC465B186344994203D9AF
:10150800802149028C466244190C24041B04240CD3
:101518008A181C19904202D316D1A74214D25B46EE
:10152800009D013B4F4405934F459B41AC465B42B0
:101538006344C018854200D3A1E1824200D9F6E194
:1015480000D1F1E1059B9B463C1BA742BF41009D92
:10155800801A7F42C01B854200D1D0E10299FEF774
:101568005BFE039A0B044243210C070019438A428D
:1015780000D978E1881A0299FEF74EFE039A2404EE
:1015880042430904240C03000C43A24200D95DE144
:101598004146A41A3A041A43049D13041B0C5943E8
:1015A80047466B439C46100C47430B0CBC446344B2
:1015B80068439F4203D980256D02AC4660441F0CE6
:1015C80009041B04090C3F185B18BC4200D202E155
:1015D80000D1FDE001231A43434B5344002B00DCA8
:1015E800AEE0510700D098E15946C90106D55946E1
:1015F8003E4B194080238B46DB0053443C498B42C9
:1016080000DD1AE75946D208490711435A465B05D7
:1016180054028846240B5B0D02E75A46009B1A4386
:1016280000D17EE05B46002B00D100E1584601F076
:10163800C7FA020003000B3A1D27009EBA1A1900C8
:101648005846D64008398840320002439346009AEB
:101658008A40284953448A469A440023C8E65B4690
:101668000343994656D05B46002B00D1CDE058463F
:1016780001F0A6FA0B235B429C46020084446646AE
:101688001D239B1B260011005846DE400839884060
:1016980033000343994623008B409846164B002499
:1016A8009B1A9A460023039382E65A4602439146C0
:1016B8002AD100229A46022390460824039377E60B
:1016C8005A46009B1A430D4B9C46E244002A17D108
:1016D80002231C4300239B46023389E6FF070000D0
:1016E80001FCFFFFAC9E0008FF030000FFFFFFFEA8
:1016F800FE070000F30300000DFCFFFF01F8FFFFE9
:10170800032332001C4373E69A460323D9460C246C
:1017180003934DE6002398469A4601330424039325
:1017280046E601231C4300239B46013360E6002361
:10173800802498460026924B240371E601225242E7
:101748000121C91A382900DD66E61F2900DCABE053
:101758001F204042C31A5846D8400300202904D00D
:1017680058468849514488400243511E8A411A43C9
:10177800072319000024114013420CD00F231340F3
:10178800042B00D1F9E0111D91429B410A005B42F4
:1017980059075B021C0BD2080A43904600233FE618
:1017A80080244B462403234209D05B46234206D1BA
:1017B8001C4324032E009046714B240B30E68024F2
:1017C8004B4624031C432403029E6D4B240B27E63F
:1017D800002B00D100E70098511E844664448442DF
:1017E80000D284E0BC4200D2AEE000D1C1E00A00E1
:1017F800F0E6424500D92CE64B46DC07580843463C
:101808005B081C434346DF072AE601F0D9F9152394
:101818009C4684440200634620321C2B00DC2EE7E1
:1018280023000838834099460023984636E701F09C
:10183800C7F902000300153220331C2A00DCFBE63E
:1018480000990838814000228B4602E70099013B45
:101858008C466444A14200D99AE6A24200D897E691
:10186800831E644494E6AC466144013F8D4200D92E
:1018780080E68A4200D87DE6871E61447AE6854282
:1018880000D05FE6B94500D95CE656E6A24200D82A
:101898001AE6831E644417E68A4200D800E6AC467E
:1018A800831E98466144FBE5374814005044824043
:1018B8005B4617008340CC407A1E974123433B4345
:1018C8001A005B46CB40510709D00F21114004296B
:1018D80005D0111D9142924152429B180A001902EB
:1018E80000D455E7002201230024904698E50A0019
:1018F800BC4200D06EE64B4500D06BE66CE6234B4D
:10190800234A5344924500DA18E7012149420A1D47
:101918008A42894149428B4466E60F2111400429D5
:1019280000D161E61100F2E7BC4200D80AE60223C2
:101938005B429C4600994F444F459B41E3448C468B
:101948005B426344C018FFE54946009D480048458E
:101958008941AC46494261448146023A6418C7E766
:1019680080245B4624031C4324039046044B240B29
:1019780056E59945E8D30A00BDE7002308E7C046C5
:10198800FF0700003E0400001E040000FF030000E3
:1019980002FCFFFFF0B55746DE464E464546E0B529
:1019A8000D000400E80F83460903D80F090B82468F
:1019B80019488C461F0369005E00490D3F0B760DE0
:1019C800814218D086420FD00120B1420DD1BC45CA
:1019D8000BD1944209D1D3451CD0002905D16046CA
:1019E8002043431E984100E00120F0BCBB46B246AC
:1019F800A946A046F0BD01208E42F6D16146394382
:101A08000F0017432743F0D15B465246981A431EEE
:101A18009841EAE70020E8E7FF070000F0B55746DD
:101A28004E464546DE46E0B50D000F03390B83B040
:101A38000400804601915800E90F314F400D8C4653
:101A48006E00190382469146760D090BD80FBE42E7
:101A58001FD0BA450FD0002E2FD15546019E3443D2
:101A6800002D27D10A433AD0002C45D100281AD19D
:101A78000120404217E011433BD1002E02D1019FC3
:101A88002743F3D0844509D16346002BF0D0604644
:101A980009E0019F27432CD1B24524D06346022098
:101AA800013B1840013803B0F0BCBB46B246A9461A
:101AB800A046F0BD002CD9D0E4E75446002CEDD068
:101AC8008445EBD15645E9DCDEDB019B8B42E5D84A
:101AD800DAD1C845E2D80020C845E4D2D4E70020CE
:101AE800002CE0D0DAE7114303D18445D6D1002099
:101AF800D9E702204042D6E78445E6D0CEE7C04683
:101B0800FF070000F0B557464E464546DE46E0B5AD
:101B18000D000F0304008046E80F390B844683B09C
:101B28005800304F400D01911E03690082469146CE
:101B3800490D360BD80FB94220D0BA450FD000292D
:101B48002BD101990C435146002937D1324338D063
:101B5800002C44D1002819D10120404216E0164338
:101B680013D1002902D1019F2743F3D0844520D007
:101B780063460220013B1840013807E0019F2743D4
:101B880003D18A45F4D116431FD0022003B0F0BC1C
:101B9800BB46B246A946A046F0BD5446002CE7D045
:101BA8008445E5D15145E3DC03DB019BB342DFD833
:101BB8000FD06346002BCFD06046E7E7002CC9D092
:101BC800D4E70020002CE1D0D2E78445D0D1002012
:101BD800DCE7C845CCD80020C845D7D2E9E784451A
:101BE800E3D0C5E7FF070000F0B55746DE464E468E
:101BF8004546E0B51F000B031B0B16009A46CA0F9B
:101C08004B000400934687B05B0D00D1D5E0BB4A7A
:101C1800934200D1F8E05146420FC9000A4380219F
:101C280009041143C2009146B54A8A469D1800230B
:101C3800984602933C037B00FA0F3000240B5B0D9F
:101C4800009200D196E0AD4A934231D0720FE40081
:101C58002243802424041443A94AF0009446634490
:101C68005B195A1C0192424600260A2A42DC5A464F
:101C780000994A4093464246022A32DC013A012A38
:101C880000D949E1022E00D1CAE0012E3DD100233E
:101C98000024002210005A461B052343D207134391
:101CA800190007B0F0BCBB46B246A946A046F0BD35
:101CB800924B2643EB18002E00D1BBE0032241468D
:101CC80011435A46884600994A40802109018C46AA
:101CD80029006144019141460A2900DD33E2934617
:101CE8000326424601279740A6213A00C9000A4028
:101CF8000F4231D0029E022E00D135E2032E00D1D0
:101D0800D2E154464846012EC1D0019A7D4B9446F3
:101D18006344002B00DCC0E0420709D00F220240D8
:101D2800042A05D0021D8242804140422418100036
:101D3800E20106D5744B019A1C4080239446DB00CF
:101D48006344724A93426BDC6207C00864025B0515
:101D58000243240B5B0D9DE7902189000F4263D15C
:101D680088223A4200D1D7E0009BA2469B46814692
:101D78000296BFE72300334300D17FE0002C00D157
:101D8800ADE1200000F01CFF020003000B3A1D200B
:101D98001900821A30000839D0408C4004433000C2
:101DA80088405B4AEB1A944663445A1C01924246A7
:101DB80000260A2A00DC5AE79CE753460343994663
:101DC80054D05346002B00D177E1504600F0F8FE7E
:101DD8000B235B429C46020084441100504608399C
:101DE80088401D23804660461B1A2000D840030007
:101DF800404603439A4623008B4099460023444DAE
:101E08009846AD1A029315E752460243914626D1E9
:101E180000221D000223924608329046029309E7E9
:101E280000240022354B35E7002380249B462403F9
:101E3800324B2FE702224146114380221201944679
:101E48002A006244884601920A2900DD52E75A4670
:101E58000020009904004A40934602260BE70C2212
:101E68001D000323814690460293E3E600239A4629
:101E780004339846033B00250293DBE642460133D0
:101E88001A432B0090465A1C019242460024002017
:101E980001260A2A00DCEAE62CE70122D21A382AAF
:101EA80000DDF4E61F2A00DC2AE11F214942CB1A93
:101EB8002100D9400B00202A05D0164A019D9446DE
:101EC8006544AC402043421E904118430723190043
:101ED8000024014003420CD00F230340042B00D1FF
:101EE80040E1031D8342A441180064426107640273
:101EF800240BC20800230A43CCE6C046FF070000B3
:101F080001FCFFFFFF030000FFFFFFFEFE070000CC
:101F18000DFCFFFF3E04000049464A460904090C2F
:101F28000D00160C020C0004000C4543AC460500DD
:101F38007543A84615000F007543009202952A00C4
:101F4800009D6F4365462D0CA94647444F44B8454C
:101F580005D91500802252029046454402953D0C51
:101F6800039565462D043F042D0CAC463D006544A1
:101F78000495250C2404240CAC4625007543A8467A
:101F880065460F006943414489466743390C494413
:101F98006E43884503D980225202904646440D0C70
:101FA800A846350045440595039D3F04A8463F0CC7
:101FB8000904C91988444546039555462E04360C2C
:101FC8002F0C35004543784381463800A8462D0C30
:101FD800AA46009A504372434A445244914503D951
:101FE80080256D02A9464844150CA94645462D048E
:101FF8002D0CA84665467D43120448449044A946E2
:102008003200654662436E437C43170C3619BF198C
:10201800BC4203D980246402A446E144029C039E86
:10202800A446059D66448E428941AC4612043C0490
:10203800120CA2186244494254184644A446464524
:10204800A44182466442A046AA4292418C458941F5
:10205800E244D044494252420A43A045A441824541
:102068008941644249420C4341463F0CD219121936
:10207800CC0D049970020843411E884141464A44E8
:10208800F60D52023043490214430843D20135D5B4
:102098000122430802401343E0071843640834E66A
:1020A800009BA2469B4681468024534624031C433A
:1020B80024034A462E4B240BECE500F081FD152342
:1020C8009C4684440200634620321C2B00DC84E6D4
:1020D800002399462300083883409A468EE600F08C
:1020E8006FFD02000300153220331C2A00DC4EE687
:1020F80002003400083A0020944052E6019304E6B6
:102108001C4B21009C460300019DD3406544A94017
:1021180019430300AB40581E834119430800D440BB
:102128004B0709D00F230B40042B05D00B1D8B4206
:102138008041404224181800230200D4D6E6012327
:1021480000240022A6E50F29AAD1802352461B03AA
:102158001A42A9D01C42A7D11C43009B02009B46EF
:10216800034B97E50024C1E60024014B220091E5CA
:10217800FF0700001E040000F0B54E464546DE4647
:102188005746E0B585B0009001910C034F00CE0F83
:10219800610A009CB046640F0C4300997F0DC8008B
:1021A80011001A001B039C460091019251004B0D2F
:1021B8009946019B009DD90F63466A0F5B0A13433A
:1021C800EA0094469346C14A03900293914500D190
:1021D800CDE0012569404D467D1BAA468E4200D1BF
:1021E80080E0002D00DC35E34946002900D1DFE01E
:1021F800974200D194E152460125382A19DC802201
:10220800029B12041343029352461F2A00DDE3E1A6
:10221800534620226146029DD21A9540D9400D436B
:10222800614691400A00511E8A411543029ADA40DC
:10223800A41A451BA84280414042241A230200D414
:102248003DE16402640A002C00D147E1200000F05F
:10225800B7FC0300083B20212800CA1AD0409C4044
:1022680002009D4022439F4200DD77E1D81B0130E8
:10227800091A2C008D40C4406B1E9D411300C240BA
:102288008B402543002714001D436B0709D00F23FB
:102298002B40042B05D02B1DAB42AD416D42641978
:1022A8001D00230200D440E1884A0137974200D13B
:1022B80001E1012643468649ED0821404A072A43A1
:1022C8007C054D022D0B640D1E4024052C43F6079A
:1022D80034431000210005B0F0BCBB46B246A94605
:1022E800A046F0BD002D00DCD0E24946002900D010
:1022F800D4E06146029B194300D12BE1691E012DF0
:1023080000D1D9E1954200D10AE10125382917DC2D
:102318008A4653461F2B00DDE7E12022D21A029B92
:10232800614693401D005346D940634693401A00C6
:102338000D43511E8A4153461543029ADA40A418A8
:102348002D188542804140422418230200D4B6E06B
:102358005E4B01379F4200D1ADE001215C4B6A081A
:102368001C4029400A43E507154364088DE7594A8C
:10237800029B92466246BA441A432CD08E422ED013
:102388005246002A60D0002F00D1DBE063460E00E1
:10239800029CD80862070243E4081300234300D1D3
:1023A80054E280252D0325432D03484C2D0B8CE743
:1023B8006146029B194300D1CCE029000139012D67
:1023C80000D188E1954200D1AAE00125382900DD35
:1023D8002FE78A4618E7012251408E42D0D1534652
:1023E800002B00D1BEE0002F00D038E1CA46220001
:1023F800024300D1E2E15346591E012B00D10DE200
:10240800324A924500D1D2E10127382913DC1F292D
:1024180000DDEEE12022029B521A250007009A46B1
:10242800CC4090409540CF40A244421E9041534634
:102438002F43074302933D00654465459241029B43
:1024480052424F46D41880E7234A7D1C154200D0DB
:10245800AAE062462500029B05431A43002F00D0DC
:10246800F5E0002D00D16BE1002A00D152E163466E
:10247800C51A029BE21AA8429B415B42D31A1A0270
:1024880000D4D5E163461D1AAC4592410126029B52
:1024980052421C1B8846A41A0E40F6E697423FD0CB
:1024A80052460125382A00DD4AE78022029B1204A1
:1024B800134302932DE73C000025002205E707237C
:1024C8002B40002B00D0E2E66BE0C046FF0700007F
:1024D800FFFF7FFF01F8FFFFFE070000280000F064
:1024E8006FFB030018331F2B00DCB4E62A00083802
:1024F80082409F4200DDB9E0DB1B581C1F2800DC2E
:10250800A0E115001F3BDD40202805D040231B1A01
:102518009A40531E9A411543072300272B40D0E7C2
:10252800C00862070243E40837E7EA0863071A436A
:10253800D34BE4089F4200D12FE72403250B7C05E9
:10254800640DC2E6CA462200024358D163460E0013
:10255800029C0393039B5746DA08E7E7C94CFF1A26
:10256800144092E6C84D7A1C2A4200D084E022002A
:102578000243002F00D0EFE0002A00D1E5E06246D8
:1025880002990A4300D1C5E06346C5188C468542C6
:102598008041644440422418230202D5B94B0137D4
:1025A8001C40BA460395D5E76246851AA84292416F
:1025B80052429146029BE31A1A004B46D21A130064
:1025C80091461A026CD44A464C462A4300D03AE651
:1025D80000260024002578E6029953460D00203A8B
:1025E800D540202B06D04022D21A0B0093406246D9
:1025F8001A4393465B465A1E93411D4319E65346B8
:102608005A1E012B00D1C6E09D4EB24500D1BDE651
:1026180088460E000125382A10DC1F2A7FDC20217D
:102628002500891A070088408D40D740D440411EB4
:102638008841029B3D431B1B054302936246551B81
:10264800AC459241029B52424F469C1AF6E5002D3A
:1026580000D0B7E0002A00D1F0E001260E40634622
:102668000298D90842070A43C40896E6854CFF1A1F
:1026780014406207E40860E781498A4200D1C9E052
:102688006346C11881428041029B4042E3181B18EF
:10269800DD075C08072349080D4317002B4010E7A6
:1026A80063461D1AAC4592410126029B52421C1BEF
:1026B8008846A41A0E40C6E56346C518029B8542A3
:1026C80080419C464042644424180127230200D4D8
:1026D800F5E6022741E66346C51AA8428041029BF7
:1026E8004042E41A0127241AA8E5029D52462B000D
:1026F800203AD34019005346202B06D04022D21A44
:102708002B00934062461A4393465D466B1E9D41DB
:102718000D4315E66207C0080243E4080DE71100FF
:1027280027002039CF40202A05D040218A1A94401A
:10273800250005430395039D6A1E95413D437DE7AA
:10274800002A00D144E701260E406346D908029BBF
:102758005A070A43DC08F0E6002A28D06246029F9E
:10276800C0083A4300D1DCE6620710438022E4083F
:102778001203144209D0FD08154206D1634601260A
:102788002C00D8087B0718430E40420FC000C00831
:102798005207024301E663461D1AAC459241029B6B
:1027A80052421C1B0E0088460127A41A46E56346C0
:1027B800D908029B5A070A43DC08EEE56346029CE7
:1027C8000393C7E6C008002A00D1AAE662071043AF
:1027D8008022E40812031442D7D0029FFD08154254
:1027E800D3D163460126D8087B072C0018430E4036
:1027F800CBE70A002700203AD740202905D04022FD
:10280800521A9440250005430395039D6A1E95417D
:102818002F4310E614000025002256E5029B604471
:102828009946604592414C4452420500A4184CE731
:102838001A001C002A4300D0B3E6C9E6802400260B
:102848002403AEE520210025091A17E500220025FA
:102858000B4C3AE5002D00D1F6E54B46DA1B9246C3
:10286800002F00D16FE6382A05DC80263604344371
:1028780088460E00D1E688460E000125DEE6C046F1
:10288800FF070000FFFF7FFFFE070000002D00D1BB
:1028980068E64B46D91B002F01D18A46A7E50127D8
:1028A800382900DDC7E5802212041443AFE5C0468D
:1028B800F0B5C6461E03360BB0460D4E0C034D0050
:1028C8005F0000B5240B6D0D7F0DB5420BD0084994
:1028D80000208F4204D1464616433000431E9841DB
:1028E80080BCB846F0BD04430120002CF8D1EEE7C7
:1028F800FF0700000B00020070B5164D0C0382B0F4
:102908004900002000920193240B490DDE0FA942D3
:1029180004DD1148814203DD104BF01802B070BD90
:102928008020400320430E4C641A1F2C08DD0D4BF9
:102938005B1AD84003005842002EEFD11800EDE78B
:10294800094B009A9C46030061448B40E2401343C4
:10295800F1E7C046FE0300001D040000FFFFFF7FF3
:102968003304000013040000EDFBFFFF10B5041E44
:1029780010D000F025F90E4B1B1A5B055B0D0A28D9
:102988000FDC0B222100121AD14015300A038440B3
:10299800120B01E0002300221B051343200019003D
:1029A80010BD22000B38824012030024120BF3E7FB
:1029B8001E04000070B542024300C40FFE201B0E27
:1029C800591C550A08420CD0E02189008C466D0735
:1029D800120B63441B051343E40723432800190023
:1029E80070BD002B14D1002D1BD0280000F0E8F892
:1029F8000A281CDC0B232A001B1ADA4003001533B3
:102A08009D400E4B12031B1A5B05120B5B0DE1E791
:102A1800002D09D0130B802212031A436D07084BAF
:102A2800D8E700230022D5E70022054BD2E70300B0
:102A38002A000B3B9A400025E3E7C04689030000C3
:102A4800FF070000F0B54B000F035B0D3B4C450F33
:102A580083B07F0A5E1C2F4300900191CA0FC50006
:102A680026420BD036495C18FE2C13DDFF200023CC
:102A7800C0051843D207104303B0F0BD002B02D1A4
:102A880000200023F4E73D43F0D08023DB03FF2040
:102A98003B43EDE7002C14DD009BFF009B01581E13
:102AA8008341690F3B430B43590741D00F2119401C
:102AB800042928D00433590125D501340023E0B274
:102AC800D6E721001731DBDB80211E2009043943BA
:102AD800001B1F281BDD02267642341B0E00E64031
:102AE8003400202804D017488446634499400D4395
:102AF8002B00591E8B412343590715D00F21002461
:102B08001940042917D19B015B0AE0B2B0E70E4CCB
:102B18001C192B00A540C340A140681E85412943CC
:102B28000B4300245907C1D19B0100205B0A9FE792
:102B3800DB08E0B29CE70433E5E7C046FE07000087
:102B480080FCFFFFA2FCFFFF82FCFFFF8446080019
:102B58006146FFE71FB500F0C9F8002801D400213D
:102B6800C8421FBD10B500F049F84042013010BD01
:102B780010B500F0BBF8002801DB002010BD0120D3
:102B880010BDC04610B500F0B1F8002801DD0020E6
:102B980010BD012010BDC04610B500F057F8002840
:102BA80001DC002010BD012010BDC04610B500F0AA
:102BB8004DF8002801DA002010BD012010BDC046E4
:102BC8001C2101231B04984201D3000C10391B0A55
:102BD800984201D3000A08391B09984201D3000919
:102BE800043902A2105C40187047C0460403020270
:102BF80001010101000000000000000070B5420062
:102C08004E024C0045026D0A120EC30F760A240EBE
:102C1800C90FFF2A10D0FF2C0CD00120A2420AD1E4
:102C2800B54208D18B420FD0002A04D12800431E98
:102C3800984100E0012070BD0120FF2CFBD13543F5
:102C4800F9D14B401800F6E70020F4E730B5420010
:102C580044024D02C30F4800640A120E6D0A000EAA
:102C6800C90FFF2A19D0FF280BD0002A1ED100282F
:102C78000BD1002D27D0002C34D100292FD00800EB
:102C880030BD002D28D1002A01D1002CF5D08B426F
:102C980007D1002B23D01800F2E7002C1CD1FF2805
:102CA80014D0581E022318400138E9E70028F8D04C
:102CB8008B42F6D18242F4DCEBDBAC42F1D8002047
:102CC800AC42DDD2E5E7002CDAD0EAE7002D03D1EB
:102CD8008B42E6D10020D3E702204042D0E7012012
:102CE8004042CDE78B42E8D0DBE7C04630B5420032
:102CF80044024D02C30F4800640A120E6D0A000E0A
:102D0800C90FFF2A1AD0FF280ED0002A1ED100288A
:102D18000ED1002D2AD0002C0CD08B421DD0581E6D
:102D280002231840013810E0002D0DD1002A20D1CF
:102D3800002C1ED1002923D0080006E0002C03D166
:102D4800FF28ECD1002D17D0022030BD0028E6D096
:102D58008B42E4D18242E2DC04DBAC42DFD80020C3
:102D6800AC42F2D2002B0BD01800EEE7002CECD0CE
:102D7800D5E78B42D3D1F5E700208B42E5D0CEE7EB
:102D880001204042E1E7C04670B50400A0200022BF
:102D98000221C00503F0CCFD0122044D20000449A6
:102DA8002C602A7106F058FE287170BDC4000020FE
:102DB800C90000200022054B0549DA84CA771900AA
:102DC800473328310A701A707047C046C400002083
:102DD800C900002010B5FFF7EDFFA0200022022156
:102DE800C00503F0A5FD10BD0A4B026810B59A4254
:102DF8000FD10949094CCB7F6079E21801339071F2
:102E0800CB77012200232068E384227106F024FE98
:102E1800207110BD00440040C9000020C4000020FB
:102E2800084B026810B59A420BD11E2200210648B1
:102E380006F09CFE1E220021044806F097FEFFF7CC
:102E4800C9FF10BD00440040CA000020ED0000206A
:102E5800F8B5194A0124137A083B1900D8B2214061
:102E6800234219D1052817D9E040160014000B0099
:102E78000D00377A0133DBB23D4302368342F8D185
:102E88000133DBB25B00D618B679AE4206D01E22FB
:102E980000210A4806F06AFE00200CE00025667A48
:102EA8000135EDB231430234A842F8D1D218D379B2
:102EB80001208B42EBD1F8BDC4000020CA000020DD
:102EC800F8B50500140081422AD9091A88B2FFF71B
:102ED8004DFD00222F4BFEF787FE060028000F004D
:102EE800FFF744FD02000B0030003900FEF738FA06
:102EF800060020000F00FFF739FD02000B0030002C
:102F08003900FEF771FE234B0022FEF729FAFDF780
:102F1800DFF9214B24189C4200D91C002000F8BD81
:102F28008142FBD2411A88B2FDF774FEFFF742FDD9
:102F38000022184BFEF758FE060028000F00FDF788
:102F480069FEFFF737FD02000B0030003900FEF77D
:102F580007FAFFF777FDFFF72DFD060020000F00A9
:102F6800FDF758FEFFF726FD02000B003000390080
:102F7800FEF73AFEFDF7ACF9FFF7F8FC0022054B27
:102F8800FEF7EEF9FDF7A4F9844201DD241AC5E73E
:102F98000024C3E70000594018FCE703642170B51A
:102FA8001A4B1B4C1A7C587C4A431B7B8018802B7D
:102FB80006D1184DA1882A68FFF782FF286008E02B
:102FC800102B16D00BD8042B19D0082B14D0022B99
:102FD80018D00223383422781343237070BD202B75
:102FE80004D0402BF5D10C4DE188E4E70B4D218945
:102FF800E1E70B4D6189DEE70A4DA189DBE70A4D60
:10300800E189D8E7094D218AD5E7C046C4000020E8
:10301800D0020020980200209C020020A00200207C
:10302800A4020020A8020020AC020020B002002068
:1030380070B5214B5B79102B06D0402219009143C3
:10304800202901D0802B09D100221C491C4B08687B
:103058004968FEF7C9FD04000D0012E0302B04D0CA
:10306800102219009143402903D100221349154B1E
:10307800EDE71A00DF21703A0A4210D10F4B1C68A5
:103088005D680022200029000F4BFDF7FFF800289B
:103098000ED129002000FDF71BF980B270BDA02BCE
:1030A80003D100220549094BD1E700240025F0E7A8
:1030B8000024054DEDE7C046E0010020D8050020BA
:1030C8000000594000408F40C0FFEF400088C340D7
:1030D800F8B5844CE57A102D58D1834A637AE2809A
:1030E80018222272A27AE5726272804AA37212785A
:1030F8007F4B22731A003D32117801220A43627312
:10310800DA8FE2811A1DD28F52BA22829A1DD28F8B
:1031180052BA62821A0048331B8808325BBAE382CB
:10312800744BD28FA361744B52BAA282A38300223C
:10313800250020001100237A083BDBB25B0802302F
:103148009A4200D0C3E05A1C5200A0188171002195
:1031580008000235994200D0BEE0A218D071277A43
:10316800664E674D3A003100280006F0ECFC3A0044
:103178000021300006F0FAFCFFF71CFE23002B3379
:1031880029001A78206805F05FFDF8BD202D46D18A
:103198005C4B574D1B78DB071CD5002000F02EFA3E
:1031A800002000F043FA002000F05AFA002000F056
:1031B8006FFA002000F084FA002000F099FA00204D
:1031C80000F0AEFA002000F0C3FA002000F0DAFAAE
:1031D80000F062FC29003C310B78207B627A0343C3
:1031E8000B70617B280007230E003D309E43037857
:1031F80033430370EB8FE0890343EB873A4BE3805B
:1032080010232372A37AA27263722023E3721F3BF6
:103218000B436373374B2361374BA38287E7302D0A
:1032280016D1FFF705FF304A637AE2801022227236
:10323800A27AA3726272C4222D4B9200E5729B5C43
:10324800627B2373012340BA13436373E081E1E790
:10325800402D24D101222B49254B0D78607A2A4331
:103268000A701A0041253C321678227B617BAA43FA
:10327800350095430F0701D5350015433C331D70C4
:10328800194BE38010232372A37AA0726372402340
:10329800E3723F3B0B4363730023E381BAE7502D8E
:1032A80000D044E7667AFFF779FE0F4B627BE38034
:1032B80012232372A37AE5726372012313436373A3
:1032C8000023E3816382104BA67263612FE786793E
:1032D8000132D2B2314332E7EE7901313043C9B21B
:1032E80037E7C046C4000020AA99FFFF0C0300205E
:1032F800D0020020000099AA0D0A0000CA00002090
:10330800ED0000200803002099AA0D0A10B5FFF768
:103318009FFD002808D0064A064B927A5B799A42AC
:1033280002D1FFF7D5FE10BDFFF754FDFBE7C046FD
:10333800C4000020E001002070B5384C384B220052
:1033480028321278DB7F002A5CD1A279AA2A53D1CD
:10335800002B53D0E279992A4BD1012B09D1E38C68
:10336800C72B57D928342378002B4AD1FFF732FDD1
:1033780047E0217A4A1ED0B21D2837D8022BEED05A
:103388006518AD78C81E992D2DD18342E7DB20182A
:1033980080798D1EAA2823D1AB42E0DB6519A87974
:1033A8000D281AD19342DADBA21892790A2A0FD192
:1033B8009942D4D82300A0202833093A0221C00515
:1033C8001A7003F0B5FA631DDB7F002BC7D115E037
:1033D8009942C4D8FFF7FEFCF5E79342BFDBF9E753
:1033E800AB42BCDBF6E78342B9DBF3E7022BB6D08E
:1033F800F0E7012BB3D0EDE7002BEBD1E38CC72B23
:10340800B0D870BD220047321378042BDBD80133C3
:103418001370D8E70133E384F0E7C046C400002006
:10342800C900002010B50B4C2379002B05D00122D0
:103438000949206806F010FB2071230028331B7807
:10344800012B05D147342378042B01D9FFF75EFF00
:1034580010BDC046C4000020C9000020F7B50E000A
:103468001400050003F0C2F80223124801A9036002
:10347800DB1843601B3383601E3BC360002703F0E7
:103488005BF9B8420BD003F0C3F8FEBDF318012076
:103498001A685B6803F0FAF8002808D10137FB00C6
:1034A800E918BC42F2DC03F025F90020EDE703F04F
:1034B80021F9E8E70C010020030070B51C685D687D
:1034C8001E1A013A8E1992B2346075600833002AC8
:1034D800F4D170BD0122802110B59140044803F059
:1034E80027FA0121034A13788B43137010BDC04695
:1034F80000040050100300208021012210B589002B
:10350800044803F015FA0221034A13788B43137019
:1035180010BDC04600040050100300200122802185
:1035280010B5044803F004FA0421034A13788B43C6
:10353800137010BD00040050100300200122402128
:1035480010B5044803F0F4F90821034A13788B43B3
:10355800137010BD00040050100300200122202128
:1035680010B5044803F0E4F91021034A13788B439B
:10357800137010BD00040050100300200122102118
:1035880010B5044803F0D4F92021034A13788B437B
:10359800137010BD00040050100300200122082100
:1035A80010B5044803F0C4F94021034A13788B434B
:1035B800137010BD000400501003002001220821E0
:1035C80010B5044803F0B4F97F21034A13780B407F
:1035D800137010BD000C00501003002001220421BC
:1035E80010B5044803F0A4F90121034A53788B432A
:1035F800537010BD000C00501003002010B5041EBD
:1036080002D0012803D010BDFFF764FFFBE780213B
:1036180000220448490003F08BF9034B1A7814433D
:103628001C70F0E7000400501003002010B50028BB
:1036380002D0012803D010BDFFF75EFFFBE7802111
:1036480000228900044803F073F90223034A117821
:103658000B431370EFE7C04600040050100300202E
:1036680010B5002802D0012803D010BDFFF756FF7F
:10367800FBE700228021044803F05AF90423034A97
:1036880011780B431370F0E700040050100300207A
:1036980010B5002802D0012803D010BDFFF74EFF57
:1036A800FBE700224021044803F042F90823034ABB
:1036B80011780B431370F0E700040050100300204A
:1036C80010B5002802D0012803D010BDFFF746FF2F
:1036D800FBE700222021044803F02AF91023034ABB
:1036E80011780B431370F0E700040050100300201A
:1036F80010B5002802D0012803D010BDFFF73EFF07
:10370800FBE700221021044803F012F92023034AA2
:1037180011780B431370F0E70004005010030020E9
:1037280010B5002802D0012803D010BDFFF736FFDE
:10373800FBE700220821044803F0FAF84023034A73
:1037480011780B431370F0E70004005010030020B9
:1037580010B5002802D0012803D010BDFFF72EFFB6
:10376800FBE700220821054803F0E2F88023044A19
:103778005B4211780B431370EFE7C046000C005012
:103788001003002010B5041E02D0012803D010BD7C
:10379800FFF724FFFBE700220421044803F0C8F8E0
:1037A800034B5A7814435C70F1E7C046000C005094
:1037B80010030020F7B52E4D2E4C696A2A6AA069BD
:1037C800002905D1904203D90120FFF7C1FF0AE083
:1037D8006769C319002907D1934205D9FFF7EEFE9F
:1037E8000120FFF79DFFF7BDE6699B1901930023B0
:1037F8009C468B4208D1019B934205D9FFF7CEFE28
:103808000120FFF7BFFFEEE7019BC3188C4504D1E9
:10381800934202D9FFF7E2FED6E7FF1800238B4256
:1038280001D19742DAD8F6198B4201D19642E5D8F0
:103838008019002901D19042ECD8FFF7CFFEFFF79D
:10384800ADFEFFF7BBFEC223002000219B00E3185A
:1038580018605960C42300229B00E2543D34237849
:103868007F3213402370002200232A626B62BAE77A
:1038780020010020D002002070B5224B224A1E7879
:103888001B785BB2002B08DA012400251F4B186A4D
:10389800596A00196941186259623C3213781278E2
:1038A80052B2002A03DA19490A6801320A605A0634
:1038B80003D516494A6801324A609A0603D5134966
:1038C8008A6801328A60DA0603D51049CA6801326B
:1038D800CA601A0703D50D490A6901320A615A07F5
:1038E80003D50A494A6901324A619B0703D5074A49
:1038F800936901339361760603D5044AD36901338A
:10390800D36170BD0D030020D002002020010020EB
:1039180010B50A4B0A4C1B6822689A4203D2012050
:10392800FFF76CFE10BDFFF7D5FD00237F21054A88
:10393800236013780B401370F4E7C0469802002008
:10394800200100200C03002010B50A4B0A4C1B680C
:1039580062689A4203D20120FFF750FE10BDFFF7BC
:10396800B9FD00234021054A636013788B43137027
:10397800F4E7C0469C020020200100200C03002030
:1039880010B50A4B0A4C1B68A2689A4203D2012060
:10399800FFF74CFE10BDFFF7AFFD00232021054ABD
:1039A800A36013788B431370F4E7C046A00200208D
:1039B800200100200C03002010B50A4B0A4C1B689C
:1039C800E2689A4203D20120FFF74AFE10BDFFF7D2
:1039D800A5FD00231021054AE36013788B4313707B
:1039E800F4E7C046A4020020200100200C030020B8
:1039F80010B50A4B0A4C1B6822699A4203D201206F
:103A0800FFF746FE10BDFFF799FD00230821054A80
:103A1800236113788B431370F4E7C046A802002093
:103A2800200100200C03002010B50A4B0A4C1B682B
:103A380062699A4203D20120FFF742FE10BDFFF7E8
:103A48008DFD00230421054A636113788B431370AD
:103A5800F4E7C046AC020020200100200C0300203F
:103A680010B50A4B0A4C1B68A2699A4203D201207E
:103A7800FFF73EFE10BDFFF781FD00230221054A36
:103A8800A36113788B431370F4E7C046B00200209B
:103A9800200100200C030020002000210022084BF8
:103AA8001862596201211A605A609A60DA601A61D4
:103AB8005A619A61DA61034A13788B43137070472D
:103AC800200100200803002070B5154D154CEA6947
:103AD800E3699A4203D20120FFF754FE70BDA16941
:103AE8005B189A4205D2FFF779FD0120FFF730FEF7
:103AF800F4E7FFF763FDFFF771FDC2230020002103
:103B08009B00E318C4221860596000239200A35454
:103B180040223D34EB61237893432370DEE7C046AF
:103B280020010020D002002010B5424C01202200C4
:103B3800414B38321B7812785BB202423BD1002BE2
:103B480001DAFFF7E5FE23003C331B785B0601D55D
:103B5800FFF7FAFE23003C331B789B0601D5FFF7DD
:103B68000FFF23003C331B78DB0601D5FFF724FF4A
:103B780023003C331B781B0701D5FFF739FF2300CF
:103B88003C331B785B0701D5FFF74EFF23003C331E
:103B98001B789B0701D5FFF763FF23003D331B7894
:103BA8007F2B01D9FFF706FE3D3423785B0601D54C
:103BB800FFF78AFF10BD002B2ADAFFF71FFD23004D
:103BC8003C331B789B0626D50120FFF72FFD2300E9
:103BD8003C331B78DB0621D50120FFF741FD23008C
:103BE8003C331B781B071CD50120FFF751FD230030
:103BF8003C331B785B0717D50120FFF761FD2300D5
:103C08003C331B789B0712D50120FFF771FDC4E7F1
:103C1800FFF760FCD3E7FFF76FFCD8E7FFF77EFC00
:103C2800DDE7FFF78BFCE2E7FFF798FCE7E7FFF734
:103C3800A5FCB2E7D00200200C03002010B5074C09
:103C48000821206004F0CEFE0421206804F0CAFE9A
:103C58000021206804F0C6FE10BDC04648010020BF
:103C6800002803D1144B1B681B68D863002903D1B3
:103C7800114B1B681B689963002A03D10E4B1B6804
:103C88001B685A63002805D00B4B80001B6801385D
:103C98001B68D863002905D0074B89001B680139C8
:103CA8001B689963002A05D0034B92001B68013AF0
:103CB8001B685A637047C04648010020034B044AFA
:103CC8001A62044A5A6200221A8570474C01002081
:103CD8000300FF0000FFFF0F70B5802300250C4C88
:103CE8000C4E29009B02A06014223000236025712D
:103CF800203605F03BFF29000A22074805F036FF69
:103D080035706585E58525636563A563E56370BDE5
:103D18004C010020580100206C01002070B581235F
:103D280000250B4E0B4C29005B0414223000236045
:103D38002571203605F01AFF29000A22064805F0E9
:103D480015FF35706585E5852563656370BDC046DB
:103D5800580100204C0100206C010020AF210A4AC4
:103D680010B5138889008B4204D2013313800023D5
:103D7800D38510BDD38D01339BB2D3858B42F8D345
:103D8800FFF7CCFFF5E7C0464C010020094B02685D
:103D98009A420AD10849094A0B780133DBB2092B48
:103DA80004D80B7000232C321370704700235385FE
:103DB8001371F7E700540040760100204C01002001
:103DC800454B0268D0B59A4200D084E0434A444C3F
:103DD80013780133DBB21370132B00D878E0E08F2F
:103DE800FCF718FFFEF7E6FD3E4A3F4BFDF7FCFEE9
:103DF8000600208B0F00FCF7C1FEFEF7DBFD3B4AF7
:103E08003B4BFDF7F1FE02000B0030003900FCF7D8
:103E180043FFFCF75DFAE087208FFCF7FBFEFEF717
:103E2800C9FD304A304BFDF7DFFE0600608B0F00FE
:103E3800FCF7A4FEFEF7BEFD2C4A2D4BFDF7D4FE81
:103E480002000B0030003900FCF726FFFCF740FAAF
:103E58002087608FFCF7DEFEFEF7ACFD214A224B7F
:103E6800FDF7C2FE0600A08B0F00FCF787FEFEF7E9
:103E7800A1FD1E4A1E4BFDF7B7FE02000B003000E5
:103E88003900FCF709FFFCF723FA6087A08FFCF7DD
:103E9800C1FEFEF78FFD134A134BFDF7A5FE060082
:103EA800E08B0F00FCF76AFEFEF784FD0F4A104B0B
:103EB800FDF79AFE0B00020039003000FCF7ECFE1B
:103EC800FCF706FA0023238063850133A08723715A
:103ED80000232C342370D0BD00540040760100200C
:103EE8004C010020666666666666E63F3333333308
:103EF8003333D33F37B5012580210A4B0A4A1B7853
:103F08000A4CD25C0C331B19019500930A432B0011
:103F1800A0682E3902F05EFE23002B342C331D706E
:103F2800257037BD76010020EC9E00084C0100206A
:103F3800254B1A8BD878DA865A8B1A869A8B5A862A
:103F4800DA8B9A8601283DD15A1C197BD27F91427F
:103F580037D19A1C597BD27F914232D1DA1C997B96
:103F6800D27F91422DD11A1DD97BD27F914228D17F
:103F78005A1D197CD27F914223D19A1D597CD27F38
:103F880091421ED1DA1D997CD27F914219D11A0033
:103F98000832D97CD27F914213D11A002832197D78
:103FA800127891420DD11A002932597D1278914226
:103FB80007D19B7D0020442B03D04D3B5A1E9341D3
:103FC800D8B270470020FCE74C01002010B5084C1F
:103FD800A378022B04D1013BE370FFF76FFE02E0E8
:103FE800E378012BF9D0FFF7A3FFA07010BDC046FE
:103FF8004C010020AF2337B52D4C9B0022889A42F4
:1040080004D323002A331B78002B04D023002B333E
:104018001B78012B07D123002C331B7822791343FB
:1040280001D1FFF767FFFFF7D1FFA278012A04D17A
:1040380023002A331B78002B04D023002B331B7852
:10404800022B31D125002C352B78002B16D1237962
:10405800012B13D1220080202A321178154A0193AE
:10406800525C20316118009102435221A06802F08D
:104078004BFD02232B342B70237037BD002A04D14B
:1040880023002A331B78002B04D023002B331B7802
:10409800022BF2D123002C331B78002BEDD122798F
:1040A800012AEAD12371E8E7002AE9D0E5E7C0460A
:1040B8004C010020EC9E0008024B9878434258417E
:1040C8007047C0464C01002030B5054C258F05804F
:1040D800608F0880A18F1180E28F1A8030BDC046A2
:1040E8004C010020F0B5012589B01422002103A855
:1040F80005F03CFD0221FE261B4B1C4F5A6B380075
:104108002A435A635A6BB6002A400092009A5A6BA7
:1041180000240A435A635A6B0A400192019A5A6B67
:1041280006310A435A635B6B00220B400293043149
:10413800029B02F0FDFB002231000D4802F0F8FB63
:104148000C23380003A9039304950594069402F000
:104158003DFB074803A9039604950594069402F0CD
:1041680035FB09B0F0BDC04600100240000C0050FD
:104178000004005010B5134B134C01222360134B5D
:10418800200063600023E260A36023616361A36190
:10419800E361236202F05AFC002801D001F074FFA9
:1041A8000021200003F07AFB002801D001F06CFF09
:1041B8000021200003F098FB002801D001F064FFE3
:1041C80010BDC046005400408C010020583D5000EE
:1041D80030B504008FB01422002103A805F0C6FCF6
:1041E8001822002108A805F0C1FC1C4B22689A423D
:1041F80031D1202308A8089303F0E8FE002801D055
:1042080001F042FF0122164CA020636B00251343E6
:104218006363636B03A913400193019BC023DB0015
:1042280003931223C00504930C3B07930595069549
:1042380002F0CCFA8022E36B92031343E363E36B4F
:104248001720134002932A002900029B02F006F966
:10425800172002F02DF90FB030BDC04600540040C1
:104268000010024000B593B03422002105A805F0E3
:104278007DFC0021102201A805F078FC8020800038
:1042880003F056FB02230593FE33402208930023D4
:1042980005A809930A920C9303F076FB011E01D03E
:1042A80072B6FEE7072302900390049001A80193D9
:1042B80003F0CAFD002801D072B6FEE713B000BDB6
:1042C800F0B5002600270022D64B95B01B780A933C
:1042D800D54B1B78049605970B930A9B0296039778
:1042E8005B00C3180F930B9B009601975B00C318E4
:1042F8000E9300210F9B09919B5A009801990893EE
:10430800089C099D00196941029C039D0090019138
:104318000E99895A08328C46069100210791069811
:10432800079924184D410294039564465C43E117AC
:104338000C940D91049C059D0C980D9924184D41E1
:104348005B431093DB17119304940595109B119C04
:10435800F6186741582ACCD1B44C009A019B0098B2
:10436800019926626762A260E360029A039B226158
:104378006361049A059BA261E361FBF7C7FF06909E
:10438800079102980399FBF7C1FF029003910498E3
:104398000599FBF7BBFF0022A54BFDF725FC029A08
:1043A800039B0090019106980799FDF71DFC0200F8
:1043B8000B0000980199FDF7DFFE00900191300095
:1043C8003900FBF7A3FF0022994BFDF70DFC069A75
:1043D800079B06000F0010001900FDF705FC0200FE
:1043E8000B0030003900FDF7C7FE02000B000098F3
:1043F8000199FCF7B5FF02000B00009001910698A7
:104408000799A262E362FDF7EFFB02000B00029836
:104418000399FDF7B1FE0022854BFCF7A1FF0200CE
:104428000B000290039122636363009A019B1000C2
:104438001900FDF7D9FB7F4B0022FCF72DFC002368
:10444800069007917C4E04930E9B049A985AFEF7A7
:104458008DFA029A039BFDF78FFE009A019BFDF7E8
:10446800C3FB0F9B049A0400985A0D00FEF77EFACE
:1044780002000B0020002900FCF70EFC069A079B9F
:10448800FCF76EFF04000D000200346075600B003D
:1044980000980199FDF7A8FB029A039BFCF7FCFB27
:1044A80002000B00B265F365604B644F9A6BDB6BDF
:1044B80008920993109011910898099922002B00ED
:1044C800FDF75AFE3B008933FF335C681B680C9389
:1044D8000D94109A119B129013910C980D99FDF759
:1044E8004BFE129A139B04000D0010001900FDF7F3
:1044F8007BFB2200109011912B0020002900FDF772
:1045080073FB0B00020010981199FCF7C5FB05F02E
:1045180068FB3300B03318605960049B08360833D1
:104528000493582B90D10B9B20335B00FB185888C1
:10453800FEF71CFA029A039BFDF71EFE009A019BE8
:10454800FDF752FB0A9B040020335B00FB185888D8
:104558000D00FEF70BFA02000B0020002900FCF703
:104568009BFB069A079BFCF7FBFEA42304000D00A7
:104578009B00FB181C605D6002000B00009801990D
:10458800FDF732FB029A039BFCF786FBA6230A0081
:104598000090019101009B00FB1819605A6008986F
:1045A800099922002B00FDF7E7FD009A019B040002
:1045B8000D000C980D99FDF7DFFD22002B000090EF
:1045C800019120002900FDF70FFB009A019B0400D0
:1045D8000D0010001900FDF707FB02000B0020007A
:1045E8002900FCF759FB05F0FCFAA82304000D008C
:1045F8009B00FB181C605D603B00E133FF331A68C9
:104608005B68FBF72FFE00281AD0C2230020002188
:104618009B00FB1818605960C42301229B00FA54C0
:1046280015B0F0BDCA030020CB030020C80300204A
:10463800000026400000F03F00040020D0020020C7
:104648003B00E933FF331A685B68200029000092B9
:104658000193FBF707FE002812D0C2239B0020001D
:104668002900FE18009A019BFCF77AFE0B00D4493A
:10467800020008684968FDF7B7FA30607160CBE757
:104688003B00F133FF331A685B682000290002926F
:104698000393FBF7E7FD002833D090239B00FB181A
:1046A8001A685B6804920593C2239B0020002900C6
:1046B800FE18009A019BFDF75FFD009A019B04001C
:1046C8000D0002980399FDF757FD02000B0020002A
:1046D8002900FCF745FE92239B000D00F918040001
:1046E800049A059B08684968FDF746FD02000B001F
:1046F80020002900FDF778FA049A059BFCF7CCFA0C
:10470800BBE73B00F933FF331A685B6820002900D8
:1047180000920193FBF7A6FD002838D092239B0056
:10472800FB181A685B6804920593C2239B0020005B
:104738002900FE18029A039BFDF71EFD029A039BAF
:1047480004000D0000980199FDF716FD0B0002000A
:1047580029002000FCF704FE942304000D009B00B0
:10476800F91808684968049A059BFDF705FD0200D9
:104778000B0020002900FDF737FA049A059BFCF787
:104788008BFAC4230222306071609B0047E78023C4
:104798009B00FB181A685B682000290002920393AB
:1047A800FBF760FD002821D094239B00FB181A68B2
:1047B8005B6804920593C2239B0020002900FE1821
:1047C800009A019BFDF7D8FC009A019B04000D009C
:1047D80002980399FDF7D0FC0B0002002900200085
:1047E800FCF7BEFD962304000D00B8E782239B006A
:1047F800FB181A685B682000290000920193FBF7F8
:1048080031FD002838D096239B00FB181A685B6896
:1048180004920593C2239B0020002900FE18029AE7
:10482800039BFDF7A9FC029A039B04000D00009866
:104838000199FDF7A1FC0B00020029002000FCF7FC
:104848008FFD982304000D009B00F918086849683B
:10485800049A059BFDF790FC02000B00200029003C
:10486800FDF7C2F9049A059BFCF716FAC423032244
:10487800306071609B00D2E684239B00FB181A68A5
:104888005B682000290002920393FBF7EBFC0028E9
:1048980021D098239B00FB181A685B680492059343
:1048A800C2239B0020002900FE18009A019BFDF7F7
:1048B80063FC009A019B04000D0002980399FDF720
:1048C8005BFC0B00020029002000FCF749FD9A233D
:1048D80004000D00B8E786239B00FB181A685B6884
:1048E8002000290000920193FBF7BCFC002838D077
:1048F8009A239B00FB181A685B6804920593C223ED
:104908009B0020002900FE18029A039BFDF734FC47
:10491800029A039B04000D0000980199FDF72CFCF6
:104928000B00020029002000FCF71AFD9C2304005C
:104938000D009B00F91808684968049A059BFDF763
:104948001BFC02000B0020002900FDF74DF9049A1A
:10495800059BFCF7A1F9C4230422306071609B0019
:104968005DE688239B00FB181A685B682000290015
:1049780002920393FBF776FC002823D09C239B002C
:10498800FB181A685B6804920593C2239B002000F9
:104998002900FE18009A019BFDF7EEFB009A019B87
:1049A80004000D0002980399FDF7E6FB0B000200D6
:1049B80029002000FCF7D4FC9E2304000D00B8E772
:1049C800100500208A239B00FB181A685B682000EA
:1049D800290004920593FBF745FC002838D09E2354
:1049E8009B00FB181A685B6800920193C2239B0026
:1049F80020002900FE18029A039BFDF7BDFB029ACE
:104A0800039B04000D0004980599FDF7B5FB02000F
:104A18000B0020002900FCF7A3FCA0239B000D003D
:104A2800F9180400009A019B08684968FDF7A4FB7F
:104A380002000B0020002900FDF7D6F8009A019B20
:104A4800FCF72AF9C4230522306071609B00E6E573
:104A58008C239B00FB181A685B68200029000092D1
:104A68000193FBF7FFFB002831D0A0239B00FB1824
:104A78001A685B6802920393C2239B0020002900F6
:104A8800FE18049A059BFDF777FB049A059B040022
:104A98000D0000980199FDF76FFB02000B00200044
:104AA8002900FCF75DFCA2239B000D00F918040007
:104AB800029A039B08684968FDF75EFB02000B0039
:104AC80020002900FDF790F8029A039BB8E7200020
:104AD800009A019B2900FBF7CFFB002800D19FE536
:104AE800A2239B00FB181A685B6802920393029842
:104AF8000399C2239B00FE18009A019BFCF730FC27
:104B0800009A019B0490059120002900FDF734FBD1
:104B180002000B0004980599D4E7C04610B5044874
:104B2800FFF7CEFB0821034A13788B43137010BD9F
:104B38001A0300200D030020F7B53F4B0400DE8F59
:104B48003E4D3000FCF766F8071C2088FCF762F839
:104B5800011C381CFBF7F0FB27002680260001907B
:104B6800083658373088FCF755F80199FBF704FDEB
:104B7800FBF796FB30800836B742F3D1AB1DDE8FCA
:104B88003000FCF747F8071C6088FCF743F8011C65
:104B9800381CFBF7D1FB27006680260001900A36F7
:104BA8005A373088FCF736F80199FBF7E5FCFBF734
:104BB80077FB30800836B742F3D12B000833DE8FFD
:104BC8003000FCF727F8071CA088FCF723F8011C25
:104BD800381CFBF7B1FB2700A680260001900C3695
:104BE8005C373088FCF716F80199FBF7C5FCFBF732
:104BF80057FB30800836B742F3D148352F88380044
:104C0800FCF708F8051CE088FCF704F8011C281CD0
:104C1800FBF792FB2500E780061C0E355E342888DA
:104C2800FBF7F8FF311CFBF7A7FCFBF739FB2880E3
:104C38000835AC42F3D1F7BDD4020020D0020020E1
:104C4800F0B5D84B5A79602A00D144E300D96CE01A
:104C5800302A00D185E206D8102A00D135E1202A71
:104C680000D121E2F0BD402A00D1D7E2502AF9D183
:104C7800CD48CE491861586198619866D86618671A
:104C8800CA48D961CA495867181DC167196259626B
:104C980099629967D967C749C7480231C867180038
:104CA800C64A8830DA60C64AC34C02601800C54D4F
:104CB800DC62C54CAC46C54EDD631C64C44DBD4CBE
:104CC800C44FE5879E60C44C1E66BC4E8C3027805E
:104CD800DF801A635A639A635E6602601800903038
:104CE80002601A006046943210601A00B648983282
:104CF80010601A009C3215805C2294469C446446DD
:104D0800B64ACD8722809E24A4469C4464462580CA
:104D18001D00B34FB34EB4499864B448AA4CDF643D
:104D28001E6558659965A0352BE1902A01D100F0E0
:104D380031FC63D8702A00D12AE3802A00D091E799
:104D4800AB48AC491861586198619866D86618678D
:104D5800A848D961A8495867181DC16719625962DE
:104D680099629967D9679349A4480231C8671800BE
:104D7800A34DA44AAC46DA60DD63A34AC525883052
:104D8800026018009D4CA14EDC62A14CED011C6430
:104D9800884CA04FE5879E608F4C1E66994E8C30DC
:104DA8002780DF801A635A639A635E660260180080
:104DB800903002601A006046943210601A009448DD
:104DC800983210601A009C3215805C2294469C44EC
:104DD8006446914ACD8722809E24A4469C4464461A
:104DE80025801D008D4F8E4E8E4998648E48884CC4
:104DF800DF641E6558659965A035C2E0A02A02D017
:104E0800FF2A00D02EE789488949186158619861BE
:104E18009866D86618678648D96186495867181D04
:104E2800C1671962596299629967D96719008248FE
:104E38000831C8671800814D814ADD639D1DAC4665
:104E4800DA60804A7C4C883002601800DC627E4C54
:104E58008C301C6464467D4D02601800E5875E2432
:104E6800903002601A635A639A631A00A446734822
:104E7800943210609C441A006446754E754F72480F
:104E88009E601E666E4E98322780DF805E661060D8
:104E98001A009C3215805C229446F2229C44644697
:104EA800FF3222809E24A4469C446446CD872580F8
:104EB8001D00694F694E6A4998646A48624CDF640C
:104EC8001E6558659965A0355BE0674867491861B4
:104ED800586198619866D86618676448D9616449CA
:104EE8005867181DC1671962596299629967D9672D
:104EF800304960480231C86718005F4A8830DA6074
:104F08005E4A5C4C026018005D4DDC625D4CAC464C
:104F18005D4EDD631C645D4D264C5D4FE5879E60EC
:104F28002D4C1E66544E8C302780DF801A635A63DE
:104F38009A635E6602601800903002601A0060464C
:104F4800943210601A004F48983210601A009C3250
:104F580015805C2294469C4464464E4ACD87228044
:104F68009E24A4469C44644625801D004A4F4B4E0F
:104F78004B4998644B48434CDF641E6558659965F6
:104F8800A0352C601C00A43427601C00A8342660BF
:104F98001C00AC3420601800B433B03001601A80B3
:104FA80060E6C046E00100202F4F2F4F2F4FA74C3F
:104FB800A74CA74CE6010020A74C944992502F4FCC
:104FC8009449944994497048704870489250925056
:104FD80070480000925000003E020020CD1D0000E5
:104FE8007048DF2EDF2EDF2ECD1DCD1DDF2ECD1D0F
:104FF800288228822882D87DD87DD87DD87D2F6FB9
:105008002F6F8062428828822F6F2F6F42884288D4
:10501800806280624288FFFFF22C00008062B85BE9
:10502800B85BB85BF22CF22CB85BF22C8F708F70E7
:105038008F70E055E055E055E05585418541FD31DB
:1050480088938F7085418541FD31FD31FD31000028
:10505800889388938893FFFFFD31F010F010F010CB
:10506800F101F101F010F10173A373A373A3D1A0AF
:10507800D1A0D1A0D1A09C9E4FA673A39C9E9C9E1C
:105088009C9E529C529C529C4FA64FA6529CFFFF3E
:105098004FA6FFFF8C2B0000529CC04EC04EC04E46
:1050A8008C2B8C2BC04E8C2BE848E9491861586131
:1050B80098619866D8661867E548D961E5495867E0
:1050C800181DC1671962596299629967D967E249DF
:1050D800E2480231C8671800E14A8830DA60E14ADC
:1050E800DE4C02601800E04DDC62E04CAC46E04E5D
:1050F800DD631C64DF4DD84CDF4FE5879E60DF4CD5
:105108001E66D74E8C302780DF801A635A639A63F5
:105118005E6602601800903002601A0060469432A1
:1051280010601A00D148983210601A009C3215801D
:105138005C2294469C446446D14ACD8722809E24B2
:10514800A4469C44644625801D00CE4FCE4ECF49D0
:105158009864CF48C54CDF641E6558659965A035CD
:105168000FE7CC48CC491861586198619866D866B1
:105178001867C948D961C9495867181DC1671962B4
:10518800596299629967D967B349C5480231C867B6
:105198001800C44A8830DA60C34AC14C026018005B
:1051A800C24DDC62C24CAC46C24EDD631C64C24DCB
:1051B800A94CC24FE5879E60B04C1E66B94E8C3034
:1051C8002780DF801A635A639A635E66026018005C
:1051D800903002601A006046943210601A00B44899
:1051E800983210601A009C3215805C2294469C44C8
:1051F8006446B34ACD8722809E24A4469C446446D4
:1052080025801D00AF4FB04EB0499864B048A84CF7
:10521800DF641E6558659965A035B2E6AD48AE49AC
:105228001861586198619866D8661867AA48D96164
:10523800AA495867181DC167196259629962996726
:10524800D9678549A6480231C8671800A54A883039
:10525800DA60A54AA24C02601800A44DDC62A44C96
:10526800AC46A44EDD631C64A34D7B4CA34FE5877D
:105278009E60824C1E669B4E8C302780DF801A63AE
:105288005A639A635E6602601800903002601A00E2
:105298006046943210601A009548983210601A00DF
:1052A8009C3215805C2294469C446446944ACD877F
:1052B80022809E24A4469C44644625801D00914F6C
:1052C800914E924998649248894CDF641E655865EE
:1052D8009965A03555E68F488F49186158619861DE
:1052E8009866D86618678C48D9618C495867181D24
:1052F800C1671962596299629967D967564988489E
:105308000231C8671800874A8830DA60864A844CB8
:1053180002601800854DDC62854CAC46854EDD6325
:105328001C64854D4C4C854FE5879E60534C1E662A
:105338007C4E8C302780DF801A635A639A635E66DE
:1053480002601800903002601A00604694321060C3
:105358001A007748983210601A009C3215805C2237
:1053680094469C446446764ACD8722809E24A4466F
:105378009C44644625801D00724F734E734998649F
:1053880073486B4CDF641E6558659965A035F8E570
:10539800704871491861586198619866D8661867AD
:1053A8006D48D9616D495867181DC16719625962FE
:1053B80099629967D967284969480231C86718000E
:1053C800684A8830DA60684A654C02601800674DA0
:1053D800DC62674CAC46674EDD631C64664D1E4C50
:1053E800664FE5879E60254C1E665E4E8C30278092
:1053F800DF801A635A639A635E6602601800903011
:1054080002601A006046943210601A0058489832B8
:1054180010601A009C3215805C2294469C446446B5
:10542800574ACD8722809E24A4469C446446258002
:105438001D00544F544E5549986455484C4CDF64F0
:105448001E6558659965A0359BE5C046D18CD18C01
:10545800D18C376F376F376FE6010020376FAE4B4F
:105468000E9CD18CAE4BAE4BAE4B013401340134A3
:105478000E9C0E9C013400000E9CFFFF3E02002093
:10548800120200000134DA07DA07DA071202120200
:10549800DA071202958795879587FC86FC86FC8635
:1054A800FC86A785BE879587A785A785A78592834C
:1054B80092839283BE87BE879283FFFFBE87FFFFDA
:1054C80082600000928344714471447182608260FA
:1054D80044718260F119F119F119BC18BC18BC1893
:1054E800BC186218EC1CF119621862186218FD15D4
:1054F800FD15FD15EC1CEC1CFD150000EC1C000056
:105508005B0B0000FD156C126C126C125B0B5B0BD5
:105518006C125B0BA458A458A4588456845684561D
:105528008456FE53F659A458FE53FE53FE53F050CA
:10553800F050F050F659F659F0500000F6590000B6
:1055480093430000F050934C934C934C93439343F4
:10555800934C9343AA5BAA5BAA5B7958795879580C
:105568007958E74AE75EAA5BE74AE74AE74A843898
:1055780084388438E75EE75E84380000E75E000020
:105588005A2B00008438B932B932B9325A2B5A2B07
:10559800B9325A2B2E482F4918615861986198667C
:1055A800D86618672B48D9612B495867181DC167F9
:1055B8001962596299629967D9672849284802315E
:1055C800C8671800274A8830DA60274A244C0260E6
:1055D8001800264DDC62264CAC46264EDD631C6462
:1055E800254D1E4C254FE5879E60254C1E661D4E99
:1055F8008C302780DF801A635A639A635E66026084
:105608001800903002601A006046943210601A0048
:105618001748983210601A009C3215805C22944614
:105628009C446446174ACD8722809E24A4469C4405
:10563800644625801D00144F144E1549986415487A
:105648000B4CDF641E6558659965A03599E4C04622
:10565800339633963396BA75BA75BA75E601002053
:10566800BA75BA5250C73396BA52BA52BA52BD41F5
:10567800BD41BD4150C750C7BD41000050C7FFFFE5
:105688003E020020D7280000BD414E384E384E3823
:10569800D728D7284E38D72810B5074B074C236092
:1056A80003232371064BDB786371FFF7C9FA054BB7
:1056B800D434238010BDC046AA550001E001002063
:1056C800D002002055AAFFFF10B5DD4BDD4C5B79F9
:1056D800602B00D187E25FD8302B00D1EEE121D8D2
:1056E800102B00D112E1202B00D167E1D64B5822B4
:1056F8006382D64BD6496361D64BD748A361D74B53
:10570800E361FA232362A36204F062FA5822D449BF
:10571800D44804F05DFA7C223D3423785242134386
:10572800237010BD402B00D108E2502BDED1FA23A4
:10573800DB006360C823A3600023E3602382238027
:10574800FF330222A3702300FF32FA331A808E231C
:10575800002100209B00E3181860596090239B00EB
:10576800C14AE118C14B0A604B6092218900611857
:105778000A604B60942300229B00E118BC4B0A602E
:105788004B609621890061180A604B6098239B0042
:10579800E1180022B74BC4E1902B00D1BCE25BD8E2
:1057A800702B00D161E2802BA0D1FA239B006360AB
:1057B800B14B0222A3606423E360DC23FF3323821E
:1057C800AE4BFF3223808223A3702300FA331A8062
:1057D8008E23002000219B00E31818605960902355
:1057E80000229B00E118A64B00200A604B60922122
:1057F800890061180A604B60942300229B00E1181D
:10580800A04B0A604B609621890061180A604B60C2
:10581800982300229B00E1189B4B0A604B609A2159
:10582800890061180A604B609C2300229B00E118E4
:10583800964B0A604B609E21890061180A604B6094
:10584800A02393499B00E31818605960A2239B008A
:1058580000209049E318AEE0A02B02D0FF2B00D027
:1058680044E7FA239B006360A3600023E36023827C
:10587800824B022223808223A3702300FF32FA3353
:105888001A808E23002000219B00E31818605960BD
:10589800902300229B00E1187F4B00200A604B6098
:1058A8009221890061180A604B60942300229B00B2
:1058B800E1186F4B0A604B609621890061180A60F5
:1058C8004B60982300229B00E1186A4B0A604B60EA
:1058D8009A21890061180A604B609C2300229B0072
:1058E800E1186E4B0A604B609E21890061180A60BE
:1058F8004B60A02380219B00E318C90518605960FC
:10590800A2239B0000206649E31854E0FA23DB0039
:105918006360C823A3600023E3602382614B0222F3
:1059280023809923A3702300FF32FA331A808E2331
:10593800002100209B00E318186059609023002282
:105948009B00E118554B0A604B6092218900611851
:105958000A604B6094239B00E11880230022DB053A
:105968000A604B609621890061180A604B60982391
:1059780000229B00E1184C4B0A604B609A21890079
:1059880061180A604B609C2300229B00E118444B7D
:105998000A604B609E21890061180A604B60A02351
:1059A80000203B499B00E31818605960A22300209F
:1059B8009B003E49E3181860596097E6C823636066
:1059C8003B4B0222A3600023E3602382394BFF3262
:1059D8002380A023A3702300FA331A808E2300218A
:1059E80000209B00E3181860596090239B00E11881
:1059F80080230022DB050A604B6092218900611830
:105A08000A604B60942300229B00E1181C4B0A603B
:105A18004B609621890061180A604B609823002228
:105A28009B00E118174B0A604B609A2189006118A6
:105A38000A604B609C239B00E11800221E4BA7E7DD
:105A4800E0010020D002002014050000906500004D
:105A5800E6010020D8D600001A0300201027000015
:105A68003E020020720300209A9999999999C93F9A
:105A78000000E03F0000E83F1900C8008282FFFFF5
:105A88000000144000002440000039400000444059
:105A98000000494000C062400000D03F0000F03FD5
:105AA800000010409999FFFF00000840000059408D
:105AB800C800C80000A0FFFF00002E4096235B002E
:105AC8006360963BA3600023E36023822380A033B6
