:020000040800F2
:100000000020002055450008A5420008A74200082E
:1000100000000000000000000000000000000000E0
:10002000000000000000000000000000A9420008DD
:100030000000000000000000AB420008AD420008D4
:10004000A545000800000000A5450008A5450008DA
:10005000A5450008A5450008A5450008A5450008D8
:1000600000000000A5450008A5450008A5450008BA
:10007000A5450008A5450008A545000800000000AA
:10008000E94200080000000000000000A54500084B
:1000900000000000A5450008A5450008F942000839
:1000A000A5450008A5450008A5450008A545000888
:0800B0001943000800000000E4
:1000B80010B5064C2378002B07D1054B002B02D036
:1000C800044800E000BF0123237010BD4800002051
:1000D80000000000AC7D0008044B10B5002B03D0D5
:1000E8000349044800E000BF10BDC04600000000FE
:1000F8004C000020AC7D000802B471464908490054
:10010800095C49008E4402BC7047C046002243087F
:100118008B4274D303098B425FD3030A8B4244D3C7
:10012800030B8B4228D3030C8B420DD3FF22090209
:1001380012BA030C8B4202D31212090265D0030BC8
:100148008B4219D300E0090AC30B8B4201D3CB03BE
:10015800C01A5241830B8B4201D38B03C01A524100
:10016800430B8B4201D34B03C01A5241030B8B4202
:1001780001D30B03C01A5241C30A8B4201D3CB02ED
:10018800C01A5241830A8B4201D38B02C01A5241D2
:10019800430A8B4201D34B02C01A5241030A8B42D5
:1001A80001D30B02C01A5241CDD2C3098B4201D3ED
:1001B800CB01C01A524183098B4201D38B01C01A6B
:1001C800524143098B4201D34B01C01A52410309E2
:1001D8008B4201D30B01C01A5241C3088B4201D391
:1001E800CB00C01A524183088B4201D38B00C01A3E
:1001F800524143088B4201D34B00C01A5241411A65
:1002080000D20146524110467047FFE701B5002071
:1002180000F006F802BDC0460029F7D076E770471F
:100228007047C0469E2110B5C905041C02F03CFA6F
:10023800002803D1201C00F00DFB10BD9E21201CBE
:10024800C90500F063F900F005FB80231B069C46F6
:100258006044F2E770B500220C4B04000D0002F078
:10026800E9F9002804D12000290002F083F870BDC4
:10027800064B00222000290001F0E0FC02F07AF889
:1002880080231B069C466044F1E7C0460000E0411D
:10029800F0B54F464646D64643025B0A4500C0B510
:1002A80099460F1C2D0EC60F002D00D188E0FF2D9A
:1002B80000D18DE08022DB00D2041A43002391464E
:1002C80098469A467F3D7C027B00640A1B0EFF0F0E
:1002D800002B68D0FF2B21D08022E400D2041443E5
:1002E80042467F3B5B1900215D1C0A2A2EDC7E40BA
:1002F8004246022A23DC013A012A00D9BDE002293C
:100308006ED001292CD100200022C005F607104329
:100318003043E0BCBA46B146A846F0BD2B00FF33D7
:10032800002C65D00322414611433200013588462E
:100338007A40FF350A2900DDD8E01600032140463F
:1003480001228240A620C000024220D05346022B40
:1003580046D0032B00D1BBE051464C460129D2D0F0
:100368002B007F33002B70DD620704D00F22224060
:10037800042A00D00434220103D5634B1C402B000F
:100388008033FE2B2CDCA201520AD8B2BDE79020A4
:100398008000024227D1B938FF3810426DD03E00A4
:1003A800A1468A46D2E7002C41D1012342461A438E
:1003B80090462B00424601215D1C0A2A97DDC5E7BD
:1003C800002B26D104239846033B00259A467AE75A
:1003D800002B18D108239846063BFF259A4672E75A
:1003E800FF20002291E780220026FF20D2038CE71D
:1003F80041460222013511438846FF350A29A5DC0A
:1004080002217E4074E70C239846093BFF259A4653
:1004180059E7180002F052F94A46431F76259A40D8
:1004280000236D42914698469A462D1A4BE72000C4
:1004380002F044F94246431F9C402B1A763B0021A8
:100448005D1C0A2A00DC52E780E70122D31A1B2B25
:1004580000DD58E79E352200AC40DA40631E9C411F
:100468002243530704D00F231340042B00D0043237
:10047800530137D50120002247E7210C4A462404BE
:10048800240C2700100C1204120C44435743484311
:1004980051433A0C09195218944203D98021490250
:1004A8008C4660443F0411043F0CC9198C01671E37
:1004B800BC41120C890E12180C439201144312010C
:1004C8000ED5012362081C40144349E73E00A146AB
:1004D80080224B46D2031A435202FF20520A14E7E5
:1004E8001D003DE792010020520A0EE70F29EDD1C9
:1004F80080224B46D2031342EAD01442E8D13E0090
:10050800FF20224301E7C046FFFFFFF7F8B5474643
:10051800CE464E0243024500720AC40F480080B519
:1005280094465F0A2D0E9B09000EC90FB609FF28D5
:1005380024D0012251402A1A8C420FD0002A00DC14
:100548006AE1002835D1002E00D1A2E0511E012A0F
:1005580000D124E1FF2A21D00A002FE0002A00DC84
:1005680067E100285ED0FF2D18D08021C9040E4312
:100578001B2A00DC76E02A00013332E02A00FF3A29
:100588009146002E42D08C4255D04A46002A00D1CE
:100598009CE0002D00D177E00C003300DB08002B35
:1005A80000D16EE08022D20313435B02FF205B0A76
:1005B80024E0FF2DF2D08021C9040E4301211B2A1B
:1005C80008DC31002020D140821A96403200501EAB
:1005D800824111435B1A5A0160D407212A0019404D
:1005E80057D00F211940042900D00433590150D5A0
:1005F800501CFE2A45D09B01C0B25B0AC0051843B7
:10060800E4072043C0BCB946B046F8BD01225140BA
:100618008C42BAD14A46002A10D0002D00D198E069
:100628000023BBE7002E34D0511E012A6ED0FF2ACA
:10063800B4D00A009CE7002A00D088E0FE206A1C9B
:10064800104200D092E0002D00D0A4E0002B00D191
:10065800CBE0002E00D0CAE00022DB085B025B0A78
:10066800D0B2CBE731002020D140821A9640320028
:10067800501E82410A439B185A01AED56A1CFE2DB2
:100688004AD1FF200023B9E7FF22002B4BD10C00F1
:100698003300DB08FF2A00D181E7DFE79F01BF09AC
:1006A800380002F00BF805388740854221DC3B0012
:1006B8002021421B0132D3408A1A97407A1E974163
:1006C80000223B43590700D08BE78FE7FE206A1CC6
:1006D800104212D1002D52D1002B7CD0002EBBD05D
:1006E8009A1B500100D48BE001240022F31A0C401D
:1006F800E8E7564B2A1A3B40E4E79F1B7A0146D4A9
:10070800002FCDD100240020002377E79B19012575
:100718000132590100D460E701214D4819405B08B6
:1007280003400B43CEE7571E012A5AD00C00FF2A7C
:1007380033D001221B2F07DC2021C91B1A008B4054
:10074800FA40591E8B411A430500B31A43E7002D9E
:1007580023D1FF22002B9BD0511E012AD6D0FF2A7D
:100768001BD01B292CDD0200731C3AE7FF2A88D016
:100778009B195B08590700D033E7DB086EE7002BAD
:1007880010D1002E43D0012433000C4006E7012489
:10079800F71A0C4084E7002B04D13300FEE601254C
:1007A8009B1B18E7002E00D1F8E68022D20397425F
:1007B80004D3944502D2012433000C40DB08F1E64F
:1007C8001A002025CA40691A8B40591E8B411343D1
:1007D80005009B1950E7002E94D0012433000C40EB
:1007E8003AE70C000125F31AF5E6330034E79B19C4
:1007F80000225901C1D5154A1340DB0801222DE713
:10080800002A00D17EE713000022DB0826E78023B8
:100818000024FF20DB03F1E6002A00D156E7471B3E
:100828003A00002D00D130E78022D2040C00134397
:100838007FE7002A00D101E7411B002D01D10A0002
:1008480088E78022D20413438BE7C046FFFFFFFBF3
:10085800FFFFFF7D41024200C30F490A0020120E2C
:100868007E2A03DD9D2A02DD094A981870478020F8
:1008780000040143952A07DC9620821AD140484299
:10088800002BF3D10800F1E7963A9140F7E7C0460C
:10089800FFFFFF7F70B5002813D0C317C5185D4050
:1008A800C40F280001F00AFF9E2301001B1A962B93
:1008B8000FDC082834D008398D406D026D0AD8B293
:1008C80002E0002400200025C0052843E407204357
:1008D80070BD992B16DC421F052800D095402A00D0
:1008E800114802406E0709D00F263540042D05D067
:1008F8000432550102D59F2302405B1A9201550A22
:10090800D8B2E1E70522121A2800D04002000800F8
:100918001B3085402800451EA84102431500DEE72C
:100928006D0296206D0ACFE7FFFFFFFB70B5041E2E
:100938000ED001F0C3FE9E2301001B1A962B0CDC7F
:1009480008282FD008398C406402640AD8B201E024
:1009580000200024C005204370BD992B16DC421FDF
:10096800052800D09440220010480240650709D0AD
:100978000F252C40042C05D00432540102D59F23A6
:1009880002405B1A9201540AD8B2E3E70200200041
:100998001B3290400200501E82410520401AC4407C
:1009A8001443E0E764029620640AD3E7FFFFFFFBE5
:1009B800F0B557464E464546DE46E0B583B0009052
:1009C80001910C034F00CE0F610A009C1D03640FB8
:1009D8000C43009900920193C80059004B0D9946A9
:1009E800009A019B6D0AD90F530F2B439A46009B1F
:1009F8007F0DDA0094464A46B046BA1A8E4200D1B4
:100A0800B0E0002A00DC78E04946002900D1E9E09E
:100A1800C9498F4200D195E10125382A16DC802189
:100A2800534609040B439A461F2A00DDE7E12021BB
:100A380055468B1A61469D40D1400D436146994009
:100A48004B1E99415346D3400D43E41A451BA84217
:100A580080414042241A230200D40FE16402640A50
:100A6800002C00D139E1200001F028FE0300083BEA
:100A780020212800CA1AD0409C4002009D402243F1
:100A88009F4200DD73E1D81B0130091A2C008D400C
:100A9800C4406B1E9D411300C2408B402543002774
:100AA80014001D436B0709D00F232B40042B05D0DE
:100AB8002B1DAB42AD416D4264191D00230200D4C9
:100AC8002DE19D4A0137974200D1D3E046469B4924
:100AD800ED0821404A072A437C054D022D0B640D81
:100AE80024052C43F60734431000210003B0F0BC62
:100AF800BB46B246A946A046F0BD002A00D184E014
:100B08004A46D21B002F00D06DE12500054300D1D5
:100B180027E1561E012A00D13BE2874DAA4200D1A7
:100B28006AE20125382E12DC32001F2A00DDF8E1C6
:100B380020262500B61A07005346B040D440B540D9
:100B4800D740461EB0411B1B9A463D4305436246AB
:100B5800551BAC459241534652420E004F468846BB
:100B68009C1A78E7002A00DC8EE04946002975D1F6
:100B780061465346194300D1F6E0511E012A00D1BF
:100B880091E16D4DAA4200D1DCE00125382914DC41
:100B98000A001F2A00DDA2E120215346891A8B4052
:100BA8001D006346D3401D4363468B4019004B1E0E
:100BB80099415346D3400D43E4182D18854280418E
:100BC80040422418230259D55B4B01379F4251D02C
:100BD80001215A4B6A081C4029400A43E50715437E
:100BE80064085FE761465346194300D1BCE0511ED3
:100BF800012A00D164E1504DAA4200D16AE10125E1
:100C0800382900DD22E70A000EE74D4A7D1C15420F
:100C180000D0D0E025006246534605431A43002F12
:100C280000D037E1002D00D1A8E1002A00D16AE107
:100C38006346C51A5346E21AA8429B415B42D31A3F
:100C48001A0200D403E263461D1AAC45924153468A
:100C580052421C1B0E008846A41A23E736498F42CD
:100C680070D00125382AA8DC8021534609040B439B
:100C78009A468EE73C000025002231E707232B40E7
:100C8800002B00D010E793E0002A74D04A46D21B0C
:100C9800002F00D1C7E02849894500D185E1012509
:100CA800382A12DC802109040C431F2A00DDABE13D
:100CB80020212500891A070088408D40D740411E11
:100CC8008841D4403D430543A2446544654592416B
:100CD8005242524414004F4674E7280001F0EEFCDB
:100CE800030018331F2B00DCC2E62A0008388240B4
:100CF8009F4200DDA9E0DB1B581C1F2800DCACE18B
:100D080015001F3BDD40202805D040231B1A9A40C0
:100D1800531E9A411543072300272B40B0E7ED08DF
:100D2800054B62072A43E4089F420FD02403250B92
:100D38007C05640DD4E6C046FF070000FFFF7FFF77
:100D4800FE070000C00862070243E40813002343BB
:100D580000D186E180252D0325432D03C34C2D0B9F
:100D6800BEE6604654460E001700C508D8E7C04CDA
:100D7800FF1A144096E6BF4A791C11426BD1220033
:100D88000243002F00D0DBE0002A00D12DE16246AB
:100D980053461A4300D1B6E06346C51885428041E0
:100DA800544440422418230202D50F00B04B1C4083
:100DB8003A002800D8E76246851AA842924153466D
:100DC80052429146E31A1A004B46D21A1300914632
:100DD8001A0254D44A464C462A4300D040E600261C
:100DE800002400257CE6A14DA94500D190E001250D
:100DF800382A00DDABE680252D042C4395E611004A
:100E080055462039CD40A946202A06D040215346D0
:100E18008A1A934062461A43944665466B1E9D4162
:100E28004B461D4312E62100014300D1C4E0511E88
:100E3800012A00D1FBE08D4DAA4200D1B5E0012581
:100E4800382900DD41E70A002FE7894CFF1A1440D2
:100E58006207E4086AE7854A914200D1E3E0634605
:100E6800C218824280412300404253441B18DD07C8
:100E78005C080723520815430F002B4000E7634620
:100E88001D1AAC459241534652421C1B0E0088461F
:100E9800A41AE5E5002D00D091E0002A38D180247D
:100EA8000026240356E76346C5188542804154440A
:100EB800404224180127230200D4DFE6022787E6F0
:100EC8006346C51AA842804153464042E41A0127A6
:100ED800241AC0E56207C0080243E40836E7110097
:100EE80053462039CB409946202A06D04021534604
:100EF8008A1A934062461A43944665466B1E9D4182
:100F08004B461D4359E66207C0080243E4080DE753
:100F180053465A076346D80853460E000243DC0876
:100F280014E715002600203DEE40202A03D0402576
:100F3800AA1A94402043421E90410500354306E614
:100F4800002A7CD062465346C0081A4300D1FAE60C
:100F5800620710438022E4081203144208D0D9081B
:100F6800114205D16346D80853460C005B07184365
:100F7800420FC000C00852070243E7E6002A00D12A
:100F88002DE76346D80853465A070E000243DC088B
:100F9800CCE663461D1AAC459241534652421C1B8F
:100FA8000E008846A41A013755E56346D90853460A
:100FB8005A070A43DC08C9E660465446D4E6C00826
:100FC800002A00D1BFE6620710438022E40812031A
:100FD8001442CDD0DD081542CAD16346D80853461D
:100FE8005B070E002C001843C2E76346D908534636
:100FF8005A070A43DC0899E66346D80853465A0755
:101008000E000243DC08A1E6110027002039CF407A
:10101800202A03D040218A1A94402043421E90413E
:1010280005003D4351E60C000025002258E56044C8
:1010380060459241544452420500A4183AE7534689
:101048005A076346D90853460A43DC087EE61A0065
:101058001C002A4300D0ABE6C1E620210025091A6E
:1010680019E500220025014C3AE5C046FF070000BB
:10107800FFFF7FFFFE070000F0B5DE4645465746F6
:101088004E46E0B587B0009201930B031B0B9B46BD
:10109800CA0F4B00040080465B0D029200D16AE142
:1010A800D44A934200D18CE15946420FC9000A4301
:1010B800802109041143C2009046CF4A89469246CE
:1010C8009A44002300240393009E019F3B031B0BBB
:1010D8009B467B0030005B0DFD0F002B00D128E103
:1010E800C44A934200D177E15946720FC9000A43B6
:1010F8008021090411438B46BF49F2008C465146B2
:101108006344CB1A9A460023029E6E400F2C27D8C0
:10111800BA49A40009598F46CB464246029E039B12
:10112800022B16D0032B00D1A6E2012B00D0DFE062
:1011380000220023002490461B052343F60733436F
:101148004046190007B0F0BCBB46B246A946A046C7
:10115800F0BD002200249046A64BEDE72E00DFE705
:10116800CB4500D2D4E100D1CFE101235B429C46BC
:10117800444648460027E2445B46150E1B021D43C1
:10118800190C2B04120200951D0C9146029103952F
:10119800FFF742F802006A430B04210C804619430A
:1011A8008A4209D9009D0123AC465B4261449C46B2
:1011B800E0448D4200D8FBE1881A0299FFF72CF829
:1011C800039A240442430904240C03000C43A2425A
:1011D80006D90099013B8C466444A14200D8E1E15C
:1011E800A01A424612041A4393464B4659461B0C12
:1011F8001D0004930B0449460904090C0C001B0C40
:101208005C43120C6B43884651436A43250CAC4639
:101218005B186344994203D9802149028C46624491
:10122800190C24041B04240C8A181C19904202D39C
:1012380016D1A74214D25B46009D013B4F4405934B
:101248004F459B41AC465B426344C018854200D37E
:10125800A1E1824200D9F6E100D1F1E1059B9B466C
:101268003C1BA742BF41009D801A7F42C01B85429C
:1012780000D1D0E10299FEF7CFFF039A0B04424355
:10128800210C070019438A4200D978E1881A02998B
:10129800FEF7C2FF039A240442430904240C030006
:1012A8000C43A24200D95DE14146A41A3A041A430C
:1012B800049D13041B0C594347466B439C46100C72
:1012C80047430B0CBC44634468439F4203D98025C1
:1012D8006D02AC4660441F0C09041B04090C3F183E
:1012E8005B18BC4200D202E100D1FDE001231A43A1
:1012F800434B5344002B00DCAEE0510700D098E18B
:101308005946C90106D559463E4B194080238B469C
:10131800DB0053443C498B4200DD1AE75946D208AA
:10132800490711435A465B0554028846240B5B0D56
:1013380002E75A46009B1A4300D17EE05B46002B29
:1013480000D100E1584601F0B9F9020003000B3A58
:101358001D27009EBA1A19005846D64008398840F9
:10136800320002439346009A8A40284953448A46E9
:101378009A440023C8E65B460343994656D05B4629
:10138800002B00D1CDE0584601F098F90B235B42C1
:101398009C460200844466461D239B1B26001100C0
:1013A8005846DE40083988403300034399462300F5
:1013B8008B409846164B00249B1A9A4600230393A9
:1013C80082E65A46024391462AD100229A460223CF
:1013D80090460824039377E65A46009B1A430D4B20
:1013E8009C46E244002A17D102231C4300239B4653
:1013F800023389E6FF07000001FCFFFFD87D0008E3
:10140800FF030000FFFFFFFEFE070000F3030000DC
:101418000DFCFFFF01F8FFFF032332001C4373E6B6
:101428009A460323D9460C2403934DE60023984695
:101438009A4601330424039346E601231C43002300
:101448009B46013360E60023802498460026924B91
:10145800240371E6012252420121C91A382900DD0C
:1014680066E61F2900DCABE01F204042C31A58463D
:10147800D8400300202904D0584688495144884060
:101488000243511E8A411A430723190000241140C0
:1014980013420CD00F231340042B00D1F9E0111D87
:1014A80091429B410A005B4259075B021C0BD20820
:1014B8000A43904600233FE680244B4624032342F8
:1014C80009D05B46234206D11C4324032E009046D4
:1014D800714B240B30E680244B4624031C43240321
:1014E800029E6D4B240B27E6002B00D100E70098E5
:1014F800511E84466444844200D284E0BC4200D237
:10150800AEE000D1C1E00A00F0E6424500D92CE681
:101518004B46DC07580843465B081C434346DF0735
:101528002AE601F0CBF815239C4684440200634662
:1015380020321C2B00DC2EE7230008388340994614
:101548000023984636E701F0B9F802000300153287
:1015580020331C2A00DCFBE6009908388140002271
:101568008B4602E70099013B8C466444A14200D9AE
:101578009AE6A24200D897E6831E644494E6AC46F5
:101588006144013F8D4200D980E68A4200D87DE659
:10159800871E61447AE6854200D05FE6B94500D9E6
:1015A8005CE656E6A24200D81AE6831E644417E6B3
:1015B8008A4200D800E6AC46831E98466144FBE5A3
:1015C80037481400504482405B4617008340CC40A3
:1015D8007A1E974123433B431A005B46CB40510791
:1015E80009D00F211140042905D0111D91429241C3
:1015F80052429B180A00190200D455E70022012321
:101608000024904698E50A00BC4200D06EE64B459F
:1016180000D06BE66CE6234B234A5344924500DA2C
:1016280018E7012149420A1D8A42894149428B44EF
:1016380066E60F211140042900D161E61100F2E7A6
:10164800BC4200D80AE602235B429C4600994F44FC
:101658004F459B41E3448C465B426344C018FFE519
:101668004946009D480048458941AC464942614485
:101678008146023A6418C7E780245B4624031C436A
:1016880024039046044B240B56E59945E8D30A00F9
:10169800BDE7002308E7C046FF0700003E0400003E
:1016A8001E040000FF03000002FCFFFFF0B55746D0
:1016B800DE464E464546E0B51F000B031B0B1600E1
:1016C8009A46CA0F4B000400934687B05B0D00D1C1
:1016D800D5E0BB4A934200D1F8E05146420FC90019
:1016E8000A43802109041143C2009146B54A8A463B
:1016F8009D180023984602933C037B00FA0F3000A4
:10170800240B5B0D009200D196E0AD4A934231D094
:10171800720FE4002243802424041443A94AF000F1
:10172800944663445B195A1C0192424600260A2AD1
:1017380042DC5A4600994A4093464246022A32DC25
:10174800013A012A00D949E1022E00D1CAE0012E4E
:101758003DD100230024002210005A461B052343D4
:10176800D2071343190007B0F0BCBB46B246A946DE
:10177800A046F0BD924B2643EB18002E00D1BBE0EB
:101788000322414611435A46884600994A4080211F
:1017980009018C4629006144019141460A2900DD6E
:1017A80033E293460326424601279740A6213A0092
:1017B800C9000A400F4231D0029E022E00D135E204
:1017C800032E00D1D2E154464846012EC1D0019AD9
:1017D8007D4B94466344002B00DCC0E0420709D0EF
:1017E8000F220240042A05D0021D82428041404255
:1017F80024181000E20106D5744B019A1C4080237E
:101808009446DB006344724A93426BDC6207C0086B
:1018180064025B050243240B5B0D9DE79021890060
:101828000F4263D188223A4200D1D7E0009BA246FA
:101838009B4681460296BFE72300334300D17FE0F1
:10184800002C00D1ADE1200000F038FF02000300B9
:101858000B3A1D201900821A30000839D0408C40FC
:101868000443300088405B4AEB1A944663445A1C90
:101878000192424600260A2A00DC5AE79CE75346B2
:101888000343994654D05346002B00D177E1504684
:1018980000F014FF0B235B429C46020084441100B5
:1018A8005046083988401D23804660461B1A200090
:1018B800D8400300404603439A4623008B4099468C
:1018C8000023444D9846AD1A029315E75246024349
:1018D800914626D100221D000223924608329046E6
:1018E800029309E700240022354B35E700238024C2
:1018F8009B462403324B2FE70222414611438022A4
:10190800120194462A006244884601920A2900DDA1
:1019180052E75A460020009904004A40934602269E
:101928000BE70C221D000323814690460293E3E651
:1019380000239A4604339846033B00250293DBE6CE
:10194800424601331A432B0090465A1C01924246E4
:101958000024002001260A2A00DCEAE62CE70122FE
:10196800D21A382A00DDF4E61F2A00DC2AE11F21FA
:101978004942CB1A2100D9400B00202A05D0164A2B
:10198800019D94466544AC402043421E9041184353
:10199800072319000024014003420CD00F23034001
:1019A800042B00D140E1031D8342A4411800644286
:1019B80061076402240BC20800230A43CCE6C04630
:1019C800FF07000001FCFFFFFF030000FFFFFFFE11
:1019D800FE0700000DFCFFFF3E04000049464A4692
:1019E8000904090C0D00160C020C0004000C4543F8
:1019F800AC4605007543A84615000F0075430092D4
:101A080002952A00009D6F4365462D0CA946474460
:101A18004F44B84505D915008022520290464544E6
:101A280002953D0C039565462D043F042D0CAC46EC
:101A38003D0065440495250C2404240CAC4625007F
:101A48007543A84665460F00694341448946674384
:101A5800390C49446E43884503D980225202904686
:101A680046440D0CA846350045440595039D3F04A2
:101A7800A8463F0C0904C9198844454603955546AC
:101A88002E04360C2F0C3500454378438146380028
:101A9800A8462D0CAA46009A504372434A44524421
:101AA800914503D980256D02A9464844150CA946DD
:101AB80045462D042D0CA84665467D43120448442E
:101AC8009044A9463200654662436E437C43170C36
:101AD8003619BF19BC4203D980246402A446E144E4
:101AE800029C039EA446059D66448E428941AC46ED
:101AF80012043C04120CA218624449425418464489
:101B0800A4464645A44182466442A046AA42924160
:101B18008C458941E244D044494252420A43A04597
:101B2800A44182458941644249420C4341463F0CE5
:101B3800D2191219CC0D049970020843411E88412C
:101B480041464A44F60D52023043490214430843C1
:101B5800D20135D50122430802401343E007184358
:101B6800640834E6009BA2469B468146802453467F
:101B780024031C4324034A462E4B240BECE500F0B7
:101B88009DFD15239C4684440200634620321C2B8D
:101B980000DC84E6002399462300083883409A46EF
:101BA8008EE600F08BFD02000300153220331C2A5C
:101BB80000DC4EE602003400083A0020944052E669
:101BC800019304E61C4B21009C460300019DD34071
:101BD8006544A94019430300AB40581E834119438B
:101BE8000800D4404B0709D00F230B40042B05D025
:101BF8000B1D8B428041404224181800230200D458
:101C0800D6E6012300240022A6E50F29AAD18023C5
:101C180052461B031A42A9D01C42A7D11C43009B61
:101C280002009B46034B97E50024C1E60024014BC4
:101C3800220091E5FF0700001E040000F0B54E46A3
:101C48004546DE465746E0B585B0009001910C0345
:101C58004F00CE0F610A009CB046640F0C430099F8
:101C68007F0DC80011001A001B039C4600910192C9
:101C780051004B0D9946019B009DD90F63466A0F91
:101C88005B0A1343EA0094469346C14A03900293C1
:101C9800914500D1CDE0012569404D467D1BAA46FE
:101CA8008E4200D180E0002D00DC35E34946002952
:101CB80000D1DFE0974200D194E152460125382A4D
:101CC80019DC8022029B12041343029352461F2AF6
:101CD80000DDE3E1534620226146029DD21A954079
:101CE800D9400D43614691400A00511E8A4115436F
:101CF800029ADA40A41A451BA84280414042241A9D
:101D0800230200D43DE16402640A002C00D147E1BB
:101D1800200000F0D3FC0300083B20212800CA1A49
:101D2800D0409C4002009D4022439F4200DD77E165
:101D3800D81B0130091A2C008D40C4406B1E9D41F0
:101D48001300C2408B402543002714001D436B0736
:101D580009D00F232B40042B05D02B1DAB42AD41DE
:101D68006D4264191D00230200D440E1884A0137FE
:101D7800974200D101E1012643468649ED082140FA
:101D88004A072A437C054D022D0B640D1E4024058D
:101D98002C43F60734431000210005B0F0BCBB46C5
:101DA800B246A946A046F0BD002D00DCD0E2494667
:101DB800002900D0D4E06146029B194300D12BE1F1
:101DC800691E012D00D1D9E1954200D10AE1012512
:101DD800382917DC8A4653461F2B00DDE7E120220D
:101DE800D21A029B614693401D005346D940634670
:101DF80093401A000D43511E8A4153461543029AD7
:101E0800DA40A4182D188542804140422418230244
:101E180000D4B6E05E4B01379F4200D1ADE001210E
:101E28005C4B6A081C4029400A43E50715436408CF
:101E38008DE7594A029B92466246BA441A432CD00F
:101E48008E422ED05246002A60D0002F00D1DBE00F
:101E580063460E00029CD80862070243E408130098
:101E6800234300D154E280252D0325432D03484CFC
:101E78002D0B8CE76146029B194300D1CCE0290069
:101E88000139012D00D188E1954200D1AAE0012550
:101E9800382900DD2FE78A4618E7012251408E4293
:101EA800D0D15346002B00D1BEE0002F00D038E13E
:101EB800CA462200024300D1E2E15346591E012BD3
:101EC80000D10DE2324A924500D1D2E101273829EA
:101ED80013DC1F2900DDEEE12022029B521A2500A7
:101EE80007009A46CC4090409540CF40A244421EFD
:101EF800904153462F43074302933D00654465458F
:101F08009241029B52424F46D41880E7234A7D1CD7
:101F1800154200D0AAE062462500029B05431A43F9
:101F2800002F00D0F5E0002D00D16BE1002A00D190
:101F380052E16346C51A029BE21AA8429B415B42E2
:101F4800D31A1A0200D4D5E163461D1AAC45924152
:101F58000126029B52421C1B8846A41A0E40F6E634
:101F680097423FD052460125382A00DD4AE78022B1
:101F7800029B1204134302932DE73C000025002224
:101F880005E707232B40002B00D0E2E66BE0C046B4
:101F9800FF070000FFFF7FFF01F8FFFFFE070000BB
:101FA800280000F08BFB030018331F2B00DCB4E67D
:101FB8002A00083882409F4200DDB9E0DB1B581C2C
:101FC8001F2800DCA0E115001F3BDD40202805D0BC
:101FD80040231B1A9A40531E9A4115430723002792
:101FE8002B40D0E7C00862070243E40837E7EA0855
:101FF80063071A43D34BE4089F4200D12FE7240319
:10200800250B7C05640DC2E6CA462200024358D15E
:1020180063460E00029C0393039B5746DA08E7E7E2
:10202800C94CFF1A144092E6C84D7A1C2A4200D0C7
:1020380084E022000243002F00D0EFE0002A00D104
:10204800E5E0624602990A4300D1C5E06346C51837
:102058008C4685428041644440422418230202D5BC
:10206800B94B01371C40BA460395D5E76246851A35
:10207800A842924152429146029BE31A1A004B46EB
:10208800D21A130091461A026CD44A464C462A4387
:1020980000D03AE600260024002578E60299534647
:1020A8000D00203AD540202B06D04022D21A0B0032
:1020B800934062461A4393465B465A1E93411D431A
:1020C80019E653465A1E012B00D1C6E09D4EB24573
:1020D80000D1BDE688460E000125382A10DC1F2AEB
:1020E8007FDC20212500891A070088408D40D740D1
:1020F800D440411E8841029B3D431B1B054302936C
:102108006246551BAC459241029B52424F469C1A6F
:10211800F6E5002D00D0B7E0002A00D1F0E0012656
:102128000E4063460298D90842070A43C40896E657
:10213800854CFF1A14406207E40860E781498A4227
:1021480000D1C9E06346C11881428041029B4042E8
:10215800E3181B18DD075C08072349080D4317001F
:102168002B4010E763461D1AAC4592410126029B9D
:1021780052421C1B8846A41A0E40C6E56346C51881
:10218800029B854280419C464042644424180127B2
:10219800230200D4F5E6022741E66346C51AA842A1
:1021A8008041029B4042E41A0127241AA8E5029DB7
:1021B80052462B00203AD34019005346202B06D014
:1021C8004022D21A2B00934062461A4393465D463A
:1021D8006B1E9D410D4315E66207C0080243E408E3
:1021E8000DE7110027002039CF40202A05D04021D3
:1021F8008A1A9440250005430395039D6A1E95415C
:102208003D437DE7002A00D144E701260E4063469E
:10221800D908029B5A070A43DC08F0E6002A28D0AE
:102228006246029FC0083A4300D1DCE662071043C9
:102238008022E4081203144209D0FD08154206D191
:10224800634601262C00D8087B0718430E40420F2E
:10225800C000C0085207024301E663461D1AAC4598
:102268009241029B52421C1B0E0088460127A41A69
:1022780046E56346D908029B5A070A43DC08EEE59F
:102288006346029C0393C7E6C008002A00D1AAE669
:10229800620710438022E40812031442D7D0029F39
:1022A800FD081542D3D163460126D8087B072C00C8
:1022B80018430E40CBE70A002700203AD7402029D0
:1022C80005D04022521A9440250005430395039DEA
:1022D8006A1E95412F4310E614000025002256E59A
:1022E800029B60449946604592414C445242050025
:1022F800A4184CE71A001C002A4300D0B3E6C9E62C
:10230800802400262403AEE520210025091A17E5BC
:10231800002200250B4C3AE5002D00D1F6E54B468E
:10232800DA1B9246002F00D16FE6382A05DC80269A
:102338003604344388460E00D1E688460E0001254F
:10234800DEE6C046FF070000FFFF7FFFFE07000034
:10235800002D00D168E64B46D91B002F01D18A46D3
:10236800A7E50127382900DDC7E5802212041443B8
:10237800AFE5C0460B00020070B5164D0C0382B0E5
:102388004900002000920193240B490DDE0FA94259
:1023980004DD1148814203DD104BF01802B070BD16
:1023A8008020400320430E4C641A1F2C08DD0D4B7F
:1023B8005B1AD84003005842002EEFD11800EDE711
:1023C800094B009A9C46030061448B40E24013434A
:1023D800F1E7C046FE0300001D040000FFFFFF7F79
:1023E8003304000013040000EDFBFFFF10B5041ECA
:1023F80010D000F063F90E4B1B1A5B055B0D0A2821
:102408000FDC0B222100121AD14015300A03844038
:10241800120B01E0002300221B05134320001900C2
:1024280010BD22000B38824012030024120BF3E780
:102438001E04000070B542024300C40FFE201B0EAC
:10244800591C550A08420CD0E02189008C466D07BA
:10245800120B63441B051343E407234328001900A8
:1024680070BD002B14D1002D1BD0280000F026F9D8
:102478000A281CDC0B232A001B1ADA400300153338
:102488009D400E4B12031B1A5B05120B5B0DE1E717
:10249800002D09D0130B802212031A436D07084B35
:1024A800D8E700230022D5E70022054BD2E7030036
:1024B8002A000B3B9A400025E3E7C0468903000049
:1024C800FF070000F0B54B000F035B0D3B4C450FB9
:1024D80083B07F0A5E1C2F4300900191CA0FC5008C
:1024E80026420BD036495C18FE2C13DDFF20002352
:1024F800C0051843D207104303B0F0BD002B02D12A
:1025080000200023F4E73D43F0D08023DB03FF20C5
:102518003B43EDE7002C14DD009BFF009B01581E98
:102528008341690F3B430B43590741D00F211940A1
:10253800042928D00433590125D501340023E0B2F9
:10254800D6E721001731DBDB80211E20090439433F
:10255800001B1F281BDD02267642341B0E00E640B6
:102568003400202804D017488446634499400D431A
:102578002B00591E8B412343590715D00F210024E6
:102588001940042917D19B015B0AE0B2B0E70E4C51
:102598001C192B00A540C340A140681E8541294352
:1025A8000B4300245907C1D19B0100205B0A9FE718
:1025B800DB08E0B29CE70433E5E7C046FE0700000D
:1025C80080FCFFFFA2FCFFFF82FCFFFF8446100097
:1025D80062468C461900634600E0C0461FB500F00D
:1025E80009FA002801D40021C8421FBD10B500F027
:1025F80049F94042013010BD10B500F0FBF9002840
:1026080001DB002010BD012010BDC04610B500F050
:10261800F1F9002801DD002010BD012010BDC046E1
:1026280010B500F073F9002801DC002010BD01206E
:1026380010BDC04610B500F069F9002801DA002085
:1026480010BD012010BDC046844608006146FFE762
:102658001FB500F0C9F8002801D40021C8421FBDE9
:1026680010B500F049F84042013010BD10B500F037
:10267800BBF8002801DB002010BD012010BDC046BA
:1026880010B500F0B1F8002801DD002010BD0120D0
:1026980010BDC04610B500F057F8002801DC002036
:1026A80010BD012010BDC04610B500F04DF800283F
:1026B80001DA002010BD012010BDC0461C210123F5
:1026C8001B04984201D3000C10391B0A984201D30D
:1026D800000A08391B09984201D30009043902A2EB
:1026E800105C40187047C046040302020101010152
:1026F800000000000000000070B542004E024C00CF
:1027080045026D0A120EC30F760A240EC90FFF2A5E
:1027180010D0FF2C0CD00120A2420AD1B54208D11A
:102728008B420FD0002A04D12800431E984100E0B4
:10273800012070BD0120FF2CFBD13543F9D14B405E
:102748001800F6E70020F4E730B5420044024D02D5
:10275800C30F4800640A120E6D0A000EC90FFF2A43
:1027680019D0FF280BD0002A1ED100280BD1002D2C
:1027780027D0002C34D100292FD0080030BD002DDF
:1027880028D1002A01D1002CF5D08B4207D1002B8B
:1027980023D01800F2E7002C1CD1FF2814D0581EB3
:1027A800022318400138E9E70028F8D08B42F6D117
:1027B8008242F4DCEBDBAC42F1D80020AC42DDD243
:1027C800E5E7002CDAD0EAE7002D03D18B42E6D109
:1027D8000020D3E702204042D0E701204042CDE765
:1027E8008B42E8D0DBE7C04630B5420044024D02D8
:1027F800C30F4800640A120E6D0A000EC90FFF2AA3
:102808001AD0FF280ED0002A1ED100280ED1002D84
:102818002AD0002C0CD08B421DD0581E0223184001
:10282800013810E0002D0DD1002A20D1002C1ED136
:10283800002923D0080006E0002C03D1FF28ECD1A2
:10284800002D17D0022030BD0028E6D08B42E4D1FD
:102858008242E2DC04DBAC42DFD80020AC42F2D298
:10286800002B0BD01800EEE7002CECD0D5E78B42FC
:10287800D3D1F5E700208B42E5D0CEE701204042D6
:10288800E1E7C046F0B55746DE464E464546E0B558
:102898000D000400E80F83460903D80F090B824690
:1028A80019488C461F0369005E00490D3F0B760DE1
:1028B800814218D086420FD00120B1420DD1BC45CB
:1028C8000BD1944209D1D3451CD0002905D16046CB
:1028D8002043431E984100E00120F0BCBB46B246AD
:1028E800A946A046F0BD01208E42F6D16146394383
:1028F8000F0017432743F0D15B465246981A431EF0
:102908009841EAE70020E8E7FF070000F0B55746DE
:102918004E464546DE46E0B50D000F03390B83B041
:102928000400804601915800E90F314F400D8C4654
:102938006E00190382469146760D090BD80FBE42E8
:102948001FD0BA450FD0002E2FD15546019E3443D3
:10295800002D27D10A433AD0002C45D100281AD19E
:102968000120404217E011433BD1002E02D1019FC4
:102978002743F3D0844509D16346002BF0D0604645
:1029880009E0019F27432CD1B24524D06346022099
:10299800013B1840013803B0F0BCBB46B246A9461B
:1029A800A046F0BD002CD9D0E4E75446002CEDD069
:1029B8008445EBD15645E9DCDEDB019B8B42E5D84B
:1029C800DAD1C845E2D80020C845E4D2D4E70020CF
:1029D800002CE0D0DAE7114303D18445D6D100209A
:1029E800D9E702204042D6E78445E6D0CEE7C04684
:1029F800FF070000F0B557464E464546DE46E0B5AF
:102A08000D000F0304008046E80F390B844683B09D
:102A18005800304F400D01911E03690082469146CF
:102A2800490D360BD80FB94220D0BA450FD000292E
:102A38002BD101990C435146002937D1324338D064
:102A4800002C44D1002819D10120404216E0164339
:102A580013D1002902D1019F2743F3D0844520D008
:102A680063460220013B1840013807E0019F2743D5
:102A780003D18A45F4D116431FD0022003B0F0BC1D
:102A8800BB46B246A946A046F0BD5446002CE7D046
:102A98008445E5D15145E3DC03DB019BB342DFD834
:102AA8000FD06346002BCFD06046E7E7002CC9D093
:102AB800D4E70020002CE1D0D2E78445D0D1002013
:102AC800DCE7C845CCD80020C845D7D2E9E784451B
:102AD800E3D0C5E7FF07000070B50400A02000227E
:102AE8000221C00502F014F80122044D2000044917
:102AF8002C602A7105F0A0F8287170BD64000020D0
:102B0800690000200022054B0549DA84CA771900BC
:102B1800473328310A701A707047C0466400002095
:102B28006900002010B5FFF7EDFFA0200022022168
:102B3800C00501F0EDFF10BD0A4B026810B59A42BE
:102B48000FD10949094CCB7F6079E21801339071A4
:102B5800CB77012200232068E384227105F06CF80A
:102B6800207110BD0044004069000020640000206E
:102B7800084B026810B59A420BD11E220021064864
:102B880005F0E4F81E220021044805F0DFF8FFF7FD
:102B9800C9FF10BD004400406A0000208D000020DD
:102BA800F8B5194A0124137A083B1900D8B2214014
:102BB800234219D1052817D9E040160014000B004C
:102BC8000D00377A0133DBB23D4302368342F8D138
:102BD8000133DBB25B00D618B679AE4206D01E22AE
:102BE80000210A4805F0B2F800200CE00025667ABA
:102BF8000135EDB231430234A842F8D1D218D37965
:102C080001208B42EBD1F8BD640000206A0000204F
:102C1800F8B50500140081422FD9091A88B2FDF7CA
:102C280085FEFFF707FC00222D4BFEF73FFD06004F
:102C380028000F00FDF77AFEFFF7FCFB02000B00EF
:102C480030003900FEF718FAFFF73CFC051C20009D
:102C5800FDF76CFE011C281CFDF71AFBFFF7EAFBC9
:102C68001F4B0022FEF708FAFDF7F4FA1D4B241853
:102C78009C4200D91C002000F8BD8142FBD2411AB9
:102C880088B2FDF753FEFFF7D5FB0022144BFEF781
:102C98000DFD060028000F00FDF748FEFFF7CAFBF0
:102CA80002000B0030003900FEF7E6F9FFF70AFCD6
:102CB800051C2000FDF73AFE011C281CFDF7E8FA68
:102CC800FDF7B0FAFFF792FB0022054BFEF7D4F9A7
:102CD800FDF7C0FA844201D0241ACCE70024CAE7E1
:102CE800000059409CFF6300642110B5264B1A7CF4
:102CF800587C4A431B7B8018802B07D1234C244BDC
:102D0800A2689988FFF784FFA06010BD102B22D01D
:102D18000DD8042B2FD0082B25D0022BF5D11B4C16
:102D28001B4B226A198AFFF773FF2062EDE7202BFD
:102D380009D0402BE9D1154C154BE268D988FFF72B
:102D480067FFE060E1E7114C114B22691989FFF731
:102D58005FFF2061D9E70D4C0D4B62695989FFF778
:102D680057FF6061D1E7094C094BA2699989FFF7C0
:102D78004FFFA061C9E7054C054BE269D989FFF708
:102D880047FFE061C1E7C0466400002080010020E1
:102D9800D0010020F8B5784CE57A102D53D1774A48
:102DA800637AE28018222272A27AE5726272744A09
:102DB800A3721278734B22731A00353212780233D9
:102DC8002A4362739A8EE2811A8F52BA22825A8FEC
:102DD80052BA62829A8FDB8F52BA5BBAE3826A4B2D
:102DE800A282A361694BA383002225002000110061
:102DF800237A083BDBB25B0802309A4200D0B1E08C
:102E08005A1C5200A018817100210800023599420D
:102E180000D0ACE0A218D071277A5D4E5D4D3A0023
:102E28003100280004F07FFF3A000021300004F050
:102E38008DFFFFF767FE23002B3329001A782068DF
:102E480003F0F2FFF8BD202D46D1534B4D4D1B78B2
:102E5800DB071CD5002000F01DFA002000F032FA34
:102E6800002000F049FA002000F05EFA002000F08F
:102E780073FA002000F088FA002000F09DFA002084
:102E880000F0B2FA002000F0C9FA00F04DFC290069
:102E980034310B78207B627A03430B70617B280006
:102EA80007230E0035309E43037833430370EB8EBF
:102EB800E0890343EB86314BE38010232372A37A26
:102EC800A27263722023E3720F3B0B4363732E4B92
:102ED80023612E4BA38287E7302D11D1274A637ACD
:102EE800E28010222272A27AA37203236272627BAA
:102EF8002373023B13436373284BE572E381E6E7D0
:102F0800402D17D101232449607A0A78E5721A43C3
:102F18000A704121227B8A4319490A70174AE280C4
:102F280010222272A27AA0726272627B13436373C8
:102F38000023E3E7502D00D056E7667AFFF7D4FE6A
:102F48000E4B627BE38012232372A37AE5726372CD
:102F58000123134363730023E3816382104BA6723A
:102F6800636141E786790132D2B2314344E7EE79B1
:102F780001313043C9B249E764000020AA99FFFF34
:102F880004020020D0010020000099AA0D0A0000C8
:102F98006A0000208D0000200002002004E8FFFFE6
:102FA80099AA0D0A10B5FFF7FBFD002808D0064ABC
:102FB800064B927A5B799A4202D1FFF7EBFE10BD7D
:102FC800FFF7B0FDFBE7C046640000208001002049
:102FD80070B5384C384B220028321278DB7F002A33
:102FE8005CD1A279AA2A53D1002B53D0E279992A2D
:102FF8004BD1012B09D1E38CC72B57D9283423781F
:10300800002B4AD1FFF78EFD47E0217A4A1ED0B245
:103018001D2837D8022BEED06518AD78C81E992D1B
:103028002DD18342E7DB201880798D1EAA2823D171
:10303800AB42E0DB6519A8790D281AD19342DADB97
:10304800A21892790A2A0FD19942D4D82300A02035
:103058002833093A0221C0051A7001F059FD631D91
:10306800DB7F002BC7D115E09942C4D8FFF75AFD82
:10307800F5E79342BFDBF9E7AB42BCDBF6E78342F7
:10308800B9DBF3E7022BB6D0F0E7012BB3D0EDE7BD
:10309800002BEBD1E38CC72BB0D870BD2200473290
:1030A8001378042BDBD801331370D8E70133E3849A
:1030B800F0E7C046640000206900002010B50B4C02
:1030C8002379002B05D001220949206804F0B4FDBA
:1030D8002071230028331B78012B05D1473423782E
:1030E800042B01D9FFF75EFF10BDC0466400002025
:1030F80069000020F7B50E001400050001F066FB1A
:103108000223124801A90360DB1843601B33836064
:103118001E3BC360002701F0FFFBB8420BD001F053
:1031280067FBFEBDF31801201A685B6801F09EFB7F
:10313800002808D10137FB00E918BC42F2DC01F095
:10314800C9FB0020EDE701F0C5FBE8E7AC00002073
:10315800030070B51C685D681E1A013A8E1992B298
:10316800346075600833002AF4D170BD01228021D3
:1031780010B59140044801F0CBFC0121034A1378B3
:103188008B43137010BDC046000400500802002095
:103198008021012210B58900044801F0B9FC022100
:1031A800034A13788B43137010BDC04600040050C7
:1031B800080200200122802110B5044801F0A8FC73
:1031C8000421034A13788B43137010BD0004005088
:1031D800080200200122402110B5044801F098FCA3
:1031E8000821034A13788B43137010BD0004005064
:1031F800080200200122202110B5044801F088FCB3
:103208001021034A13788B43137010BD000400503B
:10321800080200200122102110B5044801F078FCB2
:103228002021034A13788B43137010BD000400500B
:10323800080200200122082110B5044801F068FCAA
:103248004021034A13788B43137010BD00040050CB
:10325800080200200122082110B5044801F058FC9A
:103268007F21034A13780B40137010BD000C0050E7
:10327800080200200122042110B5044801F048FC8E
:103288000121034A53788B43537010BD000C005042
:103298000802002010B5041E02D0012803D010BD7A
:1032A800FFF764FFFBE7802100220448490001F092
:1032B8002FFC034B1A7814431C70F0E700040050ED
:1032C8000802002010B5002802D0012803D010BD44
:1032D800FFF75EFFFBE7802100228900044801F028
:1032E80017FC0223034A11780B431370EFE7C0461B
:1032F800000400500802002010B5002802D0012860
:1033080003D010BDFFF756FFFBE7002280210448D9
:1033180001F0FEFB0423034A11780B431370F0E716
:10332800000400500802002010B5002802D001282F
:1033380003D010BDFFF74EFFFBE7002240210448F1
:1033480001F0E6FB0823034A11780B431370F0E7FA
:10335800000400500802002010B5002802D00128FF
:1033680003D010BDFFF746FFFBE7002220210448E9
:1033780001F0CEFB1023034A11780B431370F0E7DA
:10338800000400500802002010B5002802D00128CF
:1033980003D010BDFFF73EFFFBE7002210210448D1
:1033A80001F0B6FB2023034A11780B431370F0E7B2
:1033B800000400500802002010B5002802D001289F
:1033C80003D010BDFFF736FFFBE7002208210448B1
:1033D80001F09EFB4023034A11780B431370F0E77A
:1033E800000400500802002010B5002802D001286F
:1033F80003D010BDFFF72EFFFBE700220821054888
:1034080001F086FB8023044A5B4211780B4313705A
:10341800EFE7C046000C00500802002010B5041E5B
:1034280002D0012803D010BDFFF724FFFBE70022DC
:103438000421044801F06CFB034B5A7814435C7078
:10344800F1E7C046000C005008020020F7B52C4DEB
:103458002C4C696A2A6AE069002905D1904203D98F
:103468000120FFF7DBFF0AE0A6698319002907D1CD
:10347800934205D9FFF7FEFE0120FFF7B5FFF7BD20
:1034880067690197DB190027BC468F4207D1934231
:1034980005D9FFF7DFFE0120FFF78EFFEFE7C3181E
:1034A8008C4504D1934202D9FFF7C4FED8E7002720
:1034B800F318BC468F4201D19342DBD8019FFF1815
:1034C8008C4501D19742E4D80023C0198B4201D121
:1034D8009042E9D836188B4201D19642CAD8FFF7F4
:1034E800C9FEFFF7A7FEFFF7B5FE7F223534237824
:1034F80013402370002200232A626B62BFE7C04694
:10350800C0000020D001002070B5224B224A1E784E
:103518001B785BB2002B08DA012400251F4B186AC0
:10352800596A00196941186259623432137812785D
:1035380052B2002A03DA19490A6801320A605A06A7
:1035480003D516494A6801324A609A0603D51349D9
:103558008A6801328A60DA0603D51049CA680132DE
:10356800CA601A0703D50D490A6901320A615A0768
:1035780003D50A494A6901324A619B0703D5074ABC
:10358800936901339361760603D5044AD3690133FD
:10359800D36170BD05020020D0010020C0000020CA
:1035A80010B50A4B0A4C9B6822689A4203D2012044
:1035B800FFF770FE10BDFFF7D9FD00237F21054AF4
:1035C800236013780B401370F4E7C0468001002095
:1035D800C00000200402002010B50A4B0A4CDB682A
:1035E80062689A4203D20120FFF754FE10BDFFF72C
:1035F800BDFD00234021054A636013788B43137097
:10360800F4E7C04680010020C0000020040200202A
:1036180010B50A4B0A4C1B69A2689A4203D20120D2
:10362800FFF750FE10BDFFF7B3FD00232021054A28
:10363800A36013788B431370F4E7C0468001002021
:10364800C00000200402002010B50A4B0A4C5B6938
:10365800E2689A4203D20120FFF74EFE10BDFFF741
:10366800A9FD00231021054AE36013788B431370EA
:10367800F4E7C04680010020C000002004020020BA
:1036880010B50A4B0A4C9B6922699A4203D2012061
:10369800FFF74AFE10BDFFF79DFD00230821054AEC
:1036A800236113788B431370F4E7C0468001002030
:1036B800C00000200402002010B50A4B0A4CDB6948
:1036C80062699A4203D20120FFF746FE10BDFFF758
:1036D80091FD00230421054A636113788B4313701D
:1036E800F4E7C04680010020C0000020040200204A
:1036F80010B50A4B0A4C1B6AA2699A4203D20120F0
:10370800FFF742FE10BDFFF785FD00230221054AA1
:10371800A36113788B431370F4E7C046800100203F
:10372800C000002004020020002000210022084BD5
:103738001862596201211A605A609A60DA601A6147
:103748005A619A61DA61034A13788B4313707047A0
:10375800C00000200002002070B5104D104CEA692E
:10376800E3699A4203D20120FFF758FE70BDA169B0
:103778005B189A4205D2FFF77DFD0120FFF734FE62
:10378800F4E7FFF767FDFFF775FD002340223534A6
:10379800EB61237893432370E8E7C046C00000201C
:1037A800D001002010B5424C01202200414B30329C
:1037B8001B7812785BB202423BD1002B01DAFFF78B
:1037C800EFFE230034331B785B0601D5FFF704FFB7
:1037D800230034331B789B0601D5FFF719FF23001C
:1037E80034331B78DB0601D5FFF72EFF2300343373
:1037F8001B781B0701D5FFF743FF230034331B78E1
:103808005B0701D5FFF758FF230034331B789B076C
:1038180001D5FFF76DFF230035331B787F2B01D9C6
:10382800FFF714FE353423785B0601D5FFF794FFC4
:1038380010BD002B2ADAFFF72DFD230034331B7847
:103848009B0626D50120FFF73DFD230034331B7866
:10385800DB0621D50120FFF74FFD230034331B7809
:103868001B071CD50120FFF75FFD230034331B78AD
:103878005B0717D50120FFF76FFD230034331B7852
:103888009B0712D50120FFF77FFDC4E7FFF76EFC09
:10389800D3E7FFF77DFCD8E7FFF78CFCDDE7FFF700
:1038A80099FCE2E7FFF7A6FCE7E7FFF7B3FCB2E70E
:1038B800D00100200402002010B5074C0821206028
:1038C80003F080F90421206803F07CF900212068C6
:1038D80003F078F910BDC046E8000020002803D1A5
:1038E800144B1B681B68D863002903D1114B1B6854
:1038F8001B689963002A03D10E4B1B681B685A6327
:10390800002805D00B4B80001B6801381B68D86362
:10391800002905D0074B89001B6801391B6899638A
:10392800002A05D0034B92001B68013A1B685A63B2
:103938007047C046E8000020034B044A1A62044A54
:103948005A6200221A857047EC0000200300FF002D
:1039580000FFFF0F70B5802300250C4C0C4E29008A
:103968009B02A0601422300023602571203604F0E9
:10397800EDF929000A22074804F0E8F93570658551
:10398800E58525636563A563E56370BDEC000020EC
:10399800F80000200C01002070B5812300250B4E93
:1039A8000B4C29005B04142230002360257120365B
:1039B80004F0CCF929000A22064804F0C7F935704A
:1039C8006585E5852563656370BDC046F800002000
:1039D800EC0000200C010020AF210A4A10B5138822
:1039E80089008B4204D2013313800023D38510BD94
:1039F800D38D01339BB2D3858B42F8D3FFF7CCFF2D
:103A0800F5E7C046EC000020094B02689A420AD14B
:103A18000849094A0B780133DBB2092B04D80B702B
:103A280000232C3213707047002353851371F7E776
:103A38000054004016010020EC000020454B0268AD
:103A4800D0B59A4200D084E0434A444C13780133FD
:103A5800DBB21370132B00D878E0E08FFCF766FF19
:103A6800FEF7E8FC3E4A3F4BFDF720FE0600208BA0
:103A78000F00FCF70FFFFEF7DDFC3B4A3B4BFDF761
:103A880015FE02000B0030003900FCF791FFFCF72F
:103A9800E1FBE087208FFCF749FFFEF7CBFC304ABB
:103AA800304BFDF703FE0600608B0F00FCF7F2FEBB
:103AB800FEF7C0FC2C4A2D4BFDF7F8FD02000B0069
:103AC80030003900FCF774FFFCF7C4FB2087608FD7
:103AD800FCF72CFFFEF7AEFC214A224BFDF7E6FD72
:103AE8000600A08B0F00FCF7D5FEFEF7A3FC1E4ACC
:103AF8001E4BFDF7DBFD02000B0030003900FCF720
:103B080057FFFCF7A7FB6087A08FFCF70FFFFEF7B6
:103B180091FC134A134BFDF7C9FD0600E08B0F001B
:103B2800FCF7B8FEFEF786FC0F4A104BFDF7BEFD0A
:103B38000B00020039003000FCF73AFFFCF78AFB63
:103B48000023238063850133A087237100232C344D
:103B58002370D0BD0054004016010020EC00002066
:103B6800666666666666E63F333333333333D33F80
:103B780037B5012580210A4B0A4A1B780A4CD25CCA
:103B88000C331B19019500930A432B00A0682E39AA
:103B980001F010F923002B342C331D70257037BD2C
:103BA80016010020187E0008EC000020254B1A8B17
:103BB800D878DA865A8B1A869A8B5A86DA8B9A863E
:103BC80001283DD15A1C197BD27F914237D19A1CCA
:103BD800597BD27F914232D1DA1C997BD27F9142B4
:103BE8002DD11A1DD97BD27F914228D15A1D197C1B
:103BF800D27F914223D19A1D597CD27F91421ED106
:103C0800DA1D997CD27F914219D11A000832D97CE9
:103C1800D27F914213D11A002832197D127891422D
:103C28000DD11A002932597D1278914207D19B7D16
:103C38000020442B03D04D3B5A1E9341D8B2704705
:103C48000020FCE7EC00002010B5084CA378022BFC
:103C580004D1013BE370FFF76FFE02E0E378012B2C
:103C6800F9D0FFF7A3FFA07010BDC046EC000020FC
:103C7800AF2337B52D4C9B0022889A4204D32300EA
:103C88002A331B78002B04D023002B331B78012BFD
:103C980007D123002C331B782279134301D1FFF776
:103CA80067FFFFF7D1FFA278012A04D123002A3346
:103CB8001B78002B04D023002B331B78022B31D127
:103CC80025002C352B78002B16D12379012B13D105
:103CD800220080202A321178154A0193525C203143
:103CE8006118009102435221A06800F0FDFF0223F1
:103CF8002B342B70237037BD002A04D123002A33BC
:103D08001B78002B04D023002B331B78022BF2D115
:103D180023002C331B78002BEDD12279012AEAD11C
:103D28002371E8E7002AE9D0E5E7C046EC00002067
:103D3800187E0008024B9878434258417047C046A5
:103D4800EC00002030B5054C258F0580608F088079
:103D5800A18F1180E28F1A8030BDC046EC00002090
:103D6800F0B5012589B01422002103A803F0EEFF65
:103D78000221FE261B4B1C4F5A6B38002A435A63FC
:103D88005A6BB6002A400092009A5A6B00240A43E4
:103D98005A635A6B0A400192019A5A6B06310A43D8
:103DA8005A635B6B00220B4002930431029B00F0C4
:103DB800AFFE002231000D4800F0AAFE0C233800A7
:103DC80003A9039304950594069400F0EFFD0748B2
:103DD80003A9039604950594069400F0E7FD09B03D
:103DE800F0BDC04600100240000C00500004005016
:103DF80010B5134B134C01222360134B2000636052
:103E08000023E260A36023616361A361E36123622D
:103E180000F00CFF002801D000F026FA0021200055
:103E280001F02CFE002801D000F01EFA002120002D
:103E380001F04AFE002801D000F016FA10BDC04675
:103E4800005400402C010020583D500030B50400BB
:103E58008FB01422002103A803F078FF1822002154
:103E680008A803F073FF1C4B22689A4231D1202323
:103E780008A8089302F09AF9002801D000F0F4F994
:103E88000122164CA020636B002513436363636B08
:103E980003A913400193019BC023DB000393122362
:103EA800C00504930C3B07930595069500F07EFD2D
:103EB8008022E36B92031343E363E36B1720134001
:103EC80002932A002900029B00F0B8FB172000F09B
:103ED800DFFB0FB030BDC046005400400010024068
:103EE80000B593B03422002105A803F02FFF00216C
:103EF800102201A803F02AFF8020800001F008FEAC
:103F080002230593FE3340220893002305A8099352
:103F18000A920C9301F028FE011E01D072B6FEE74A
:103F2800072302900390049001A8019302F07CF803
:103F3800002801D072B6FEE713B000BD044B054A55
:103F48001A6002221A71044AD2785A717047C04620
:103F580080010020AA550000D00100203C4B5A796E
:103F68003C4B602A51D026D8302A44D015D8102A84
:103F780017D0202A3BD0384A7C215A82374A4942F6
:103F88005A61374A9A61374ADA61FA221A629A62A2
:103F980035331A780A431A707047402A30D0502AAD
:103FA800E9D1FA22D2005A60C8229A600022DA6067
:103FB8001A82013A32E0902A3FD010D8702A30D0C5
:103FC800802AD8D1FA2292005A60274A9A6064223D
:103FD800DA60DC22FF321A82DD3AFF3A1EE0A02ABC
:103FE80001D0FF2AC7D1FA2292005A60DDE7C82221
:103FF8005A601E4AD9E7962252005A60963AD4E788
:10400800FA22D2005A601A4ACFE71A4A5A601E2288
:104018009A600022DA6078321A82793A1A809A70A5
:10402800A9E7154A5A60154A9A606422DA60A532EF
:10403800FF321A8201225242F0E7FA2292005A60B5
:104048000F4A9A600022DA6091229200F1E7C04696
:1040580080010020D00100201405000090650000B8
:10406800D8D60000102700001900C800C800C800F2
:10407800C8002C01DC050000F4016400640037006E
:104088006400640014220E4B0E49988850438860DF
:10409800D8885043C86018895043086158895043EC
:1040A8004861988950438861D8895043C861188A03
:1040B800303342430A62022219780A431A70704761
:1040C800D001002080010020102210B5044BDA70C6
:1040D800FFF734FFFFF742FFFFF7D4FF10BDC046DC
:1040E800D0010020F8B500F083FAFFF7F9FEFFF7DA
:1040F80037FEFFF77DFE00F069F900F0D1F93B4E7D
:104108000A2231003A48FFF723F8FFF7DDFF394864
:10411800FFF720FC3848FFF7CFFB3848FEF7DCFCF8
:104128000020FFF7B7F80020FFF7CCF80020FFF7D2
:10413800E3F80020FFF7F8F80020FFF70DF900205A
:10414800FFF722F90020FFF737F90020FFF74CF9B5
:104158000020FFF763F92A4C0225A27861782078BD
:10416800FFF7BCFB270030373B782B4207D00A22E9
:1041780031001F48FEF7BEFF3B78AB433B70FFF7AB
:1041880077FDFFF7D7FD2200431E984135324300E3
:1041980010780127A84318431070284220D0194BE3
:1041A800194A1A491A48FFF7CDFD2200343213780C
:1041B8003B4207D0606A216A884203D3BB4313702D
:1041C8000023636222002021353213780B4207D086
:1041D800E76AA06A874203D38B4313700023E36224
:1041E800FEF76CFFFFF7DEFABCE7C046800100204F
:1041F80000F800082C0100201802002064020020AA
:10420800D0010020100200200E0200200C02002025
:104218000A02002010B504241149124B0A782242E0
:104228000BD096205A8EC000013292B25A86824232
:1042380003D30A785886A2430A701A0035321278D6
:1042480091070CD5190034310978C90702D5596A84
:1042580001315962920602D5DA6A0132DA6210BD7A
:1042680005020020D001002072B6FEE701210A4BAA
:1042780082B01A6C0A431A641A6C0A4080210092B0
:10428800009ADA6B49050A43DA63DB6B0B4001934A
:10429800019B02B07047C04600100240FEE7FEE7EF
:1042A8007047704710B50120FFF756F8FFF794FBE9
:1042B800FEF78EFEFFF728F9084C23780133DBB2AE
:1042C8002370642B03D9FFF7A5FF0023237000F0A8
:1042D800A3F90020FFF740F810BDC04614020020E3
:1042E80010B5024802F02AF910BDC0461802002095
:1042F800064810B503689A69E023DB001A4202D029
:1043080001F086F910BD00F0B7FDFBE72C01002095
:1043180010B5024802F0F2FD10BDC046640200204C
:104328007047000007B50B4B02689A4210D1022172
:10433800094B1020DA6B0A43DA630022DB6B0B406F
:1043480001931100019B00F079F9102000F0A0F909
:1043580007BDC046000400400010024030B504000C
:1043680089B01422002103A803F0F0FC144B226842
:104378009A4223D101240225124BA0205A6B03A98B
:1043880022435A635A6BC00522400192019A5A6B24
:104398002A435A635B6B04952B400293029BC0230C
:1043A8000794039300F002FB0023074803A9039432
:1043B800049505930693079400F0F8FA09B030BD08
:1043C80000040040001002400004005030B58FB0D7
:1043D8001022002103A803F0B9FC0C220021684632
:1043E80003F0B4FC1C22002107A803F0AFFC294C01
:1043F800294B2A4D2360002320006360A360E560F9
:104408002361A36102F08CF9002801D0FFF72CFF8B
:10441800802320005B0103A9039302F0A3FA00287C
:1044280001D0FFF721FF200002F0A4F9002801D0F5
:10443800FFF71AFF0023694620000093029302F059
:10444800C5FB002801D0FFF70FFF002260232000E2
:1044580007A90793089509920B9202F0F1F9002831
:1044680001D0FFF701FF0422200007A902F0E8F9B4
:10447800002801D0FFF7F8FE0822200007A902F063
:10448800DFF9002801D0FFF7EFFE2000FFF766FFF5
:104498000FB030BD1802002000040040FF030000E8
:1044A8000D480E4B10B5036096239B010021436015
:1044B8000C230A0043610B008160C16001618161C6
:1044C800C16101624162816203F0E4FB002801D00E
:1044D800FFF7CAFE10BDC046640200200044004039
:1044E80010B5040088B01422002103A803F02EFCA4
:1044F800144B22689A4223D18021134B8902DA6B2C
:10450800A0200A43DA63DA6BC0050A400192019AD7
:104518000122596B114359635B6B03A91340029342
:10452800029B0E2303930C3B0493079200F03EFA80
:1045380000221C20110000F081F81C2000F0A8F8CF
:1045480008B010BD00440040001002400D488546E8
:10455800FFF7E6FE0C480D490D4A002302E0D45847
:10456800C4500433C4188C42F9D30A4A0A4C0023B5
:1045780001E013600432A242FBD303F0EFFBFFF724
:10458800B1FDFEE7002000200000002044000020CC
:10459800B07E00084800002018030020FEE7000055
:1045A80070B5104B05001978002901D1012070BDA4
:1045B800FA208000FBF7AAFD0B4C01002068FBF7EE
:1045C800A5FD00F071F8041EF0D1032DEED802000D
:1045D80001202900404200F031F8044B20001D6002
:1045E800E5E7C04604000020000000200800002085
:1045F8008023084A5B00116810B50B430320136041
:10460800FFF7CEFF041E03D1FFF730FE200010BDD8
:104618000124FBE700200240034A044B11681B7881
:104628005B1813607047C046F802002004000020A1
:10463800014B18687047C046F802002010B5FF24E7
:1046480003220B0021000240D20091409B0123402D
:10465800C943934000280ADBC0240B4A8008800025
:104668008018A40002590A401343035110BD0F22B9
:1046780010400838054A800880008018C269114037
:104688001943C161F2E7C04600E100E000ED00E037
:10469800002805DB1F2318401E3B8340014A136096
:1046A8007047C04600E100E08022431E520401200A
:1046B80093420DD2C021074A07485360036A09068E
:1046C8001B021B0A0B430362002007239060136040
:1046D8007047C04610E000E000ED00E0F0B50028AB
:1046E80008D0841DE37F411D022B05D00423C3633A
:1046F8000023CB770120F0BD0E250268466C1368B5
:10470800AB4313603368104D2B40336001231668A8
:104718009E431660026C1B331A401B3B93400B4EA2
:1047280077683B437360C26C836C5A60036D002BDF
:1047380005D01A682A401A60436D826D5A600123B9
:104748000020E377C877D6E7FFFEFFFF00000240AE
:10475800F8B5811DCB7F022B03D00423C36301204E
:10476800F8BD0E2402681C271368456CA343136028
:10477800012314689C4314602A68104C22402A6064
:10478800026C0F4D3A4093406E6833436B60C26CC5
:10479800836C5A60036D002B05D01A6822401A609A
:1047A800436D826D5A6001230022CB77431DDA776F
:1047B800836B934200D098470020D1E7FFFEFFFFAC
:1047C800000002400630C07FC0B270470020054B91
:1047D8005A69824205DA044A9A60044A9A6058691A
:1047E800C00F70470020024023016745AB89EFCD19
:1047F800014B58687047C046FC020020F8B5040019
:10480800FFF716FF802706007F02144D2B693B42F5
:1048180016D12A69124B11001248194028611A4210
:1048280017D18027FF022B69180038403B420FD070
:10483800631CF8D0FFF7FCFE801BA042F3D306E010
:10484800631CE3D0FFF7F4FE801BA042DDD30320F6
:10485800F8BD054B01205960FAE7C0460020024028
:10486800FA830000FB830000FC020020F7B5174E16
:104878000193337804000D0002200092012B1ED012
:104888000123FA203370002380007360FFF7B6FF1E
:10489800002812D10E4F012C12D17B6923437B6172
:1048A800009B2B60BFF36F8F019B6B60FA20800029
:1048B800FFF7A4FF7B69A3437B6100233370FEBD30
:1048C8002800009903F07CFAF0E7C046FC020020BB
:1048D80000200240FA2010B58000FFF78FFF8022E9
:1048E800044B120659690A435A615869C043C00FFC
:1048F80010BDC04600200240044A05485369C9005B
:1049080003401943034B0B43536170470020024097
:1049180007E0FFFF02000100F7B5214F05003B78D3
:1049280002240191012B1AD00123FA203B700023A5
:1049380080007B60FFF762FF041E0ED104236B60CA
:104948002B68042B0DD1FA20164A174B51698000A9
:104958000B435361FFF752FF040000233B70200014
:10496800FEBD0123019A5B421360AE68AB68EA683A
:104978009B18B3420CD968683100FFF7BDFFFA20D5
:104988008000FFF73BFF002808D00400019B1E6051
:104998000221044A53698B435361DEE70136E5E798
:1049A800FC02002000200240040001000023F0B5B2
:1049B80085B00A681400DC4001D105B0F0BD0125BE
:1049C80014009D402C4000942A4200D191E04A688E
:1049D8005F0094460322644622400324BC40E4431B
:1049E8000194541E012C2ED88668019C2640CC6860
:1049F800BC403443846044680126AC4325006446C7
:104A0800240934409C402C434460C568019C2540DF
:104A18008C68BC402C43C460022A16D107250F2697
:104A28001D40AD00AE40DC08A40004190294246ABD
:104A380003962600039CA64334000E69AE40264325
:104A4800029C266201E0032ADFD1BA400468019D76
:104A580025402A43C02402606246A402224248D06C
:104A6800254A03259C08A400A4180F221D40ED0028
:104A7800AA40A027266EFF0596430022B8420CD014
:104A88001E4F0132B84208D01D4F0132B84204D03F
:104A98001C4F0332B84200D1023AAA40674632435B
:104AA8002266154C009A2668009DD2433543FF02C2
:104AB80001D435001540674625606668009D35437A
:104AC800BF0201D435001540674665600E4C009D55
:104AD800E66F3543BF0301D4350015406746E567E7
:104AE8000A4C009EE56F2E43FF0301D415402E00AB
:104AF800E66701335DE7C046001802400004005035
:104B080000080050000C0050081802400418024029
:104B1800002A01D0816170478162FCE703689A69C5
:104B2800920701D500229A6201229969114202D1A5
:104B380099690A439A61704730B5039C006823431A
:104B4800120489051A43890D054B45680A43640D0B
:104B5800234352009D4352082A43426030BDC04659
:104B6800FF63FF0310B5436B1B4C0AB2A3421ED070
:104B78001A4CA3421BD01A4CA34218D000239A42C5
:104B880000DAB833CA0701D5F22213438A0701D5E0
:104B9800F4221343102906D19022134301680A68AE
:104BA80013430B6010BD2029F8D10B43F6E700230F
:104BB8009A4200DAB833CA0701D5F22213438A07AA
:104BC80001D5F42213431029E6D0202901D160220F
:104BD800E3E74029E9D0E1E7F55300084158000828
:104BE80099520008002310B5CA0708D503004133BD
:104BF8001A7828231A40CA33282A00D1B03B8A07DA
:104C080008D502002824413212782240A2420BD152
:104C18004422134309B2002901DAB8221343016878
:104C28000A689A430A6010BDF422F2E770B50400DE
:104C38000120002C4ED0250041352B78DAB2002B0C
:104C480005D12300403320001A70FFF7FFF8242312
:104C580001212B702368E0681A68A6688A431A60E5
:104C68001D4962680A401A619A681C490A409A609C
:104C7800012807D18022120232439A605A681848E4
:104C8800024009E08422120232439A600228F5D1D8
:104C980080225868120102435A605868114A024338
:104CA8005A60DA6800200A40DA60616922690A43BA
:104CB800A16909020A43DA60216AE2690A431A60B3
:104CC800012219680A431A60202360642B7020634C
:104CD8004234207070BDC046FFFFFFF0FF7FFFFF2A
:104CE800FFF7FFFF00800002F0B5060087B00393CE
:104CF8000CAB029204CB41361B880492059333789F
:104D080004000220202B08D1002A02D0059B002B8A
:104D180005D1802301209B00636407B0F0BD2368A0
:104D2800802798693F0284460500624602203D407C
:104D38003A42F2D1270040373A78012AEDD00138BB
:104D480038702030307020004026049A42300670B7
:104D58006262059A65646285134A2585E262134A90
:104D6800E16462636A46107A039A012A16D198624E
:104D780001235B4223656B461A7B0D4B2000009391
:104D880080235B04FFF7D8FE230000254033200072
:104D980001211D70FFF7E6FE2800BEE7029A120AFD
:104DA8009A622065E7E7C0460000FFFFFD5400084F
:104DB80000200080F0B5060087B003930CAB20CB31
:104DC80002921B8841360493337804000220202B7A
:104DD80008D1002D02D0049B002B05D1802301208F
:104DE8009B00636407B0F0BD2368802798693F0281
:104DF800844662463840059002203A42F2D12700A4
:104E080040373A78012AEDD00138387021303070B7
:104E180020004026059A423006706264049A656252
:104E28006285124AE262124AE16462636A46107A53
:104E3800039A012A15D1986201235B4223656B46C8
:104E48001A7B0C4B200000930023FFF775FE23000C
:104E580000254033200001211D70FFF783FE280044
:104E6800C0E7029A120A9A622065E8E70000FFFF8D
:104E7800FD54000800200080036810B599691A687D
:104E8800436B002B00D0984710BD70477047030054
:104E980070B500252022060042331D70013B1978A9
:104EA800040040361A7021290AD11123456303638F
:104EB8002039FFF797FE20003570FFF7E6FF70BD39
:104EC8001223456303630221FFF78CFE200035702F
:104ED800FFF7DCFFF3E77047704700000100036845
:104EE80010B5040000201A6842310870510418D522
:104EF8001A6818490A401A60230041331A78292A87
:104F080014D1013A1A702123200023630121FFF7ED
:104F180069FE23000022403320001A70FFF7DBFFF0
:104F280010BD1204E8D51A680B49E3E71A782A2A53
:104F3800F6D1023A1A702223200023630221FFF7D8
:104F480051FE23000022403320001A70FFF7C4FFEF
:104F5800E6E7C046FFBFFFFFFF7FFFFF7047030084
:104F6800F7B5282241331B780400016813409342A7
:104F78003CD1FE278D698E698B68CA68ED03019262
:104F8800C268360CED0F3E40022A25D19B059A0DCA
:104F98005B0F7340180006263040334210D1A36CD3
:104FA8000133A364A36C022B09D19B19A064CB61C4
:104FB80023004033187029002000FFF7CFFFF7BD0A
:104FC800802120000902FFF70DFE23000022403354
:104FD8001A70019A3A40EEE780210902FFF702FEB3
:104FE8002300002240331A703200E4E70823CB6123
:104FF800002340342370E2E770470000184B10B5D7
:10500800C3620023020003630400202041321070B1
:10501800537004226363114212D02368596A636A89
:105028001970636A01336362238D002B08D0013B3A
:105038002385638D013B9BB26385636C1A4362646D
:1050480020000849FFF7CEFD102223682000DA610E
:105058002300002240331A70FFF7CEFF10BDC04670
:105068000000FFFF03800000704770470100020046
:1050780010B541310C7800234032602C06D1403CF9
:105088000C7003631370FFF7F0FF10BD0363137018
:10509800FFF7EAFFF9E7000070B5050000220400F9
:1050A800413542302B7802703A48283BE0626285ED
:1050B800626C0A436264022B2BD803212000FFF79D
:1050C80091FD28232B70344BA06B6363236B00285E
:1050D80040D01A001021113A8A433BD123681A683C
:1050E800520403D51A682D490A401A60FFF76AFB73
:1050F80001282BD0A06B2A4B002283632300403366
:105108001A70FFF725FB002823D0A06B836B984704
:105118001FE020002349FFF765FD2000FFF7FEFC94
:105128002B78602B10D020222A70236899691142AD
:105138000AD09969103A114204D0DA61616C0C3ACC
:105148000A4362642022DA610023BDE72000FFF7EA
:105158008DFF70BDE06B0028F8D01022123B9343FE
:10516800F4D123681A68120403D51A680E490A4054
:105178001A60FFF727FB0128E8D0E06B084B0022F4
:105188008363230040331A70FFF7E2FA0028E0D067
:10519800E06BBBE70000FFFF49590008FFBFFFFFB6
:1051A800655A000803800000FF7FFFFFF7B5202342
:1051B800050006684135F3612B7804000F00212BA8
:1051C8002BD10121FFF70EFD1123236373682E4AAB
:1051D80013407360002363632C4BE36210231F4268
:1051E80004D0F361626C0C3B134363642B78602B2F
:1051F80005D17F0703D5736ADBB20193019B2000B9
:10520800FFF78CFC636C2A78602A01D0002B0CD045
:105218002000616CFFF740FFF7BD2B78222BD5D11A
:105228000221FFF7DFFC1223CFE72A78212A13D1C6
:10523800013A2A702200210023634232107840315B
:1052480013700B70402803D12000FEF7DDFBE3E765
:105258002000FFF71AFEDFE72A78222ADCD1023A7B
:105268002A702200210023634232107840311370E3
:105278000B70402803D12000FEF7E0FBCCE72000AC
:10528800FFF704FEC8E7C04600E800FE0000FFFF85
:1052980073B5050040352B7804000220012B15D08A
:1052A80001232B700F33194211D01A420FD02268F4
:1052B8002000D361626C0C3B134320216364FFF729
:1052C80051FC2000FFF72AFC0020287076BD02233D
:1052D800194208D01A4206D02368226D9A62012327
:1052E8005B422365F0E740260B063BD5324239D0B6
:1052F80001212000FFF776FC10212000FFF732FC87
:10530800638D002B29D0638DFF2B1BD90023FF222F
:10531800E16C22850093802389B25B042000FFF7AB
:105328000BFC638D228D9B1A9BB26385230041334E
:105338001A7823681968222A47D1802212020A4360
:105348001A60C1E70023628DE16C92B22285009356
:105358008023D2B289B29B04E0E731002000FFF736
:105368009BFEB1E7314233D0324231D026000121D1
:105378002000FFF737FC413610212000FFF7F2FB31
:105388003378223B5A425341174A9B029B18628D3D
:10539800FF2A10D9FF22E16C22850093802389B26D
:1053A8005B042000FFF7C8FB638D228D9B1A9BB21C
:1053B80063853278BDE7628DE16C92B222850093F5
:1053C8008023D2B289B29B04EBE78022D201B6E7F0
:1053D8002023194200D177E71A4200D174E7200050
:1053E800FFF7E4FE70E7C04600200080F7B506002E
:1053F8004036337804000220012B15D00123337086
:105408000F33194211D01A420FD022682000D361FD
:10541800626C0C3B134320216364FFF7A3FB20005D
:10542800FFF77CFB00203070FEBD4023080641D505
:105438001A423FD025682A689A432A60638D002B58
:105448002CD06968638D8905890DFF2B18D9FF2336
:10545800238580235B040020278D0090FAB220006A
:10546800FFF76AFB638DDB1B9BB2638541342378AE
:105478002A68222B0FD180231B0213432B60D1E70C
:10548800638DE26A23851A4B9A4201D0E36AE2E708
:1054980080239B04DFE78023DB01EEE76B689B0139
:1054A80003D42000FFF7F3FCBCE740212000FFF7FE
:1054B800F3FDB7E7194212D01A4210D0638D002BC2
:1054C800F3D1226853689B01ACD4E16A084B994236
:1054D800E7D180235168DB010B435360A2E7202307
:1054E80019429FD01A429DD02000FFF75FFE99E72E
:1054F8000000FFFFF7B5070040373B7804000D00B8
:1055080016000220012B1AD001233B700F331942D9
:1055180016D01A4214D022682000D361626C0C3B6A
:1055280013436364FFF7FAFA20231D4205D01E4295
:1055380003D029002000FFF739FE00203870FEBD97
:1055480004231D4211D01E420FD09D4323685A6A7E
:10555800636A1A70636A01336362238D013B238592
:10556800638D013B9BB26385DEE702231D420FD0AA
:105578001E420DD0236D2268013303D1636A197866
:105588009162E8E7236D936201235B422365CBE7D1
:1055980040232A061AD51E4218D0638D002B10D03E
:1055A800238D002B0DD1628DFF2A25D9FF22E16CB6
:1055B80022850093802389B25B042000FFF7BCFAA0
:1055C800B2E740212000FFF767FDADE71D42ABD0F1
:1055D8001E42A9D001212000FFF704FB0221200070
:1055E800FFF7C0FA230041331B78223B5A4253414C
:1055F800064A9B029B18D6E7628DE16C92B222851F
:1056080000938023D2B289B29B04D6E700200080A1
:1056180070B5802503686D0099691A68294206D01B
:10562800140604D50124466C34434464DD618025A6
:10563800ED00294206D0140604D50824466C3443EC
:105648004464DD618024A400214206D0120604D5FA
:105658000222416C0A434264DC610B23416C19420B
:1056680001D0FFF719FD70BDF7B5060020220568C7
:1056780041362B6804000093C36A0F000193337806
:10568800EA61D8B2212B09D0223808280CD8FAF7B9
:1056980033FD680B0B0B0B0B6E05680020005E4991
:1056A800FFF7A0FA2123236380226B6812021343B9
:1056B8006B606B68594A200013406B60FFF72EFA45
:1056C800009B5B0459D52B68554A13402B60A36B8C
:1056D800002B03D01B685B689BB263857B0710D5E2
:1056E800636A6A6A1A70636A01336362238D002BE6
:1056F80005D0013B2385638D013B9BB26385042361
:105708009F43638D002B03D00423626C13436364AF
:1057180010231F4211D0009A1A420ED0628D002A1F
:1057280049D13378282B33D18023019A9B049A429C
:105738002ED139002000FFF761FC230000224233FC
:105748001A70656C6263954244D02000616CFFF763
:10575800A3FC3378282B03D139002000FFF74EFC37
:10576800F7BD20002F49FFF73DFA22239BE72000D1
:105778002D49FFF737FA002395E78022009B120294
:105788001342ABD02B68294A13402B60E36B9FE789
:1057980031781022236829290BD12549019888429C
:1057A80007D02000DA61FFF7B9F92000FFF796FB70
:1057B800C3E7DA61C1E72268D3610423626C13434B
:1057C8006364019A1B4B1A42B7D12000616CFFF742
:1057D80063FCB2E72700E36A154A403793420CD0CE
:1057E8002000FFF77BFB2023114A2000E262337080
:1057F80025633D70FFF700FCB2E7202332782000D4
:10580800337025633D70222A02D1FFF765FBA7E7B5
:10581800FFF761FBA4E7C0460180000000E800FE36
:10582800FFBFFFFF0280000003800000FF7FFFFF33
:105838000000FFFFFFFFFFFEF8B5050040352B789D
:105848000400C66A0220012B0BD001232B701F33E2
:10585800194207D01A4205D02000FFF705FF0020A3
:105868002870F8BD102319425CD01A425AD0C020C3
:105878000002024253D0E06B031E09D080271300B8
:105888003F023B403A4203D003685B6858424341B9
:105898002000A76B4130002F05D0520403D53A6889
:1058A8005268002A01D0012B1AD10378282B07D17E
:1058B80080239B049E4203D12000FFF79FFBCEE785
:1058C800102201782368DA612929C8D11A498E4241
:1058D800C5D02000FFF722F92000FFF7FFFABEE746
:1058E80010222368DA610423626C1343636400782E
:1058F800124BC0B21E42B2D12138092808D8FAF793
:10590800FBFB050C070707070707050C2123236383
:105918002000616CFFF7C0FBA1E72223F7E72268AC
:10592800D3619CE70823194299D01A4297D02000E6
:10593800FFF715FB93E7C0460000FFFFFFFFFFFEE0
:1059480070B5050040352E780400C36A0220012E88
:105958000BD0013828701F30014207D0024205D011
:105968002000FFF781FE0020287070BD1020014242
:105978002FD002422DD0628D002A1CD12200413244
:105988001078282807D180208004834203D1200082
:10599800FFF734FBE7E7102110782268D161292846
:1059A800E1D12C488342DED02000FFF7B7F8200071
:1059B800FFF794FAD7E72268D0610422616C0A43A2
:1059C8006264254A1342CED12000616CFFF764FB64
:1059D800C9E70420014219D0024217D0628D002A7B
:1059E8000DD02268516A626A1170626A013262627D
:1059F800228D013A2285628D013A92B26285628DCA
:105A0800002AB0D1134A9342ADD0D0E70820014212
:105A180005D0024203D02000FFF7A1FAA3E7022035
:105A28000142A0D002429ED0628D002A0DD0636A46
:105A380022681978013391626362638D013B9BB2DE
:105A48006385238D013B23858DE7034A134200D0EC
:105A580089E7ACE70000FFFFFFFFFFFE806A10B593
:105A6800836B002B01D000229A63C36B002B01D0FB
:105A780000229A63FFF7FAFA10BD0000F0B504009F
:105A88004134227803000F000220D6B2202A18D110
:105A98001D0040352A78012A13D0242222701B6861
:105AA800233A196807489143196019680140002092
:105AB800196019683943196019680A431A60267011
:105AC8002870F0BDFFEFFFFF0200F0B541321478F7
